{
  "_format": "hh-sol-artifact-1",
  "contractName": "YieldTokenV2",
  "sourceName": "contracts/upgrades/YieldTokenV2.sol",
  "abi": [
    {
      "inputs": [],
      "stateMutability": "nonpayable",
      "type": "constructor"
    },
    {
      "inputs": [
        {
          "internalType": "address",
          "name": "target",
          "type": "address"
        }
      ],
      "name": "AddressEmptyCode",
      "type": "error"
    },
    {
      "inputs": [
        {
          "internalType": "address",
          "name": "implementation",
          "type": "address"
        }
      ],
      "name": "ERC1967InvalidImplementation",
      "type": "error"
    },
    {
      "inputs": [],
      "name": "ERC1967NonPayable",
      "type": "error"
    },
    {
      "inputs": [
        {
          "internalType": "address",
          "name": "spender",
          "type": "address"
        },
        {
          "internalType": "uint256",
          "name": "allowance",
          "type": "uint256"
        },
        {
          "internalType": "uint256",
          "name": "needed",
          "type": "uint256"
        }
      ],
      "name": "ERC20InsufficientAllowance",
      "type": "error"
    },
    {
      "inputs": [
        {
          "internalType": "address",
          "name": "sender",
          "type": "address"
        },
        {
          "internalType": "uint256",
          "name": "balance",
          "type": "uint256"
        },
        {
          "internalType": "uint256",
          "name": "needed",
          "type": "uint256"
        }
      ],
      "name": "ERC20InsufficientBalance",
      "type": "error"
    },
    {
      "inputs": [
        {
          "internalType": "address",
          "name": "approver",
          "type": "address"
        }
      ],
      "name": "ERC20InvalidApprover",
      "type": "error"
    },
    {
      "inputs": [
        {
          "internalType": "address",
          "name": "receiver",
          "type": "address"
        }
      ],
      "name": "ERC20InvalidReceiver",
      "type": "error"
    },
    {
      "inputs": [
        {
          "internalType": "address",
          "name": "sender",
          "type": "address"
        }
      ],
      "name": "ERC20InvalidSender",
      "type": "error"
    },
    {
      "inputs": [
        {
          "internalType": "address",
          "name": "spender",
          "type": "address"
        }
      ],
      "name": "ERC20InvalidSpender",
      "type": "error"
    },
    {
      "inputs": [],
      "name": "FailedCall",
      "type": "error"
    },
    {
      "inputs": [],
      "name": "InvalidInitialization",
      "type": "error"
    },
    {
      "inputs": [],
      "name": "NotInitializing",
      "type": "error"
    },
    {
      "inputs": [
        {
          "internalType": "address",
          "name": "owner",
          "type": "address"
        }
      ],
      "name": "OwnableInvalidOwner",
      "type": "error"
    },
    {
      "inputs": [
        {
          "internalType": "address",
          "name": "account",
          "type": "address"
        }
      ],
      "name": "OwnableUnauthorizedAccount",
      "type": "error"
    },
    {
      "inputs": [],
      "name": "ReentrancyGuardReentrantCall",
      "type": "error"
    },
    {
      "inputs": [],
      "name": "UUPSUnauthorizedCallContext",
      "type": "error"
    },
    {
      "inputs": [
        {
          "internalType": "bytes32",
          "name": "slot",
          "type": "bytes32"
        }
      ],
      "name": "UUPSUnsupportedProxiableUUID",
      "type": "error"
    },
    {
      "inputs": [
        {
          "internalType": "address",
          "name": "caller",
          "type": "address"
        }
      ],
      "name": "UnauthorizedMinter",
      "type": "error"
    },
    {
      "inputs": [],
      "name": "ZeroAddressMint",
      "type": "error"
    },
    {
      "anonymous": false,
      "inputs": [
        {
          "indexed": true,
          "internalType": "address",
          "name": "owner",
          "type": "address"
        },
        {
          "indexed": true,
          "internalType": "address",
          "name": "spender",
          "type": "address"
        },
        {
          "indexed": false,
          "internalType": "uint256",
          "name": "value",
          "type": "uint256"
        }
      ],
      "name": "Approval",
      "type": "event"
    },
    {
      "anonymous": false,
      "inputs": [
        {
          "indexed": false,
          "internalType": "uint64",
          "name": "version",
          "type": "uint64"
        }
      ],
      "name": "Initialized",
      "type": "event"
    },
    {
      "anonymous": false,
      "inputs": [
        {
          "indexed": false,
          "internalType": "address",
          "name": "account",
          "type": "address"
        },
        {
          "indexed": false,
          "internalType": "bool",
          "name": "status",
          "type": "bool"
        }
      ],
      "name": "MinterSet",
      "type": "event"
    },
    {
      "anonymous": false,
      "inputs": [
        {
          "indexed": true,
          "internalType": "address",
          "name": "previousOwner",
          "type": "address"
        },
        {
          "indexed": true,
          "internalType": "address",
          "name": "newOwner",
          "type": "address"
        }
      ],
      "name": "OwnershipTransferred",
      "type": "event"
    },
    {
      "anonymous": false,
      "inputs": [
        {
          "indexed": true,
          "internalType": "address",
          "name": "to",
          "type": "address"
        },
        {
          "indexed": false,
          "internalType": "uint256",
          "name": "amount",
          "type": "uint256"
        },
        {
          "indexed": true,
          "internalType": "address",
          "name": "minter",
          "type": "address"
        }
      ],
      "name": "TokensMinted",
      "type": "event"
    },
    {
      "anonymous": false,
      "inputs": [
        {
          "indexed": true,
          "internalType": "address",
          "name": "from",
          "type": "address"
        },
        {
          "indexed": true,
          "internalType": "address",
          "name": "to",
          "type": "address"
        },
        {
          "indexed": false,
          "internalType": "uint256",
          "name": "value",
          "type": "uint256"
        }
      ],
      "name": "Transfer",
      "type": "event"
    },
    {
      "anonymous": false,
      "inputs": [
        {
          "indexed": true,
          "internalType": "address",
          "name": "implementation",
          "type": "address"
        }
      ],
      "name": "Upgraded",
      "type": "event"
    },
    {
      "inputs": [],
      "name": "MINT_COOLDOWN",
      "outputs": [
        {
          "internalType": "uint256",
          "name": "",
          "type": "uint256"
        }
      ],
      "stateMutability": "view",
      "type": "function"
    },
    {
      "inputs": [],
      "name": "UPGRADE_INTERFACE_VERSION",
      "outputs": [
        {
          "internalType": "string",
          "name": "",
          "type": "string"
        }
      ],
      "stateMutability": "view",
      "type": "function"
    },
    {
      "inputs": [
        {
          "internalType": "address",
          "name": "owner",
          "type": "address"
        },
        {
          "internalType": "address",
          "name": "spender",
          "type": "address"
        }
      ],
      "name": "allowance",
      "outputs": [
        {
          "internalType": "uint256",
          "name": "",
          "type": "uint256"
        }
      ],
      "stateMutability": "view",
      "type": "function"
    },
    {
      "inputs": [
        {
          "internalType": "address",
          "name": "spender",
          "type": "address"
        },
        {
          "internalType": "uint256",
          "name": "value",
          "type": "uint256"
        }
      ],
      "name": "approve",
      "outputs": [
        {
          "internalType": "bool",
          "name": "",
          "type": "bool"
        }
      ],
      "stateMutability": "nonpayable",
      "type": "function"
    },
    {
      "inputs": [
        {
          "internalType": "address",
          "name": "account",
          "type": "address"
        }
      ],
      "name": "balanceOf",
      "outputs": [
        {
          "internalType": "uint256",
          "name": "",
          "type": "uint256"
        }
      ],
      "stateMutability": "view",
      "type": "function"
    },
    {
      "inputs": [
        {
          "internalType": "address",
          "name": "from",
          "type": "address"
        },
        {
          "internalType": "uint256",
          "name": "amount",
          "type": "uint256"
        }
      ],
      "name": "burn",
      "outputs": [],
      "stateMutability": "nonpayable",
      "type": "function"
    },
    {
      "inputs": [],
      "name": "decimals",
      "outputs": [
        {
          "internalType": "uint8",
          "name": "",
          "type": "uint8"
        }
      ],
      "stateMutability": "view",
      "type": "function"
    },
    {
      "inputs": [
        {
          "internalType": "address",
          "name": "student",
          "type": "address"
        }
      ],
      "name": "getIsStudent",
      "outputs": [
        {
          "internalType": "bool",
          "name": "",
          "type": "bool"
        }
      ],
      "stateMutability": "view",
      "type": "function"
    },
    {
      "inputs": [
        {
          "internalType": "string",
          "name": "_name",
          "type": "string"
        },
        {
          "internalType": "string",
          "name": "_symbol",
          "type": "string"
        },
        {
          "internalType": "address",
          "name": "_adminOwner",
          "type": "address"
        }
      ],
      "name": "initialize",
      "outputs": [],
      "stateMutability": "nonpayable",
      "type": "function"
    },
    {
      "inputs": [
        {
          "internalType": "address",
          "name": "",
          "type": "address"
        }
      ],
      "name": "isMinter",
      "outputs": [
        {
          "internalType": "bool",
          "name": "",
          "type": "bool"
        }
      ],
      "stateMutability": "view",
      "type": "function"
    },
    {
      "inputs": [
        {
          "internalType": "address",
          "name": "",
          "type": "address"
        }
      ],
      "name": "isStudent",
      "outputs": [
        {
          "internalType": "bool",
          "name": "",
          "type": "bool"
        }
      ],
      "stateMutability": "view",
      "type": "function"
    },
    {
      "inputs": [
        {
          "internalType": "address",
          "name": "",
          "type": "address"
        }
      ],
      "name": "lastMintTime",
      "outputs": [
        {
          "internalType": "uint256",
          "name": "",
          "type": "uint256"
        }
      ],
      "stateMutability": "view",
      "type": "function"
    },
    {
      "inputs": [
        {
          "internalType": "address",
          "name": "to",
          "type": "address"
        },
        {
          "internalType": "uint256",
          "name": "amount",
          "type": "uint256"
        }
      ],
      "name": "mint",
      "outputs": [],
      "stateMutability": "nonpayable",
      "type": "function"
    },
    {
      "inputs": [],
      "name": "name",
      "outputs": [
        {
          "internalType": "string",
          "name": "",
          "type": "string"
        }
      ],
      "stateMutability": "view",
      "type": "function"
    },
    {
      "inputs": [],
      "name": "owner",
      "outputs": [
        {
          "internalType": "address",
          "name": "",
          "type": "address"
        }
      ],
      "stateMutability": "view",
      "type": "function"
    },
    {
      "inputs": [],
      "name": "proxiableUUID",
      "outputs": [
        {
          "internalType": "bytes32",
          "name": "",
          "type": "bytes32"
        }
      ],
      "stateMutability": "view",
      "type": "function"
    },
    {
      "inputs": [],
      "name": "renounceOwnership",
      "outputs": [],
      "stateMutability": "nonpayable",
      "type": "function"
    },
    {
      "inputs": [
        {
          "internalType": "address",
          "name": "account",
          "type": "address"
        },
        {
          "internalType": "bool",
          "name": "status",
          "type": "bool"
        }
      ],
      "name": "setMinter",
      "outputs": [],
      "stateMutability": "nonpayable",
      "type": "function"
    },
    {
      "inputs": [
        {
          "internalType": "address",
          "name": "student",
          "type": "address"
        },
        {
          "internalType": "bool",
          "name": "status",
          "type": "bool"
        }
      ],
      "name": "setStudentStatus",
      "outputs": [],
      "stateMutability": "nonpayable",
      "type": "function"
    },
    {
      "inputs": [],
      "name": "symbol",
      "outputs": [
        {
          "internalType": "string",
          "name": "",
          "type": "string"
        }
      ],
      "stateMutability": "view",
      "type": "function"
    },
    {
      "inputs": [],
      "name": "totalSupply",
      "outputs": [
        {
          "internalType": "uint256",
          "name": "",
          "type": "uint256"
        }
      ],
      "stateMutability": "view",
      "type": "function"
    },
    {
      "inputs": [
        {
          "internalType": "address",
          "name": "to",
          "type": "address"
        },
        {
          "internalType": "uint256",
          "name": "value",
          "type": "uint256"
        }
      ],
      "name": "transfer",
      "outputs": [
        {
          "internalType": "bool",
          "name": "",
          "type": "bool"
        }
      ],
      "stateMutability": "nonpayable",
      "type": "function"
    },
    {
      "inputs": [
        {
          "internalType": "address",
          "name": "from",
          "type": "address"
        },
        {
          "internalType": "address",
          "name": "to",
          "type": "address"
        },
        {
          "internalType": "uint256",
          "name": "value",
          "type": "uint256"
        }
      ],
      "name": "transferFrom",
      "outputs": [
        {
          "internalType": "bool",
          "name": "",
          "type": "bool"
        }
      ],
      "stateMutability": "nonpayable",
      "type": "function"
    },
    {
      "inputs": [
        {
          "internalType": "address",
          "name": "newOwner",
          "type": "address"
        }
      ],
      "name": "transferOwnership",
      "outputs": [],
      "stateMutability": "nonpayable",
      "type": "function"
    },
    {
      "inputs": [
        {
          "internalType": "address",
          "name": "newImplementation",
          "type": "address"
        },
        {
          "internalType": "bytes",
          "name": "data",
          "type": "bytes"
        }
      ],
      "name": "upgradeToAndCall",
      "outputs": [],
      "stateMutability": "payable",
      "type": "function"
    }
  ],
  "bytecode": "0x60a06040523060805234801561001457600080fd5b5061001d610022565b6100d4565b7ff0c57e16840df040f15088dc2f81fe391c3923bec73e23a9662efc9c229c6a00805468010000000000000000900460ff16156100725760405163f92ee8a960e01b815260040160405180910390fd5b80546001600160401b03908116146100d15780546001600160401b0319166001600160401b0390811782556040519081527fc7f505b2f371ae2175ee4913f4499e1f2633a7b5936321eed1cdaeb6115181d29060200160405180910390a15b50565b6080516117b26100fd60003960008181610b6b01528181610b940152610cd501526117b26000f3fe6080604052600436106101665760003560e01c806382f7d392116100d1578063ad3cb1cc1161008a578063cf456ae711610064578063cf456ae71461049b578063dd62ed3e146104bb578063f2fde38b146104db578063f7ee7a43146104fb57600080fd5b8063ad3cb1cc14610411578063c95c2fc714610442578063cefee7bc1461046257600080fd5b806382f7d3921461032f5780638da5cb5b1461035f57806395d89b411461038c5780639dc29fac146103a1578063a9059cbb146103c1578063aa271e1a146103e157600080fd5b806340c10f191161012357806340c10f19146102625780634f1ef2861461028257806352d1902d146102955780636aa71d18146102aa57806370a08231146102d7578063715018a61461031a57600080fd5b806306fdde031461016b578063077f224a14610196578063095ea7b3146101b857806318160ddd146101e857806323b872dd14610226578063313ce56714610246575b600080fd5b34801561017757600080fd5b50610180610512565b60405161018d91906112db565b60405180910390f35b3480156101a257600080fd5b506101b66101b13660046113da565b6105d5565b005b3480156101c457600080fd5b506101d86101d3366004611453565b610701565b604051901515815260200161018d565b3480156101f457600080fd5b507f52c63247e1f47db19d5ce0460030c497f067ca4cebf71ba98eeadabe20bace02545b60405190815260200161018d565b34801561023257600080fd5b506101d861024136600461147d565b61071b565b34801561025257600080fd5b506040516012815260200161018d565b34801561026e57600080fd5b506101b661027d366004611453565b610741565b6101b66102903660046114ba565b610814565b3480156102a157600080fd5b50610218610833565b3480156102b657600080fd5b506102186102c536600461151c565b60006020819052908152604090205481565b3480156102e357600080fd5b506102186102f236600461151c565b6001600160a01b0316600090815260008051602061173d833981519152602052604090205490565b34801561032657600080fd5b506101b6610850565b34801561033b57600080fd5b506101d861034a36600461151c565b60016020526000908152604090205460ff1681565b34801561036b57600080fd5b50610374610864565b6040516001600160a01b03909116815260200161018d565b34801561039857600080fd5b50610180610892565b3480156103ad57600080fd5b506101b66103bc366004611453565b6108d1565b3480156103cd57600080fd5b506101d86103dc366004611453565b6108e3565b3480156103ed57600080fd5b506101d86103fc36600461151c565b60026020526000908152604090205460ff1681565b34801561041d57600080fd5b50610180604051806040016040528060058152602001640352e302e360dc1b81525081565b34801561044e57600080fd5b506101b661045d366004611537565b6108f1565b34801561046e57600080fd5b506101d861047d36600461151c565b6001600160a01b031660009081526001602052604090205460ff1690565b3480156104a757600080fd5b506101b66104b6366004611537565b610924565b3480156104c757600080fd5b506102186104d6366004611573565b61098f565b3480156104e757600080fd5b506101b66104f636600461151c565b6109d9565b34801561050757600080fd5b506102186201518081565b7f52c63247e1f47db19d5ce0460030c497f067ca4cebf71ba98eeadabe20bace03805460609160008051602061173d83398151915291610551906115a6565b80601f016020809104026020016040519081016040528092919081815260200182805461057d906115a6565b80156105ca5780601f1061059f576101008083540402835291602001916105ca565b820191906000526020600020905b8154815290600101906020018083116105ad57829003601f168201915b505050505091505090565b7ff0c57e16840df040f15088dc2f81fe391c3923bec73e23a9662efc9c229c6a008054600160401b810460ff16159067ffffffffffffffff1660008115801561061b5750825b905060008267ffffffffffffffff1660011480156106385750303b155b905081158015610646575080155b156106645760405163f92ee8a960e01b815260040160405180910390fd5b845467ffffffffffffffff19166001178555831561068e57845460ff60401b1916600160401b1785555b6106988888610a17565b6106a186610a29565b6106a9610a3a565b6106b1610a4a565b83156106f757845460ff60401b19168555604051600181527fc7f505b2f371ae2175ee4913f4499e1f2633a7b5936321eed1cdaeb6115181d29060200160405180910390a15b5050505050505050565b60003361070f818585610a52565b60019150505b92915050565b600033610729858285610a64565b610734858585610acb565b60019150505b9392505050565b6001600160a01b038216610768576040516322ce111360e11b815260040160405180910390fd5b610770610864565b6001600160a01b0316336001600160a01b0316141580156107a157503360009081526002602052604090205460ff16155b156107c65760405163a4f3966560e01b81523360048201526024015b60405180910390fd5b6107d08282610b2a565b60405181815233906001600160a01b038416907f969cd201f68f120baff2bf3c59bc3b534434e08b69a71a14ab85cb79cd3b63e49060200160405180910390a35050565b61081c610b60565b61082582610c05565b61082f8282610c0d565b5050565b600061083d610cca565b5060008051602061175d83398151915290565b610858610d13565b6108626000610d45565b565b7f9016d09d72d40fdae2fd8ceac6b6234c7706214fd39c1cd1e609a0528c199300546001600160a01b031690565b7f52c63247e1f47db19d5ce0460030c497f067ca4cebf71ba98eeadabe20bace04805460609160008051602061173d83398151915291610551906115a6565b6108d9610d13565b61082f8282610db6565b60003361070f818585610acb565b6108f9610d13565b6001600160a01b03919091166000908152600160205260409020805460ff1916911515919091179055565b61092c610d13565b6001600160a01b038216600081815260026020908152604091829020805460ff19168515159081179091558251938452908301527f583b0aa0e528532caf4b907c11d7a8158a122fe2a6fb80cd9b09776ebea8d92d910160405180910390a15050565b6001600160a01b0391821660009081527f52c63247e1f47db19d5ce0460030c497f067ca4cebf71ba98eeadabe20bace016020908152604080832093909416825291909152205490565b6109e1610d13565b6001600160a01b038116610a0b57604051631e4fbdf760e01b8152600060048201526024016107bd565b610a1481610d45565b50565b610a1f610dec565b61082f8282610e35565b610a31610dec565b610a1481610e86565b610a42610dec565b610862610e8e565b610862610dec565b610a5f8383836001610ebc565b505050565b6000610a70848461098f565b9050600019811015610ac55781811015610ab657604051637dc7a0d960e11b81526001600160a01b038416600482015260248101829052604481018390526064016107bd565b610ac584848484036000610ebc565b50505050565b6001600160a01b038316610af557604051634b637e8f60e11b8152600060048201526024016107bd565b6001600160a01b038216610b1f5760405163ec442f0560e01b8152600060048201526024016107bd565b610a5f838383610fa4565b6001600160a01b038216610b545760405163ec442f0560e01b8152600060048201526024016107bd565b61082f60008383610fa4565b306001600160a01b037f0000000000000000000000000000000000000000000000000000000000000000161480610be757507f00000000000000000000000000000000000000000000000000000000000000006001600160a01b0316610bdb60008051602061175d833981519152546001600160a01b031690565b6001600160a01b031614155b156108625760405163703e46dd60e11b815260040160405180910390fd5b610a14610d13565b816001600160a01b03166352d1902d6040518163ffffffff1660e01b8152600401602060405180830381865afa925050508015610c67575060408051601f3d908101601f19168201909252610c64918101906115e0565b60015b610c8f57604051634c9c8ce360e01b81526001600160a01b03831660048201526024016107bd565b60008051602061175d8339815191528114610cc057604051632a87526960e21b8152600481018290526024016107bd565b610a5f83836110e2565b306001600160a01b037f000000000000000000000000000000000000000000000000000000000000000016146108625760405163703e46dd60e11b815260040160405180910390fd5b33610d1c610864565b6001600160a01b0316146108625760405163118cdaa760e01b81523360048201526024016107bd565b7f9016d09d72d40fdae2fd8ceac6b6234c7706214fd39c1cd1e609a0528c19930080546001600160a01b031981166001600160a01b03848116918217845560405192169182907f8be0079c531659141344cd1fd0a4f28419497f9722a3daafe3b4186f6b6457e090600090a3505050565b6001600160a01b038216610de057604051634b637e8f60e11b8152600060048201526024016107bd565b61082f82600083610fa4565b7ff0c57e16840df040f15088dc2f81fe391c3923bec73e23a9662efc9c229c6a0054600160401b900460ff1661086257604051631afcd79f60e31b815260040160405180910390fd5b610e3d610dec565b60008051602061173d8339815191527f52c63247e1f47db19d5ce0460030c497f067ca4cebf71ba98eeadabe20bace03610e778482611640565b5060048101610ac58382611640565b6109e1610dec565b610e96610dec565b60017f9b779b17422d0df92223018b32b4d1fa46e071723d6817e2486d003becc55f0055565b60008051602061173d8339815191526001600160a01b038516610ef55760405163e602df0560e01b8152600060048201526024016107bd565b6001600160a01b038416610f1f57604051634a1406b160e11b8152600060048201526024016107bd565b6001600160a01b03808616600090815260018301602090815260408083209388168352929052208390558115610f9d57836001600160a01b0316856001600160a01b03167f8c5be1e5ebec7d5bd14f71427d1e84f3dd0314c0f7b2291e5b200ac8c7c3b92585604051610f9491815260200190565b60405180910390a35b5050505050565b60008051602061173d8339815191526001600160a01b038416610fe05781816002016000828254610fd591906116ff565b909155506110529050565b6001600160a01b038416600090815260208290526040902054828110156110335760405163391434e360e21b81526001600160a01b038616600482015260248101829052604481018490526064016107bd565b6001600160a01b03851660009081526020839052604090209083900390555b6001600160a01b03831661107057600281018054839003905561108f565b6001600160a01b03831660009081526020829052604090208054830190555b826001600160a01b0316846001600160a01b03167fddf252ad1be2c89b69c2b068fc378daa952ba7f163c4a11628f55a4df523b3ef846040516110d491815260200190565b60405180910390a350505050565b6110eb82611138565b6040516001600160a01b038316907fbc7cd75a20ee27fd9adebab32041f755214dbc6bffa90cc0225b39da2e5c2d3b90600090a280511561113057610a5f828261119d565b61082f611213565b806001600160a01b03163b60000361116e57604051634c9c8ce360e01b81526001600160a01b03821660048201526024016107bd565b60008051602061175d83398151915280546001600160a01b0319166001600160a01b0392909216919091179055565b6060600080846001600160a01b0316846040516111ba9190611720565b600060405180830381855af49150503d80600081146111f5576040519150601f19603f3d011682016040523d82523d6000602084013e6111fa565b606091505b509150915061120a858383611232565b95945050505050565b34156108625760405163b398979f60e01b815260040160405180910390fd5b606082611247576112428261128e565b61073a565b815115801561125e57506001600160a01b0384163b155b1561128757604051639996b31560e01b81526001600160a01b03851660048201526024016107bd565b508061073a565b80511561129e5780518082602001fd5b60405163d6bda27560e01b815260040160405180910390fd5b60005b838110156112d25781810151838201526020016112ba565b50506000910152565b60208152600082518060208401526112fa8160408501602087016112b7565b601f01601f19169190910160400192915050565b634e487b7160e01b600052604160045260246000fd5b60008067ffffffffffffffff84111561133f5761133f61130e565b50604051601f19601f85018116603f0116810181811067ffffffffffffffff8211171561136e5761136e61130e565b60405283815290508082840185101561138657600080fd5b83836020830137600060208583010152509392505050565b600082601f8301126113af57600080fd5b61073a83833560208501611324565b80356001600160a01b03811681146113d557600080fd5b919050565b6000806000606084860312156113ef57600080fd5b833567ffffffffffffffff81111561140657600080fd5b6114128682870161139e565b935050602084013567ffffffffffffffff81111561142f57600080fd5b61143b8682870161139e565b92505061144a604085016113be565b90509250925092565b6000806040838503121561146657600080fd5b61146f836113be565b946020939093013593505050565b60008060006060848603121561149257600080fd5b61149b846113be565b92506114a9602085016113be565b929592945050506040919091013590565b600080604083850312156114cd57600080fd5b6114d6836113be565b9150602083013567ffffffffffffffff8111156114f257600080fd5b8301601f8101851361150357600080fd5b61151285823560208401611324565b9150509250929050565b60006020828403121561152e57600080fd5b61073a826113be565b6000806040838503121561154a57600080fd5b611553836113be565b91506020830135801515811461156857600080fd5b809150509250929050565b6000806040838503121561158657600080fd5b61158f836113be565b915061159d602084016113be565b90509250929050565b600181811c908216806115ba57607f821691505b6020821081036115da57634e487b7160e01b600052602260045260246000fd5b50919050565b6000602082840312156115f257600080fd5b5051919050565b601f821115610a5f57806000526020600020601f840160051c810160208510156116205750805b601f840160051c820191505b81811015610f9d576000815560010161162c565b815167ffffffffffffffff81111561165a5761165a61130e565b61166e8161166884546115a6565b846115f9565b6020601f8211600181146116a2576000831561168a5750848201515b600019600385901b1c1916600184901b178455610f9d565b600084815260208120601f198516915b828110156116d257878501518255602094850194600190920191016116b2565b50848210156116f05786840151600019600387901b60f8161c191681555b50505050600190811b01905550565b8082018082111561071557634e487b7160e01b600052601160045260246000fd5b600082516117328184602087016112b7565b919091019291505056fe52c63247e1f47db19d5ce0460030c497f067ca4cebf71ba98eeadabe20bace00360894a13ba1a3210667c828492db98dca3e2076cc3735a920a3ca505d382bbca264697066735822122042effa0ad73e517ad839f97c274796a7a0fc418dce312676775007c72693dcb764736f6c634300081c0033",
  "linkReferences": {},
  "deployedLinkReferences": {}
}