{
  "contracts/YieldPool.sol": {
    "YieldPool": {
      "abi": [
        {
          "inputs": [
            {
              "internalType": "address",
              "name": "eduTokenAddress",
              "type": "address"
            },
            {
              "internalType": "string",
              "name": "_tokenName",
              "type": "string"
            },
            {
              "internalType": "string",
              "name": "_tokenSymbol",
              "type": "string"
            }
          ],
          "stateMutability": "nonpayable",
          "type": "constructor"
        },
        {
          "inputs": [],
          "name": "ReentrancyGuardReentrantCall",
          "type": "error"
        },
        {
          "anonymous": false,
          "inputs": [
            {
              "indexed": true,
              "internalType": "address",
              "name": "user",
              "type": "address"
            },
            {
              "indexed": false,
              "internalType": "uint256",
              "name": "amount",
              "type": "uint256"
            },
            {
              "indexed": false,
              "internalType": "uint256",
              "name": "duration",
              "type": "uint256"
            }
          ],
          "name": "Deposited",
          "type": "event"
        },
        {
          "anonymous": false,
          "inputs": [
            {
              "indexed": true,
              "internalType": "address",
              "name": "user",
              "type": "address"
            },
            {
              "indexed": false,
              "internalType": "uint256",
              "name": "amount",
              "type": "uint256"
            },
            {
              "indexed": false,
              "internalType": "uint256",
              "name": "yield",
              "type": "uint256"
            }
          ],
          "name": "Withdrawn",
          "type": "event"
        },
        {
          "inputs": [
            {
              "components": [
                {
                  "internalType": "uint256",
                  "name": "id",
                  "type": "uint256"
                },
                {
                  "internalType": "uint256",
                  "name": "amount",
                  "type": "uint256"
                },
                {
                  "internalType": "uint256",
                  "name": "startTime",
                  "type": "uint256"
                },
                {
                  "internalType": "uint256",
                  "name": "lockDuration",
                  "type": "uint256"
                },
                {
                  "internalType": "bool",
                  "name": "withdrawn",
                  "type": "bool"
                }
              ],
              "internalType": "struct YieldPool.Position",
              "name": "position",
              "type": "tuple"
            }
          ],
          "name": "calculateYield",
          "outputs": [
            {
              "internalType": "uint256",
              "name": "",
              "type": "uint256"
            }
          ],
          "stateMutability": "pure",
          "type": "function"
        },
        {
          "inputs": [
            {
              "internalType": "uint256",
              "name": "amount",
              "type": "uint256"
            },
            {
              "internalType": "uint256",
              "name": "duration",
              "type": "uint256"
            }
          ],
          "name": "calculateYieldTokens",
          "outputs": [
            {
              "internalType": "uint256",
              "name": "",
              "type": "uint256"
            }
          ],
          "stateMutability": "pure",
          "type": "function"
        },
        {
          "inputs": [
            {
              "internalType": "uint256",
              "name": "amount",
              "type": "uint256"
            },
            {
              "internalType": "uint256",
              "name": "duration",
              "type": "uint256"
            }
          ],
          "name": "deposit",
          "outputs": [],
          "stateMutability": "nonpayable",
          "type": "function"
        },
        {
          "inputs": [],
          "name": "getActivePositions",
          "outputs": [
            {
              "internalType": "address[]",
              "name": "stakers",
              "type": "address[]"
            },
            {
              "components": [
                {
                  "internalType": "uint256",
                  "name": "id",
                  "type": "uint256"
                },
                {
                  "internalType": "uint256",
                  "name": "amount",
                  "type": "uint256"
                },
                {
                  "internalType": "uint256",
                  "name": "startTime",
                  "type": "uint256"
                },
                {
                  "internalType": "uint256",
                  "name": "lockDuration",
                  "type": "uint256"
                },
                {
                  "internalType": "bool",
                  "name": "withdrawn",
                  "type": "bool"
                }
              ],
              "internalType": "struct YieldPool.Position[]",
              "name": "positions",
              "type": "tuple[]"
            }
          ],
          "stateMutability": "view",
          "type": "function"
        },
        {
          "inputs": [],
          "name": "getEduToken",
          "outputs": [
            {
              "internalType": "contract IERC20",
              "name": "",
              "type": "address"
            }
          ],
          "stateMutability": "view",
          "type": "function"
        },
        {
          "inputs": [
            {
              "internalType": "uint256",
              "name": "positionId",
              "type": "uint256"
            }
          ],
          "name": "getPosition",
          "outputs": [
            {
              "components": [
                {
                  "internalType": "uint256",
                  "name": "id",
                  "type": "uint256"
                },
                {
                  "internalType": "uint256",
                  "name": "amount",
                  "type": "uint256"
                },
                {
                  "internalType": "uint256",
                  "name": "startTime",
                  "type": "uint256"
                },
                {
                  "internalType": "uint256",
                  "name": "lockDuration",
                  "type": "uint256"
                },
                {
                  "internalType": "bool",
                  "name": "withdrawn",
                  "type": "bool"
                }
              ],
              "internalType": "struct YieldPool.Position",
              "name": "",
              "type": "tuple"
            }
          ],
          "stateMutability": "view",
          "type": "function"
        },
        {
          "inputs": [
            {
              "internalType": "address",
              "name": "user",
              "type": "address"
            }
          ],
          "name": "getPositions",
          "outputs": [
            {
              "components": [
                {
                  "internalType": "uint256",
                  "name": "id",
                  "type": "uint256"
                },
                {
                  "internalType": "uint256",
                  "name": "amount",
                  "type": "uint256"
                },
                {
                  "internalType": "uint256",
                  "name": "startTime",
                  "type": "uint256"
                },
                {
                  "internalType": "uint256",
                  "name": "lockDuration",
                  "type": "uint256"
                },
                {
                  "internalType": "bool",
                  "name": "withdrawn",
                  "type": "bool"
                }
              ],
              "internalType": "struct YieldPool.Position[]",
              "name": "",
              "type": "tuple[]"
            }
          ],
          "stateMutability": "view",
          "type": "function"
        },
        {
          "inputs": [],
          "name": "getTotalStakers",
          "outputs": [
            {
              "internalType": "uint256",
              "name": "",
              "type": "uint256"
            }
          ],
          "stateMutability": "view",
          "type": "function"
        },
        {
          "inputs": [],
          "name": "getTotalValueLocked",
          "outputs": [
            {
              "internalType": "uint256",
              "name": "",
              "type": "uint256"
            }
          ],
          "stateMutability": "view",
          "type": "function"
        },
        {
          "inputs": [],
          "name": "getYieldToken",
          "outputs": [
            {
              "internalType": "contract YieldToken",
              "name": "",
              "type": "address"
            }
          ],
          "stateMutability": "view",
          "type": "function"
        },
        {
          "inputs": [
            {
              "internalType": "uint256",
              "name": "positionId",
              "type": "uint256"
            }
          ],
          "name": "withdraw",
          "outputs": [],
          "stateMutability": "nonpayable",
          "type": "function"
        }
      ],
      "evm": {
        "bytecode": {
          "linkReferences": {},
          "object": "60c0604052600160035534801561001557600080fd5b5060405161220338038061220383398101604081905261003491610166565b60016000556001600160a01b03831660805260405130908390839061005890610096565b6100649392919061021a565b604051809103906000f080158015610080573d6000803e3d6000fd5b506001600160a01b031660a0525061025a915050565b610ebc8061134783390190565b634e487b7160e01b600052604160045260246000fd5b60005b838110156100d45781810151838201526020016100bc565b50506000910152565b600082601f8301126100ee57600080fd5b81516001600160401b03811115610107576101076100a3565b604051601f8201601f19908116603f011681016001600160401b0381118282101715610135576101356100a3565b60405281815283820160200185101561014d57600080fd5b61015e8260208301602087016100b9565b949350505050565b60008060006060848603121561017b57600080fd5b83516001600160a01b038116811461019257600080fd5b60208501519093506001600160401b038111156101ae57600080fd5b6101ba868287016100dd565b604086015190935090506001600160401b038111156101d857600080fd5b6101e4868287016100dd565b9150509250925092565b600081518084526102068160208601602086016100b9565b601f01601f19169290920160200192915050565b6001600160a01b038416815260606020820181905260009061023e908301856101ee565b828103604084015261025081856101ee565b9695505050505050565b60805160a0516110ad61029a6000396000818160dc0152610b3a0152600081816101c10152818161042101528181610521015261091501526110ad6000f3fe608060405234801561001057600080fd5b50600436106100a95760003560e01c8063b26025aa11610071578063b26025aa1461014a578063df9fa35b14610152578063e2bbb15814610179578063e526ddb91461018c578063eb02c3011461019f578063f3063322146101bf57600080fd5b80632e1a7d4d146100ae57806331ed0db4146100c35780633b8dbc11146100da5780633eeb530e146101145780635fc75ec214610134575b600080fd5b6100c16100bc366004610d9f565b6101e5565b005b6001545b6040519081526020015b60405180910390f35b7f00000000000000000000000000000000000000000000000000000000000000005b6040516001600160a01b0390911681526020016100d1565b610127610122366004610db8565b6105e5565b6040516100d19190610e5c565b61013c61068b565b6040516100d1929190610e6f565b6002546100c7565b6100c7610160366004610f04565b606081015160209091015163bbf81e009102600a020490565b6100c1610187366004610f8c565b610845565b6100c761019a366004610f8c565b610bea565b6101b26101ad366004610d9f565b610bfd565b6040516100d19190610fae565b7f00000000000000000000000000000000000000000000000000000000000000006100fc565b6101ed610d75565b6000818152600860205260409020546001600160a01b0316331461024d5760405162461bcd60e51b81526020600482015260126024820152712737ba103837b9b4ba34b7b71037bbb732b960711b60448201526064015b60405180910390fd5b3360009081526007602052604081209080805b83548110156102a7578484828154811061027c5761027c610fe9565b9060005260206000209060050201600001540361029f57809250600191506102a7565b600101610260565b50806102ea5760405162461bcd60e51b8152602060048201526012602482015271141bdcda5d1a5bdb881b9bdd08199bdd5b9960721b6044820152606401610244565b60008383815481106102fe576102fe610fe9565b60009182526020909120600590910201600481015490915060ff161561035a5760405162461bcd60e51b815260206004820152601160248201527020b63932b0b23c903bb4ba34323930bbb760791b6044820152606401610244565b8060030154816002015461036e9190611015565b4210156103ac5760405162461bcd60e51b815260206004820152600c60248201526b14dd1a5b1b081b1bd8dad95960a21b6044820152606401610244565b6040805160a08101825282548152600183015460208201819052600284015492820192909252600383015460608201819052600484015460ff16151560809092019190915260009163bbf81e009102600a020460018301546040516370a0823160e01b815230600482015291925082019081907f00000000000000000000000000000000000000000000000000000000000000006001600160a01b0316906370a0823190602401602060405180830381865afa158015610470573d6000803e3d6000fd5b505050506040513d601f19601f820116820180604052508101906104949190611028565b10156104e25760405162461bcd60e51b815260206004820152601a60248201527f496e73756666696369656e742066756e647320696e20706f6f6c0000000000006044820152606401610244565b600183810154600280549190910390556004808501805460ff191690921790915560405163a9059cbb60e01b81523391810191909152602481018290527f00000000000000000000000000000000000000000000000000000000000000006001600160a01b03169063a9059cbb906044016020604051808303816000875af1158015610572573d6000803e3d6000fd5b505050506040513d601f19601f820116820180604052508101906105969190611041565b50604080518281526020810184905233917f92ccf450a286a957af52509bc1c9939d1a6a481783e142e41e2499f0bb66ebc6910160405180910390a25050505050506105e26001600055565b50565b6001600160a01b0381166000908152600760209081526040808320805482518185028101850190935280835260609492939192909184015b828210156106805760008481526020908190206040805160a081018252600586029092018054835260018082015484860152600282015492840192909252600381015460608401526004015460ff1615156080830152908352909201910161061d565b505050509050919050565b60608060058054806020026020016040519081016040528092919081815260200182805480156106e457602002820191906000526020600020905b81546001600160a01b031681526001909101906020018083116106c6575b5050600554939550505067ffffffffffffffff821115905061070857610708610ed0565b60405190808252806020026020018201604052801561076d57816020015b61075a6040518060a00160405280600081526020016000815260200160008152602001600081526020016000151581525090565b8152602001906001900390816107265790505b50905060005b60055481101561084057600760006005838154811061079457610794610fe9565b60009182526020808320909101546001600160a01b03168352820192909252604001812080549091906107c9576107c9610fe9565b60009182526020918290206040805160a0810182526005909302909101805483526001810154938301939093526002830154908201526003820154606082015260049091015460ff1615156080820152825183908390811061082d5761082d610fe9565b6020908102919091010152600101610773565b509091565b61084d610d75565b6000821161089d5760405162461bcd60e51b815260206004820152601d60248201527f416d6f756e74206d7573742062652067726561746572207468616e20300000006044820152606401610244565b6201518081101580156108b457506301e133808111155b6108f35760405162461bcd60e51b815260206004820152601060248201526f24b73b30b634b210323ab930ba34b7b760811b6044820152606401610244565b6040516323b872dd60e01b8152336004820152306024820152604481018390527f00000000000000000000000000000000000000000000000000000000000000006001600160a01b0316906323b872dd906064016020604051808303816000875af1158015610966573d6000803e3d6000fd5b505050506040513d601f19601f8201168201806040525081019061098a9190611041565b6109c85760405162461bcd60e51b815260206004820152600f60248201526e151c985b9cd9995c8819985a5b1959608a1b6044820152606401610244565b600280548301905560038054600091826109e18361105e565b909155506040805160a0810182528281526020808201878152428385019081526060840188815260006080860181815233808352600787528883208054600180820183559185528885208a51600590920201908155965190870155935160028601559151600385015590516004938401805460ff19169115159190911790558681526008845285812080546001600160a01b03191683179055908152915291909120549192509060ff16610b0f57336000818152600460209081526040808320805460ff1916600190811790915560058054600690945291842083905582810182559083527f036b6384b5eca791c62761152d0c79bb0604c104a5fb6f4eb0703f3154bb3db090910180546001600160a01b03191690931790925581549190610b098361105e565b91905055505b6000610b1b8585610bea565b6040516340c10f1960e01b8152336004820152602481018290529091507f00000000000000000000000000000000000000000000000000000000000000006001600160a01b0316906340c10f1990604401600060405180830381600087803b158015610b8657600080fd5b505af1158015610b9a573d6000803e3d6000fd5b505060408051888152602081018890523393507f73a19dd210f1a7f902193214c0ee91dd35ee5b4d920cba8d519eca65a7b488ca92500160405180910390a2505050610be66001600055565b5050565b63bbf81e00600a82840202045b92915050565b610c316040518060a00160405280600081526020016000815260200160008152602001600081526020016000151581525090565b6000828152600860209081526040808320546001600160a01b0316808452600783528184208054835181860281018601909452808452919493909190849084015b82821015610cd55760008481526020908190206040805160a081018252600586029092018054835260018082015484860152600282015492840192909252600381015460608401526004015460ff16151560808301529083529092019101610c72565b50505050905060005b8151811015610d375784828281518110610cfa57610cfa610fe9565b60200260200101516000015103610d2f57818181518110610d1d57610d1d610fe9565b60200260200101519350505050919050565b600101610cde565b5060405162461bcd60e51b8152602060048201526012602482015271141bdcda5d1a5bdb881b9bdd08199bdd5b9960721b6044820152606401610244565b600260005403610d9857604051633ee5aeb560e01b815260040160405180910390fd5b6002600055565b600060208284031215610db157600080fd5b5035919050565b600060208284031215610dca57600080fd5b81356001600160a01b0381168114610de157600080fd5b9392505050565b600081518084526020840193506020830160005b82811015610e5257610e3c868351805182526020810151602083015260408101516040830152606081015160608301526080810151151560808301525050565b60a0959095019460209190910190600101610dfc565b5093949350505050565b602081526000610de16020830184610de8565b6040808252835190820181905260009060208501906060840190835b81811015610eb25783516001600160a01b0316835260209384019390920191600101610e8b565b50508381036020850152610ec68186610de8565b9695505050505050565b634e487b7160e01b600052604160045260246000fd5b80151581146105e257600080fd5b8035610eff81610ee6565b919050565b600060a0828403128015610f1757600080fd5b6000905060405160a0810181811067ffffffffffffffff82111715610f4a57634e487b7160e01b83526041600452602483fd5b6040908152843582526020808601359083015284810135908201526060808501359082018190529150610f7f60808501610ef4565b6080820152949350505050565b60008060408385031215610f9f57600080fd5b50508035926020909101359150565b60a08101610bf78284805182526020810151602083015260408101516040830152606081015160608301526080810151151560808301525050565b634e487b7160e01b600052603260045260246000fd5b634e487b7160e01b600052601160045260246000fd5b80820180821115610bf757610bf7610fff565b60006020828403121561103a57600080fd5b5051919050565b60006020828403121561105357600080fd5b8151610de181610ee6565b60006001820161107057611070610fff565b506001019056fea2646970667358221220e8b2c7fabe52f480a3cf58009ec70e4cdb51d020ac1ab99334cb5e3db2762b4464736f6c634300081c0033608060405234801561001057600080fd5b50604051610ebc380380610ebc83398101604081905261002f91610199565b828282600361003e83826102aa565b50600461004b82826102aa565b5050506001600160a01b03811661007c57604051631e4fbdf760e01b81526000600482015260240160405180910390fd5b6100858161008e565b50505050610368565b600580546001600160a01b038381166001600160a01b0319831681179093556040519116919082907f8be0079c531659141344cd1fd0a4f28419497f9722a3daafe3b4186f6b6457e090600090a35050565b634e487b7160e01b600052604160045260246000fd5b600082601f83011261010757600080fd5b81516001600160401b03811115610120576101206100e0565b604051601f8201601f19908116603f011681016001600160401b038111828210171561014e5761014e6100e0565b60405281815283820160200185101561016657600080fd5b60005b8281101561018557602081860181015183830182015201610169565b506000918101602001919091529392505050565b6000806000606084860312156101ae57600080fd5b83516001600160a01b03811681146101c557600080fd5b60208501519093506001600160401b038111156101e157600080fd5b6101ed868287016100f6565b604086015190935090506001600160401b0381111561020b57600080fd5b610217868287016100f6565b9150509250925092565b600181811c9082168061023557607f821691505b60208210810361025557634e487b7160e01b600052602260045260246000fd5b50919050565b601f8211156102a557806000526020600020601f840160051c810160208510156102825750805b601f840160051c820191505b818110156102a2576000815560010161028e565b50505b505050565b81516001600160401b038111156102c3576102c36100e0565b6102d7816102d18454610221565b8461025b565b6020601f82116001811461030b57600083156102f35750848201515b600019600385901b1c1916600184901b1784556102a2565b600084815260208120601f198516915b8281101561033b578785015182556020948501946001909201910161031b565b50848210156103595786840151600019600387901b60f8161c191681555b50505050600190811b01905550565b610b45806103776000396000f3fe608060405234801561001057600080fd5b50600436106101215760003560e01c806382f7d392116100ad578063c7d4f46611610071578063c7d4f4661461026d578063c95c2fc714610280578063dd62ed3e14610293578063f2fde38b146102cc578063f7ee7a43146102df57600080fd5b806382f7d392146102015780638da5cb5b1461022457806395d89b411461023f5780639dc29fac14610247578063a9059cbb1461025a57600080fd5b8063313ce567116100f4578063313ce5671461018c57806340c10f191461019b5780636aa71d18146101b057806370a08231146101d0578063715018a6146101f957600080fd5b806306fdde0314610126578063095ea7b31461014457806318160ddd1461016757806323b872dd14610179575b600080fd5b61012e6102e9565b60405161013b9190610952565b60405180910390f35b6101576101523660046109bc565b61037b565b604051901515815260200161013b565b6002545b60405190815260200161013b565b6101576101873660046109e6565b610395565b6040516012815260200161013b565b6101ae6101a93660046109bc565b6103b9565b005b61016b6101be366004610a23565b60066020526000908152604090205481565b61016b6101de366004610a23565b6001600160a01b031660009081526020819052604090205490565b6101ae61045d565b61015761020f366004610a23565b60076020526000908152604090205460ff1681565b6005546040516001600160a01b03909116815260200161013b565b61012e610471565b6101ae6102553660046109bc565b610480565b6101576102683660046109bc565b610492565b6101ae61027b3660046109bc565b6104a0565b6101ae61028e366004610a45565b610508565b61016b6102a1366004610a81565b6001600160a01b03918216600090815260016020908152604080832093909416825291909152205490565b6101ae6102da366004610a23565b61053b565b61016b6201518081565b6060600380546102f890610ab4565b80601f016020809104026020016040519081016040528092919081815260200182805461032490610ab4565b80156103715780601f1061034657610100808354040283529160200191610371565b820191906000526020600020905b81548152906001019060200180831161035457829003601f168201915b5050505050905090565b600033610389818585610579565b60019150505b92915050565b6000336103a385828561058b565b6103ae858585610609565b506001949350505050565b6001600160a01b0382166000908152600660205260409020546103e0906201518090610aee565b4210156104345760405162461bcd60e51b815260206004820181905260248201527f4d757374207761697420323420686f757273206265747765656e206d696e747360448201526064015b60405180910390fd5b6001600160a01b03821660009081526006602052604090204290556104598282610668565b5050565b61046561069e565b61046f60006106cb565b565b6060600480546102f890610ab4565b61048861069e565b610459828261071d565b600033610389818585610609565b6001600160a01b03821660009081526007602052604090205460ff166104345760405162461bcd60e51b815260206004820152601960248201527f41646472657373206d75737420626520612073747564656e7400000000000000604482015260640161042b565b61051061069e565b6001600160a01b03919091166000908152600760205260409020805460ff1916911515919091179055565b61054361069e565b6001600160a01b03811661056d57604051631e4fbdf760e01b81526000600482015260240161042b565b610576816106cb565b50565b6105868383836001610753565b505050565b6001600160a01b03838116600090815260016020908152604080832093861683529290522054600019811461060357818110156105f457604051637dc7a0d960e11b81526001600160a01b0384166004820152602481018290526044810183905260640161042b565b61060384848484036000610753565b50505050565b6001600160a01b03831661063357604051634b637e8f60e11b81526000600482015260240161042b565b6001600160a01b03821661065d5760405163ec442f0560e01b81526000600482015260240161042b565b610586838383610828565b6001600160a01b0382166106925760405163ec442f0560e01b81526000600482015260240161042b565b61045960008383610828565b6005546001600160a01b0316331461046f5760405163118cdaa760e01b815233600482015260240161042b565b600580546001600160a01b038381166001600160a01b0319831681179093556040519116919082907f8be0079c531659141344cd1fd0a4f28419497f9722a3daafe3b4186f6b6457e090600090a35050565b6001600160a01b03821661074757604051634b637e8f60e11b81526000600482015260240161042b565b61045982600083610828565b6001600160a01b03841661077d5760405163e602df0560e01b81526000600482015260240161042b565b6001600160a01b0383166107a757604051634a1406b160e11b81526000600482015260240161042b565b6001600160a01b038085166000908152600160209081526040808320938716835292905220829055801561060357826001600160a01b0316846001600160a01b03167f8c5be1e5ebec7d5bd14f71427d1e84f3dd0314c0f7b2291e5b200ac8c7c3b9258460405161081a91815260200190565b60405180910390a350505050565b6001600160a01b0383166108535780600260008282546108489190610aee565b909155506108c59050565b6001600160a01b038316600090815260208190526040902054818110156108a65760405163391434e360e21b81526001600160a01b0385166004820152602481018290526044810183905260640161042b565b6001600160a01b03841660009081526020819052604090209082900390555b6001600160a01b0382166108e157600280548290039055610900565b6001600160a01b03821660009081526020819052604090208054820190555b816001600160a01b0316836001600160a01b03167fddf252ad1be2c89b69c2b068fc378daa952ba7f163c4a11628f55a4df523b3ef8360405161094591815260200190565b60405180910390a3505050565b602081526000825180602084015260005b818110156109805760208186018101516040868401015201610963565b506000604082850101526040601f19601f83011684010191505092915050565b80356001600160a01b03811681146109b757600080fd5b919050565b600080604083850312156109cf57600080fd5b6109d8836109a0565b946020939093013593505050565b6000806000606084860312156109fb57600080fd5b610a04846109a0565b9250610a12602085016109a0565b929592945050506040919091013590565b600060208284031215610a3557600080fd5b610a3e826109a0565b9392505050565b60008060408385031215610a5857600080fd5b610a61836109a0565b915060208301358015158114610a7657600080fd5b809150509250929050565b60008060408385031215610a9457600080fd5b610a9d836109a0565b9150610aab602084016109a0565b90509250929050565b600181811c90821680610ac857607f821691505b602082108103610ae857634e487b7160e01b600052602260045260246000fd5b50919050565b8082018082111561038f57634e487b7160e01b600052601160045260246000fdfea26469706673582212205c6883a51d982d0f24d09660002d7a215482df925f9eea66543c08e3debf664f64736f6c634300081c0033",
          "opcodes": "PUSH1 0xC0 PUSH1 0x40 MSTORE PUSH1 0x1 PUSH1 0x3 SSTORE CALLVALUE DUP1 ISZERO PUSH2 0x15 JUMPI PUSH1 0x0 DUP1 REVERT JUMPDEST POP PUSH1 0x40 MLOAD PUSH2 0x2203 CODESIZE SUB DUP1 PUSH2 0x2203 DUP4 CODECOPY DUP2 ADD PUSH1 0x40 DUP2 SWAP1 MSTORE PUSH2 0x34 SWAP2 PUSH2 0x166 JUMP JUMPDEST PUSH1 0x1 PUSH1 0x0 SSTORE PUSH1 0x1 PUSH1 0x1 PUSH1 0xA0 SHL SUB DUP4 AND PUSH1 0x80 MSTORE PUSH1 0x40 MLOAD ADDRESS SWAP1 DUP4 SWAP1 DUP4 SWAP1 PUSH2 0x58 SWAP1 PUSH2 0x96 JUMP JUMPDEST PUSH2 0x64 SWAP4 SWAP3 SWAP2 SWAP1 PUSH2 0x21A JUMP JUMPDEST PUSH1 0x40 MLOAD DUP1 SWAP2 SUB SWAP1 PUSH1 0x0 CREATE DUP1 ISZERO DUP1 ISZERO PUSH2 0x80 JUMPI RETURNDATASIZE PUSH1 0x0 DUP1 RETURNDATACOPY RETURNDATASIZE PUSH1 0x0 REVERT JUMPDEST POP PUSH1 0x1 PUSH1 0x1 PUSH1 0xA0 SHL SUB AND PUSH1 0xA0 MSTORE POP PUSH2 0x25A SWAP2 POP POP JUMP JUMPDEST PUSH2 0xEBC DUP1 PUSH2 0x1347 DUP4 CODECOPY ADD SWAP1 JUMP JUMPDEST PUSH4 0x4E487B71 PUSH1 0xE0 SHL PUSH1 0x0 MSTORE PUSH1 0x41 PUSH1 0x4 MSTORE PUSH1 0x24 PUSH1 0x0 REVERT JUMPDEST PUSH1 0x0 JUMPDEST DUP4 DUP2 LT ISZERO PUSH2 0xD4 JUMPI DUP2 DUP2 ADD MLOAD DUP4 DUP3 ADD MSTORE PUSH1 0x20 ADD PUSH2 0xBC JUMP JUMPDEST POP POP PUSH1 0x0 SWAP2 ADD MSTORE JUMP JUMPDEST PUSH1 0x0 DUP3 PUSH1 0x1F DUP4 ADD SLT PUSH2 0xEE JUMPI PUSH1 0x0 DUP1 REVERT JUMPDEST DUP2 MLOAD PUSH1 0x1 PUSH1 0x1 PUSH1 0x40 SHL SUB DUP2 GT ISZERO PUSH2 0x107 JUMPI PUSH2 0x107 PUSH2 0xA3 JUMP JUMPDEST PUSH1 0x40 MLOAD PUSH1 0x1F DUP3 ADD PUSH1 0x1F NOT SWAP1 DUP2 AND PUSH1 0x3F ADD AND DUP2 ADD PUSH1 0x1 PUSH1 0x1 PUSH1 0x40 SHL SUB DUP2 GT DUP3 DUP3 LT OR ISZERO PUSH2 0x135 JUMPI PUSH2 0x135 PUSH2 0xA3 JUMP JUMPDEST PUSH1 0x40 MSTORE DUP2 DUP2 MSTORE DUP4 DUP3 ADD PUSH1 0x20 ADD DUP6 LT ISZERO PUSH2 0x14D JUMPI PUSH1 0x0 DUP1 REVERT JUMPDEST PUSH2 0x15E DUP3 PUSH1 0x20 DUP4 ADD PUSH1 0x20 DUP8 ADD PUSH2 0xB9 JUMP JUMPDEST SWAP5 SWAP4 POP POP POP POP JUMP JUMPDEST PUSH1 0x0 DUP1 PUSH1 0x0 PUSH1 0x60 DUP5 DUP7 SUB SLT ISZERO PUSH2 0x17B JUMPI PUSH1 0x0 DUP1 REVERT JUMPDEST DUP4 MLOAD PUSH1 0x1 PUSH1 0x1 PUSH1 0xA0 SHL SUB DUP2 AND DUP2 EQ PUSH2 0x192 JUMPI PUSH1 0x0 DUP1 REVERT JUMPDEST PUSH1 0x20 DUP6 ADD MLOAD SWAP1 SWAP4 POP PUSH1 0x1 PUSH1 0x1 PUSH1 0x40 SHL SUB DUP2 GT ISZERO PUSH2 0x1AE JUMPI PUSH1 0x0 DUP1 REVERT JUMPDEST PUSH2 0x1BA DUP7 DUP3 DUP8 ADD PUSH2 0xDD JUMP JUMPDEST PUSH1 0x40 DUP7 ADD MLOAD SWAP1 SWAP4 POP SWAP1 POP PUSH1 0x1 PUSH1 0x1 PUSH1 0x40 SHL SUB DUP2 GT ISZERO PUSH2 0x1D8 JUMPI PUSH1 0x0 DUP1 REVERT JUMPDEST PUSH2 0x1E4 DUP7 DUP3 DUP8 ADD PUSH2 0xDD JUMP JUMPDEST SWAP2 POP POP SWAP3 POP SWAP3 POP SWAP3 JUMP JUMPDEST PUSH1 0x0 DUP2 MLOAD DUP1 DUP5 MSTORE PUSH2 0x206 DUP2 PUSH1 0x20 DUP7 ADD PUSH1 0x20 DUP7 ADD PUSH2 0xB9 JUMP JUMPDEST PUSH1 0x1F ADD PUSH1 0x1F NOT AND SWAP3 SWAP1 SWAP3 ADD PUSH1 0x20 ADD SWAP3 SWAP2 POP POP JUMP JUMPDEST PUSH1 0x1 PUSH1 0x1 PUSH1 0xA0 SHL SUB DUP5 AND DUP2 MSTORE PUSH1 0x60 PUSH1 0x20 DUP3 ADD DUP2 SWAP1 MSTORE PUSH1 0x0 SWAP1 PUSH2 0x23E SWAP1 DUP4 ADD DUP6 PUSH2 0x1EE JUMP JUMPDEST DUP3 DUP2 SUB PUSH1 0x40 DUP5 ADD MSTORE PUSH2 0x250 DUP2 DUP6 PUSH2 0x1EE JUMP JUMPDEST SWAP7 SWAP6 POP POP POP POP POP POP JUMP JUMPDEST PUSH1 0x80 MLOAD PUSH1 0xA0 MLOAD PUSH2 0x10AD PUSH2 0x29A PUSH1 0x0 CODECOPY PUSH1 0x0 DUP2 DUP2 PUSH1 0xDC ADD MSTORE PUSH2 0xB3A ADD MSTORE PUSH1 0x0 DUP2 DUP2 PUSH2 0x1C1 ADD MSTORE DUP2 DUP2 PUSH2 0x421 ADD MSTORE DUP2 DUP2 PUSH2 0x521 ADD MSTORE PUSH2 0x915 ADD MSTORE PUSH2 0x10AD PUSH1 0x0 RETURN INVALID PUSH1 0x80 PUSH1 0x40 MSTORE CALLVALUE DUP1 ISZERO PUSH2 0x10 JUMPI PUSH1 0x0 DUP1 REVERT JUMPDEST POP PUSH1 0x4 CALLDATASIZE LT PUSH2 0xA9 JUMPI PUSH1 0x0 CALLDATALOAD PUSH1 0xE0 SHR DUP1 PUSH4 0xB26025AA GT PUSH2 0x71 JUMPI DUP1 PUSH4 0xB26025AA EQ PUSH2 0x14A JUMPI DUP1 PUSH4 0xDF9FA35B EQ PUSH2 0x152 JUMPI DUP1 PUSH4 0xE2BBB158 EQ PUSH2 0x179 JUMPI DUP1 PUSH4 0xE526DDB9 EQ PUSH2 0x18C JUMPI DUP1 PUSH4 0xEB02C301 EQ PUSH2 0x19F JUMPI DUP1 PUSH4 0xF3063322 EQ PUSH2 0x1BF JUMPI PUSH1 0x0 DUP1 REVERT JUMPDEST DUP1 PUSH4 0x2E1A7D4D EQ PUSH2 0xAE JUMPI DUP1 PUSH4 0x31ED0DB4 EQ PUSH2 0xC3 JUMPI DUP1 PUSH4 0x3B8DBC11 EQ PUSH2 0xDA JUMPI DUP1 PUSH4 0x3EEB530E EQ PUSH2 0x114 JUMPI DUP1 PUSH4 0x5FC75EC2 EQ PUSH2 0x134 JUMPI JUMPDEST PUSH1 0x0 DUP1 REVERT JUMPDEST PUSH2 0xC1 PUSH2 0xBC CALLDATASIZE PUSH1 0x4 PUSH2 0xD9F JUMP JUMPDEST PUSH2 0x1E5 JUMP JUMPDEST STOP JUMPDEST PUSH1 0x1 SLOAD JUMPDEST PUSH1 0x40 MLOAD SWAP1 DUP2 MSTORE PUSH1 0x20 ADD JUMPDEST PUSH1 0x40 MLOAD DUP1 SWAP2 SUB SWAP1 RETURN JUMPDEST PUSH32 0x0 JUMPDEST PUSH1 0x40 MLOAD PUSH1 0x1 PUSH1 0x1 PUSH1 0xA0 SHL SUB SWAP1 SWAP2 AND DUP2 MSTORE PUSH1 0x20 ADD PUSH2 0xD1 JUMP JUMPDEST PUSH2 0x127 PUSH2 0x122 CALLDATASIZE PUSH1 0x4 PUSH2 0xDB8 JUMP JUMPDEST PUSH2 0x5E5 JUMP JUMPDEST PUSH1 0x40 MLOAD PUSH2 0xD1 SWAP2 SWAP1 PUSH2 0xE5C JUMP JUMPDEST PUSH2 0x13C PUSH2 0x68B JUMP JUMPDEST PUSH1 0x40 MLOAD PUSH2 0xD1 SWAP3 SWAP2 SWAP1 PUSH2 0xE6F JUMP JUMPDEST PUSH1 0x2 SLOAD PUSH2 0xC7 JUMP JUMPDEST PUSH2 0xC7 PUSH2 0x160 CALLDATASIZE PUSH1 0x4 PUSH2 0xF04 JUMP JUMPDEST PUSH1 0x60 DUP2 ADD MLOAD PUSH1 0x20 SWAP1 SWAP2 ADD MLOAD PUSH4 0xBBF81E00 SWAP2 MUL PUSH1 0xA MUL DIV SWAP1 JUMP JUMPDEST PUSH2 0xC1 PUSH2 0x187 CALLDATASIZE PUSH1 0x4 PUSH2 0xF8C JUMP JUMPDEST PUSH2 0x845 JUMP JUMPDEST PUSH2 0xC7 PUSH2 0x19A CALLDATASIZE PUSH1 0x4 PUSH2 0xF8C JUMP JUMPDEST PUSH2 0xBEA JUMP JUMPDEST PUSH2 0x1B2 PUSH2 0x1AD CALLDATASIZE PUSH1 0x4 PUSH2 0xD9F JUMP JUMPDEST PUSH2 0xBFD JUMP JUMPDEST PUSH1 0x40 MLOAD PUSH2 0xD1 SWAP2 SWAP1 PUSH2 0xFAE JUMP JUMPDEST PUSH32 0x0 PUSH2 0xFC JUMP JUMPDEST PUSH2 0x1ED PUSH2 0xD75 JUMP JUMPDEST PUSH1 0x0 DUP2 DUP2 MSTORE PUSH1 0x8 PUSH1 0x20 MSTORE PUSH1 0x40 SWAP1 KECCAK256 SLOAD PUSH1 0x1 PUSH1 0x1 PUSH1 0xA0 SHL SUB AND CALLER EQ PUSH2 0x24D JUMPI PUSH1 0x40 MLOAD PUSH3 0x461BCD PUSH1 0xE5 SHL DUP2 MSTORE PUSH1 0x20 PUSH1 0x4 DUP3 ADD MSTORE PUSH1 0x12 PUSH1 0x24 DUP3 ADD MSTORE PUSH18 0x2737BA103837B9B4BA34B7B71037BBB732B9 PUSH1 0x71 SHL PUSH1 0x44 DUP3 ADD MSTORE PUSH1 0x64 ADD JUMPDEST PUSH1 0x40 MLOAD DUP1 SWAP2 SUB SWAP1 REVERT JUMPDEST CALLER PUSH1 0x0 SWAP1 DUP2 MSTORE PUSH1 0x7 PUSH1 0x20 MSTORE PUSH1 0x40 DUP2 KECCAK256 SWAP1 DUP1 DUP1 JUMPDEST DUP4 SLOAD DUP2 LT ISZERO PUSH2 0x2A7 JUMPI DUP5 DUP5 DUP3 DUP2 SLOAD DUP2 LT PUSH2 0x27C JUMPI PUSH2 0x27C PUSH2 0xFE9 JUMP JUMPDEST SWAP1 PUSH1 0x0 MSTORE PUSH1 0x20 PUSH1 0x0 KECCAK256 SWAP1 PUSH1 0x5 MUL ADD PUSH1 0x0 ADD SLOAD SUB PUSH2 0x29F JUMPI DUP1 SWAP3 POP PUSH1 0x1 SWAP2 POP PUSH2 0x2A7 JUMP JUMPDEST PUSH1 0x1 ADD PUSH2 0x260 JUMP JUMPDEST POP DUP1 PUSH2 0x2EA JUMPI PUSH1 0x40 MLOAD PUSH3 0x461BCD PUSH1 0xE5 SHL DUP2 MSTORE PUSH1 0x20 PUSH1 0x4 DUP3 ADD MSTORE PUSH1 0x12 PUSH1 0x24 DUP3 ADD MSTORE PUSH18 0x141BDCDA5D1A5BDB881B9BDD08199BDD5B99 PUSH1 0x72 SHL PUSH1 0x44 DUP3 ADD MSTORE PUSH1 0x64 ADD PUSH2 0x244 JUMP JUMPDEST PUSH1 0x0 DUP4 DUP4 DUP2 SLOAD DUP2 LT PUSH2 0x2FE JUMPI PUSH2 0x2FE PUSH2 0xFE9 JUMP JUMPDEST PUSH1 0x0 SWAP2 DUP3 MSTORE PUSH1 0x20 SWAP1 SWAP2 KECCAK256 PUSH1 0x5 SWAP1 SWAP2 MUL ADD PUSH1 0x4 DUP2 ADD SLOAD SWAP1 SWAP2 POP PUSH1 0xFF AND ISZERO PUSH2 0x35A JUMPI PUSH1 0x40 MLOAD PUSH3 0x461BCD PUSH1 0xE5 SHL DUP2 MSTORE PUSH1 0x20 PUSH1 0x4 DUP3 ADD MSTORE PUSH1 0x11 PUSH1 0x24 DUP3 ADD MSTORE PUSH17 0x20B63932B0B23C903BB4BA34323930BBB7 PUSH1 0x79 SHL PUSH1 0x44 DUP3 ADD MSTORE PUSH1 0x64 ADD PUSH2 0x244 JUMP JUMPDEST DUP1 PUSH1 0x3 ADD SLOAD DUP2 PUSH1 0x2 ADD SLOAD PUSH2 0x36E SWAP2 SWAP1 PUSH2 0x1015 JUMP JUMPDEST TIMESTAMP LT ISZERO PUSH2 0x3AC JUMPI PUSH1 0x40 MLOAD PUSH3 0x461BCD PUSH1 0xE5 SHL DUP2 MSTORE PUSH1 0x20 PUSH1 0x4 DUP3 ADD MSTORE PUSH1 0xC PUSH1 0x24 DUP3 ADD MSTORE PUSH12 0x14DD1A5B1B081B1BD8DAD959 PUSH1 0xA2 SHL PUSH1 0x44 DUP3 ADD MSTORE PUSH1 0x64 ADD PUSH2 0x244 JUMP JUMPDEST PUSH1 0x40 DUP1 MLOAD PUSH1 0xA0 DUP2 ADD DUP3 MSTORE DUP3 SLOAD DUP2 MSTORE PUSH1 0x1 DUP4 ADD SLOAD PUSH1 0x20 DUP3 ADD DUP2 SWAP1 MSTORE PUSH1 0x2 DUP5 ADD SLOAD SWAP3 DUP3 ADD SWAP3 SWAP1 SWAP3 MSTORE PUSH1 0x3 DUP4 ADD SLOAD PUSH1 0x60 DUP3 ADD DUP2 SWAP1 MSTORE PUSH1 0x4 DUP5 ADD SLOAD PUSH1 0xFF AND ISZERO ISZERO PUSH1 0x80 SWAP1 SWAP3 ADD SWAP2 SWAP1 SWAP2 MSTORE PUSH1 0x0 SWAP2 PUSH4 0xBBF81E00 SWAP2 MUL PUSH1 0xA MUL DIV PUSH1 0x1 DUP4 ADD SLOAD PUSH1 0x40 MLOAD PUSH4 0x70A08231 PUSH1 0xE0 SHL DUP2 MSTORE ADDRESS PUSH1 0x4 DUP3 ADD MSTORE SWAP2 SWAP3 POP DUP3 ADD SWAP1 DUP2 SWAP1 PUSH32 0x0 PUSH1 0x1 PUSH1 0x1 PUSH1 0xA0 SHL SUB AND SWAP1 PUSH4 0x70A08231 SWAP1 PUSH1 0x24 ADD PUSH1 0x20 PUSH1 0x40 MLOAD DUP1 DUP4 SUB DUP2 DUP7 GAS STATICCALL ISZERO DUP1 ISZERO PUSH2 0x470 JUMPI RETURNDATASIZE PUSH1 0x0 DUP1 RETURNDATACOPY RETURNDATASIZE PUSH1 0x0 REVERT JUMPDEST POP POP POP POP PUSH1 0x40 MLOAD RETURNDATASIZE PUSH1 0x1F NOT PUSH1 0x1F DUP3 ADD AND DUP3 ADD DUP1 PUSH1 0x40 MSTORE POP DUP2 ADD SWAP1 PUSH2 0x494 SWAP2 SWAP1 PUSH2 0x1028 JUMP JUMPDEST LT ISZERO PUSH2 0x4E2 JUMPI PUSH1 0x40 MLOAD PUSH3 0x461BCD PUSH1 0xE5 SHL DUP2 MSTORE PUSH1 0x20 PUSH1 0x4 DUP3 ADD MSTORE PUSH1 0x1A PUSH1 0x24 DUP3 ADD MSTORE PUSH32 0x496E73756666696369656E742066756E647320696E20706F6F6C000000000000 PUSH1 0x44 DUP3 ADD MSTORE PUSH1 0x64 ADD PUSH2 0x244 JUMP JUMPDEST PUSH1 0x1 DUP4 DUP2 ADD SLOAD PUSH1 0x2 DUP1 SLOAD SWAP2 SWAP1 SWAP2 SUB SWAP1 SSTORE PUSH1 0x4 DUP1 DUP6 ADD DUP1 SLOAD PUSH1 0xFF NOT AND SWAP1 SWAP3 OR SWAP1 SWAP2 SSTORE PUSH1 0x40 MLOAD PUSH4 0xA9059CBB PUSH1 0xE0 SHL DUP2 MSTORE CALLER SWAP2 DUP2 ADD SWAP2 SWAP1 SWAP2 MSTORE PUSH1 0x24 DUP2 ADD DUP3 SWAP1 MSTORE PUSH32 0x0 PUSH1 0x1 PUSH1 0x1 PUSH1 0xA0 SHL SUB AND SWAP1 PUSH4 0xA9059CBB SWAP1 PUSH1 0x44 ADD PUSH1 0x20 PUSH1 0x40 MLOAD DUP1 DUP4 SUB DUP2 PUSH1 0x0 DUP8 GAS CALL ISZERO DUP1 ISZERO PUSH2 0x572 JUMPI RETURNDATASIZE PUSH1 0x0 DUP1 RETURNDATACOPY RETURNDATASIZE PUSH1 0x0 REVERT JUMPDEST POP POP POP POP PUSH1 0x40 MLOAD RETURNDATASIZE PUSH1 0x1F NOT PUSH1 0x1F DUP3 ADD AND DUP3 ADD DUP1 PUSH1 0x40 MSTORE POP DUP2 ADD SWAP1 PUSH2 0x596 SWAP2 SWAP1 PUSH2 0x1041 JUMP JUMPDEST POP PUSH1 0x40 DUP1 MLOAD DUP3 DUP2 MSTORE PUSH1 0x20 DUP2 ADD DUP5 SWAP1 MSTORE CALLER SWAP2 PUSH32 0x92CCF450A286A957AF52509BC1C9939D1A6A481783E142E41E2499F0BB66EBC6 SWAP2 ADD PUSH1 0x40 MLOAD DUP1 SWAP2 SUB SWAP1 LOG2 POP POP POP POP POP POP PUSH2 0x5E2 PUSH1 0x1 PUSH1 0x0 SSTORE JUMP JUMPDEST POP JUMP JUMPDEST PUSH1 0x1 PUSH1 0x1 PUSH1 0xA0 SHL SUB DUP2 AND PUSH1 0x0 SWAP1 DUP2 MSTORE PUSH1 0x7 PUSH1 0x20 SWAP1 DUP2 MSTORE PUSH1 0x40 DUP1 DUP4 KECCAK256 DUP1 SLOAD DUP3 MLOAD DUP2 DUP6 MUL DUP2 ADD DUP6 ADD SWAP1 SWAP4 MSTORE DUP1 DUP4 MSTORE PUSH1 0x60 SWAP5 SWAP3 SWAP4 SWAP2 SWAP3 SWAP1 SWAP2 DUP5 ADD JUMPDEST DUP3 DUP3 LT ISZERO PUSH2 0x680 JUMPI PUSH1 0x0 DUP5 DUP2 MSTORE PUSH1 0x20 SWAP1 DUP2 SWAP1 KECCAK256 PUSH1 0x40 DUP1 MLOAD PUSH1 0xA0 DUP2 ADD DUP3 MSTORE PUSH1 0x5 DUP7 MUL SWAP1 SWAP3 ADD DUP1 SLOAD DUP4 MSTORE PUSH1 0x1 DUP1 DUP3 ADD SLOAD DUP5 DUP7 ADD MSTORE PUSH1 0x2 DUP3 ADD SLOAD SWAP3 DUP5 ADD SWAP3 SWAP1 SWAP3 MSTORE PUSH1 0x3 DUP2 ADD SLOAD PUSH1 0x60 DUP5 ADD MSTORE PUSH1 0x4 ADD SLOAD PUSH1 0xFF AND ISZERO ISZERO PUSH1 0x80 DUP4 ADD MSTORE SWAP1 DUP4 MSTORE SWAP1 SWAP3 ADD SWAP2 ADD PUSH2 0x61D JUMP JUMPDEST POP POP POP POP SWAP1 POP SWAP2 SWAP1 POP JUMP JUMPDEST PUSH1 0x60 DUP1 PUSH1 0x5 DUP1 SLOAD DUP1 PUSH1 0x20 MUL PUSH1 0x20 ADD PUSH1 0x40 MLOAD SWAP1 DUP2 ADD PUSH1 0x40 MSTORE DUP1 SWAP3 SWAP2 SWAP1 DUP2 DUP2 MSTORE PUSH1 0x20 ADD DUP3 DUP1 SLOAD DUP1 ISZERO PUSH2 0x6E4 JUMPI PUSH1 0x20 MUL DUP3 ADD SWAP2 SWAP1 PUSH1 0x0 MSTORE PUSH1 0x20 PUSH1 0x0 KECCAK256 SWAP1 JUMPDEST DUP2 SLOAD PUSH1 0x1 PUSH1 0x1 PUSH1 0xA0 SHL SUB AND DUP2 MSTORE PUSH1 0x1 SWAP1 SWAP2 ADD SWAP1 PUSH1 0x20 ADD DUP1 DUP4 GT PUSH2 0x6C6 JUMPI JUMPDEST POP POP PUSH1 0x5 SLOAD SWAP4 SWAP6 POP POP POP PUSH8 0xFFFFFFFFFFFFFFFF DUP3 GT ISZERO SWAP1 POP PUSH2 0x708 JUMPI PUSH2 0x708 PUSH2 0xED0 JUMP JUMPDEST PUSH1 0x40 MLOAD SWAP1 DUP1 DUP3 MSTORE DUP1 PUSH1 0x20 MUL PUSH1 0x20 ADD DUP3 ADD PUSH1 0x40 MSTORE DUP1 ISZERO PUSH2 0x76D JUMPI DUP2 PUSH1 0x20 ADD JUMPDEST PUSH2 0x75A PUSH1 0x40 MLOAD DUP1 PUSH1 0xA0 ADD PUSH1 0x40 MSTORE DUP1 PUSH1 0x0 DUP2 MSTORE PUSH1 0x20 ADD PUSH1 0x0 DUP2 MSTORE PUSH1 0x20 ADD PUSH1 0x0 DUP2 MSTORE PUSH1 0x20 ADD PUSH1 0x0 DUP2 MSTORE PUSH1 0x20 ADD PUSH1 0x0 ISZERO ISZERO DUP2 MSTORE POP SWAP1 JUMP JUMPDEST DUP2 MSTORE PUSH1 0x20 ADD SWAP1 PUSH1 0x1 SWAP1 SUB SWAP1 DUP2 PUSH2 0x726 JUMPI SWAP1 POP JUMPDEST POP SWAP1 POP PUSH1 0x0 JUMPDEST PUSH1 0x5 SLOAD DUP2 LT ISZERO PUSH2 0x840 JUMPI PUSH1 0x7 PUSH1 0x0 PUSH1 0x5 DUP4 DUP2 SLOAD DUP2 LT PUSH2 0x794 JUMPI PUSH2 0x794 PUSH2 0xFE9 JUMP JUMPDEST PUSH1 0x0 SWAP2 DUP3 MSTORE PUSH1 0x20 DUP1 DUP4 KECCAK256 SWAP1 SWAP2 ADD SLOAD PUSH1 0x1 PUSH1 0x1 PUSH1 0xA0 SHL SUB AND DUP4 MSTORE DUP3 ADD SWAP3 SWAP1 SWAP3 MSTORE PUSH1 0x40 ADD DUP2 KECCAK256 DUP1 SLOAD SWAP1 SWAP2 SWAP1 PUSH2 0x7C9 JUMPI PUSH2 0x7C9 PUSH2 0xFE9 JUMP JUMPDEST PUSH1 0x0 SWAP2 DUP3 MSTORE PUSH1 0x20 SWAP2 DUP3 SWAP1 KECCAK256 PUSH1 0x40 DUP1 MLOAD PUSH1 0xA0 DUP2 ADD DUP3 MSTORE PUSH1 0x5 SWAP1 SWAP4 MUL SWAP1 SWAP2 ADD DUP1 SLOAD DUP4 MSTORE PUSH1 0x1 DUP2 ADD SLOAD SWAP4 DUP4 ADD SWAP4 SWAP1 SWAP4 MSTORE PUSH1 0x2 DUP4 ADD SLOAD SWAP1 DUP3 ADD MSTORE PUSH1 0x3 DUP3 ADD SLOAD PUSH1 0x60 DUP3 ADD MSTORE PUSH1 0x4 SWAP1 SWAP2 ADD SLOAD PUSH1 0xFF AND ISZERO ISZERO PUSH1 0x80 DUP3 ADD MSTORE DUP3 MLOAD DUP4 SWAP1 DUP4 SWAP1 DUP2 LT PUSH2 0x82D JUMPI PUSH2 0x82D PUSH2 0xFE9 JUMP JUMPDEST PUSH1 0x20 SWAP1 DUP2 MUL SWAP2 SWAP1 SWAP2 ADD ADD MSTORE PUSH1 0x1 ADD PUSH2 0x773 JUMP JUMPDEST POP SWAP1 SWAP2 JUMP JUMPDEST PUSH2 0x84D PUSH2 0xD75 JUMP JUMPDEST PUSH1 0x0 DUP3 GT PUSH2 0x89D JUMPI PUSH1 0x40 MLOAD PUSH3 0x461BCD PUSH1 0xE5 SHL DUP2 MSTORE PUSH1 0x20 PUSH1 0x4 DUP3 ADD MSTORE PUSH1 0x1D PUSH1 0x24 DUP3 ADD MSTORE PUSH32 0x416D6F756E74206D7573742062652067726561746572207468616E2030000000 PUSH1 0x44 DUP3 ADD MSTORE PUSH1 0x64 ADD PUSH2 0x244 JUMP JUMPDEST PUSH3 0x15180 DUP2 LT ISZERO DUP1 ISZERO PUSH2 0x8B4 JUMPI POP PUSH4 0x1E13380 DUP2 GT ISZERO JUMPDEST PUSH2 0x8F3 JUMPI PUSH1 0x40 MLOAD PUSH3 0x461BCD PUSH1 0xE5 SHL DUP2 MSTORE PUSH1 0x20 PUSH1 0x4 DUP3 ADD MSTORE PUSH1 0x10 PUSH1 0x24 DUP3 ADD MSTORE PUSH16 0x24B73B30B634B210323AB930BA34B7B7 PUSH1 0x81 SHL PUSH1 0x44 DUP3 ADD MSTORE PUSH1 0x64 ADD PUSH2 0x244 JUMP JUMPDEST PUSH1 0x40 MLOAD PUSH4 0x23B872DD PUSH1 0xE0 SHL DUP2 MSTORE CALLER PUSH1 0x4 DUP3 ADD MSTORE ADDRESS PUSH1 0x24 DUP3 ADD MSTORE PUSH1 0x44 DUP2 ADD DUP4 SWAP1 MSTORE PUSH32 0x0 PUSH1 0x1 PUSH1 0x1 PUSH1 0xA0 SHL SUB AND SWAP1 PUSH4 0x23B872DD SWAP1 PUSH1 0x64 ADD PUSH1 0x20 PUSH1 0x40 MLOAD DUP1 DUP4 SUB DUP2 PUSH1 0x0 DUP8 GAS CALL ISZERO DUP1 ISZERO PUSH2 0x966 JUMPI RETURNDATASIZE PUSH1 0x0 DUP1 RETURNDATACOPY RETURNDATASIZE PUSH1 0x0 REVERT JUMPDEST POP POP POP POP PUSH1 0x40 MLOAD RETURNDATASIZE PUSH1 0x1F NOT PUSH1 0x1F DUP3 ADD AND DUP3 ADD DUP1 PUSH1 0x40 MSTORE POP DUP2 ADD SWAP1 PUSH2 0x98A SWAP2 SWAP1 PUSH2 0x1041 JUMP JUMPDEST PUSH2 0x9C8 JUMPI PUSH1 0x40 MLOAD PUSH3 0x461BCD PUSH1 0xE5 SHL DUP2 MSTORE PUSH1 0x20 PUSH1 0x4 DUP3 ADD MSTORE PUSH1 0xF PUSH1 0x24 DUP3 ADD MSTORE PUSH15 0x151C985B9CD9995C8819985A5B1959 PUSH1 0x8A SHL PUSH1 0x44 DUP3 ADD MSTORE PUSH1 0x64 ADD PUSH2 0x244 JUMP JUMPDEST PUSH1 0x2 DUP1 SLOAD DUP4 ADD SWAP1 SSTORE PUSH1 0x3 DUP1 SLOAD PUSH1 0x0 SWAP2 DUP3 PUSH2 0x9E1 DUP4 PUSH2 0x105E JUMP JUMPDEST SWAP1 SWAP2 SSTORE POP PUSH1 0x40 DUP1 MLOAD PUSH1 0xA0 DUP2 ADD DUP3 MSTORE DUP3 DUP2 MSTORE PUSH1 0x20 DUP1 DUP3 ADD DUP8 DUP2 MSTORE TIMESTAMP DUP4 DUP6 ADD SWAP1 DUP2 MSTORE PUSH1 0x60 DUP5 ADD DUP9 DUP2 MSTORE PUSH1 0x0 PUSH1 0x80 DUP7 ADD DUP2 DUP2 MSTORE CALLER DUP1 DUP4 MSTORE PUSH1 0x7 DUP8 MSTORE DUP9 DUP4 KECCAK256 DUP1 SLOAD PUSH1 0x1 DUP1 DUP3 ADD DUP4 SSTORE SWAP2 DUP6 MSTORE DUP9 DUP6 KECCAK256 DUP11 MLOAD PUSH1 0x5 SWAP1 SWAP3 MUL ADD SWAP1 DUP2 SSTORE SWAP7 MLOAD SWAP1 DUP8 ADD SSTORE SWAP4 MLOAD PUSH1 0x2 DUP7 ADD SSTORE SWAP2 MLOAD PUSH1 0x3 DUP6 ADD SSTORE SWAP1 MLOAD PUSH1 0x4 SWAP4 DUP5 ADD DUP1 SLOAD PUSH1 0xFF NOT AND SWAP2 ISZERO ISZERO SWAP2 SWAP1 SWAP2 OR SWAP1 SSTORE DUP7 DUP2 MSTORE PUSH1 0x8 DUP5 MSTORE DUP6 DUP2 KECCAK256 DUP1 SLOAD PUSH1 0x1 PUSH1 0x1 PUSH1 0xA0 SHL SUB NOT AND DUP4 OR SWAP1 SSTORE SWAP1 DUP2 MSTORE SWAP2 MSTORE SWAP2 SWAP1 SWAP2 KECCAK256 SLOAD SWAP2 SWAP3 POP SWAP1 PUSH1 0xFF AND PUSH2 0xB0F JUMPI CALLER PUSH1 0x0 DUP2 DUP2 MSTORE PUSH1 0x4 PUSH1 0x20 SWAP1 DUP2 MSTORE PUSH1 0x40 DUP1 DUP4 KECCAK256 DUP1 SLOAD PUSH1 0xFF NOT AND PUSH1 0x1 SWAP1 DUP2 OR SWAP1 SWAP2 SSTORE PUSH1 0x5 DUP1 SLOAD PUSH1 0x6 SWAP1 SWAP5 MSTORE SWAP2 DUP5 KECCAK256 DUP4 SWAP1 SSTORE DUP3 DUP2 ADD DUP3 SSTORE SWAP1 DUP4 MSTORE PUSH32 0x36B6384B5ECA791C62761152D0C79BB0604C104A5FB6F4EB0703F3154BB3DB0 SWAP1 SWAP2 ADD DUP1 SLOAD PUSH1 0x1 PUSH1 0x1 PUSH1 0xA0 SHL SUB NOT AND SWAP1 SWAP4 OR SWAP1 SWAP3 SSTORE DUP2 SLOAD SWAP2 SWAP1 PUSH2 0xB09 DUP4 PUSH2 0x105E JUMP JUMPDEST SWAP2 SWAP1 POP SSTORE POP JUMPDEST PUSH1 0x0 PUSH2 0xB1B DUP6 DUP6 PUSH2 0xBEA JUMP JUMPDEST PUSH1 0x40 MLOAD PUSH4 0x40C10F19 PUSH1 0xE0 SHL DUP2 MSTORE CALLER PUSH1 0x4 DUP3 ADD MSTORE PUSH1 0x24 DUP2 ADD DUP3 SWAP1 MSTORE SWAP1 SWAP2 POP PUSH32 0x0 PUSH1 0x1 PUSH1 0x1 PUSH1 0xA0 SHL SUB AND SWAP1 PUSH4 0x40C10F19 SWAP1 PUSH1 0x44 ADD PUSH1 0x0 PUSH1 0x40 MLOAD DUP1 DUP4 SUB DUP2 PUSH1 0x0 DUP8 DUP1 EXTCODESIZE ISZERO DUP1 ISZERO PUSH2 0xB86 JUMPI PUSH1 0x0 DUP1 REVERT JUMPDEST POP GAS CALL ISZERO DUP1 ISZERO PUSH2 0xB9A JUMPI RETURNDATASIZE PUSH1 0x0 DUP1 RETURNDATACOPY RETURNDATASIZE PUSH1 0x0 REVERT JUMPDEST POP POP PUSH1 0x40 DUP1 MLOAD DUP9 DUP2 MSTORE PUSH1 0x20 DUP2 ADD DUP9 SWAP1 MSTORE CALLER SWAP4 POP PUSH32 0x73A19DD210F1A7F902193214C0EE91DD35EE5B4D920CBA8D519ECA65A7B488CA SWAP3 POP ADD PUSH1 0x40 MLOAD DUP1 SWAP2 SUB SWAP1 LOG2 POP POP POP PUSH2 0xBE6 PUSH1 0x1 PUSH1 0x0 SSTORE JUMP JUMPDEST POP POP JUMP JUMPDEST PUSH4 0xBBF81E00 PUSH1 0xA DUP3 DUP5 MUL MUL DIV JUMPDEST SWAP3 SWAP2 POP POP JUMP JUMPDEST PUSH2 0xC31 PUSH1 0x40 MLOAD DUP1 PUSH1 0xA0 ADD PUSH1 0x40 MSTORE DUP1 PUSH1 0x0 DUP2 MSTORE PUSH1 0x20 ADD PUSH1 0x0 DUP2 MSTORE PUSH1 0x20 ADD PUSH1 0x0 DUP2 MSTORE PUSH1 0x20 ADD PUSH1 0x0 DUP2 MSTORE PUSH1 0x20 ADD PUSH1 0x0 ISZERO ISZERO DUP2 MSTORE POP SWAP1 JUMP JUMPDEST PUSH1 0x0 DUP3 DUP2 MSTORE PUSH1 0x8 PUSH1 0x20 SWAP1 DUP2 MSTORE PUSH1 0x40 DUP1 DUP4 KECCAK256 SLOAD PUSH1 0x1 PUSH1 0x1 PUSH1 0xA0 SHL SUB AND DUP1 DUP5 MSTORE PUSH1 0x7 DUP4 MSTORE DUP2 DUP5 KECCAK256 DUP1 SLOAD DUP4 MLOAD DUP2 DUP7 MUL DUP2 ADD DUP7 ADD SWAP1 SWAP5 MSTORE DUP1 DUP5 MSTORE SWAP2 SWAP5 SWAP4 SWAP1 SWAP2 SWAP1 DUP5 SWAP1 DUP5 ADD JUMPDEST DUP3 DUP3 LT ISZERO PUSH2 0xCD5 JUMPI PUSH1 0x0 DUP5 DUP2 MSTORE PUSH1 0x20 SWAP1 DUP2 SWAP1 KECCAK256 PUSH1 0x40 DUP1 MLOAD PUSH1 0xA0 DUP2 ADD DUP3 MSTORE PUSH1 0x5 DUP7 MUL SWAP1 SWAP3 ADD DUP1 SLOAD DUP4 MSTORE PUSH1 0x1 DUP1 DUP3 ADD SLOAD DUP5 DUP7 ADD MSTORE PUSH1 0x2 DUP3 ADD SLOAD SWAP3 DUP5 ADD SWAP3 SWAP1 SWAP3 MSTORE PUSH1 0x3 DUP2 ADD SLOAD PUSH1 0x60 DUP5 ADD MSTORE PUSH1 0x4 ADD SLOAD PUSH1 0xFF AND ISZERO ISZERO PUSH1 0x80 DUP4 ADD MSTORE SWAP1 DUP4 MSTORE SWAP1 SWAP3 ADD SWAP2 ADD PUSH2 0xC72 JUMP JUMPDEST POP POP POP POP SWAP1 POP PUSH1 0x0 JUMPDEST DUP2 MLOAD DUP2 LT ISZERO PUSH2 0xD37 JUMPI DUP5 DUP3 DUP3 DUP2 MLOAD DUP2 LT PUSH2 0xCFA JUMPI PUSH2 0xCFA PUSH2 0xFE9 JUMP JUMPDEST PUSH1 0x20 MUL PUSH1 0x20 ADD ADD MLOAD PUSH1 0x0 ADD MLOAD SUB PUSH2 0xD2F JUMPI DUP2 DUP2 DUP2 MLOAD DUP2 LT PUSH2 0xD1D JUMPI PUSH2 0xD1D PUSH2 0xFE9 JUMP JUMPDEST PUSH1 0x20 MUL PUSH1 0x20 ADD ADD MLOAD SWAP4 POP POP POP POP SWAP2 SWAP1 POP JUMP JUMPDEST PUSH1 0x1 ADD PUSH2 0xCDE JUMP JUMPDEST POP PUSH1 0x40 MLOAD PUSH3 0x461BCD PUSH1 0xE5 SHL DUP2 MSTORE PUSH1 0x20 PUSH1 0x4 DUP3 ADD MSTORE PUSH1 0x12 PUSH1 0x24 DUP3 ADD MSTORE PUSH18 0x141BDCDA5D1A5BDB881B9BDD08199BDD5B99 PUSH1 0x72 SHL PUSH1 0x44 DUP3 ADD MSTORE PUSH1 0x64 ADD PUSH2 0x244 JUMP JUMPDEST PUSH1 0x2 PUSH1 0x0 SLOAD SUB PUSH2 0xD98 JUMPI PUSH1 0x40 MLOAD PUSH4 0x3EE5AEB5 PUSH1 0xE0 SHL DUP2 MSTORE PUSH1 0x4 ADD PUSH1 0x40 MLOAD DUP1 SWAP2 SUB SWAP1 REVERT JUMPDEST PUSH1 0x2 PUSH1 0x0 SSTORE JUMP JUMPDEST PUSH1 0x0 PUSH1 0x20 DUP3 DUP5 SUB SLT ISZERO PUSH2 0xDB1 JUMPI PUSH1 0x0 DUP1 REVERT JUMPDEST POP CALLDATALOAD SWAP2 SWAP1 POP JUMP JUMPDEST PUSH1 0x0 PUSH1 0x20 DUP3 DUP5 SUB SLT ISZERO PUSH2 0xDCA JUMPI PUSH1 0x0 DUP1 REVERT JUMPDEST DUP2 CALLDATALOAD PUSH1 0x1 PUSH1 0x1 PUSH1 0xA0 SHL SUB DUP2 AND DUP2 EQ PUSH2 0xDE1 JUMPI PUSH1 0x0 DUP1 REVERT JUMPDEST SWAP4 SWAP3 POP POP POP JUMP JUMPDEST PUSH1 0x0 DUP2 MLOAD DUP1 DUP5 MSTORE PUSH1 0x20 DUP5 ADD SWAP4 POP PUSH1 0x20 DUP4 ADD PUSH1 0x0 JUMPDEST DUP3 DUP2 LT ISZERO PUSH2 0xE52 JUMPI PUSH2 0xE3C DUP7 DUP4 MLOAD DUP1 MLOAD DUP3 MSTORE PUSH1 0x20 DUP2 ADD MLOAD PUSH1 0x20 DUP4 ADD MSTORE PUSH1 0x40 DUP2 ADD MLOAD PUSH1 0x40 DUP4 ADD MSTORE PUSH1 0x60 DUP2 ADD MLOAD PUSH1 0x60 DUP4 ADD MSTORE PUSH1 0x80 DUP2 ADD MLOAD ISZERO ISZERO PUSH1 0x80 DUP4 ADD MSTORE POP POP JUMP JUMPDEST PUSH1 0xA0 SWAP6 SWAP1 SWAP6 ADD SWAP5 PUSH1 0x20 SWAP2 SWAP1 SWAP2 ADD SWAP1 PUSH1 0x1 ADD PUSH2 0xDFC JUMP JUMPDEST POP SWAP4 SWAP5 SWAP4 POP POP POP POP JUMP JUMPDEST PUSH1 0x20 DUP2 MSTORE PUSH1 0x0 PUSH2 0xDE1 PUSH1 0x20 DUP4 ADD DUP5 PUSH2 0xDE8 JUMP JUMPDEST PUSH1 0x40 DUP1 DUP3 MSTORE DUP4 MLOAD SWAP1 DUP3 ADD DUP2 SWAP1 MSTORE PUSH1 0x0 SWAP1 PUSH1 0x20 DUP6 ADD SWAP1 PUSH1 0x60 DUP5 ADD SWAP1 DUP4 JUMPDEST DUP2 DUP2 LT ISZERO PUSH2 0xEB2 JUMPI DUP4 MLOAD PUSH1 0x1 PUSH1 0x1 PUSH1 0xA0 SHL SUB AND DUP4 MSTORE PUSH1 0x20 SWAP4 DUP5 ADD SWAP4 SWAP1 SWAP3 ADD SWAP2 PUSH1 0x1 ADD PUSH2 0xE8B JUMP JUMPDEST POP POP DUP4 DUP2 SUB PUSH1 0x20 DUP6 ADD MSTORE PUSH2 0xEC6 DUP2 DUP7 PUSH2 0xDE8 JUMP JUMPDEST SWAP7 SWAP6 POP POP POP POP POP POP JUMP JUMPDEST PUSH4 0x4E487B71 PUSH1 0xE0 SHL PUSH1 0x0 MSTORE PUSH1 0x41 PUSH1 0x4 MSTORE PUSH1 0x24 PUSH1 0x0 REVERT JUMPDEST DUP1 ISZERO ISZERO DUP2 EQ PUSH2 0x5E2 JUMPI PUSH1 0x0 DUP1 REVERT JUMPDEST DUP1 CALLDATALOAD PUSH2 0xEFF DUP2 PUSH2 0xEE6 JUMP JUMPDEST SWAP2 SWAP1 POP JUMP JUMPDEST PUSH1 0x0 PUSH1 0xA0 DUP3 DUP5 SUB SLT DUP1 ISZERO PUSH2 0xF17 JUMPI PUSH1 0x0 DUP1 REVERT JUMPDEST PUSH1 0x0 SWAP1 POP PUSH1 0x40 MLOAD PUSH1 0xA0 DUP2 ADD DUP2 DUP2 LT PUSH8 0xFFFFFFFFFFFFFFFF DUP3 GT OR ISZERO PUSH2 0xF4A JUMPI PUSH4 0x4E487B71 PUSH1 0xE0 SHL DUP4 MSTORE PUSH1 0x41 PUSH1 0x4 MSTORE PUSH1 0x24 DUP4 REVERT JUMPDEST PUSH1 0x40 SWAP1 DUP2 MSTORE DUP5 CALLDATALOAD DUP3 MSTORE PUSH1 0x20 DUP1 DUP7 ADD CALLDATALOAD SWAP1 DUP4 ADD MSTORE DUP5 DUP2 ADD CALLDATALOAD SWAP1 DUP3 ADD MSTORE PUSH1 0x60 DUP1 DUP6 ADD CALLDATALOAD SWAP1 DUP3 ADD DUP2 SWAP1 MSTORE SWAP2 POP PUSH2 0xF7F PUSH1 0x80 DUP6 ADD PUSH2 0xEF4 JUMP JUMPDEST PUSH1 0x80 DUP3 ADD MSTORE SWAP5 SWAP4 POP POP POP POP JUMP JUMPDEST PUSH1 0x0 DUP1 PUSH1 0x40 DUP4 DUP6 SUB SLT ISZERO PUSH2 0xF9F JUMPI PUSH1 0x0 DUP1 REVERT JUMPDEST POP POP DUP1 CALLDATALOAD SWAP3 PUSH1 0x20 SWAP1 SWAP2 ADD CALLDATALOAD SWAP2 POP JUMP JUMPDEST PUSH1 0xA0 DUP2 ADD PUSH2 0xBF7 DUP3 DUP5 DUP1 MLOAD DUP3 MSTORE PUSH1 0x20 DUP2 ADD MLOAD PUSH1 0x20 DUP4 ADD MSTORE PUSH1 0x40 DUP2 ADD MLOAD PUSH1 0x40 DUP4 ADD MSTORE PUSH1 0x60 DUP2 ADD MLOAD PUSH1 0x60 DUP4 ADD MSTORE PUSH1 0x80 DUP2 ADD MLOAD ISZERO ISZERO PUSH1 0x80 DUP4 ADD MSTORE POP POP JUMP JUMPDEST PUSH4 0x4E487B71 PUSH1 0xE0 SHL PUSH1 0x0 MSTORE PUSH1 0x32 PUSH1 0x4 MSTORE PUSH1 0x24 PUSH1 0x0 REVERT JUMPDEST PUSH4 0x4E487B71 PUSH1 0xE0 SHL PUSH1 0x0 MSTORE PUSH1 0x11 PUSH1 0x4 MSTORE PUSH1 0x24 PUSH1 0x0 REVERT JUMPDEST DUP1 DUP3 ADD DUP1 DUP3 GT ISZERO PUSH2 0xBF7 JUMPI PUSH2 0xBF7 PUSH2 0xFFF JUMP JUMPDEST PUSH1 0x0 PUSH1 0x20 DUP3 DUP5 SUB SLT ISZERO PUSH2 0x103A JUMPI PUSH1 0x0 DUP1 REVERT JUMPDEST POP MLOAD SWAP2 SWAP1 POP JUMP JUMPDEST PUSH1 0x0 PUSH1 0x20 DUP3 DUP5 SUB SLT ISZERO PUSH2 0x1053 JUMPI PUSH1 0x0 DUP1 REVERT JUMPDEST DUP2 MLOAD PUSH2 0xDE1 DUP2 PUSH2 0xEE6 JUMP JUMPDEST PUSH1 0x0 PUSH1 0x1 DUP3 ADD PUSH2 0x1070 JUMPI PUSH2 0x1070 PUSH2 0xFFF JUMP JUMPDEST POP PUSH1 0x1 ADD SWAP1 JUMP INVALID LOG2 PUSH5 0x6970667358 0x22 SLT KECCAK256 0xE8 0xB2 0xC7 STATICCALL 0xBE MSTORE DELEGATECALL DUP1 LOG3 0xCF PC STOP SWAP15 0xC7 0xE 0x4C 0xDB MLOAD 0xD0 KECCAK256 0xAC BYTE 0xB9 SWAP4 CALLVALUE 0xCB MCOPY RETURNDATASIZE 0xB2 PUSH23 0x2B4464736F6C634300081C003360806040523480156100 LT JUMPI PUSH1 0x0 DUP1 REVERT JUMPDEST POP PUSH1 0x40 MLOAD PUSH2 0xEBC CODESIZE SUB DUP1 PUSH2 0xEBC DUP4 CODECOPY DUP2 ADD PUSH1 0x40 DUP2 SWAP1 MSTORE PUSH2 0x2F SWAP2 PUSH2 0x199 JUMP JUMPDEST DUP3 DUP3 DUP3 PUSH1 0x3 PUSH2 0x3E DUP4 DUP3 PUSH2 0x2AA JUMP JUMPDEST POP PUSH1 0x4 PUSH2 0x4B DUP3 DUP3 PUSH2 0x2AA JUMP JUMPDEST POP POP POP PUSH1 0x1 PUSH1 0x1 PUSH1 0xA0 SHL SUB DUP2 AND PUSH2 0x7C JUMPI PUSH1 0x40 MLOAD PUSH4 0x1E4FBDF7 PUSH1 0xE0 SHL DUP2 MSTORE PUSH1 0x0 PUSH1 0x4 DUP3 ADD MSTORE PUSH1 0x24 ADD PUSH1 0x40 MLOAD DUP1 SWAP2 SUB SWAP1 REVERT JUMPDEST PUSH2 0x85 DUP2 PUSH2 0x8E JUMP JUMPDEST POP POP POP POP PUSH2 0x368 JUMP JUMPDEST PUSH1 0x5 DUP1 SLOAD PUSH1 0x1 PUSH1 0x1 PUSH1 0xA0 SHL SUB DUP4 DUP2 AND PUSH1 0x1 PUSH1 0x1 PUSH1 0xA0 SHL SUB NOT DUP4 AND DUP2 OR SWAP1 SWAP4 SSTORE PUSH1 0x40 MLOAD SWAP2 AND SWAP2 SWAP1 DUP3 SWAP1 PUSH32 0x8BE0079C531659141344CD1FD0A4F28419497F9722A3DAAFE3B4186F6B6457E0 SWAP1 PUSH1 0x0 SWAP1 LOG3 POP POP JUMP JUMPDEST PUSH4 0x4E487B71 PUSH1 0xE0 SHL PUSH1 0x0 MSTORE PUSH1 0x41 PUSH1 0x4 MSTORE PUSH1 0x24 PUSH1 0x0 REVERT JUMPDEST PUSH1 0x0 DUP3 PUSH1 0x1F DUP4 ADD SLT PUSH2 0x107 JUMPI PUSH1 0x0 DUP1 REVERT JUMPDEST DUP2 MLOAD PUSH1 0x1 PUSH1 0x1 PUSH1 0x40 SHL SUB DUP2 GT ISZERO PUSH2 0x120 JUMPI PUSH2 0x120 PUSH2 0xE0 JUMP JUMPDEST PUSH1 0x40 MLOAD PUSH1 0x1F DUP3 ADD PUSH1 0x1F NOT SWAP1 DUP2 AND PUSH1 0x3F ADD AND DUP2 ADD PUSH1 0x1 PUSH1 0x1 PUSH1 0x40 SHL SUB DUP2 GT DUP3 DUP3 LT OR ISZERO PUSH2 0x14E JUMPI PUSH2 0x14E PUSH2 0xE0 JUMP JUMPDEST PUSH1 0x40 MSTORE DUP2 DUP2 MSTORE DUP4 DUP3 ADD PUSH1 0x20 ADD DUP6 LT ISZERO PUSH2 0x166 JUMPI PUSH1 0x0 DUP1 REVERT JUMPDEST PUSH1 0x0 JUMPDEST DUP3 DUP2 LT ISZERO PUSH2 0x185 JUMPI PUSH1 0x20 DUP2 DUP7 ADD DUP2 ADD MLOAD DUP4 DUP4 ADD DUP3 ADD MSTORE ADD PUSH2 0x169 JUMP JUMPDEST POP PUSH1 0x0 SWAP2 DUP2 ADD PUSH1 0x20 ADD SWAP2 SWAP1 SWAP2 MSTORE SWAP4 SWAP3 POP POP POP JUMP JUMPDEST PUSH1 0x0 DUP1 PUSH1 0x0 PUSH1 0x60 DUP5 DUP7 SUB SLT ISZERO PUSH2 0x1AE JUMPI PUSH1 0x0 DUP1 REVERT JUMPDEST DUP4 MLOAD PUSH1 0x1 PUSH1 0x1 PUSH1 0xA0 SHL SUB DUP2 AND DUP2 EQ PUSH2 0x1C5 JUMPI PUSH1 0x0 DUP1 REVERT JUMPDEST PUSH1 0x20 DUP6 ADD MLOAD SWAP1 SWAP4 POP PUSH1 0x1 PUSH1 0x1 PUSH1 0x40 SHL SUB DUP2 GT ISZERO PUSH2 0x1E1 JUMPI PUSH1 0x0 DUP1 REVERT JUMPDEST PUSH2 0x1ED DUP7 DUP3 DUP8 ADD PUSH2 0xF6 JUMP JUMPDEST PUSH1 0x40 DUP7 ADD MLOAD SWAP1 SWAP4 POP SWAP1 POP PUSH1 0x1 PUSH1 0x1 PUSH1 0x40 SHL SUB DUP2 GT ISZERO PUSH2 0x20B JUMPI PUSH1 0x0 DUP1 REVERT JUMPDEST PUSH2 0x217 DUP7 DUP3 DUP8 ADD PUSH2 0xF6 JUMP JUMPDEST SWAP2 POP POP SWAP3 POP SWAP3 POP SWAP3 JUMP JUMPDEST PUSH1 0x1 DUP2 DUP2 SHR SWAP1 DUP3 AND DUP1 PUSH2 0x235 JUMPI PUSH1 0x7F DUP3 AND SWAP2 POP JUMPDEST PUSH1 0x20 DUP3 LT DUP2 SUB PUSH2 0x255 JUMPI PUSH4 0x4E487B71 PUSH1 0xE0 SHL PUSH1 0x0 MSTORE PUSH1 0x22 PUSH1 0x4 MSTORE PUSH1 0x24 PUSH1 0x0 REVERT JUMPDEST POP SWAP2 SWAP1 POP JUMP JUMPDEST PUSH1 0x1F DUP3 GT ISZERO PUSH2 0x2A5 JUMPI DUP1 PUSH1 0x0 MSTORE PUSH1 0x20 PUSH1 0x0 KECCAK256 PUSH1 0x1F DUP5 ADD PUSH1 0x5 SHR DUP2 ADD PUSH1 0x20 DUP6 LT ISZERO PUSH2 0x282 JUMPI POP DUP1 JUMPDEST PUSH1 0x1F DUP5 ADD PUSH1 0x5 SHR DUP3 ADD SWAP2 POP JUMPDEST DUP2 DUP2 LT ISZERO PUSH2 0x2A2 JUMPI PUSH1 0x0 DUP2 SSTORE PUSH1 0x1 ADD PUSH2 0x28E JUMP JUMPDEST POP POP JUMPDEST POP POP POP JUMP JUMPDEST DUP2 MLOAD PUSH1 0x1 PUSH1 0x1 PUSH1 0x40 SHL SUB DUP2 GT ISZERO PUSH2 0x2C3 JUMPI PUSH2 0x2C3 PUSH2 0xE0 JUMP JUMPDEST PUSH2 0x2D7 DUP2 PUSH2 0x2D1 DUP5 SLOAD PUSH2 0x221 JUMP JUMPDEST DUP5 PUSH2 0x25B JUMP JUMPDEST PUSH1 0x20 PUSH1 0x1F DUP3 GT PUSH1 0x1 DUP2 EQ PUSH2 0x30B JUMPI PUSH1 0x0 DUP4 ISZERO PUSH2 0x2F3 JUMPI POP DUP5 DUP3 ADD MLOAD JUMPDEST PUSH1 0x0 NOT PUSH1 0x3 DUP6 SWAP1 SHL SHR NOT AND PUSH1 0x1 DUP5 SWAP1 SHL OR DUP5 SSTORE PUSH2 0x2A2 JUMP JUMPDEST PUSH1 0x0 DUP5 DUP2 MSTORE PUSH1 0x20 DUP2 KECCAK256 PUSH1 0x1F NOT DUP6 AND SWAP2 JUMPDEST DUP3 DUP2 LT ISZERO PUSH2 0x33B JUMPI DUP8 DUP6 ADD MLOAD DUP3 SSTORE PUSH1 0x20 SWAP5 DUP6 ADD SWAP5 PUSH1 0x1 SWAP1 SWAP3 ADD SWAP2 ADD PUSH2 0x31B JUMP JUMPDEST POP DUP5 DUP3 LT ISZERO PUSH2 0x359 JUMPI DUP7 DUP5 ADD MLOAD PUSH1 0x0 NOT PUSH1 0x3 DUP8 SWAP1 SHL PUSH1 0xF8 AND SHR NOT AND DUP2 SSTORE JUMPDEST POP POP POP POP PUSH1 0x1 SWAP1 DUP2 SHL ADD SWAP1 SSTORE POP JUMP JUMPDEST PUSH2 0xB45 DUP1 PUSH2 0x377 PUSH1 0x0 CODECOPY PUSH1 0x0 RETURN INVALID PUSH1 0x80 PUSH1 0x40 MSTORE CALLVALUE DUP1 ISZERO PUSH2 0x10 JUMPI PUSH1 0x0 DUP1 REVERT JUMPDEST POP PUSH1 0x4 CALLDATASIZE LT PUSH2 0x121 JUMPI PUSH1 0x0 CALLDATALOAD PUSH1 0xE0 SHR DUP1 PUSH4 0x82F7D392 GT PUSH2 0xAD JUMPI DUP1 PUSH4 0xC7D4F466 GT PUSH2 0x71 JUMPI DUP1 PUSH4 0xC7D4F466 EQ PUSH2 0x26D JUMPI DUP1 PUSH4 0xC95C2FC7 EQ PUSH2 0x280 JUMPI DUP1 PUSH4 0xDD62ED3E EQ PUSH2 0x293 JUMPI DUP1 PUSH4 0xF2FDE38B EQ PUSH2 0x2CC JUMPI DUP1 PUSH4 0xF7EE7A43 EQ PUSH2 0x2DF JUMPI PUSH1 0x0 DUP1 REVERT JUMPDEST DUP1 PUSH4 0x82F7D392 EQ PUSH2 0x201 JUMPI DUP1 PUSH4 0x8DA5CB5B EQ PUSH2 0x224 JUMPI DUP1 PUSH4 0x95D89B41 EQ PUSH2 0x23F JUMPI DUP1 PUSH4 0x9DC29FAC EQ PUSH2 0x247 JUMPI DUP1 PUSH4 0xA9059CBB EQ PUSH2 0x25A JUMPI PUSH1 0x0 DUP1 REVERT JUMPDEST DUP1 PUSH4 0x313CE567 GT PUSH2 0xF4 JUMPI DUP1 PUSH4 0x313CE567 EQ PUSH2 0x18C JUMPI DUP1 PUSH4 0x40C10F19 EQ PUSH2 0x19B JUMPI DUP1 PUSH4 0x6AA71D18 EQ PUSH2 0x1B0 JUMPI DUP1 PUSH4 0x70A08231 EQ PUSH2 0x1D0 JUMPI DUP1 PUSH4 0x715018A6 EQ PUSH2 0x1F9 JUMPI PUSH1 0x0 DUP1 REVERT JUMPDEST DUP1 PUSH4 0x6FDDE03 EQ PUSH2 0x126 JUMPI DUP1 PUSH4 0x95EA7B3 EQ PUSH2 0x144 JUMPI DUP1 PUSH4 0x18160DDD EQ PUSH2 0x167 JUMPI DUP1 PUSH4 0x23B872DD EQ PUSH2 0x179 JUMPI JUMPDEST PUSH1 0x0 DUP1 REVERT JUMPDEST PUSH2 0x12E PUSH2 0x2E9 JUMP JUMPDEST PUSH1 0x40 MLOAD PUSH2 0x13B SWAP2 SWAP1 PUSH2 0x952 JUMP JUMPDEST PUSH1 0x40 MLOAD DUP1 SWAP2 SUB SWAP1 RETURN JUMPDEST PUSH2 0x157 PUSH2 0x152 CALLDATASIZE PUSH1 0x4 PUSH2 0x9BC JUMP JUMPDEST PUSH2 0x37B JUMP JUMPDEST PUSH1 0x40 MLOAD SWAP1 ISZERO ISZERO DUP2 MSTORE PUSH1 0x20 ADD PUSH2 0x13B JUMP JUMPDEST PUSH1 0x2 SLOAD JUMPDEST PUSH1 0x40 MLOAD SWAP1 DUP2 MSTORE PUSH1 0x20 ADD PUSH2 0x13B JUMP JUMPDEST PUSH2 0x157 PUSH2 0x187 CALLDATASIZE PUSH1 0x4 PUSH2 0x9E6 JUMP JUMPDEST PUSH2 0x395 JUMP JUMPDEST PUSH1 0x40 MLOAD PUSH1 0x12 DUP2 MSTORE PUSH1 0x20 ADD PUSH2 0x13B JUMP JUMPDEST PUSH2 0x1AE PUSH2 0x1A9 CALLDATASIZE PUSH1 0x4 PUSH2 0x9BC JUMP JUMPDEST PUSH2 0x3B9 JUMP JUMPDEST STOP JUMPDEST PUSH2 0x16B PUSH2 0x1BE CALLDATASIZE PUSH1 0x4 PUSH2 0xA23 JUMP JUMPDEST PUSH1 0x6 PUSH1 0x20 MSTORE PUSH1 0x0 SWAP1 DUP2 MSTORE PUSH1 0x40 SWAP1 KECCAK256 SLOAD DUP2 JUMP JUMPDEST PUSH2 0x16B PUSH2 0x1DE CALLDATASIZE PUSH1 0x4 PUSH2 0xA23 JUMP JUMPDEST PUSH1 0x1 PUSH1 0x1 PUSH1 0xA0 SHL SUB AND PUSH1 0x0 SWAP1 DUP2 MSTORE PUSH1 0x20 DUP2 SWAP1 MSTORE PUSH1 0x40 SWAP1 KECCAK256 SLOAD SWAP1 JUMP JUMPDEST PUSH2 0x1AE PUSH2 0x45D JUMP JUMPDEST PUSH2 0x157 PUSH2 0x20F CALLDATASIZE PUSH1 0x4 PUSH2 0xA23 JUMP JUMPDEST PUSH1 0x7 PUSH1 0x20 MSTORE PUSH1 0x0 SWAP1 DUP2 MSTORE PUSH1 0x40 SWAP1 KECCAK256 SLOAD PUSH1 0xFF AND DUP2 JUMP JUMPDEST PUSH1 0x5 SLOAD PUSH1 0x40 MLOAD PUSH1 0x1 PUSH1 0x1 PUSH1 0xA0 SHL SUB SWAP1 SWAP2 AND DUP2 MSTORE PUSH1 0x20 ADD PUSH2 0x13B JUMP JUMPDEST PUSH2 0x12E PUSH2 0x471 JUMP JUMPDEST PUSH2 0x1AE PUSH2 0x255 CALLDATASIZE PUSH1 0x4 PUSH2 0x9BC JUMP JUMPDEST PUSH2 0x480 JUMP JUMPDEST PUSH2 0x157 PUSH2 0x268 CALLDATASIZE PUSH1 0x4 PUSH2 0x9BC JUMP JUMPDEST PUSH2 0x492 JUMP JUMPDEST PUSH2 0x1AE PUSH2 0x27B CALLDATASIZE PUSH1 0x4 PUSH2 0x9BC JUMP JUMPDEST PUSH2 0x4A0 JUMP JUMPDEST PUSH2 0x1AE PUSH2 0x28E CALLDATASIZE PUSH1 0x4 PUSH2 0xA45 JUMP JUMPDEST PUSH2 0x508 JUMP JUMPDEST PUSH2 0x16B PUSH2 0x2A1 CALLDATASIZE PUSH1 0x4 PUSH2 0xA81 JUMP JUMPDEST PUSH1 0x1 PUSH1 0x1 PUSH1 0xA0 SHL SUB SWAP2 DUP3 AND PUSH1 0x0 SWAP1 DUP2 MSTORE PUSH1 0x1 PUSH1 0x20 SWAP1 DUP2 MSTORE PUSH1 0x40 DUP1 DUP4 KECCAK256 SWAP4 SWAP1 SWAP5 AND DUP3 MSTORE SWAP2 SWAP1 SWAP2 MSTORE KECCAK256 SLOAD SWAP1 JUMP JUMPDEST PUSH2 0x1AE PUSH2 0x2DA CALLDATASIZE PUSH1 0x4 PUSH2 0xA23 JUMP JUMPDEST PUSH2 0x53B JUMP JUMPDEST PUSH2 0x16B PUSH3 0x15180 DUP2 JUMP JUMPDEST PUSH1 0x60 PUSH1 0x3 DUP1 SLOAD PUSH2 0x2F8 SWAP1 PUSH2 0xAB4 JUMP JUMPDEST DUP1 PUSH1 0x1F ADD PUSH1 0x20 DUP1 SWAP2 DIV MUL PUSH1 0x20 ADD PUSH1 0x40 MLOAD SWAP1 DUP2 ADD PUSH1 0x40 MSTORE DUP1 SWAP3 SWAP2 SWAP1 DUP2 DUP2 MSTORE PUSH1 0x20 ADD DUP3 DUP1 SLOAD PUSH2 0x324 SWAP1 PUSH2 0xAB4 JUMP JUMPDEST DUP1 ISZERO PUSH2 0x371 JUMPI DUP1 PUSH1 0x1F LT PUSH2 0x346 JUMPI PUSH2 0x100 DUP1 DUP4 SLOAD DIV MUL DUP4 MSTORE SWAP2 PUSH1 0x20 ADD SWAP2 PUSH2 0x371 JUMP JUMPDEST DUP3 ADD SWAP2 SWAP1 PUSH1 0x0 MSTORE PUSH1 0x20 PUSH1 0x0 KECCAK256 SWAP1 JUMPDEST DUP2 SLOAD DUP2 MSTORE SWAP1 PUSH1 0x1 ADD SWAP1 PUSH1 0x20 ADD DUP1 DUP4 GT PUSH2 0x354 JUMPI DUP3 SWAP1 SUB PUSH1 0x1F AND DUP3 ADD SWAP2 JUMPDEST POP POP POP POP POP SWAP1 POP SWAP1 JUMP JUMPDEST PUSH1 0x0 CALLER PUSH2 0x389 DUP2 DUP6 DUP6 PUSH2 0x579 JUMP JUMPDEST PUSH1 0x1 SWAP2 POP POP JUMPDEST SWAP3 SWAP2 POP POP JUMP JUMPDEST PUSH1 0x0 CALLER PUSH2 0x3A3 DUP6 DUP3 DUP6 PUSH2 0x58B JUMP JUMPDEST PUSH2 0x3AE DUP6 DUP6 DUP6 PUSH2 0x609 JUMP JUMPDEST POP PUSH1 0x1 SWAP5 SWAP4 POP POP POP POP JUMP JUMPDEST PUSH1 0x1 PUSH1 0x1 PUSH1 0xA0 SHL SUB DUP3 AND PUSH1 0x0 SWAP1 DUP2 MSTORE PUSH1 0x6 PUSH1 0x20 MSTORE PUSH1 0x40 SWAP1 KECCAK256 SLOAD PUSH2 0x3E0 SWAP1 PUSH3 0x15180 SWAP1 PUSH2 0xAEE JUMP JUMPDEST TIMESTAMP LT ISZERO PUSH2 0x434 JUMPI PUSH1 0x40 MLOAD PUSH3 0x461BCD PUSH1 0xE5 SHL DUP2 MSTORE PUSH1 0x20 PUSH1 0x4 DUP3 ADD DUP2 SWAP1 MSTORE PUSH1 0x24 DUP3 ADD MSTORE PUSH32 0x4D757374207761697420323420686F757273206265747765656E206D696E7473 PUSH1 0x44 DUP3 ADD MSTORE PUSH1 0x64 ADD JUMPDEST PUSH1 0x40 MLOAD DUP1 SWAP2 SUB SWAP1 REVERT JUMPDEST PUSH1 0x1 PUSH1 0x1 PUSH1 0xA0 SHL SUB DUP3 AND PUSH1 0x0 SWAP1 DUP2 MSTORE PUSH1 0x6 PUSH1 0x20 MSTORE PUSH1 0x40 SWAP1 KECCAK256 TIMESTAMP SWAP1 SSTORE PUSH2 0x459 DUP3 DUP3 PUSH2 0x668 JUMP JUMPDEST POP POP JUMP JUMPDEST PUSH2 0x465 PUSH2 0x69E JUMP JUMPDEST PUSH2 0x46F PUSH1 0x0 PUSH2 0x6CB JUMP JUMPDEST JUMP JUMPDEST PUSH1 0x60 PUSH1 0x4 DUP1 SLOAD PUSH2 0x2F8 SWAP1 PUSH2 0xAB4 JUMP JUMPDEST PUSH2 0x488 PUSH2 0x69E JUMP JUMPDEST PUSH2 0x459 DUP3 DUP3 PUSH2 0x71D JUMP JUMPDEST PUSH1 0x0 CALLER PUSH2 0x389 DUP2 DUP6 DUP6 PUSH2 0x609 JUMP JUMPDEST PUSH1 0x1 PUSH1 0x1 PUSH1 0xA0 SHL SUB DUP3 AND PUSH1 0x0 SWAP1 DUP2 MSTORE PUSH1 0x7 PUSH1 0x20 MSTORE PUSH1 0x40 SWAP1 KECCAK256 SLOAD PUSH1 0xFF AND PUSH2 0x434 JUMPI PUSH1 0x40 MLOAD PUSH3 0x461BCD PUSH1 0xE5 SHL DUP2 MSTORE PUSH1 0x20 PUSH1 0x4 DUP3 ADD MSTORE PUSH1 0x19 PUSH1 0x24 DUP3 ADD MSTORE PUSH32 0x41646472657373206D75737420626520612073747564656E7400000000000000 PUSH1 0x44 DUP3 ADD MSTORE PUSH1 0x64 ADD PUSH2 0x42B JUMP JUMPDEST PUSH2 0x510 PUSH2 0x69E JUMP JUMPDEST PUSH1 0x1 PUSH1 0x1 PUSH1 0xA0 SHL SUB SWAP2 SWAP1 SWAP2 AND PUSH1 0x0 SWAP1 DUP2 MSTORE PUSH1 0x7 PUSH1 0x20 MSTORE PUSH1 0x40 SWAP1 KECCAK256 DUP1 SLOAD PUSH1 0xFF NOT AND SWAP2 ISZERO ISZERO SWAP2 SWAP1 SWAP2 OR SWAP1 SSTORE JUMP JUMPDEST PUSH2 0x543 PUSH2 0x69E JUMP JUMPDEST PUSH1 0x1 PUSH1 0x1 PUSH1 0xA0 SHL SUB DUP2 AND PUSH2 0x56D JUMPI PUSH1 0x40 MLOAD PUSH4 0x1E4FBDF7 PUSH1 0xE0 SHL DUP2 MSTORE PUSH1 0x0 PUSH1 0x4 DUP3 ADD MSTORE PUSH1 0x24 ADD PUSH2 0x42B JUMP JUMPDEST PUSH2 0x576 DUP2 PUSH2 0x6CB JUMP JUMPDEST POP JUMP JUMPDEST PUSH2 0x586 DUP4 DUP4 DUP4 PUSH1 0x1 PUSH2 0x753 JUMP JUMPDEST POP POP POP JUMP JUMPDEST PUSH1 0x1 PUSH1 0x1 PUSH1 0xA0 SHL SUB DUP4 DUP2 AND PUSH1 0x0 SWAP1 DUP2 MSTORE PUSH1 0x1 PUSH1 0x20 SWAP1 DUP2 MSTORE PUSH1 0x40 DUP1 DUP4 KECCAK256 SWAP4 DUP7 AND DUP4 MSTORE SWAP3 SWAP1 MSTORE KECCAK256 SLOAD PUSH1 0x0 NOT DUP2 EQ PUSH2 0x603 JUMPI DUP2 DUP2 LT ISZERO PUSH2 0x5F4 JUMPI PUSH1 0x40 MLOAD PUSH4 0x7DC7A0D9 PUSH1 0xE1 SHL DUP2 MSTORE PUSH1 0x1 PUSH1 0x1 PUSH1 0xA0 SHL SUB DUP5 AND PUSH1 0x4 DUP3 ADD MSTORE PUSH1 0x24 DUP2 ADD DUP3 SWAP1 MSTORE PUSH1 0x44 DUP2 ADD DUP4 SWAP1 MSTORE PUSH1 0x64 ADD PUSH2 0x42B JUMP JUMPDEST PUSH2 0x603 DUP5 DUP5 DUP5 DUP5 SUB PUSH1 0x0 PUSH2 0x753 JUMP JUMPDEST POP POP POP POP JUMP JUMPDEST PUSH1 0x1 PUSH1 0x1 PUSH1 0xA0 SHL SUB DUP4 AND PUSH2 0x633 JUMPI PUSH1 0x40 MLOAD PUSH4 0x4B637E8F PUSH1 0xE1 SHL DUP2 MSTORE PUSH1 0x0 PUSH1 0x4 DUP3 ADD MSTORE PUSH1 0x24 ADD PUSH2 0x42B JUMP JUMPDEST PUSH1 0x1 PUSH1 0x1 PUSH1 0xA0 SHL SUB DUP3 AND PUSH2 0x65D JUMPI PUSH1 0x40 MLOAD PUSH4 0xEC442F05 PUSH1 0xE0 SHL DUP2 MSTORE PUSH1 0x0 PUSH1 0x4 DUP3 ADD MSTORE PUSH1 0x24 ADD PUSH2 0x42B JUMP JUMPDEST PUSH2 0x586 DUP4 DUP4 DUP4 PUSH2 0x828 JUMP JUMPDEST PUSH1 0x1 PUSH1 0x1 PUSH1 0xA0 SHL SUB DUP3 AND PUSH2 0x692 JUMPI PUSH1 0x40 MLOAD PUSH4 0xEC442F05 PUSH1 0xE0 SHL DUP2 MSTORE PUSH1 0x0 PUSH1 0x4 DUP3 ADD MSTORE PUSH1 0x24 ADD PUSH2 0x42B JUMP JUMPDEST PUSH2 0x459 PUSH1 0x0 DUP4 DUP4 PUSH2 0x828 JUMP JUMPDEST PUSH1 0x5 SLOAD PUSH1 0x1 PUSH1 0x1 PUSH1 0xA0 SHL SUB AND CALLER EQ PUSH2 0x46F JUMPI PUSH1 0x40 MLOAD PUSH4 0x118CDAA7 PUSH1 0xE0 SHL DUP2 MSTORE CALLER PUSH1 0x4 DUP3 ADD MSTORE PUSH1 0x24 ADD PUSH2 0x42B JUMP JUMPDEST PUSH1 0x5 DUP1 SLOAD PUSH1 0x1 PUSH1 0x1 PUSH1 0xA0 SHL SUB DUP4 DUP2 AND PUSH1 0x1 PUSH1 0x1 PUSH1 0xA0 SHL SUB NOT DUP4 AND DUP2 OR SWAP1 SWAP4 SSTORE PUSH1 0x40 MLOAD SWAP2 AND SWAP2 SWAP1 DUP3 SWAP1 PUSH32 0x8BE0079C531659141344CD1FD0A4F28419497F9722A3DAAFE3B4186F6B6457E0 SWAP1 PUSH1 0x0 SWAP1 LOG3 POP POP JUMP JUMPDEST PUSH1 0x1 PUSH1 0x1 PUSH1 0xA0 SHL SUB DUP3 AND PUSH2 0x747 JUMPI PUSH1 0x40 MLOAD PUSH4 0x4B637E8F PUSH1 0xE1 SHL DUP2 MSTORE PUSH1 0x0 PUSH1 0x4 DUP3 ADD MSTORE PUSH1 0x24 ADD PUSH2 0x42B JUMP JUMPDEST PUSH2 0x459 DUP3 PUSH1 0x0 DUP4 PUSH2 0x828 JUMP JUMPDEST PUSH1 0x1 PUSH1 0x1 PUSH1 0xA0 SHL SUB DUP5 AND PUSH2 0x77D JUMPI PUSH1 0x40 MLOAD PUSH4 0xE602DF05 PUSH1 0xE0 SHL DUP2 MSTORE PUSH1 0x0 PUSH1 0x4 DUP3 ADD MSTORE PUSH1 0x24 ADD PUSH2 0x42B JUMP JUMPDEST PUSH1 0x1 PUSH1 0x1 PUSH1 0xA0 SHL SUB DUP4 AND PUSH2 0x7A7 JUMPI PUSH1 0x40 MLOAD PUSH4 0x4A1406B1 PUSH1 0xE1 SHL DUP2 MSTORE PUSH1 0x0 PUSH1 0x4 DUP3 ADD MSTORE PUSH1 0x24 ADD PUSH2 0x42B JUMP JUMPDEST PUSH1 0x1 PUSH1 0x1 PUSH1 0xA0 SHL SUB DUP1 DUP6 AND PUSH1 0x0 SWAP1 DUP2 MSTORE PUSH1 0x1 PUSH1 0x20 SWAP1 DUP2 MSTORE PUSH1 0x40 DUP1 DUP4 KECCAK256 SWAP4 DUP8 AND DUP4 MSTORE SWAP3 SWAP1 MSTORE KECCAK256 DUP3 SWAP1 SSTORE DUP1 ISZERO PUSH2 0x603 JUMPI DUP3 PUSH1 0x1 PUSH1 0x1 PUSH1 0xA0 SHL SUB AND DUP5 PUSH1 0x1 PUSH1 0x1 PUSH1 0xA0 SHL SUB AND PUSH32 0x8C5BE1E5EBEC7D5BD14F71427D1E84F3DD0314C0F7B2291E5B200AC8C7C3B925 DUP5 PUSH1 0x40 MLOAD PUSH2 0x81A SWAP2 DUP2 MSTORE PUSH1 0x20 ADD SWAP1 JUMP JUMPDEST PUSH1 0x40 MLOAD DUP1 SWAP2 SUB SWAP1 LOG3 POP POP POP POP JUMP JUMPDEST PUSH1 0x1 PUSH1 0x1 PUSH1 0xA0 SHL SUB DUP4 AND PUSH2 0x853 JUMPI DUP1 PUSH1 0x2 PUSH1 0x0 DUP3 DUP3 SLOAD PUSH2 0x848 SWAP2 SWAP1 PUSH2 0xAEE JUMP JUMPDEST SWAP1 SWAP2 SSTORE POP PUSH2 0x8C5 SWAP1 POP JUMP JUMPDEST PUSH1 0x1 PUSH1 0x1 PUSH1 0xA0 SHL SUB DUP4 AND PUSH1 0x0 SWAP1 DUP2 MSTORE PUSH1 0x20 DUP2 SWAP1 MSTORE PUSH1 0x40 SWAP1 KECCAK256 SLOAD DUP2 DUP2 LT ISZERO PUSH2 0x8A6 JUMPI PUSH1 0x40 MLOAD PUSH4 0x391434E3 PUSH1 0xE2 SHL DUP2 MSTORE PUSH1 0x1 PUSH1 0x1 PUSH1 0xA0 SHL SUB DUP6 AND PUSH1 0x4 DUP3 ADD MSTORE PUSH1 0x24 DUP2 ADD DUP3 SWAP1 MSTORE PUSH1 0x44 DUP2 ADD DUP4 SWAP1 MSTORE PUSH1 0x64 ADD PUSH2 0x42B JUMP JUMPDEST PUSH1 0x1 PUSH1 0x1 PUSH1 0xA0 SHL SUB DUP5 AND PUSH1 0x0 SWAP1 DUP2 MSTORE PUSH1 0x20 DUP2 SWAP1 MSTORE PUSH1 0x40 SWAP1 KECCAK256 SWAP1 DUP3 SWAP1 SUB SWAP1 SSTORE JUMPDEST PUSH1 0x1 PUSH1 0x1 PUSH1 0xA0 SHL SUB DUP3 AND PUSH2 0x8E1 JUMPI PUSH1 0x2 DUP1 SLOAD DUP3 SWAP1 SUB SWAP1 SSTORE PUSH2 0x900 JUMP JUMPDEST PUSH1 0x1 PUSH1 0x1 PUSH1 0xA0 SHL SUB DUP3 AND PUSH1 0x0 SWAP1 DUP2 MSTORE PUSH1 0x20 DUP2 SWAP1 MSTORE PUSH1 0x40 SWAP1 KECCAK256 DUP1 SLOAD DUP3 ADD SWAP1 SSTORE JUMPDEST DUP2 PUSH1 0x1 PUSH1 0x1 PUSH1 0xA0 SHL SUB AND DUP4 PUSH1 0x1 PUSH1 0x1 PUSH1 0xA0 SHL SUB AND PUSH32 0xDDF252AD1BE2C89B69C2B068FC378DAA952BA7F163C4A11628F55A4DF523B3EF DUP4 PUSH1 0x40 MLOAD PUSH2 0x945 SWAP2 DUP2 MSTORE PUSH1 0x20 ADD SWAP1 JUMP JUMPDEST PUSH1 0x40 MLOAD DUP1 SWAP2 SUB SWAP1 LOG3 POP POP POP JUMP JUMPDEST PUSH1 0x20 DUP2 MSTORE PUSH1 0x0 DUP3 MLOAD DUP1 PUSH1 0x20 DUP5 ADD MSTORE PUSH1 0x0 JUMPDEST DUP2 DUP2 LT ISZERO PUSH2 0x980 JUMPI PUSH1 0x20 DUP2 DUP7 ADD DUP2 ADD MLOAD PUSH1 0x40 DUP7 DUP5 ADD ADD MSTORE ADD PUSH2 0x963 JUMP JUMPDEST POP PUSH1 0x0 PUSH1 0x40 DUP3 DUP6 ADD ADD MSTORE PUSH1 0x40 PUSH1 0x1F NOT PUSH1 0x1F DUP4 ADD AND DUP5 ADD ADD SWAP2 POP POP SWAP3 SWAP2 POP POP JUMP JUMPDEST DUP1 CALLDATALOAD PUSH1 0x1 PUSH1 0x1 PUSH1 0xA0 SHL SUB DUP2 AND DUP2 EQ PUSH2 0x9B7 JUMPI PUSH1 0x0 DUP1 REVERT JUMPDEST SWAP2 SWAP1 POP JUMP JUMPDEST PUSH1 0x0 DUP1 PUSH1 0x40 DUP4 DUP6 SUB SLT ISZERO PUSH2 0x9CF JUMPI PUSH1 0x0 DUP1 REVERT JUMPDEST PUSH2 0x9D8 DUP4 PUSH2 0x9A0 JUMP JUMPDEST SWAP5 PUSH1 0x20 SWAP4 SWAP1 SWAP4 ADD CALLDATALOAD SWAP4 POP POP POP JUMP JUMPDEST PUSH1 0x0 DUP1 PUSH1 0x0 PUSH1 0x60 DUP5 DUP7 SUB SLT ISZERO PUSH2 0x9FB JUMPI PUSH1 0x0 DUP1 REVERT JUMPDEST PUSH2 0xA04 DUP5 PUSH2 0x9A0 JUMP JUMPDEST SWAP3 POP PUSH2 0xA12 PUSH1 0x20 DUP6 ADD PUSH2 0x9A0 JUMP JUMPDEST SWAP3 SWAP6 SWAP3 SWAP5 POP POP POP PUSH1 0x40 SWAP2 SWAP1 SWAP2 ADD CALLDATALOAD SWAP1 JUMP JUMPDEST PUSH1 0x0 PUSH1 0x20 DUP3 DUP5 SUB SLT ISZERO PUSH2 0xA35 JUMPI PUSH1 0x0 DUP1 REVERT JUMPDEST PUSH2 0xA3E DUP3 PUSH2 0x9A0 JUMP JUMPDEST SWAP4 SWAP3 POP POP POP JUMP JUMPDEST PUSH1 0x0 DUP1 PUSH1 0x40 DUP4 DUP6 SUB SLT ISZERO PUSH2 0xA58 JUMPI PUSH1 0x0 DUP1 REVERT JUMPDEST PUSH2 0xA61 DUP4 PUSH2 0x9A0 JUMP JUMPDEST SWAP2 POP PUSH1 0x20 DUP4 ADD CALLDATALOAD DUP1 ISZERO ISZERO DUP2 EQ PUSH2 0xA76 JUMPI PUSH1 0x0 DUP1 REVERT JUMPDEST DUP1 SWAP2 POP POP SWAP3 POP SWAP3 SWAP1 POP JUMP JUMPDEST PUSH1 0x0 DUP1 PUSH1 0x40 DUP4 DUP6 SUB SLT ISZERO PUSH2 0xA94 JUMPI PUSH1 0x0 DUP1 REVERT JUMPDEST PUSH2 0xA9D DUP4 PUSH2 0x9A0 JUMP JUMPDEST SWAP2 POP PUSH2 0xAAB PUSH1 0x20 DUP5 ADD PUSH2 0x9A0 JUMP JUMPDEST SWAP1 POP SWAP3 POP SWAP3 SWAP1 POP JUMP JUMPDEST PUSH1 0x1 DUP2 DUP2 SHR SWAP1 DUP3 AND DUP1 PUSH2 0xAC8 JUMPI PUSH1 0x7F DUP3 AND SWAP2 POP JUMPDEST PUSH1 0x20 DUP3 LT DUP2 SUB PUSH2 0xAE8 JUMPI PUSH4 0x4E487B71 PUSH1 0xE0 SHL PUSH1 0x0 MSTORE PUSH1 0x22 PUSH1 0x4 MSTORE PUSH1 0x24 PUSH1 0x0 REVERT JUMPDEST POP SWAP2 SWAP1 POP JUMP JUMPDEST DUP1 DUP3 ADD DUP1 DUP3 GT ISZERO PUSH2 0x38F JUMPI PUSH4 0x4E487B71 PUSH1 0xE0 SHL PUSH1 0x0 MSTORE PUSH1 0x11 PUSH1 0x4 MSTORE PUSH1 0x24 PUSH1 0x0 REVERT INVALID LOG2 PUSH5 0x6970667358 0x22 SLT KECCAK256 TLOAD PUSH9 0x83A51D982D0F24D096 PUSH1 0x0 0x2D PUSH27 0x215482DF925F9EEA66543C08E3DEBF664F64736F6C634300081C00 CALLER "
        },
        "methodIdentifiers": {
          "calculateYield((uint256,uint256,uint256,uint256,bool))": "df9fa35b",
          "calculateYieldTokens(uint256,uint256)": "e526ddb9",
          "deposit(uint256,uint256)": "e2bbb158",
          "getActivePositions()": "5fc75ec2",
          "getEduToken()": "f3063322",
          "getPosition(uint256)": "eb02c301",
          "getPositions(address)": "3eeb530e",
          "getTotalStakers()": "31ed0db4",
          "getTotalValueLocked()": "b26025aa",
          "getYieldToken()": "3b8dbc11",
          "withdraw(uint256)": "2e1a7d4d"
        }
      }
    }
  }
}