{
  "_format": "hh-sol-artifact-1",
  "contractName": "YieldPool",
  "sourceName": "contracts/YieldPool.sol",
  "abi": [
    {
      "inputs": [
        {
          "internalType": "address",
          "name": "eduTokenAddress",
          "type": "address"
        },
        {
          "internalType": "string",
          "name": "_tokenName",
          "type": "string"
        },
        {
          "internalType": "string",
          "name": "_tokenSymbol",
          "type": "string"
        }
      ],
      "stateMutability": "nonpayable",
      "type": "constructor"
    },
    {
      "inputs": [],
      "name": "ReentrancyGuardReentrantCall",
      "type": "error"
    },
    {
      "anonymous": false,
      "inputs": [
        {
          "indexed": true,
          "internalType": "address",
          "name": "user",
          "type": "address"
        },
        {
          "indexed": false,
          "internalType": "uint256",
          "name": "amount",
          "type": "uint256"
        },
        {
          "indexed": false,
          "internalType": "uint256",
          "name": "duration",
          "type": "uint256"
        }
      ],
      "name": "Deposited",
      "type": "event"
    },
    {
      "anonymous": false,
      "inputs": [
        {
          "indexed": true,
          "internalType": "address",
          "name": "user",
          "type": "address"
        },
        {
          "indexed": false,
          "internalType": "uint256",
          "name": "amount",
          "type": "uint256"
        },
        {
          "indexed": false,
          "internalType": "uint256",
          "name": "yield",
          "type": "uint256"
        }
      ],
      "name": "Withdrawn",
      "type": "event"
    },
    {
      "inputs": [
        {
          "components": [
            {
              "internalType": "address",
              "name": "positionAddress",
              "type": "address"
            },
            {
              "internalType": "uint256",
              "name": "id",
              "type": "uint256"
            },
            {
              "internalType": "uint256",
              "name": "amount",
              "type": "uint256"
            },
            {
              "internalType": "uint256",
              "name": "startTime",
              "type": "uint256"
            },
            {
              "internalType": "uint256",
              "name": "lockDuration",
              "type": "uint256"
            },
            {
              "internalType": "bool",
              "name": "withdrawn",
              "type": "bool"
            }
          ],
          "internalType": "struct YieldPool.Position",
          "name": "position",
          "type": "tuple"
        }
      ],
      "name": "calculateYield",
      "outputs": [
        {
          "internalType": "uint256",
          "name": "",
          "type": "uint256"
        }
      ],
      "stateMutability": "pure",
      "type": "function"
    },
    {
      "inputs": [
        {
          "internalType": "uint256",
          "name": "amount",
          "type": "uint256"
        },
        {
          "internalType": "uint256",
          "name": "duration",
          "type": "uint256"
        }
      ],
      "name": "calculateYieldTokens",
      "outputs": [
        {
          "internalType": "uint256",
          "name": "",
          "type": "uint256"
        }
      ],
      "stateMutability": "pure",
      "type": "function"
    },
    {
      "inputs": [
        {
          "internalType": "uint256",
          "name": "amount",
          "type": "uint256"
        },
        {
          "internalType": "uint256",
          "name": "duration",
          "type": "uint256"
        }
      ],
      "name": "deposit",
      "outputs": [],
      "stateMutability": "nonpayable",
      "type": "function"
    },
    {
      "inputs": [],
      "name": "getActivePositions",
      "outputs": [
        {
          "components": [
            {
              "internalType": "address",
              "name": "positionAddress",
              "type": "address"
            },
            {
              "internalType": "uint256",
              "name": "id",
              "type": "uint256"
            },
            {
              "internalType": "uint256",
              "name": "amount",
              "type": "uint256"
            },
            {
              "internalType": "uint256",
              "name": "startTime",
              "type": "uint256"
            },
            {
              "internalType": "uint256",
              "name": "lockDuration",
              "type": "uint256"
            },
            {
              "internalType": "bool",
              "name": "withdrawn",
              "type": "bool"
            }
          ],
          "internalType": "struct YieldPool.Position[]",
          "name": "positions",
          "type": "tuple[]"
        }
      ],
      "stateMutability": "view",
      "type": "function"
    },
    {
      "inputs": [],
      "name": "getEduToken",
      "outputs": [
        {
          "internalType": "contract IERC20",
          "name": "",
          "type": "address"
        }
      ],
      "stateMutability": "view",
      "type": "function"
    },
    {
      "inputs": [
        {
          "internalType": "uint256",
          "name": "positionId",
          "type": "uint256"
        }
      ],
      "name": "getPosition",
      "outputs": [
        {
          "components": [
            {
              "internalType": "address",
              "name": "positionAddress",
              "type": "address"
            },
            {
              "internalType": "uint256",
              "name": "id",
              "type": "uint256"
            },
            {
              "internalType": "uint256",
              "name": "amount",
              "type": "uint256"
            },
            {
              "internalType": "uint256",
              "name": "startTime",
              "type": "uint256"
            },
            {
              "internalType": "uint256",
              "name": "lockDuration",
              "type": "uint256"
            },
            {
              "internalType": "bool",
              "name": "withdrawn",
              "type": "bool"
            }
          ],
          "internalType": "struct YieldPool.Position",
          "name": "",
          "type": "tuple"
        }
      ],
      "stateMutability": "view",
      "type": "function"
    },
    {
      "inputs": [],
      "name": "getTotalStakers",
      "outputs": [
        {
          "internalType": "uint256",
          "name": "",
          "type": "uint256"
        }
      ],
      "stateMutability": "view",
      "type": "function"
    },
    {
      "inputs": [],
      "name": "getTotalValueLocked",
      "outputs": [
        {
          "internalType": "uint256",
          "name": "",
          "type": "uint256"
        }
      ],
      "stateMutability": "view",
      "type": "function"
    },
    {
      "inputs": [],
      "name": "getYieldToken",
      "outputs": [
        {
          "internalType": "contract YieldToken",
          "name": "",
          "type": "address"
        }
      ],
      "stateMutability": "view",
      "type": "function"
    },
    {
      "inputs": [
        {
          "internalType": "uint256",
          "name": "positionId",
          "type": "uint256"
        }
      ],
      "name": "unstake",
      "outputs": [],
      "stateMutability": "nonpayable",
      "type": "function"
    },
    {
      "inputs": [
        {
          "internalType": "uint256",
          "name": "positionId",
          "type": "uint256"
        }
      ],
      "name": "withdraw",
      "outputs": [],
      "stateMutability": "nonpayable",
      "type": "function"
    }
  ],
  "bytecode": "0x60c0604052600160035534801561001557600080fd5b50604051612bc8380380612bc883398101604081905261003491610166565b60016000556001600160a01b03831660805260405130908390839061005890610096565b6100649392919061021a565b604051809103906000f080158015610080573d6000803e3d6000fd5b506001600160a01b031660a0525061025a915050565b610f0480611cc483390190565b634e487b7160e01b600052604160045260246000fd5b60005b838110156100d45781810151838201526020016100bc565b50506000910152565b600082601f8301126100ee57600080fd5b81516001600160401b03811115610107576101076100a3565b604051601f8201601f19908116603f011681016001600160401b0381118282101715610135576101356100a3565b60405281815283820160200185101561014d57600080fd5b61015e8260208301602087016100b9565b949350505050565b60008060006060848603121561017b57600080fd5b83516001600160a01b038116811461019257600080fd5b60208501519093506001600160401b038111156101ae57600080fd5b6101ba868287016100dd565b604086015190935090506001600160401b038111156101d857600080fd5b6101e4868287016100dd565b9150509250925092565b600081518084526102068160208601602086016100b9565b601f01601f19169290920160200192915050565b6001600160a01b038416815260606020820181905260009061023e908301856101ee565b828103604084015261025081856101ee565b9695505050505050565b60805160a051611a156102af6000396000818160ef0152610b250152600081816101b301528181610387015281816106bd015281816109a401528181610a5101528181610bab01526112ce0152611a156000f3fe608060405234801561001057600080fd5b50600436106100a95760003560e01c80638b2659f3116100715780638b2659f31461013c578063b26025aa14610163578063e2bbb1581461016b578063e526ddb91461017e578063eb02c30114610191578063f3063322146101b157600080fd5b80632e17de78146100ae5780632e1a7d4d146100c357806331ed0db4146100d65780633b8dbc11146100ed5780635fc75ec214610127575b600080fd5b6100c16100bc3660046116ff565b6101d7565b005b6100c16100d13660046116ff565b610781565b6001545b6040519081526020015b60405180910390f35b7f00000000000000000000000000000000000000000000000000000000000000005b6040516001600160a01b0390911681526020016100e4565b61012f610f04565b6040516100e4919061175a565b6100da61014a3660046117f3565b608081015160409091015163bbf81e009102600a020490565b6002546100da565b6100c161017936600461188c565b6111fe565b6100da61018c36600461188c565b611547565b6101a461019f3660046116ff565b61155a565b6040516100e491906118ae565b7f000000000000000000000000000000000000000000000000000000000000000061010f565b6101df611694565b6000818152600860205260409020546001600160a01b0316331461023f5760405162461bcd60e51b81526020600482015260126024820152712737ba103837b9b4ba34b7b71037bbb732b960711b60448201526064015b60405180910390fd5b3360009081526007602052604081209080805b8354811015610299578484828154811061026e5761026e6118bc565b906000526020600020906006020160010154036102915780925060019150610299565b600101610252565b50806102b75760405162461bcd60e51b8152600401610236906118d2565b60008383815481106102cb576102cb6118bc565b60009182526020909120600690910201600581015490915060ff16156103275760405162461bcd60e51b815260206004820152601160248201527020b63932b0b23c903bb4ba34323930bbb760791b6044820152606401610236565b6002810154600482015460038301546103409190611914565b421015610370576000600a836002015461035a9190611927565b905080836002015461036c9190611949565b9150505b6040516370a0823160e01b815230600482015281907f00000000000000000000000000000000000000000000000000000000000000006001600160a01b0316906370a0823190602401602060405180830381865afa1580156103d6573d6000803e3d6000fd5b505050506040513d601f19601f820116820180604052508101906103fa919061195c565b10156104485760405162461bcd60e51b815260206004820152601a60248201527f496e73756666696369656e742066756e647320696e20706f6f6c0000000000006044820152606401610236565b6002808301548154039055845460009061046490600190611949565b90508085146105145785818154811061047f5761047f6118bc565b906000526020600020906006020186868154811061049f5761049f6118bc565b60009182526020909120825460069092020180546001600160a01b0319166001600160a01b03909216919091178155600180830154908201556002808301549082015560038083015490820155600480830154908201556005918201549101805460ff909216151560ff199092169190911790555b8580548061052457610524611975565b6000828152602080822060066000199094019384020180546001600160a01b0319908116825560018201849055600282018490556003820184905560048083018590556005909201805460ff19169055939094558a825260088152604080832080549094169093553382529290925281208054916105a18361198b565b909155505085546000036106a1576005546000906105c190600190611949565b90506000600582815481106105d8576105d86118bc565b6000918252602090912001546001600160a01b031690503381146106555733600090815260066020526040902054600580548391908390811061061d5761061d6118bc565b600091825260208083209190910180546001600160a01b0319166001600160a01b039485161790559184168152600690915260409020555b600580548061066657610666611975565b600082815260208120820160001990810180546001600160a01b031916905590910190915560018054916106998361198b565b919050555050505b60405163a9059cbb60e01b8152336004820152602481018390527f00000000000000000000000000000000000000000000000000000000000000006001600160a01b03169063a9059cbb906044016020604051808303816000875af115801561070e573d6000803e3d6000fd5b505050506040513d601f19601f8201168201806040525081019061073291906119a2565b50604080518381526000602082015233917f92ccf450a286a957af52509bc1c9939d1a6a481783e142e41e2499f0bb66ebc6910160405180910390a250505050505061077e6001600055565b50565b610789611694565b6000818152600860205260409020546001600160a01b031633146107e45760405162461bcd60e51b81526020600482015260126024820152712737ba103837b9b4ba34b7b71037bbb732b960711b6044820152606401610236565b3360009081526007602052604081209080805b835481101561083e5784848281548110610813576108136118bc565b90600052602060002090600602016001015403610836578092506001915061083e565b6001016107f7565b508061085c5760405162461bcd60e51b8152600401610236906118d2565b6000838381548110610870576108706118bc565b60009182526020909120600690910201600581015490915060ff16156108cc5760405162461bcd60e51b815260206004820152601160248201527020b63932b0b23c903bb4ba34323930bbb760791b6044820152606401610236565b806004015481600301546108e09190611914565b42101561091e5760405162461bcd60e51b815260206004820152600c60248201526b14dd1a5b1b081b1bd8dad95960a21b6044820152606401610236565b6040805160c08101825282546001600160a01b0316815260018301546020820152600283015491810182905260038301546060820152600483015460808201819052600584015460ff16151560a09092019190915260009163bbf81e009102600a020460028301546040516370a0823160e01b81523060048201529192508201906000907f00000000000000000000000000000000000000000000000000000000000000006001600160a01b0316906370a0823190602401602060405180830381865afa1580156109f3573d6000803e3d6000fd5b505050506040513d601f19601f82011682018060405250810190610a17919061195c565b905081811015610b8f576000610a2d8284611949565b90508115610b095760405163a9059cbb60e01b8152336004820152602481018390527f00000000000000000000000000000000000000000000000000000000000000006001600160a01b03169063a9059cbb906044016020604051808303816000875af1158015610aa2573d6000803e3d6000fd5b505050506040513d601f19601f82011682018060405250810190610ac691906119a2565b610b095760405162461bcd60e51b8152602060048201526014602482015273141bdbdb081d1c985b9cd9995c8819985a5b195960621b6044820152606401610236565b60405163c528d53560e01b8152336004820152602481018290527f00000000000000000000000000000000000000000000000000000000000000006001600160a01b03169063c528d53590604401600060405180830381600087803b158015610b7157600080fd5b505af1158015610b85573d6000803e3d6000fd5b5050505050610c5e565b60405163a9059cbb60e01b8152336004820152602481018390527f00000000000000000000000000000000000000000000000000000000000000006001600160a01b03169063a9059cbb906044016020604051808303816000875af1158015610bfc573d6000803e3d6000fd5b505050506040513d601f19601f82011682018060405250810190610c2091906119a2565b610c5e5760405162461bcd60e51b815260206004820152600f60248201526e151c985b9cd9995c8819985a5b1959608a1b6044820152606401610236565b60028085015481540390558654600090610c7a90600190611949565b9050808714610d2a57878181548110610c9557610c956118bc565b9060005260206000209060060201888881548110610cb557610cb56118bc565b60009182526020909120825460069092020180546001600160a01b0319166001600160a01b03909216919091178155600180830154908201556002808301549082015560038083015490820155600480830154908201556005918201549101805460ff909216151560ff199092169190911790555b87805480610d3a57610d3a611975565b6000828152602080822060066000199094019384020180546001600160a01b0319908116825560018201849055600282018490556003820184905560048083018590556005909201805460ff19169055939094558c82526008815260408083208054909416909355338252929092528120805491610db78361198b565b90915550508754600003610eb757600554600090610dd790600190611949565b9050600060058281548110610dee57610dee6118bc565b6000918252602090912001546001600160a01b03169050338114610e6b57336000908152600660205260409020546005805483919083908110610e3357610e336118bc565b600091825260208083209190910180546001600160a01b0319166001600160a01b039485161790559184168152600690915260409020555b6005805480610e7c57610e7c611975565b600082815260208120820160001990810180546001600160a01b03191690559091019091556001805491610eaf8361198b565b919050555050505b604080518481526020810186905233917f92ccf450a286a957af52509bc1c9939d1a6a481783e142e41e2499f0bb66ebc6910160405180910390a2505050505050505061077e6001600055565b60606000805b6005548110156110385760006007600060058481548110610f2d57610f2d6118bc565b60009182526020808320909101546001600160a01b031683528281019390935260409182018120805483518186028101860190945280845292939092919084015b82821015610fe45760008481526020908190206040805160c0810182526006860290920180546001600160a01b031683526001808201548486015260028201549284019290925260038101546060840152600481015460808401526005015460ff16151560a08301529083529092019101610f6e565b50505050905060005b815181101561102e57818181518110611008576110086118bc565b602002602001015160a001516110265783611022816119c6565b9450505b600101610fed565b5050600101610f0a565b508067ffffffffffffffff811115611052576110526117a8565b60405190808252806020026020018201604052801561108b57816020015b6110786116be565b8152602001906001900390816110705790505b5091506000805b6005548110156111f857600060076000600584815481106110b5576110b56118bc565b60009182526020808320909101546001600160a01b031683528281019390935260409182018120805483518186028101860190945280845292939092919084015b8282101561116c5760008481526020908190206040805160c0810182526006860290920180546001600160a01b031683526001808201548486015260028201549284019290925260038101546060840152600481015460808401526005015460ff16151560a083015290835290920191016110f6565b50505050905060005b81518110156111ee57818181518110611190576111906118bc565b602002602001015160a001516111e6578181815181106111b2576111b26118bc565b60200260200101518685815181106111cc576111cc6118bc565b602002602001018190525083806111e2906119c6565b9450505b600101611175565b5050600101611092565b50505090565b611206611694565b600082116112565760405162461bcd60e51b815260206004820152601d60248201527f416d6f756e74206d7573742062652067726561746572207468616e20300000006044820152606401610236565b62015180811015801561126d57506301e133808111155b6112ac5760405162461bcd60e51b815260206004820152601060248201526f24b73b30b634b210323ab930ba34b7b760811b6044820152606401610236565b6040516323b872dd60e01b8152336004820152306024820152604481018390527f00000000000000000000000000000000000000000000000000000000000000006001600160a01b0316906323b872dd906064016020604051808303816000875af115801561131f573d6000803e3d6000fd5b505050506040513d601f19601f8201168201806040525081019061134391906119a2565b6113815760405162461bcd60e51b815260206004820152600f60248201526e151c985b9cd9995c8819985a5b1959608a1b6044820152606401610236565b60028054830190553360009081526007602052604081205490036114075760058054336000818152600660205260408120839055600180840185559381527f036b6384b5eca791c62761152d0c79bb0604c104a5fb6f4eb0703f3154bb3db090920180546001600160a01b031916909117905581549190611401836119c6565b91905055505b6003805460009182611418836119c6565b909155506040805160c0810182523380825260208083018581528385018981524260608601908152608086018a8152600060a08801818152878252600787528982208054600181810183559184528884208b5160069092020180546001600160a01b03929092166001600160a01b03199283161781559751918801919091559451600287015592516003860155905160048086019190915591516005909401805494151560ff1990951694909417909355878352600884528683208054909216851790915592815291905291822080549394509092916114f7836119c6565b9091555050604080518581526020810185905233917f73a19dd210f1a7f902193214c0ee91dd35ee5b4d920cba8d519eca65a7b488ca910160405180910390a250506115436001600055565b5050565b63bbf81e00600a82840202045b92915050565b6115626116be565b6000828152600860209081526040808320546001600160a01b0316808452600783528184208054835181860281018601909452808452919493909190849084015b828210156116195760008481526020908190206040805160c0810182526006860290920180546001600160a01b031683526001808201548486015260028201549284019290925260038101546060840152600481015460808401526005015460ff16151560a083015290835290920191016115a3565b50505050905060005b815181101561167b578482828151811061163e5761163e6118bc565b6020026020010151602001510361167357818181518110611661576116616118bc565b60200260200101519350505050919050565b600101611622565b5060405162461bcd60e51b8152600401610236906118d2565b6002600054036116b757604051633ee5aeb560e01b815260040160405180910390fd5b6002600055565b6040518060c0016040528060006001600160a01b03168152602001600081526020016000815260200160008152602001600081526020016000151581525090565b60006020828403121561171157600080fd5b5035919050565b80516001600160a01b031682526020808201519083015260408082015190830152606080820151908301526080808201519083015260a0908101511515910152565b602080825282518282018190526000918401906040840190835b8181101561179d57611787838551611718565b6020939093019260c09290920191600101611774565b509095945050505050565b634e487b7160e01b600052604160045260246000fd5b80356001600160a01b03811681146117d557600080fd5b919050565b801515811461077e57600080fd5b80356117d5816117da565b600060c082840312801561180657600080fd5b6000905060405160c0810181811067ffffffffffffffff8211171561183957634e487b7160e01b83526041600452602483fd5b604052611845846117be565b8152602084810135908201526040808501359082015260608085013590820152608080850135908201819052915061187f60a085016117e8565b60a0820152949350505050565b6000806040838503121561189f57600080fd5b50508035926020909101359150565b60c081016115548284611718565b634e487b7160e01b600052603260045260246000fd5b602080825260129082015271141bdcda5d1a5bdb881b9bdd08199bdd5b9960721b604082015260600190565b634e487b7160e01b600052601160045260246000fd5b80820180821115611554576115546118fe565b60008261194457634e487b7160e01b600052601260045260246000fd5b500490565b81810381811115611554576115546118fe565b60006020828403121561196e57600080fd5b5051919050565b634e487b7160e01b600052603160045260246000fd5b60008161199a5761199a6118fe565b506000190190565b6000602082840312156119b457600080fd5b81516119bf816117da565b9392505050565b6000600182016119d8576119d86118fe565b506001019056fea2646970667358221220af5b49f642db0640ec6173dac7978c287a598585280295dbc7f2844b459a4f1064736f6c634300081c0033608060405234801561001057600080fd5b50604051610f04380380610f0483398101604081905261002f91610199565b828282600361003e83826102aa565b50600461004b82826102aa565b5050506001600160a01b03811661007c57604051631e4fbdf760e01b81526000600482015260240160405180910390fd5b6100858161008e565b50505050610368565b600580546001600160a01b038381166001600160a01b0319831681179093556040519116919082907f8be0079c531659141344cd1fd0a4f28419497f9722a3daafe3b4186f6b6457e090600090a35050565b634e487b7160e01b600052604160045260246000fd5b600082601f83011261010757600080fd5b81516001600160401b03811115610120576101206100e0565b604051601f8201601f19908116603f011681016001600160401b038111828210171561014e5761014e6100e0565b60405281815283820160200185101561016657600080fd5b60005b8281101561018557602081860181015183830182015201610169565b506000918101602001919091529392505050565b6000806000606084860312156101ae57600080fd5b83516001600160a01b03811681146101c557600080fd5b60208501519093506001600160401b038111156101e157600080fd5b6101ed868287016100f6565b604086015190935090506001600160401b0381111561020b57600080fd5b610217868287016100f6565b9150509250925092565b600181811c9082168061023557607f821691505b60208210810361025557634e487b7160e01b600052602260045260246000fd5b50919050565b601f8211156102a557806000526020600020601f840160051c810160208510156102825750805b601f840160051c820191505b818110156102a2576000815560010161028e565b50505b505050565b81516001600160401b038111156102c3576102c36100e0565b6102d7816102d18454610221565b8461025b565b6020601f82116001811461030b57600083156102f35750848201515b600019600385901b1c1916600184901b1784556102a2565b600084815260208120601f198516915b8281101561033b578785015182556020948501946001909201910161031b565b50848210156103595786840151600019600387901b60f8161c191681555b50505050600190811b01905550565b610b8d806103776000396000f3fe608060405234801561001057600080fd5b50600436106101375760003560e01c80638da5cb5b116100b8578063c7d4f4661161007c578063c7d4f46614610296578063c95c2fc7146102a9578063cefee7bc146102e2578063dd62ed3e1461030e578063f2fde38b14610347578063f7ee7a431461035a57600080fd5b80638da5cb5b1461023a57806395d89b41146102555780639dc29fac1461025d578063a9059cbb14610270578063c528d5351461028357600080fd5b806340c10f19116100ff57806340c10f19146101b15780636aa71d18146101c657806370a08231146101e6578063715018a61461020f57806382f7d3921461021757600080fd5b806306fdde031461013c578063095ea7b31461015a57806318160ddd1461017d57806323b872dd1461018f578063313ce567146101a2575b600080fd5b610144610364565b604051610151919061099a565b60405180910390f35b61016d610168366004610a04565b6103f6565b6040519015158152602001610151565b6002545b604051908152602001610151565b61016d61019d366004610a2e565b610410565b60405160128152602001610151565b6101c46101bf366004610a04565b610434565b005b6101816101d4366004610a6b565b60066020526000908152604090205481565b6101816101f4366004610a6b565b6001600160a01b031660009081526020819052604090205490565b6101c46104d8565b61016d610225366004610a6b565b60076020526000908152604090205460ff1681565b6005546040516001600160a01b039091168152602001610151565b6101446104ec565b6101c461026b366004610a04565b6104fb565b61016d61027e366004610a04565b61050d565b6101c4610291366004610a04565b6104af565b6101c46102a4366004610a04565b61051b565b6101c46102b7366004610a8d565b6001600160a01b03919091166000908152600760205260409020805460ff1916911515919091179055565b61016d6102f0366004610a6b565b6001600160a01b031660009081526007602052604090205460ff1690565b61018161031c366004610ac9565b6001600160a01b03918216600090815260016020908152604080832093909416825291909152205490565b6101c4610355366004610a6b565b610583565b6101816201518081565b60606003805461037390610afc565b80601f016020809104026020016040519081016040528092919081815260200182805461039f90610afc565b80156103ec5780601f106103c1576101008083540402835291602001916103ec565b820191906000526020600020905b8154815290600101906020018083116103cf57829003601f168201915b5050505050905090565b6000336104048185856105c1565b60019150505b92915050565b60003361041e8582856105d3565b610429858585610651565b506001949350505050565b6001600160a01b03821660009081526006602052604090205461045b906201518090610b36565b4210156104af5760405162461bcd60e51b815260206004820181905260248201527f4d757374207761697420323420686f757273206265747765656e206d696e747360448201526064015b60405180910390fd5b6001600160a01b03821660009081526006602052604090204290556104d482826106b0565b5050565b6104e06106e6565b6104ea6000610713565b565b60606004805461037390610afc565b6105036106e6565b6104d48282610765565b600033610404818585610651565b6001600160a01b03821660009081526007602052604090205460ff166104af5760405162461bcd60e51b815260206004820152601960248201527f41646472657373206d75737420626520612073747564656e740000000000000060448201526064016104a6565b61058b6106e6565b6001600160a01b0381166105b557604051631e4fbdf760e01b8152600060048201526024016104a6565b6105be81610713565b50565b6105ce838383600161079b565b505050565b6001600160a01b03838116600090815260016020908152604080832093861683529290522054600019811461064b578181101561063c57604051637dc7a0d960e11b81526001600160a01b038416600482015260248101829052604481018390526064016104a6565b61064b8484848403600061079b565b50505050565b6001600160a01b03831661067b57604051634b637e8f60e11b8152600060048201526024016104a6565b6001600160a01b0382166106a55760405163ec442f0560e01b8152600060048201526024016104a6565b6105ce838383610870565b6001600160a01b0382166106da5760405163ec442f0560e01b8152600060048201526024016104a6565b6104d460008383610870565b6005546001600160a01b031633146104ea5760405163118cdaa760e01b81523360048201526024016104a6565b600580546001600160a01b038381166001600160a01b0319831681179093556040519116919082907f8be0079c531659141344cd1fd0a4f28419497f9722a3daafe3b4186f6b6457e090600090a35050565b6001600160a01b03821661078f57604051634b637e8f60e11b8152600060048201526024016104a6565b6104d482600083610870565b6001600160a01b0384166107c55760405163e602df0560e01b8152600060048201526024016104a6565b6001600160a01b0383166107ef57604051634a1406b160e11b8152600060048201526024016104a6565b6001600160a01b038085166000908152600160209081526040808320938716835292905220829055801561064b57826001600160a01b0316846001600160a01b03167f8c5be1e5ebec7d5bd14f71427d1e84f3dd0314c0f7b2291e5b200ac8c7c3b9258460405161086291815260200190565b60405180910390a350505050565b6001600160a01b03831661089b5780600260008282546108909190610b36565b9091555061090d9050565b6001600160a01b038316600090815260208190526040902054818110156108ee5760405163391434e360e21b81526001600160a01b038516600482015260248101829052604481018390526064016104a6565b6001600160a01b03841660009081526020819052604090209082900390555b6001600160a01b03821661092957600280548290039055610948565b6001600160a01b03821660009081526020819052604090208054820190555b816001600160a01b0316836001600160a01b03167fddf252ad1be2c89b69c2b068fc378daa952ba7f163c4a11628f55a4df523b3ef8360405161098d91815260200190565b60405180910390a3505050565b602081526000825180602084015260005b818110156109c857602081860181015160408684010152016109ab565b506000604082850101526040601f19601f83011684010191505092915050565b80356001600160a01b03811681146109ff57600080fd5b919050565b60008060408385031215610a1757600080fd5b610a20836109e8565b946020939093013593505050565b600080600060608486031215610a4357600080fd5b610a4c846109e8565b9250610a5a602085016109e8565b929592945050506040919091013590565b600060208284031215610a7d57600080fd5b610a86826109e8565b9392505050565b60008060408385031215610aa057600080fd5b610aa9836109e8565b915060208301358015158114610abe57600080fd5b809150509250929050565b60008060408385031215610adc57600080fd5b610ae5836109e8565b9150610af3602084016109e8565b90509250929050565b600181811c90821680610b1057607f821691505b602082108103610b3057634e487b7160e01b600052602260045260246000fd5b50919050565b8082018082111561040a57634e487b7160e01b600052601160045260246000fdfea2646970667358221220f864833b82d637948010e311306ffae18af15e6a77341938f702dfff554e0e6c64736f6c634300081c0033",
  "linkReferences": {},
  "deployedLinkReferences": {}
}