{
  "_format": "hh-sol-artifact-1",
  "contractName": "YieldPoolV2",
  "sourceName": "contracts/upgrades/YieldPoolV2.sol",
  "abi": [
    {
      "inputs": [],
      "stateMutability": "nonpayable",
      "type": "constructor"
    },
    {
      "inputs": [
        {
          "internalType": "address",
          "name": "target",
          "type": "address"
        }
      ],
      "name": "AddressEmptyCode",
      "type": "error"
    },
    {
      "inputs": [
        {
          "internalType": "address",
          "name": "implementation",
          "type": "address"
        }
      ],
      "name": "ERC1967InvalidImplementation",
      "type": "error"
    },
    {
      "inputs": [],
      "name": "ERC1967NonPayable",
      "type": "error"
    },
    {
      "inputs": [],
      "name": "FailedCall",
      "type": "error"
    },
    {
      "inputs": [],
      "name": "InvalidInitialization",
      "type": "error"
    },
    {
      "inputs": [],
      "name": "NotInitializing",
      "type": "error"
    },
    {
      "inputs": [
        {
          "internalType": "address",
          "name": "owner",
          "type": "address"
        }
      ],
      "name": "OwnableInvalidOwner",
      "type": "error"
    },
    {
      "inputs": [
        {
          "internalType": "address",
          "name": "account",
          "type": "address"
        }
      ],
      "name": "OwnableUnauthorizedAccount",
      "type": "error"
    },
    {
      "inputs": [],
      "name": "ReentrancyGuardReentrantCall",
      "type": "error"
    },
    {
      "inputs": [
        {
          "internalType": "address",
          "name": "token",
          "type": "address"
        }
      ],
      "name": "SafeERC20FailedOperation",
      "type": "error"
    },
    {
      "inputs": [],
      "name": "UUPSUnauthorizedCallContext",
      "type": "error"
    },
    {
      "inputs": [
        {
          "internalType": "bytes32",
          "name": "slot",
          "type": "bytes32"
        }
      ],
      "name": "UUPSUnsupportedProxiableUUID",
      "type": "error"
    },
    {
      "anonymous": false,
      "inputs": [
        {
          "indexed": true,
          "internalType": "address",
          "name": "user",
          "type": "address"
        },
        {
          "indexed": false,
          "internalType": "address",
          "name": "token",
          "type": "address"
        },
        {
          "indexed": false,
          "internalType": "uint256",
          "name": "amount",
          "type": "uint256"
        },
        {
          "indexed": false,
          "internalType": "uint256",
          "name": "duration",
          "type": "uint256"
        }
      ],
      "name": "Deposited",
      "type": "event"
    },
    {
      "anonymous": false,
      "inputs": [
        {
          "indexed": false,
          "internalType": "uint64",
          "name": "version",
          "type": "uint64"
        }
      ],
      "name": "Initialized",
      "type": "event"
    },
    {
      "anonymous": false,
      "inputs": [
        {
          "indexed": true,
          "internalType": "address",
          "name": "previousOwner",
          "type": "address"
        },
        {
          "indexed": true,
          "internalType": "address",
          "name": "newOwner",
          "type": "address"
        }
      ],
      "name": "OwnershipTransferred",
      "type": "event"
    },
    {
      "anonymous": false,
      "inputs": [
        {
          "indexed": false,
          "internalType": "address",
          "name": "token",
          "type": "address"
        },
        {
          "indexed": false,
          "internalType": "bool",
          "name": "allowed",
          "type": "bool"
        }
      ],
      "name": "TokenAllowedStatusChanged",
      "type": "event"
    },
    {
      "anonymous": false,
      "inputs": [
        {
          "indexed": true,
          "internalType": "address",
          "name": "implementation",
          "type": "address"
        }
      ],
      "name": "Upgraded",
      "type": "event"
    },
    {
      "anonymous": false,
      "inputs": [
        {
          "indexed": true,
          "internalType": "address",
          "name": "user",
          "type": "address"
        },
        {
          "indexed": false,
          "internalType": "address",
          "name": "token",
          "type": "address"
        },
        {
          "indexed": false,
          "internalType": "uint256",
          "name": "amount",
          "type": "uint256"
        },
        {
          "indexed": false,
          "internalType": "uint256",
          "name": "yield",
          "type": "uint256"
        }
      ],
      "name": "Withdrawn",
      "type": "event"
    },
    {
      "anonymous": false,
      "inputs": [
        {
          "indexed": false,
          "internalType": "uint256",
          "name": "yieldRate",
          "type": "uint256"
        },
        {
          "indexed": false,
          "internalType": "uint256",
          "name": "minDuration",
          "type": "uint256"
        },
        {
          "indexed": false,
          "internalType": "uint256",
          "name": "maxDuration",
          "type": "uint256"
        }
      ],
      "name": "YieldParametersUpdated",
      "type": "event"
    },
    {
      "inputs": [],
      "name": "UPGRADE_INTERFACE_VERSION",
      "outputs": [
        {
          "internalType": "string",
          "name": "",
          "type": "string"
        }
      ],
      "stateMutability": "view",
      "type": "function"
    },
    {
      "inputs": [
        {
          "internalType": "address",
          "name": "_tokenAddress",
          "type": "address"
        }
      ],
      "name": "addAllowedTokens",
      "outputs": [],
      "stateMutability": "nonpayable",
      "type": "function"
    },
    {
      "inputs": [
        {
          "internalType": "uint256",
          "name": "_amount",
          "type": "uint256"
        },
        {
          "internalType": "uint256",
          "name": "_lockDuration",
          "type": "uint256"
        }
      ],
      "name": "calculateExpectedYield",
      "outputs": [
        {
          "internalType": "uint256",
          "name": "",
          "type": "uint256"
        }
      ],
      "stateMutability": "view",
      "type": "function"
    },
    {
      "inputs": [
        {
          "internalType": "address",
          "name": "_token",
          "type": "address"
        },
        {
          "internalType": "uint256",
          "name": "_amount",
          "type": "uint256"
        },
        {
          "internalType": "uint256",
          "name": "duration",
          "type": "uint256"
        }
      ],
      "name": "deposit",
      "outputs": [],
      "stateMutability": "nonpayable",
      "type": "function"
    },
    {
      "inputs": [],
      "name": "getActivePositions",
      "outputs": [
        {
          "components": [
            {
              "internalType": "address",
              "name": "positionAddress",
              "type": "address"
            },
            {
              "internalType": "address",
              "name": "token",
              "type": "address"
            },
            {
              "internalType": "uint256",
              "name": "id",
              "type": "uint256"
            },
            {
              "internalType": "uint256",
              "name": "amount",
              "type": "uint256"
            },
            {
              "internalType": "uint256",
              "name": "startTime",
              "type": "uint256"
            },
            {
              "internalType": "uint256",
              "name": "lockDuration",
              "type": "uint256"
            },
            {
              "internalType": "bool",
              "name": "withdrawn",
              "type": "bool"
            }
          ],
          "internalType": "struct YieldPoolV2.Position[]",
          "name": "activePositions",
          "type": "tuple[]"
        }
      ],
      "stateMutability": "view",
      "type": "function"
    },
    {
      "inputs": [],
      "name": "getAllowedTokens",
      "outputs": [
        {
          "internalType": "address[]",
          "name": "",
          "type": "address[]"
        }
      ],
      "stateMutability": "view",
      "type": "function"
    },
    {
      "inputs": [],
      "name": "getMaxStakeDuration",
      "outputs": [
        {
          "internalType": "uint256",
          "name": "",
          "type": "uint256"
        }
      ],
      "stateMutability": "view",
      "type": "function"
    },
    {
      "inputs": [],
      "name": "getMinStakeDuration",
      "outputs": [
        {
          "internalType": "uint256",
          "name": "",
          "type": "uint256"
        }
      ],
      "stateMutability": "view",
      "type": "function"
    },
    {
      "inputs": [
        {
          "internalType": "uint256",
          "name": "positionId",
          "type": "uint256"
        }
      ],
      "name": "getPosition",
      "outputs": [
        {
          "components": [
            {
              "internalType": "address",
              "name": "positionAddress",
              "type": "address"
            },
            {
              "internalType": "address",
              "name": "token",
              "type": "address"
            },
            {
              "internalType": "uint256",
              "name": "id",
              "type": "uint256"
            },
            {
              "internalType": "uint256",
              "name": "amount",
              "type": "uint256"
            },
            {
              "internalType": "uint256",
              "name": "startTime",
              "type": "uint256"
            },
            {
              "internalType": "uint256",
              "name": "lockDuration",
              "type": "uint256"
            },
            {
              "internalType": "bool",
              "name": "withdrawn",
              "type": "bool"
            }
          ],
          "internalType": "struct YieldPoolV2.Position",
          "name": "",
          "type": "tuple"
        }
      ],
      "stateMutability": "view",
      "type": "function"
    },
    {
      "inputs": [],
      "name": "getTotalStakers",
      "outputs": [
        {
          "internalType": "uint256",
          "name": "",
          "type": "uint256"
        }
      ],
      "stateMutability": "view",
      "type": "function"
    },
    {
      "inputs": [],
      "name": "getTotalValueLocked",
      "outputs": [
        {
          "internalType": "uint256",
          "name": "",
          "type": "uint256"
        }
      ],
      "stateMutability": "view",
      "type": "function"
    },
    {
      "inputs": [],
      "name": "getUserTokenBalances",
      "outputs": [
        {
          "internalType": "address[]",
          "name": "tokens",
          "type": "address[]"
        },
        {
          "internalType": "uint256[]",
          "name": "balances",
          "type": "uint256[]"
        }
      ],
      "stateMutability": "view",
      "type": "function"
    },
    {
      "inputs": [],
      "name": "getYieldRate",
      "outputs": [
        {
          "internalType": "uint256",
          "name": "",
          "type": "uint256"
        }
      ],
      "stateMutability": "view",
      "type": "function"
    },
    {
      "inputs": [],
      "name": "getYieldToken",
      "outputs": [
        {
          "internalType": "contract YieldTokenV2",
          "name": "",
          "type": "address"
        }
      ],
      "stateMutability": "view",
      "type": "function"
    },
    {
      "inputs": [
        {
          "internalType": "address",
          "name": "_yieldTokenV2Address",
          "type": "address"
        },
        {
          "internalType": "uint256",
          "name": "_yieldRate",
          "type": "uint256"
        },
        {
          "internalType": "uint256",
          "name": "_minDuration",
          "type": "uint256"
        },
        {
          "internalType": "uint256",
          "name": "_maxDuration",
          "type": "uint256"
        }
      ],
      "name": "initialize",
      "outputs": [],
      "stateMutability": "nonpayable",
      "type": "function"
    },
    {
      "inputs": [
        {
          "internalType": "address",
          "name": "_token",
          "type": "address"
        }
      ],
      "name": "isTokenAllowed",
      "outputs": [
        {
          "internalType": "bool",
          "name": "",
          "type": "bool"
        }
      ],
      "stateMutability": "view",
      "type": "function"
    },
    {
      "inputs": [
        {
          "internalType": "address",
          "name": "_newToken",
          "type": "address"
        },
        {
          "internalType": "bool",
          "name": "_allowed",
          "type": "bool"
        }
      ],
      "name": "modifyAllowedTokens",
      "outputs": [],
      "stateMutability": "nonpayable",
      "type": "function"
    },
    {
      "inputs": [],
      "name": "owner",
      "outputs": [
        {
          "internalType": "address",
          "name": "",
          "type": "address"
        }
      ],
      "stateMutability": "view",
      "type": "function"
    },
    {
      "inputs": [],
      "name": "proxiableUUID",
      "outputs": [
        {
          "internalType": "bytes32",
          "name": "",
          "type": "bytes32"
        }
      ],
      "stateMutability": "view",
      "type": "function"
    },
    {
      "inputs": [
        {
          "internalType": "address",
          "name": "_tokenAddress",
          "type": "address"
        }
      ],
      "name": "removeAllowedToken",
      "outputs": [],
      "stateMutability": "nonpayable",
      "type": "function"
    },
    {
      "inputs": [],
      "name": "renounceOwnership",
      "outputs": [],
      "stateMutability": "nonpayable",
      "type": "function"
    },
    {
      "inputs": [
        {
          "internalType": "address",
          "name": "newOwner",
          "type": "address"
        }
      ],
      "name": "transferOwnership",
      "outputs": [],
      "stateMutability": "nonpayable",
      "type": "function"
    },
    {
      "inputs": [
        {
          "internalType": "uint256",
          "name": "positionId",
          "type": "uint256"
        }
      ],
      "name": "unstake",
      "outputs": [],
      "stateMutability": "nonpayable",
      "type": "function"
    },
    {
      "inputs": [
        {
          "internalType": "uint256",
          "name": "_yieldRate",
          "type": "uint256"
        },
        {
          "internalType": "uint256",
          "name": "_minDuration",
          "type": "uint256"
        },
        {
          "internalType": "uint256",
          "name": "_maxDuration",
          "type": "uint256"
        }
      ],
      "name": "updateYieldParameters",
      "outputs": [],
      "stateMutability": "nonpayable",
      "type": "function"
    },
    {
      "inputs": [
        {
          "internalType": "address",
          "name": "newImplementation",
          "type": "address"
        },
        {
          "internalType": "bytes",
          "name": "data",
          "type": "bytes"
        }
      ],
      "name": "upgradeToAndCall",
      "outputs": [],
      "stateMutability": "payable",
      "type": "function"
    },
    {
      "inputs": [
        {
          "internalType": "uint256",
          "name": "positionId",
          "type": "uint256"
        }
      ],
      "name": "withdraw",
      "outputs": [],
      "stateMutability": "nonpayable",
      "type": "function"
    }
  ],
  "bytecode": "0x60a06040523060805234801561001457600080fd5b5061001d610022565b6100d4565b7ff0c57e16840df040f15088dc2f81fe391c3923bec73e23a9662efc9c229c6a00805468010000000000000000900460ff16156100725760405163f92ee8a960e01b815260040160405180910390fd5b80546001600160401b03908116146100d15780546001600160401b0319166001600160401b0390811782556040519081527fc7f505b2f371ae2175ee4913f4499e1f2633a7b5936321eed1cdaeb6115181d29060200160405180910390a15b50565b608051612e8c6100fd600039600081816123b1015281816123da015261251b0152612e8c6000f3fe6080604052600436106101815760003560e01c80635fc75ec2116100d1578063ad3cb1cc1161008a578063eb02c30111610064578063eb02c30114610460578063f10098991461048d578063f2fde38b146104a2578063f9eaee0d146104c257600080fd5b8063ad3cb1cc146103ed578063b26025aa1461042b578063b99732ee1461044057600080fd5b80635fc75ec214610321578063715018a6146103435780637697299914610358578063864a65e51461036d5780638da5cb5b1461039057806390469a9d146103cd57600080fd5b806331ed0db41161013e5780634ec81af1116101185780634ec81af1146102b95780634f1ef286146102d957806352d1902d146102ec5780635dd5999e1461030157600080fd5b806331ed0db41461025257806336c19428146102675780633b8dbc111461028757600080fd5b8063024ece89146101865780630c5d13a2146101b15780630efe6a8b146101d0578063171e44ea146101f25780632e17de78146102125780632e1a7d4d14610232575b600080fd5b34801561019257600080fd5b5061019b61050b565b6040516101a89190612902565b60405180910390f35b3480156101bd57600080fd5b506001545b6040519081526020016101a8565b3480156101dc57600080fd5b506101f06101eb366004612931565b610689565b005b3480156101fe57600080fd5b506101f061020d366004612964565b610b49565b34801561021e57600080fd5b506101f061022d36600461297f565b610c95565b34801561023e57600080fd5b506101f061024d36600461297f565b6110f1565b34801561025e57600080fd5b506004546101c2565b34801561027357600080fd5b506101f0610282366004612998565b6115fd565b34801561029357600080fd5b506003546001600160a01b03165b6040516001600160a01b0390911681526020016101a8565b3480156102c557600080fd5b506101f06102d43660046129c4565b61165a565b6101f06102e7366004612a13565b61182d565b3480156102f857600080fd5b506101c261184c565b34801561030d57600080fd5b506101f061031c366004612add565b611869565b34801561032d57600080fd5b506103366118c2565b6040516101a89190612b6a565b34801561034f57600080fd5b506101f0611bda565b34801561036457600080fd5b506002546101c2565b34801561037957600080fd5b50610382611bee565b6040516101a8929190612bb8565b34801561039c57600080fd5b507f9016d09d72d40fdae2fd8ceac6b6234c7706214fd39c1cd1e609a0528c199300546001600160a01b03166102a1565b3480156103d957600080fd5b506101f06103e8366004612964565b611dcb565b3480156103f957600080fd5b5061041e604051806040016040528060058152602001640352e302e360dc1b81525081565b6040516101a89190612c36565b34801561043757600080fd5b506005546101c2565b34801561044c57600080fd5b506101c261045b366004612c69565b61204a565b34801561046c57600080fd5b5061048061047b36600461297f565b612060565b6040516101a89190612c8b565b34801561049957600080fd5b506000546101c2565b3480156104ae57600080fd5b506101f06104bd366004612964565b6121fd565b3480156104ce57600080fd5b506104fb6104dd366004612964565b6001600160a01b031660009081526009602052604090205460ff1690565b60405190151581526020016101a8565b60606000805b60075481101561057557600960006007838154811061053257610532612c99565b60009182526020808320909101546001600160a01b0316835282019290925260400190205460ff161561056d578161056981612cc5565b9250505b600101610511565b5060008167ffffffffffffffff811115610591576105916129fd565b6040519080825280602002602001820160405280156105ba578160200160208202803683370190505b5090506000805b6007548110156106805760096000600783815481106105e2576105e2612c99565b60009182526020808320909101546001600160a01b0316835282019290925260400190205460ff1615610678576007818154811061062257610622612c99565b9060005260206000200160009054906101000a90046001600160a01b031683838151811061065257610652612c99565b6001600160a01b03909216602092830291909101909101528161067481612cc5565b9250505b6001016105c1565b50909392505050565b610691612238565b600082116106e65760405162461bcd60e51b815260206004820152601d60248201527f416d6f756e74206d7573742062652067726561746572207468616e203000000060448201526064015b60405180910390fd5b60015481101580156106fa57506002548111155b6107395760405162461bcd60e51b815260206004820152601060248201526f24b73b30b634b210323ab930ba34b7b760811b60448201526064016106dd565b6001600160a01b03831660009081526009602052604090205460ff166107b55760405162461bcd60e51b815260206004820152602b60248201527f576520646f206e6f7420737570706f72742074686520746f6b656e7320796f7560448201526a277265207374616b696e6760a81b60648201526084016106dd565b6040516370a0823160e01b81523060048201526000906001600160a01b038516906370a0823190602401602060405180830381865afa1580156107fc573d6000803e3d6000fd5b505050506040513d601f19601f820116820180604052508101906108209190612cde565b90506108376001600160a01b038516333086612270565b6040516370a0823160e01b81523060048201526000906001600160a01b038616906370a0823190602401602060405180830381865afa15801561087e573d6000803e3d6000fd5b505050506040513d601f19601f820116820180604052508101906108a29190612cde565b905060006108b08383612cf7565b9050600081116109025760405162461bcd60e51b815260206004820152601a60248201527f4e6f20746f6b656e732077657265207472616e7366657272656400000000000060448201526064016106dd565b80600560008282546109149190612d0a565b9091555050336000908152600c602090815260408083206001600160a01b038a1684529091528120805483929061094c908490612d0a565b9091555050336000908152600d602052604081205490036109cf5760088054336000818152600b602052604081208390556001830184559283527ff3f7a9fe364faab93b216da50a3214154f22a0a2b415b23a84c8169e8b636ee390910180546001600160a01b031916909117905560048054916109c983612cc5565b91905055505b60068054600091826109e083612cc5565b909155506040805160e081018252338082526001600160a01b038b81166020808501918252848601878152606086018a8152426080880190815260a088018f8152600060c08a01818152898252600d87528b82208054600181810183559184528884208d516007909202018054918c166001600160a01b03199283161781559951918a01805492909b169181169190911790995594516002880155925160038701559051600486015551600585015590516006909301805493151560ff1990941693909317909255868252600e815285822080549093168417909255918252600a90529182208054939450909291610ad783612cc5565b9091555050604080516001600160a01b038a1681526020810185905290810187905233907ff5681f9d0db1b911ac18ee83d515a1cf1051853a9eae418316a2fdf7dea427c59060600160405180910390a25050505050610b446001600080516020612e3783398151915255565b505050565b610b516122f1565b6001600160a01b038116610b9f5760405162461bcd60e51b8152602060048201526015602482015274496e76616c696420746f6b656e206164647265737360581b60448201526064016106dd565b6001600160a01b03811660009081526009602052604090205460ff1615610c085760405162461bcd60e51b815260206004820152601f60248201527f546f6b656e20616c726561647920616464656420616e6420616c6c6f7765640060448201526064016106dd565b6007805460018082019092557fa66cc928b5edb82af9bd49922954155ab7b0942694bea4ce44661d9a8736c6880180546001600160a01b0319166001600160a01b038416908117909155600081815260096020908152604091829020805460ff1916851790558151928352820192909252600080516020612e17833981519152910160405180910390a150565b610c9d612238565b6000818152600e60205260409020546001600160a01b03163314610cf85760405162461bcd60e51b81526020600482015260126024820152712737ba103837b9b4ba34b7b71037bbb732b960711b60448201526064016106dd565b336000908152600d602052604081209080805b8354811015610d525784848281548110610d2757610d27612c99565b90600052602060002090600702016002015403610d4a5780925060019150610d52565b600101610d0b565b5080610d705760405162461bcd60e51b81526004016106dd90612d1d565b6000838381548110610d8457610d84612c99565b60009182526020909120600790910201600681015490915060ff1615610de05760405162461bcd60e51b815260206004820152601160248201527020b63932b0b23c903bb4ba34323930bbb760791b60448201526064016106dd565b60018101546003820154600583015460048401546001600160a01b0390931692610e0a9190612d0a565b421015610e3a576000600a8460030154610e249190612d49565b9050808460030154610e369190612cf7565b9150505b6040516370a0823160e01b81523060048201526000906001600160a01b038416906370a0823190602401602060405180830381865afa158015610e81573d6000803e3d6000fd5b505050506040513d601f19601f82011682018060405250810190610ea59190612cde565b905081811015610ec75760405162461bcd60e51b81526004016106dd90612d6b565b836003015460056000828254610edd9190612cf7565b90915550506003840154336000908152600c602090815260408083206001600160a01b038816845290915281208054909190610f1a908490612cf7565b909155505060068401805460ff191660011790556000888152600e6020908152604080832080546001600160a01b0319169055338352600a9091528120805491610f6383612dad565b9091555050336000908152600a6020526040812054900361107057600854600090610f9090600190612cf7565b9050600060088281548110610fa757610fa7612c99565b6000918252602090912001546001600160a01b0316905033811461102457336000908152600b60205260409020546008805483919083908110610fec57610fec612c99565b600091825260208083209190910180546001600160a01b0319166001600160a01b039485161790559184168152600b90915260409020555b600880548061103557611035612dc4565b600082815260208120820160001990810180546001600160a01b0319169055909101909155600480549161106883612dad565b919050555050505b6110846001600160a01b038416338461234c565b604080516001600160a01b038516815260208101849052600081830152905133917f91fb9d98b786c57d74c099ccd2beca1739e9f6a81fb49001ca465c4b7591bbe2919081900360600190a2505050505050506110ee6001600080516020612e3783398151915255565b50565b6110f9612238565b6000818152600e60205260409020546001600160a01b0316806111585760405162461bcd60e51b8152602060048201526017602482015276141bdcda5d1a5bdb88191bd95cc81b9bdd08195e1a5cdd604a1b60448201526064016106dd565b6001600160a01b03811633146111bf5760405162461bcd60e51b815260206004820152602660248201527f596f7520617265206e6f7420746865206f776e6572206f66207468697320706f60448201526539b4ba34b7b760d11b60648201526084016106dd565b336000908152600d602052604081209080805b835481101561121957858482815481106111ee576111ee612c99565b906000526020600020906007020160020154036112115780925060019150611219565b6001016111d2565b50806112375760405162461bcd60e51b81526004016106dd90612d1d565b600083838154811061124b5761124b612c99565b60009182526020909120600790910201600681015490915060ff16156112a75760405162461bcd60e51b815260206004820152601160248201527020b63932b0b23c903bb4ba34323930bbb760791b60448201526064016106dd565b806005015481600401546112bb9190612d0a565b4210156112f95760405162461bcd60e51b815260206004820152600c60248201526b14dd1a5b1b081b1bd8dad95960a21b60448201526064016106dd565b6001810154600382015460058301546001600160a01b03909216916000916113209161204a565b6040516370a0823160e01b81523060048201529091506000906001600160a01b038416906370a0823190602401602060405180830381865afa15801561136a573d6000803e3d6000fd5b505050506040513d601f19601f8201168201806040525081019061138e9190612cde565b905083600301548110156113b45760405162461bcd60e51b81526004016106dd90612d6b565b8360030154600560008282546113ca9190612cf7565b90915550506003840154336000908152600c602090815260408083206001600160a01b038816845290915281208054909190611407908490612cf7565b909155505060068401805460ff191660011790556003840154611436906001600160a01b03851690339061234c565b61144a6001600160a01b038416338461234c565b336000908152600a6020526040812080549161146583612dad565b9091555050336000908152600a602052604081205490036115725760085460009061149290600190612cf7565b90506000600882815481106114a9576114a9612c99565b6000918252602090912001546001600160a01b0316905033811461152657336000908152600b602052604090205460088054839190839081106114ee576114ee612c99565b600091825260208083209190910180546001600160a01b0319166001600160a01b039485161790559184168152600b90915260409020555b600880548061153757611537612dc4565b600082815260208120820160001990810180546001600160a01b0319169055909101909155600480549161156a83612dad565b919050555050505b6000898152600e602090815260409182902080546001600160a01b0319169055600386015482516001600160a01b03871681529182015290810183905233907f91fb9d98b786c57d74c099ccd2beca1739e9f6a81fb49001ca465c4b7591bbe29060600160405180910390a250505050505050506110ee6001600080516020612e3783398151915255565b6116056122f1565b60008390556001829055600281905560408051848152602081018490529081018290527fefeeae12018cad4c8c8285ce10d106bd4084b37ddd067fb0b5ba5567d7f8d4eb9060600160405180910390a1505050565b7ff0c57e16840df040f15088dc2f81fe391c3923bec73e23a9662efc9c229c6a008054600160401b810460ff16159067ffffffffffffffff166000811580156116a05750825b905060008267ffffffffffffffff1660011480156116bd5750303b155b9050811580156116cb575080155b156116e95760405163f92ee8a960e01b815260040160405180910390fd5b845467ffffffffffffffff19166001178555831561171357845460ff60401b1916600160401b1785555b61171c3361237d565b61172461238e565b61172c612396565b600088815560018881556002889055600380546001600160a01b038d166001600160a01b03199182168117909255600484905560058490556006839055600780548085019091557fa66cc928b5edb82af9bd49922954155ab7b0942694bea4ce44661d9a8736c6880180549091168217905580835260096020908152604093849020805460ff1916841790558351918252810191909152600080516020612e17833981519152910160405180910390a1831561182257845460ff60401b19168555604051600181527fc7f505b2f371ae2175ee4913f4499e1f2633a7b5936321eed1cdaeb6115181d29060200160405180910390a15b505050505050505050565b6118356123a6565b61183e8261244b565b6118488282612453565b5050565b6000611856612510565b50600080516020612df783398151915290565b6118716122f1565b6001600160a01b038216600081815260096020908152604091829020805460ff1916851515908117909155825193845290830152600080516020612e17833981519152910160405180910390a15050565b60606000805b600854811015611a05576000600d6000600884815481106118eb576118eb612c99565b60009182526020808320909101546001600160a01b031683528281019390935260409182018120805483518186028101860190945280845292939092919084015b828210156119b15760008481526020908190206040805160e0810182526007860290920180546001600160a01b039081168452600180830154909116848601526002820154928401929092526003810154606084015260048101546080840152600581015460a08401526006015460ff16151560c0830152908352909201910161192c565b50505050905060005b81518110156119fb578181815181106119d5576119d5612c99565b602002602001015160c001516119f357836119ef81612cc5565b9450505b6001016119ba565b50506001016118c8565b508067ffffffffffffffff811115611a1f57611a1f6129fd565b604051908082528060200260200182016040528015611a5857816020015b611a4561286c565b815260200190600190039081611a3d5790505b5091506000805b600854811015611bd4576000600d600060088481548110611a8257611a82612c99565b60009182526020808320909101546001600160a01b031683528281019390935260409182018120805483518186028101860190945280845292939092919084015b82821015611b485760008481526020908190206040805160e0810182526007860290920180546001600160a01b039081168452600180830154909116848601526002820154928401929092526003810154606084015260048101546080840152600581015460a08401526006015460ff16151560c08301529083529092019101611ac3565b50505050905060005b8151811015611bca57818181518110611b6c57611b6c612c99565b602002602001015160c00151611bc257818181518110611b8e57611b8e612c99565b6020026020010151868581518110611ba857611ba8612c99565b60200260200101819052508380611bbe90612cc5565b9450505b600101611b51565b5050600101611a5f565b50505090565b611be26122f1565b611bec6000612559565b565b6060806000805b600754811015611c6257600060078281548110611c1457611c14612c99565b6000918252602080832090910154338352600c825260408084206001600160a01b039092168085529190925291205490915015611c595782611c5581612cc5565b9350505b50600101611bf5565b508067ffffffffffffffff811115611c7c57611c7c6129fd565b604051908082528060200260200182016040528015611ca5578160200160208202803683370190505b5092508067ffffffffffffffff811115611cc157611cc16129fd565b604051908082528060200260200182016040528015611cea578160200160208202803683370190505b5091506000805b600754811015611dc457600060078281548110611d1057611d10612c99565b6000918252602080832090910154338352600c825260408084206001600160a01b039092168085529190925291205490915015611dbb5780868481518110611d5a57611d5a612c99565b6001600160a01b03928316602091820292909201810191909152336000908152600c8252604080822093851682529290915220548551869085908110611da257611da2612c99565b602090810291909101015282611db781612cc5565b9350505b50600101611cf1565b5050509091565b611dd36122f1565b600080805b600754811015611e2d57836001600160a01b031660078281548110611dff57611dff612c99565b6000918252602090912001546001600160a01b031603611e255780925060019150611e2d565b600101611dd8565b5080611e855760405162461bcd60e51b815260206004820152602160248201527f546f6b656e206e6f7420666f756e6420696e20616c6c6f77656420746f6b656e6044820152607360f81b60648201526084016106dd565b6000611e8f6118c2565b905060005b8151811015611f3f57846001600160a01b0316828281518110611eb957611eb9612c99565b6020026020010151602001516001600160a01b031603611f375760405162461bcd60e51b815260206004820152603360248201527f546f6b656e2068617320616e2061637469766520706f736974696f6e2e2043616044820152726e6e6f742062652072656d6f766564206e6f7760681b60648201526084016106dd565b600101611e94565b50600754600090611f5290600190612cf7565b9050808414611fc95760078181548110611f6e57611f6e612c99565b600091825260209091200154600780546001600160a01b039092169186908110611f9a57611f9a612c99565b9060005260206000200160006101000a8154816001600160a01b0302191690836001600160a01b031602179055505b6007805480611fda57611fda612dc4565b60008281526020808220600019908401810180546001600160a01b03191690559092019092556001600160a01b038716808352600982526040808420805460ff19169055805191825291810192909252600080516020612e17833981519152910160405180910390a15050505050565b60005463bbf81e00828402909102045b92915050565b61206861286c565b6000828152600e60205260409020546001600160a01b0316806120c75760405162461bcd60e51b8152602060048201526017602482015276141bdcda5d1a5bdb88191bd95cc81b9bdd08195e1a5cdd604a1b60448201526064016106dd565b6001600160a01b0381166000908152600d6020908152604080832080548251818502810185019093528083529192909190849084015b828210156121825760008481526020908190206040805160e0810182526007860290920180546001600160a01b039081168452600180830154909116848601526002820154928401929092526003810154606084015260048101546080840152600581015460a08401526006015460ff16151560c083015290835290920191016120fd565b50505050905060005b81518110156121e457848282815181106121a7576121a7612c99565b602002602001015160400151036121dc578181815181106121ca576121ca612c99565b60200260200101519350505050919050565b60010161218b565b5060405162461bcd60e51b81526004016106dd90612d1d565b6122056122f1565b6001600160a01b03811661222f57604051631e4fbdf760e01b8152600060048201526024016106dd565b6110ee81612559565b600080516020612e3783398151915280546001190161226a57604051633ee5aeb560e01b815260040160405180910390fd5b60029055565b6040516001600160a01b0384811660248301528381166044830152606482018390526122d79186918216906323b872dd906084015b604051602081830303815290604052915060e01b6020820180516001600160e01b0383818316178352505050506125ca565b50505050565b6001600080516020612e3783398151915255565b336123237f9016d09d72d40fdae2fd8ceac6b6234c7706214fd39c1cd1e609a0528c199300546001600160a01b031690565b6001600160a01b031614611bec5760405163118cdaa760e01b81523360048201526024016106dd565b6040516001600160a01b03838116602483015260448201839052610b4491859182169063a9059cbb906064016122a5565b61238561263b565b6110ee81612684565b611bec61263b565b61239e61263b565b611bec61268c565b306001600160a01b037f000000000000000000000000000000000000000000000000000000000000000016148061242d57507f00000000000000000000000000000000000000000000000000000000000000006001600160a01b0316612421600080516020612df7833981519152546001600160a01b031690565b6001600160a01b031614155b15611bec5760405163703e46dd60e11b815260040160405180910390fd5b6110ee6122f1565b816001600160a01b03166352d1902d6040518163ffffffff1660e01b8152600401602060405180830381865afa9250505080156124ad575060408051601f3d908101601f191682019092526124aa91810190612cde565b60015b6124d557604051634c9c8ce360e01b81526001600160a01b03831660048201526024016106dd565b600080516020612df7833981519152811461250657604051632a87526960e21b8152600481018290526024016106dd565b610b448383612694565b306001600160a01b037f00000000000000000000000000000000000000000000000000000000000000001614611bec5760405163703e46dd60e11b815260040160405180910390fd5b7f9016d09d72d40fdae2fd8ceac6b6234c7706214fd39c1cd1e609a0528c19930080546001600160a01b031981166001600160a01b03848116918217845560405192169182907f8be0079c531659141344cd1fd0a4f28419497f9722a3daafe3b4186f6b6457e090600090a3505050565b600080602060008451602086016000885af1806125ed576040513d6000823e3d81fd5b50506000513d91508115612605578060011415612612565b6001600160a01b0384163b155b156122d757604051635274afe760e01b81526001600160a01b03851660048201526024016106dd565b7ff0c57e16840df040f15088dc2f81fe391c3923bec73e23a9662efc9c229c6a0054600160401b900460ff16611bec57604051631afcd79f60e31b815260040160405180910390fd5b61220561263b565b6122dd61263b565b61269d826126ea565b6040516001600160a01b038316907fbc7cd75a20ee27fd9adebab32041f755214dbc6bffa90cc0225b39da2e5c2d3b90600090a28051156126e257610b44828261274f565b6118486127c5565b806001600160a01b03163b60000361272057604051634c9c8ce360e01b81526001600160a01b03821660048201526024016106dd565b600080516020612df783398151915280546001600160a01b0319166001600160a01b0392909216919091179055565b6060600080846001600160a01b03168460405161276c9190612dda565b600060405180830381855af49150503d80600081146127a7576040519150601f19603f3d011682016040523d82523d6000602084013e6127ac565b606091505b50915091506127bc8583836127e4565b95945050505050565b3415611bec5760405163b398979f60e01b815260040160405180910390fd5b6060826127f9576127f482612843565b61283c565b815115801561281057506001600160a01b0384163b155b1561283957604051639996b31560e01b81526001600160a01b03851660048201526024016106dd565b50805b9392505050565b8051156128535780518082602001fd5b60405163d6bda27560e01b815260040160405180910390fd5b6040518060e0016040528060006001600160a01b0316815260200160006001600160a01b03168152602001600081526020016000815260200160008152602001600081526020016000151581525090565b600081518084526020840193506020830160005b828110156128f85781516001600160a01b03168652602095860195909101906001016128d1565b5093949350505050565b60208152600061283c60208301846128bd565b80356001600160a01b038116811461292c57600080fd5b919050565b60008060006060848603121561294657600080fd5b61294f84612915565b95602085013595506040909401359392505050565b60006020828403121561297657600080fd5b61283c82612915565b60006020828403121561299157600080fd5b5035919050565b6000806000606084860312156129ad57600080fd5b505081359360208301359350604090920135919050565b600080600080608085870312156129da57600080fd5b6129e385612915565b966020860135965060408601359560600135945092505050565b634e487b7160e01b600052604160045260246000fd5b60008060408385031215612a2657600080fd5b612a2f83612915565b9150602083013567ffffffffffffffff811115612a4b57600080fd5b8301601f81018513612a5c57600080fd5b803567ffffffffffffffff811115612a7657612a766129fd565b604051601f8201601f19908116603f0116810167ffffffffffffffff81118282101715612aa557612aa56129fd565b604052818152828201602001871015612abd57600080fd5b816020840160208301376000602083830101528093505050509250929050565b60008060408385031215612af057600080fd5b612af983612915565b915060208301358015158114612b0e57600080fd5b809150509250929050565b80516001600160a01b0390811683526020808301519091169083015260408082015190830152606080820151908301526080808201519083015260a0818101519083015260c0908101511515910152565b602080825282518282018190526000918401906040840190835b81811015612bad57612b97838551612b19565b6020939093019260e09290920191600101612b84565b509095945050505050565b604081526000612bcb60408301856128bd565b828103602084015280845180835260208301915060208601925060005b81811015612c06578351835260209384019390920191600101612be8565b50909695505050505050565b60005b83811015612c2d578181015183820152602001612c15565b50506000910152565b6020815260008251806020840152612c55816040850160208701612c12565b601f01601f19169190910160400192915050565b60008060408385031215612c7c57600080fd5b50508035926020909101359150565b60e0810161205a8284612b19565b634e487b7160e01b600052603260045260246000fd5b634e487b7160e01b600052601160045260246000fd5b600060018201612cd757612cd7612caf565b5060010190565b600060208284031215612cf057600080fd5b5051919050565b8181038181111561205a5761205a612caf565b8082018082111561205a5761205a612caf565b602080825260129082015271141bdcda5d1a5bdb881b9bdd08199bdd5b9960721b604082015260600190565b600082612d6657634e487b7160e01b600052601260045260246000fd5b500490565b60208082526022908201527f496e73756666696369656e7420746f6b656e2062616c616e636520696e20706f6040820152611bdb60f21b606082015260800190565b600081612dbc57612dbc612caf565b506000190190565b634e487b7160e01b600052603160045260246000fd5b60008251612dec818460208701612c12565b919091019291505056fe360894a13ba1a3210667c828492db98dca3e2076cc3735a920a3ca505d382bbc35ec8a295a68c142349d2e1ff041d419582a35f45de73279a3f0d331004c1e469b779b17422d0df92223018b32b4d1fa46e071723d6817e2486d003becc55f00a2646970667358221220a1544a33dbfd158f2f861d0698e03f33b3d1a4935020535e44dc6351dfd954cd64736f6c634300081c0033",
  "linkReferences": {},
  "deployedLinkReferences": {}
}