{
  "_format": "hh-sol-artifact-1",
  "contractName": "YieldToken",
  "sourceName": "contracts/YieldToken.sol",
  "abi": [
    {
      "inputs": [
        {
          "internalType": "address",
          "name": "initialOwner",
          "type": "address"
        },
        {
          "internalType": "string",
          "name": "_name",
          "type": "string"
        },
        {
          "internalType": "string",
          "name": "_symbol",
          "type": "string"
        }
      ],
      "stateMutability": "nonpayable",
      "type": "constructor"
    },
    {
      "inputs": [
        {
          "internalType": "address",
          "name": "spender",
          "type": "address"
        },
        {
          "internalType": "uint256",
          "name": "allowance",
          "type": "uint256"
        },
        {
          "internalType": "uint256",
          "name": "needed",
          "type": "uint256"
        }
      ],
      "name": "ERC20InsufficientAllowance",
      "type": "error"
    },
    {
      "inputs": [
        {
          "internalType": "address",
          "name": "sender",
          "type": "address"
        },
        {
          "internalType": "uint256",
          "name": "balance",
          "type": "uint256"
        },
        {
          "internalType": "uint256",
          "name": "needed",
          "type": "uint256"
        }
      ],
      "name": "ERC20InsufficientBalance",
      "type": "error"
    },
    {
      "inputs": [
        {
          "internalType": "address",
          "name": "approver",
          "type": "address"
        }
      ],
      "name": "ERC20InvalidApprover",
      "type": "error"
    },
    {
      "inputs": [
        {
          "internalType": "address",
          "name": "receiver",
          "type": "address"
        }
      ],
      "name": "ERC20InvalidReceiver",
      "type": "error"
    },
    {
      "inputs": [
        {
          "internalType": "address",
          "name": "sender",
          "type": "address"
        }
      ],
      "name": "ERC20InvalidSender",
      "type": "error"
    },
    {
      "inputs": [
        {
          "internalType": "address",
          "name": "spender",
          "type": "address"
        }
      ],
      "name": "ERC20InvalidSpender",
      "type": "error"
    },
    {
      "inputs": [
        {
          "internalType": "address",
          "name": "owner",
          "type": "address"
        }
      ],
      "name": "OwnableInvalidOwner",
      "type": "error"
    },
    {
      "inputs": [
        {
          "internalType": "address",
          "name": "account",
          "type": "address"
        }
      ],
      "name": "OwnableUnauthorizedAccount",
      "type": "error"
    },
    {
      "anonymous": false,
      "inputs": [
        {
          "indexed": true,
          "internalType": "address",
          "name": "owner",
          "type": "address"
        },
        {
          "indexed": true,
          "internalType": "address",
          "name": "spender",
          "type": "address"
        },
        {
          "indexed": false,
          "internalType": "uint256",
          "name": "value",
          "type": "uint256"
        }
      ],
      "name": "Approval",
      "type": "event"
    },
    {
      "anonymous": false,
      "inputs": [
        {
          "indexed": true,
          "internalType": "address",
          "name": "previousOwner",
          "type": "address"
        },
        {
          "indexed": true,
          "internalType": "address",
          "name": "newOwner",
          "type": "address"
        }
      ],
      "name": "OwnershipTransferred",
      "type": "event"
    },
    {
      "anonymous": false,
      "inputs": [
        {
          "indexed": true,
          "internalType": "address",
          "name": "from",
          "type": "address"
        },
        {
          "indexed": true,
          "internalType": "address",
          "name": "to",
          "type": "address"
        },
        {
          "indexed": false,
          "internalType": "uint256",
          "name": "value",
          "type": "uint256"
        }
      ],
      "name": "Transfer",
      "type": "event"
    },
    {
      "inputs": [],
      "name": "MINT_COOLDOWN",
      "outputs": [
        {
          "internalType": "uint256",
          "name": "",
          "type": "uint256"
        }
      ],
      "stateMutability": "view",
      "type": "function"
    },
    {
      "inputs": [
        {
          "internalType": "address",
          "name": "owner",
          "type": "address"
        },
        {
          "internalType": "address",
          "name": "spender",
          "type": "address"
        }
      ],
      "name": "allowance",
      "outputs": [
        {
          "internalType": "uint256",
          "name": "",
          "type": "uint256"
        }
      ],
      "stateMutability": "view",
      "type": "function"
    },
    {
      "inputs": [
        {
          "internalType": "address",
          "name": "spender",
          "type": "address"
        },
        {
          "internalType": "uint256",
          "name": "value",
          "type": "uint256"
        }
      ],
      "name": "approve",
      "outputs": [
        {
          "internalType": "bool",
          "name": "",
          "type": "bool"
        }
      ],
      "stateMutability": "nonpayable",
      "type": "function"
    },
    {
      "inputs": [
        {
          "internalType": "address",
          "name": "account",
          "type": "address"
        }
      ],
      "name": "balanceOf",
      "outputs": [
        {
          "internalType": "uint256",
          "name": "",
          "type": "uint256"
        }
      ],
      "stateMutability": "view",
      "type": "function"
    },
    {
      "inputs": [
        {
          "internalType": "address",
          "name": "from",
          "type": "address"
        },
        {
          "internalType": "uint256",
          "name": "amount",
          "type": "uint256"
        }
      ],
      "name": "burn",
      "outputs": [],
      "stateMutability": "nonpayable",
      "type": "function"
    },
    {
      "inputs": [],
      "name": "decimals",
      "outputs": [
        {
          "internalType": "uint8",
          "name": "",
          "type": "uint8"
        }
      ],
      "stateMutability": "view",
      "type": "function"
    },
    {
      "inputs": [
        {
          "internalType": "address",
          "name": "",
          "type": "address"
        }
      ],
      "name": "isStudent",
      "outputs": [
        {
          "internalType": "bool",
          "name": "",
          "type": "bool"
        }
      ],
      "stateMutability": "view",
      "type": "function"
    },
    {
      "inputs": [
        {
          "internalType": "address",
          "name": "",
          "type": "address"
        }
      ],
      "name": "lastMintTime",
      "outputs": [
        {
          "internalType": "uint256",
          "name": "",
          "type": "uint256"
        }
      ],
      "stateMutability": "view",
      "type": "function"
    },
    {
      "inputs": [
        {
          "internalType": "address",
          "name": "to",
          "type": "address"
        },
        {
          "internalType": "uint256",
          "name": "amount",
          "type": "uint256"
        }
      ],
      "name": "mint",
      "outputs": [],
      "stateMutability": "nonpayable",
      "type": "function"
    },
    {
      "inputs": [
        {
          "internalType": "address",
          "name": "to",
          "type": "address"
        },
        {
          "internalType": "uint256",
          "name": "amount",
          "type": "uint256"
        }
      ],
      "name": "mintForStudent",
      "outputs": [],
      "stateMutability": "nonpayable",
      "type": "function"
    },
    {
      "inputs": [],
      "name": "name",
      "outputs": [
        {
          "internalType": "string",
          "name": "",
          "type": "string"
        }
      ],
      "stateMutability": "view",
      "type": "function"
    },
    {
      "inputs": [],
      "name": "owner",
      "outputs": [
        {
          "internalType": "address",
          "name": "",
          "type": "address"
        }
      ],
      "stateMutability": "view",
      "type": "function"
    },
    {
      "inputs": [],
      "name": "renounceOwnership",
      "outputs": [],
      "stateMutability": "nonpayable",
      "type": "function"
    },
    {
      "inputs": [
        {
          "internalType": "address",
          "name": "student",
          "type": "address"
        },
        {
          "internalType": "bool",
          "name": "status",
          "type": "bool"
        }
      ],
      "name": "setStudentStatus",
      "outputs": [],
      "stateMutability": "nonpayable",
      "type": "function"
    },
    {
      "inputs": [],
      "name": "symbol",
      "outputs": [
        {
          "internalType": "string",
          "name": "",
          "type": "string"
        }
      ],
      "stateMutability": "view",
      "type": "function"
    },
    {
      "inputs": [],
      "name": "totalSupply",
      "outputs": [
        {
          "internalType": "uint256",
          "name": "",
          "type": "uint256"
        }
      ],
      "stateMutability": "view",
      "type": "function"
    },
    {
      "inputs": [
        {
          "internalType": "address",
          "name": "to",
          "type": "address"
        },
        {
          "internalType": "uint256",
          "name": "value",
          "type": "uint256"
        }
      ],
      "name": "transfer",
      "outputs": [
        {
          "internalType": "bool",
          "name": "",
          "type": "bool"
        }
      ],
      "stateMutability": "nonpayable",
      "type": "function"
    },
    {
      "inputs": [
        {
          "internalType": "address",
          "name": "from",
          "type": "address"
        },
        {
          "internalType": "address",
          "name": "to",
          "type": "address"
        },
        {
          "internalType": "uint256",
          "name": "value",
          "type": "uint256"
        }
      ],
      "name": "transferFrom",
      "outputs": [
        {
          "internalType": "bool",
          "name": "",
          "type": "bool"
        }
      ],
      "stateMutability": "nonpayable",
      "type": "function"
    },
    {
      "inputs": [
        {
          "internalType": "address",
          "name": "newOwner",
          "type": "address"
        }
      ],
      "name": "transferOwnership",
      "outputs": [],
      "stateMutability": "nonpayable",
      "type": "function"
    }
  ],
  "bytecode": "0x608060405234801561001057600080fd5b50604051610ebc380380610ebc83398101604081905261002f91610199565b828282600361003e83826102aa565b50600461004b82826102aa565b5050506001600160a01b03811661007c57604051631e4fbdf760e01b81526000600482015260240160405180910390fd5b6100858161008e565b50505050610368565b600580546001600160a01b038381166001600160a01b0319831681179093556040519116919082907f8be0079c531659141344cd1fd0a4f28419497f9722a3daafe3b4186f6b6457e090600090a35050565b634e487b7160e01b600052604160045260246000fd5b600082601f83011261010757600080fd5b81516001600160401b03811115610120576101206100e0565b604051601f8201601f19908116603f011681016001600160401b038111828210171561014e5761014e6100e0565b60405281815283820160200185101561016657600080fd5b60005b8281101561018557602081860181015183830182015201610169565b506000918101602001919091529392505050565b6000806000606084860312156101ae57600080fd5b83516001600160a01b03811681146101c557600080fd5b60208501519093506001600160401b038111156101e157600080fd5b6101ed868287016100f6565b604086015190935090506001600160401b0381111561020b57600080fd5b610217868287016100f6565b9150509250925092565b600181811c9082168061023557607f821691505b60208210810361025557634e487b7160e01b600052602260045260246000fd5b50919050565b601f8211156102a557806000526020600020601f840160051c810160208510156102825750805b601f840160051c820191505b818110156102a2576000815560010161028e565b50505b505050565b81516001600160401b038111156102c3576102c36100e0565b6102d7816102d18454610221565b8461025b565b6020601f82116001811461030b57600083156102f35750848201515b600019600385901b1c1916600184901b1784556102a2565b600084815260208120601f198516915b8281101561033b578785015182556020948501946001909201910161031b565b50848210156103595786840151600019600387901b60f8161c191681555b50505050600190811b01905550565b610b45806103776000396000f3fe608060405234801561001057600080fd5b50600436106101215760003560e01c806382f7d392116100ad578063c7d4f46611610071578063c7d4f4661461026d578063c95c2fc714610280578063dd62ed3e14610293578063f2fde38b146102cc578063f7ee7a43146102df57600080fd5b806382f7d392146102015780638da5cb5b1461022457806395d89b411461023f5780639dc29fac14610247578063a9059cbb1461025a57600080fd5b8063313ce567116100f4578063313ce5671461018c57806340c10f191461019b5780636aa71d18146101b057806370a08231146101d0578063715018a6146101f957600080fd5b806306fdde0314610126578063095ea7b31461014457806318160ddd1461016757806323b872dd14610179575b600080fd5b61012e6102e9565b60405161013b9190610952565b60405180910390f35b6101576101523660046109bc565b61037b565b604051901515815260200161013b565b6002545b60405190815260200161013b565b6101576101873660046109e6565b610395565b6040516012815260200161013b565b6101ae6101a93660046109bc565b6103b9565b005b61016b6101be366004610a23565b60066020526000908152604090205481565b61016b6101de366004610a23565b6001600160a01b031660009081526020819052604090205490565b6101ae61045d565b61015761020f366004610a23565b60076020526000908152604090205460ff1681565b6005546040516001600160a01b03909116815260200161013b565b61012e610471565b6101ae6102553660046109bc565b610480565b6101576102683660046109bc565b610492565b6101ae61027b3660046109bc565b6104a0565b6101ae61028e366004610a45565b610508565b61016b6102a1366004610a81565b6001600160a01b03918216600090815260016020908152604080832093909416825291909152205490565b6101ae6102da366004610a23565b61053b565b61016b6201518081565b6060600380546102f890610ab4565b80601f016020809104026020016040519081016040528092919081815260200182805461032490610ab4565b80156103715780601f1061034657610100808354040283529160200191610371565b820191906000526020600020905b81548152906001019060200180831161035457829003601f168201915b5050505050905090565b600033610389818585610579565b60019150505b92915050565b6000336103a385828561058b565b6103ae858585610609565b506001949350505050565b6001600160a01b0382166000908152600660205260409020546103e0906201518090610aee565b4210156104345760405162461bcd60e51b815260206004820181905260248201527f4d757374207761697420323420686f757273206265747765656e206d696e747360448201526064015b60405180910390fd5b6001600160a01b03821660009081526006602052604090204290556104598282610668565b5050565b61046561069e565b61046f60006106cb565b565b6060600480546102f890610ab4565b61048861069e565b610459828261071d565b600033610389818585610609565b6001600160a01b03821660009081526007602052604090205460ff166104345760405162461bcd60e51b815260206004820152601960248201527f41646472657373206d75737420626520612073747564656e7400000000000000604482015260640161042b565b61051061069e565b6001600160a01b03919091166000908152600760205260409020805460ff1916911515919091179055565b61054361069e565b6001600160a01b03811661056d57604051631e4fbdf760e01b81526000600482015260240161042b565b610576816106cb565b50565b6105868383836001610753565b505050565b6001600160a01b03838116600090815260016020908152604080832093861683529290522054600019811461060357818110156105f457604051637dc7a0d960e11b81526001600160a01b0384166004820152602481018290526044810183905260640161042b565b61060384848484036000610753565b50505050565b6001600160a01b03831661063357604051634b637e8f60e11b81526000600482015260240161042b565b6001600160a01b03821661065d5760405163ec442f0560e01b81526000600482015260240161042b565b610586838383610828565b6001600160a01b0382166106925760405163ec442f0560e01b81526000600482015260240161042b565b61045960008383610828565b6005546001600160a01b0316331461046f5760405163118cdaa760e01b815233600482015260240161042b565b600580546001600160a01b038381166001600160a01b0319831681179093556040519116919082907f8be0079c531659141344cd1fd0a4f28419497f9722a3daafe3b4186f6b6457e090600090a35050565b6001600160a01b03821661074757604051634b637e8f60e11b81526000600482015260240161042b565b61045982600083610828565b6001600160a01b03841661077d5760405163e602df0560e01b81526000600482015260240161042b565b6001600160a01b0383166107a757604051634a1406b160e11b81526000600482015260240161042b565b6001600160a01b038085166000908152600160209081526040808320938716835292905220829055801561060357826001600160a01b0316846001600160a01b03167f8c5be1e5ebec7d5bd14f71427d1e84f3dd0314c0f7b2291e5b200ac8c7c3b9258460405161081a91815260200190565b60405180910390a350505050565b6001600160a01b0383166108535780600260008282546108489190610aee565b909155506108c59050565b6001600160a01b038316600090815260208190526040902054818110156108a65760405163391434e360e21b81526001600160a01b0385166004820152602481018290526044810183905260640161042b565b6001600160a01b03841660009081526020819052604090209082900390555b6001600160a01b0382166108e157600280548290039055610900565b6001600160a01b03821660009081526020819052604090208054820190555b816001600160a01b0316836001600160a01b03167fddf252ad1be2c89b69c2b068fc378daa952ba7f163c4a11628f55a4df523b3ef8360405161094591815260200190565b60405180910390a3505050565b602081526000825180602084015260005b818110156109805760208186018101516040868401015201610963565b506000604082850101526040601f19601f83011684010191505092915050565b80356001600160a01b03811681146109b757600080fd5b919050565b600080604083850312156109cf57600080fd5b6109d8836109a0565b946020939093013593505050565b6000806000606084860312156109fb57600080fd5b610a04846109a0565b9250610a12602085016109a0565b929592945050506040919091013590565b600060208284031215610a3557600080fd5b610a3e826109a0565b9392505050565b60008060408385031215610a5857600080fd5b610a61836109a0565b915060208301358015158114610a7657600080fd5b809150509250929050565b60008060408385031215610a9457600080fd5b610a9d836109a0565b9150610aab602084016109a0565b90509250929050565b600181811c90821680610ac857607f821691505b602082108103610ae857634e487b7160e01b600052602260045260246000fd5b50919050565b8082018082111561038f57634e487b7160e01b600052601160045260246000fdfea26469706673582212205c6883a51d982d0f24d09660002d7a215482df925f9eea66543c08e3debf664f64736f6c634300081c0033",
  "linkReferences": {},
  "deployedLinkReferences": {}
}