{
  "_format": "hh-sol-artifact-1",
  "contractName": "StakingRewards",
  "sourceName": "contracts/StakingRewards.sol",
  "abi": [
    {
      "inputs": [
        {
          "internalType": "address",
          "name": "eduToken",
          "type": "address"
        },
        {
          "internalType": "address",
          "name": "yieldPoolAddress",
          "type": "address"
        }
      ],
      "stateMutability": "nonpayable",
      "type": "constructor"
    },
    {
      "inputs": [],
      "name": "ReentrancyGuardReentrantCall",
      "type": "error"
    },
    {
      "anonymous": false,
      "inputs": [
        {
          "indexed": true,
          "internalType": "address",
          "name": "user",
          "type": "address"
        },
        {
          "indexed": false,
          "internalType": "uint256",
          "name": "amount",
          "type": "uint256"
        }
      ],
      "name": "Staked",
      "type": "event"
    },
    {
      "anonymous": false,
      "inputs": [
        {
          "indexed": true,
          "internalType": "address",
          "name": "user",
          "type": "address"
        },
        {
          "indexed": false,
          "internalType": "uint256",
          "name": "amount",
          "type": "uint256"
        }
      ],
      "name": "Unstaked",
      "type": "event"
    },
    {
      "inputs": [
        {
          "internalType": "address",
          "name": "user",
          "type": "address"
        }
      ],
      "name": "getStake",
      "outputs": [
        {
          "components": [
            {
              "internalType": "uint256",
              "name": "amount",
              "type": "uint256"
            },
            {
              "internalType": "uint256",
              "name": "startTime",
              "type": "uint256"
            }
          ],
          "internalType": "struct StakingRewards.Stake",
          "name": "",
          "type": "tuple"
        }
      ],
      "stateMutability": "view",
      "type": "function"
    },
    {
      "inputs": [],
      "name": "getYieldPool",
      "outputs": [
        {
          "internalType": "contract YieldPool",
          "name": "",
          "type": "address"
        }
      ],
      "stateMutability": "view",
      "type": "function"
    },
    {
      "inputs": [
        {
          "internalType": "uint256",
          "name": "amount",
          "type": "uint256"
        }
      ],
      "name": "stake",
      "outputs": [],
      "stateMutability": "nonpayable",
      "type": "function"
    },
    {
      "inputs": [],
      "name": "unstake",
      "outputs": [],
      "stateMutability": "nonpayable",
      "type": "function"
    }
  ],
  "bytecode": "0x60c060405234801561001057600080fd5b5060405161056d38038061056d83398101604081905261002f91610067565b60016000556001600160a01b039182166080521660a05261009a565b80516001600160a01b038116811461006257600080fd5b919050565b6000806040838503121561007a57600080fd5b6100838361004b565b91506100916020840161004b565b90509250929050565b60805160a0516104a86100c5600039600060dd0152600081816101cd01526102f801526104a86000f3fe608060405234801561001057600080fd5b506004361061004c5760003560e01c80632def6620146100515780637a7664601461005b5780638e1d518b146100d0578063a694fc3a14610107575b600080fd5b61005961011a565b005b6100b0610069366004610407565b6040805180820190915260008082526020820152506001600160a01b0316600090815260016020818152604092839020835180850190945280548452909101549082015290565b604080518251815260209283015192810192909252015b60405180910390f35b6040516001600160a01b037f00000000000000000000000000000000000000000000000000000000000000001681526020016100c7565b610059610115366004610437565b61027e565b6101226103dd565b33600090815260016020818152604092839020835180850190945280548085529201549083015261018b5760405162461bcd60e51b815260206004820152600e60248201526d139bc81cdd185ad948199bdd5b9960921b60448201526064015b60405180910390fd5b8051336000818152600160208190526040808320838155909101919091555163a9059cbb60e01b81526004810191909152602481018290526001600160a01b037f0000000000000000000000000000000000000000000000000000000000000000169063a9059cbb906044016020604051808303816000875af1158015610216573d6000803e3d6000fd5b505050506040513d601f19601f8201168201806040525081019061023a9190610450565b5060405181815233907f0f5bb82176feb1b5e747e28471aa92156a04d9f3ab9f45f28e2d704232b93f759060200160405180910390a2505061027c6001600055565b565b6102866103dd565b600081116102d65760405162461bcd60e51b815260206004820152601d60248201527f416d6f756e74206d7573742062652067726561746572207468616e20300000006044820152606401610182565b6040516323b872dd60e01b8152336004820152306024820152604481018290527f00000000000000000000000000000000000000000000000000000000000000006001600160a01b0316906323b872dd906064016020604051808303816000875af1158015610349573d6000803e3d6000fd5b505050506040513d601f19601f8201168201806040525081019061036d9190610450565b50604080518082018252828152426020808301918252336000818152600180845290869020945185559251939092019290925591518381527f9e71bc8eea02a63969f509818f2dafb9254532904319f9dbda79b67bd34a5f3d910160405180910390a26103da6001600055565b50565b60026000540361040057604051633ee5aeb560e01b815260040160405180910390fd5b6002600055565b60006020828403121561041957600080fd5b81356001600160a01b038116811461043057600080fd5b9392505050565b60006020828403121561044957600080fd5b5035919050565b60006020828403121561046257600080fd5b8151801515811461043057600080fdfea2646970667358221220842a0edb57dc4573100b064c10d93ab30d6448c9d34b86a7b83a518068e402ae64736f6c634300081c0033",
  "linkReferences": {},
  "deployedLinkReferences": {}
}