{"contracts/upgrades/YieldPoolV2.sol":{"YieldPoolV2":{"abi":[{"inputs":[],"stateMutability":"nonpayable","type":"constructor"},{"inputs":[{"internalType":"address","name":"target","type":"address"}],"name":"AddressEmptyCode","type":"error"},{"inputs":[{"internalType":"address","name":"implementation","type":"address"}],"name":"ERC1967InvalidImplementation","type":"error"},{"inputs":[],"name":"ERC1967NonPayable","type":"error"},{"inputs":[],"name":"FailedCall","type":"error"},{"inputs":[],"name":"InvalidInitialization","type":"error"},{"inputs":[],"name":"NotInitializing","type":"error"},{"inputs":[{"internalType":"address","name":"owner","type":"address"}],"name":"OwnableInvalidOwner","type":"error"},{"inputs":[{"internalType":"address","name":"account","type":"address"}],"name":"OwnableUnauthorizedAccount","type":"error"},{"inputs":[],"name":"ReentrancyGuardReentrantCall","type":"error"},{"inputs":[{"internalType":"address","name":"token","type":"address"}],"name":"SafeERC20FailedOperation","type":"error"},{"inputs":[],"name":"UUPSUnauthorizedCallContext","type":"error"},{"inputs":[{"internalType":"bytes32","name":"slot","type":"bytes32"}],"name":"UUPSUnsupportedProxiableUUID","type":"error"},{"anonymous":false,"inputs":[{"indexed":true,"internalType":"address","name":"user","type":"address"},{"indexed":false,"internalType":"address","name":"token","type":"address"},{"indexed":false,"internalType":"uint256","name":"amount","type":"uint256"},{"indexed":false,"internalType":"uint256","name":"duration","type":"uint256"}],"name":"Deposited","type":"event"},{"anonymous":false,"inputs":[{"indexed":false,"internalType":"uint64","name":"version","type":"uint64"}],"name":"Initialized","type":"event"},{"anonymous":false,"inputs":[{"indexed":true,"internalType":"address","name":"previousOwner","type":"address"},{"indexed":true,"internalType":"address","name":"newOwner","type":"address"}],"name":"OwnershipTransferred","type":"event"},{"anonymous":false,"inputs":[{"indexed":false,"internalType":"address","name":"token","type":"address"},{"indexed":false,"internalType":"bool","name":"allowed","type":"bool"}],"name":"TokenAllowedStatusChanged","type":"event"},{"anonymous":false,"inputs":[{"indexed":true,"internalType":"address","name":"implementation","type":"address"}],"name":"Upgraded","type":"event"},{"anonymous":false,"inputs":[{"indexed":true,"internalType":"address","name":"user","type":"address"},{"indexed":false,"internalType":"address","name":"token","type":"address"},{"indexed":false,"internalType":"uint256","name":"amount","type":"uint256"},{"indexed":false,"internalType":"uint256","name":"yield","type":"uint256"}],"name":"Withdrawn","type":"event"},{"anonymous":false,"inputs":[{"indexed":false,"internalType":"uint256","name":"yieldRate","type":"uint256"},{"indexed":false,"internalType":"uint256","name":"minDuration","type":"uint256"},{"indexed":false,"internalType":"uint256","name":"maxDuration","type":"uint256"}],"name":"YieldParametersUpdated","type":"event"},{"inputs":[],"name":"UPGRADE_INTERFACE_VERSION","outputs":[{"internalType":"string","name":"","type":"string"}],"stateMutability":"view","type":"function"},{"inputs":[],"name":"YEAR","outputs":[{"internalType":"uint256","name":"","type":"uint256"}],"stateMutability":"view","type":"function"},{"inputs":[{"internalType":"address","name":"","type":"address"}],"name":"activePositionsCount","outputs":[{"internalType":"uint256","name":"","type":"uint256"}],"stateMutability":"view","type":"function"},{"inputs":[{"internalType":"uint256","name":"","type":"uint256"}],"name":"activeStakers","outputs":[{"internalType":"address","name":"","type":"address"}],"stateMutability":"view","type":"function"},{"inputs":[{"internalType":"address","name":"_tokenAddress","type":"address"}],"name":"addAllowedTokens","outputs":[],"stateMutability":"nonpayable","type":"function"},{"inputs":[{"internalType":"uint256","name":"","type":"uint256"}],"name":"allowedTokens","outputs":[{"internalType":"address","name":"","type":"address"}],"stateMutability":"view","type":"function"},{"inputs":[{"internalType":"address","name":"","type":"address"}],"name":"allowedTokensMap","outputs":[{"internalType":"bool","name":"","type":"bool"}],"stateMutability":"view","type":"function"},{"inputs":[{"internalType":"uint256","name":"_amount","type":"uint256"},{"internalType":"uint256","name":"_lockDuration","type":"uint256"}],"name":"calculateExpectedYield","outputs":[{"internalType":"uint256","name":"","type":"uint256"}],"stateMutability":"view","type":"function"},{"inputs":[{"internalType":"uint256","name":"amount","type":"uint256"},{"internalType":"uint256","name":"duration","type":"uint256"}],"name":"calculateYieldTokens","outputs":[{"internalType":"uint256","name":"","type":"uint256"}],"stateMutability":"view","type":"function"},{"inputs":[{"internalType":"address","name":"_token","type":"address"},{"internalType":"uint256","name":"_amount","type":"uint256"},{"internalType":"uint256","name":"duration","type":"uint256"}],"name":"deposit","outputs":[],"stateMutability":"nonpayable","type":"function"},{"inputs":[],"name":"getActivePositions","outputs":[{"components":[{"internalType":"address","name":"positionAddress","type":"address"},{"internalType":"address","name":"token","type":"address"},{"internalType":"uint256","name":"id","type":"uint256"},{"internalType":"uint256","name":"amount","type":"uint256"},{"internalType":"uint256","name":"startTime","type":"uint256"},{"internalType":"uint256","name":"lockDuration","type":"uint256"},{"internalType":"bool","name":"withdrawn","type":"bool"}],"internalType":"struct YieldPoolV2.Position[]","name":"activePositions","type":"tuple[]"}],"stateMutability":"view","type":"function"},{"inputs":[],"name":"getAllowedTokens","outputs":[{"internalType":"address[]","name":"","type":"address[]"}],"stateMutability":"view","type":"function"},{"inputs":[{"internalType":"uint256","name":"positionId","type":"uint256"}],"name":"getPosition","outputs":[{"components":[{"internalType":"address","name":"positionAddress","type":"address"},{"internalType":"address","name":"token","type":"address"},{"internalType":"uint256","name":"id","type":"uint256"},{"internalType":"uint256","name":"amount","type":"uint256"},{"internalType":"uint256","name":"startTime","type":"uint256"},{"internalType":"uint256","name":"lockDuration","type":"uint256"},{"internalType":"bool","name":"withdrawn","type":"bool"}],"internalType":"struct YieldPoolV2.Position","name":"","type":"tuple"}],"stateMutability":"view","type":"function"},{"inputs":[],"name":"getTotalStakers","outputs":[{"internalType":"uint256","name":"","type":"uint256"}],"stateMutability":"view","type":"function"},{"inputs":[],"name":"getTotalValueLocked","outputs":[{"internalType":"uint256","name":"","type":"uint256"}],"stateMutability":"view","type":"function"},{"inputs":[],"name":"getUserTokenBalances","outputs":[{"internalType":"address[]","name":"tokens","type":"address[]"},{"internalType":"uint256[]","name":"balances","type":"uint256[]"}],"stateMutability":"view","type":"function"},{"inputs":[],"name":"getYieldToken","outputs":[{"internalType":"contract YieldTokenV2","name":"","type":"address"}],"stateMutability":"view","type":"function"},{"inputs":[{"internalType":"address","name":"_yieldTokenV2Address","type":"address"},{"internalType":"uint256","name":"_yieldRate","type":"uint256"},{"internalType":"uint256","name":"_minDuration","type":"uint256"},{"internalType":"uint256","name":"_maxDuration","type":"uint256"}],"name":"initialize","outputs":[],"stateMutability":"nonpayable","type":"function"},{"inputs":[{"internalType":"address","name":"_token","type":"address"}],"name":"isTokenAllowed","outputs":[{"internalType":"bool","name":"","type":"bool"}],"stateMutability":"view","type":"function"},{"inputs":[],"name":"maxDuration","outputs":[{"internalType":"uint256","name":"","type":"uint256"}],"stateMutability":"view","type":"function"},{"inputs":[{"internalType":"address","name":"user","type":"address"},{"internalType":"address","name":"token","type":"address"},{"internalType":"uint256","name":"amount","type":"uint256"},{"internalType":"uint256","name":"startTime","type":"uint256"},{"internalType":"uint256","name":"lockDuration","type":"uint256"}],"name":"migratePosition","outputs":[],"stateMutability":"nonpayable","type":"function"},{"inputs":[],"name":"minDuration","outputs":[{"internalType":"uint256","name":"","type":"uint256"}],"stateMutability":"view","type":"function"},{"inputs":[{"internalType":"address","name":"_newToken","type":"address"},{"internalType":"bool","name":"_allowed","type":"bool"}],"name":"modifyAllowedTokens","outputs":[],"stateMutability":"nonpayable","type":"function"},{"inputs":[],"name":"owner","outputs":[{"internalType":"address","name":"","type":"address"}],"stateMutability":"view","type":"function"},{"inputs":[{"internalType":"uint256","name":"","type":"uint256"}],"name":"positionOwners","outputs":[{"internalType":"address","name":"","type":"address"}],"stateMutability":"view","type":"function"},{"inputs":[{"internalType":"address","name":"","type":"address"},{"internalType":"uint256","name":"","type":"uint256"}],"name":"positions","outputs":[{"internalType":"address","name":"positionAddress","type":"address"},{"internalType":"address","name":"token","type":"address"},{"internalType":"uint256","name":"id","type":"uint256"},{"internalType":"uint256","name":"amount","type":"uint256"},{"internalType":"uint256","name":"startTime","type":"uint256"},{"internalType":"uint256","name":"lockDuration","type":"uint256"},{"internalType":"bool","name":"withdrawn","type":"bool"}],"stateMutability":"view","type":"function"},{"inputs":[],"name":"proxiableUUID","outputs":[{"internalType":"bytes32","name":"","type":"bytes32"}],"stateMutability":"view","type":"function"},{"inputs":[{"internalType":"address","name":"_tokenAddress","type":"address"}],"name":"removeAllowedToken","outputs":[],"stateMutability":"nonpayable","type":"function"},{"inputs":[],"name":"renounceOwnership","outputs":[],"stateMutability":"nonpayable","type":"function"},{"inputs":[{"internalType":"address","name":"","type":"address"}],"name":"stakerIndex","outputs":[{"internalType":"uint256","name":"","type":"uint256"}],"stateMutability":"view","type":"function"},{"inputs":[],"name":"totalStakers","outputs":[{"internalType":"uint256","name":"","type":"uint256"}],"stateMutability":"view","type":"function"},{"inputs":[],"name":"totalValueLocked","outputs":[{"internalType":"uint256","name":"","type":"uint256"}],"stateMutability":"view","type":"function"},{"inputs":[{"internalType":"address","name":"newOwner","type":"address"}],"name":"transferOwnership","outputs":[],"stateMutability":"nonpayable","type":"function"},{"inputs":[{"internalType":"uint256","name":"positionId","type":"uint256"}],"name":"unstake","outputs":[],"stateMutability":"nonpayable","type":"function"},{"inputs":[{"internalType":"uint256","name":"_yieldRate","type":"uint256"},{"internalType":"uint256","name":"_minDuration","type":"uint256"},{"internalType":"uint256","name":"_maxDuration","type":"uint256"}],"name":"updateYieldParameters","outputs":[],"stateMutability":"nonpayable","type":"function"},{"inputs":[{"internalType":"address","name":"newImplementation","type":"address"},{"internalType":"bytes","name":"data","type":"bytes"}],"name":"upgradeToAndCall","outputs":[],"stateMutability":"payable","type":"function"},{"inputs":[{"internalType":"address","name":"","type":"address"},{"internalType":"address","name":"","type":"address"}],"name":"userTokenBalance","outputs":[{"internalType":"uint256","name":"","type":"uint256"}],"stateMutability":"view","type":"function"},{"inputs":[{"internalType":"uint256","name":"positionId","type":"uint256"}],"name":"withdraw","outputs":[],"stateMutability":"nonpayable","type":"function"},{"inputs":[],"name":"yieldRate","outputs":[{"internalType":"uint256","name":"","type":"uint256"}],"stateMutability":"view","type":"function"},{"inputs":[],"name":"yieldTokenV2","outputs":[{"internalType":"contract YieldTokenV2","name":"","type":"address"}],"stateMutability":"view","type":"function"}],"evm":{"bytecode":{"linkReferences":{},"object":"60a06040523060805234801561001457600080fd5b5061001d610022565b6100d4565b7ff0c57e16840df040f15088dc2f81fe391c3923bec73e23a9662efc9c229c6a00805468010000000000000000900460ff16156100725760405163f92ee8a960e01b815260040160405180910390fd5b80546001600160401b03908116146100d15780546001600160401b0319166001600160401b0390811782556040519081527fc7f505b2f371ae2175ee4913f4499e1f2633a7b5936321eed1cdaeb6115181d29060200160405180910390a15b50565b6080516134266100fd600039600081816128a1015281816128ca0152612a0b01526134266000f3fe60806040526004361061023b5760003560e01c80636b71537a1161012e578063b26025aa116100ab578063eb02c3011161006f578063eb02c30114610721578063ec18154e1461074e578063f2fde38b14610764578063f9cbb19114610784578063f9eaee0d146107b157600080fd5b8063b26025aa14610652578063b47064c814610667578063b99732ee1461069f578063c1be6677146106bf578063e526ddb91461069f57600080fd5b8063864a65e5116100f2578063864a65e51461057e57806386989038146105a15780638da5cb5b146105b757806390469a9d146105f4578063ad3cb1cc1461061457600080fd5b80636b71537a146104ce5780636db5c8fd1461050e578063715018a61461052457806378d60a5b14610539578063839145401461056657600080fd5b80634ec81af1116101bc5780635dd5999e116101805780635dd5999e146104205780635e5f2e26146104405780635fc75ec21461046057806362474ea1146104825780636999ac93146104b857600080fd5b80634ec81af1146103a25780634f1ef286146103c25780634ff1ede0146103d557806352d1902d146103f5578063567157611461040a57600080fd5b80632e1a7d4d116102035780632e1a7d4d1461030557806331b7f25d1461032557806331ed0db41461034557806336c19428146103645780633b8dbc111461038457600080fd5b8063024ece89146102405780630efe6a8b1461026b578063171e44ea1461028d57806317336938146102ad5780632e17de78146102e5575b600080fd5b34801561024c57600080fd5b506102556107ea565b6040516102629190612df2565b60405180910390f35b34801561027757600080fd5b5061028b610286366004612e21565b61084c565b005b34801561029957600080fd5b5061028b6102a8366004612e54565b610d0c565b3480156102b957600080fd5b506003546102cd906001600160a01b031681565b6040516001600160a01b039091168152602001610262565b3480156102f157600080fd5b5061028b610300366004612e6f565b610e58565b34801561031157600080fd5b5061028b610320366004612e6f565b6112b4565b34801561033157600080fd5b506102cd610340366004612e6f565b611762565b34801561035157600080fd5b506004545b604051908152602001610262565b34801561037057600080fd5b5061028b61037f366004612e88565b61178c565b34801561039057600080fd5b506003546001600160a01b03166102cd565b3480156103ae57600080fd5b5061028b6103bd366004612eb4565b6117e9565b61028b6103d0366004612f03565b611a2a565b3480156103e157600080fd5b5061028b6103f0366004612fcd565b611a49565b34801561040157600080fd5b50610356611cbc565b34801561041657600080fd5b5061035660015481565b34801561042c57600080fd5b5061028b61043b36600461301a565b611cd9565b34801561044c57600080fd5b506102cd61045b366004612e6f565b611d32565b34801561046c57600080fd5b50610475611d42565b60405161026291906130a7565b34801561048e57600080fd5b506102cd61049d366004612e6f565b600e602052600090815260409020546001600160a01b031681565b3480156104c457600080fd5b5061035660005481565b3480156104da57600080fd5b506104fe6104e9366004612e54565b60096020526000908152604090205460ff1681565b6040519015158152602001610262565b34801561051a57600080fd5b5061035660025481565b34801561053057600080fd5b5061028b61205a565b34801561054557600080fd5b50610356610554366004612e54565b600b6020526000908152604090205481565b34801561057257600080fd5b506103566301e1338081565b34801561058a57600080fd5b5061059361206e565b6040516102629291906130f5565b3480156105ad57600080fd5b5061035660045481565b3480156105c357600080fd5b507f9016d09d72d40fdae2fd8ceac6b6234c7706214fd39c1cd1e609a0528c199300546001600160a01b03166102cd565b34801561060057600080fd5b5061028b61060f366004612e54565b61224b565b34801561062057600080fd5b50610645604051806040016040528060058152602001640352e302e360dc1b81525081565b6040516102629190613173565b34801561065e57600080fd5b50600554610356565b34801561067357600080fd5b506103566106823660046131a6565b600c60209081526000928352604080842090915290825290205481565b3480156106ab57600080fd5b506103566106ba3660046131d9565b6124ca565b3480156106cb57600080fd5b506106df6106da3660046131fb565b6124e0565b604080516001600160a01b039889168152979096166020880152948601939093526060850191909152608084015260a0830152151560c082015260e001610262565b34801561072d57600080fd5b5061074161073c366004612e6f565b61254a565b6040516102629190613225565b34801561075a57600080fd5b5061035660055481565b34801561077057600080fd5b5061028b61077f366004612e54565b6126ed565b34801561079057600080fd5b5061035661079f366004612e54565b600a6020526000908152604090205481565b3480156107bd57600080fd5b506104fe6107cc366004612e54565b6001600160a01b031660009081526009602052604090205460ff1690565b6060600780548060200260200160405190810160405280929190818152602001828054801561084257602002820191906000526020600020905b81546001600160a01b03168152600190910190602001808311610824575b5050505050905090565b610854612728565b600082116108a95760405162461bcd60e51b815260206004820152601d60248201527f416d6f756e74206d7573742062652067726561746572207468616e203000000060448201526064015b60405180910390fd5b60015481101580156108bd57506002548111155b6108fc5760405162461bcd60e51b815260206004820152601060248201526f24b73b30b634b210323ab930ba34b7b760811b60448201526064016108a0565b6001600160a01b03831660009081526009602052604090205460ff166109785760405162461bcd60e51b815260206004820152602b60248201527f576520646f206e6f7420737570706f72742074686520746f6b656e7320796f7560448201526a277265207374616b696e6760a81b60648201526084016108a0565b6040516370a0823160e01b81523060048201526000906001600160a01b038516906370a0823190602401602060405180830381865afa1580156109bf573d6000803e3d6000fd5b505050506040513d601f19601f820116820180604052508101906109e39190613233565b90506109fa6001600160a01b038516333086612760565b6040516370a0823160e01b81523060048201526000906001600160a01b038616906370a0823190602401602060405180830381865afa158015610a41573d6000803e3d6000fd5b505050506040513d601f19601f82011682018060405250810190610a659190613233565b90506000610a738383613262565b905060008111610ac55760405162461bcd60e51b815260206004820152601a60248201527f4e6f20746f6b656e732077657265207472616e7366657272656400000000000060448201526064016108a0565b8060056000828254610ad79190613275565b9091555050336000908152600c602090815260408083206001600160a01b038a16845290915281208054839290610b0f908490613275565b9091555050336000908152600d60205260408120549003610b925760088054336000818152600b602052604081208390556001830184559283527ff3f7a9fe364faab93b216da50a3214154f22a0a2b415b23a84c8169e8b636ee390910180546001600160a01b03191690911790556004805491610b8c83613288565b91905055505b6006805460009182610ba383613288565b909155506040805160e081018252338082526001600160a01b038b81166020808501918252848601878152606086018a8152426080880190815260a088018f8152600060c08a01818152898252600d87528b82208054600181810183559184528884208d516007909202018054918c166001600160a01b03199283161781559951918a01805492909b169181169190911790995594516002880155925160038701559051600486015551600585015590516006909301805493151560ff1990941693909317909255868252600e815285822080549093168417909255918252600a90529182208054939450909291610c9a83613288565b9091555050604080516001600160a01b038a1681526020810185905290810187905233907ff5681f9d0db1b911ac18ee83d515a1cf1051853a9eae418316a2fdf7dea427c59060600160405180910390a25050505050610d0760016000805160206133d183398151915255565b505050565b610d146127e1565b6001600160a01b038116610d625760405162461bcd60e51b8152602060048201526015602482015274496e76616c696420746f6b656e206164647265737360581b60448201526064016108a0565b6001600160a01b03811660009081526009602052604090205460ff1615610dcb5760405162461bcd60e51b815260206004820152601f60248201527f546f6b656e20616c726561647920616464656420616e6420616c6c6f7765640060448201526064016108a0565b6007805460018082019092557fa66cc928b5edb82af9bd49922954155ab7b0942694bea4ce44661d9a8736c6880180546001600160a01b0319166001600160a01b038416908117909155600081815260096020908152604091829020805460ff19168517905581519283528201929092526000805160206133b1833981519152910160405180910390a150565b610e60612728565b6000818152600e60205260409020546001600160a01b03163314610ebb5760405162461bcd60e51b81526020600482015260126024820152712737ba103837b9b4ba34b7b71037bbb732b960711b60448201526064016108a0565b336000908152600d602052604081209080805b8354811015610f155784848281548110610eea57610eea6132a1565b90600052602060002090600702016002015403610f0d5780925060019150610f15565b600101610ece565b5080610f335760405162461bcd60e51b81526004016108a0906132b7565b6000838381548110610f4757610f476132a1565b60009182526020909120600790910201600681015490915060ff1615610fa35760405162461bcd60e51b815260206004820152601160248201527020b63932b0b23c903bb4ba34323930bbb760791b60448201526064016108a0565b60018101546003820154600583015460048401546001600160a01b0390931692610fcd9190613275565b421015610ffd576000600a8460030154610fe791906132e3565b9050808460030154610ff99190613262565b9150505b6040516370a0823160e01b81523060048201526000906001600160a01b038416906370a0823190602401602060405180830381865afa158015611044573d6000803e3d6000fd5b505050506040513d601f19601f820116820180604052508101906110689190613233565b90508181101561108a5760405162461bcd60e51b81526004016108a090613305565b8360030154600560008282546110a09190613262565b90915550506003840154336000908152600c602090815260408083206001600160a01b0388168452909152812080549091906110dd908490613262565b909155505060068401805460ff191660011790556000888152600e6020908152604080832080546001600160a01b0319169055338352600a909152812080549161112683613347565b9091555050336000908152600a602052604081205490036112335760085460009061115390600190613262565b905060006008828154811061116a5761116a6132a1565b6000918252602090912001546001600160a01b031690503381146111e757336000908152600b602052604090205460088054839190839081106111af576111af6132a1565b600091825260208083209190910180546001600160a01b0319166001600160a01b039485161790559184168152600b90915260409020555b60088054806111f8576111f861335e565b600082815260208120820160001990810180546001600160a01b0319169055909101909155600480549161122b83613347565b919050555050505b6112476001600160a01b038416338461283c565b604080516001600160a01b038516815260208101849052600081830152905133917f91fb9d98b786c57d74c099ccd2beca1739e9f6a81fb49001ca465c4b7591bbe2919081900360600190a2505050505050506112b160016000805160206133d183398151915255565b50565b6112bc612728565b6000818152600e60205260409020546001600160a01b031633146113315760405162461bcd60e51b815260206004820152602660248201527f596f7520617265206e6f7420746865206f776e6572206f66207468697320706f60448201526539b4ba34b7b760d11b60648201526084016108a0565b336000908152600d602052604081209080805b835481101561138b5784848281548110611360576113606132a1565b90600052602060002090600702016002015403611383578092506001915061138b565b600101611344565b50806113a95760405162461bcd60e51b81526004016108a0906132b7565b60008383815481106113bd576113bd6132a1565b60009182526020909120600790910201600681015490915060ff16156114195760405162461bcd60e51b815260206004820152601160248201527020b63932b0b23c903bb4ba34323930bbb760791b60448201526064016108a0565b8060050154816004015461142d9190613275565b42101561146b5760405162461bcd60e51b815260206004820152600c60248201526b14dd1a5b1b081b1bd8dad95960a21b60448201526064016108a0565b6001810154600382015460058301546001600160a01b0390921691600091611492916124ca565b905060008184600301546114a69190613275565b6040516370a0823160e01b81523060048201529091506000906001600160a01b038516906370a0823190602401602060405180830381865afa1580156114f0573d6000803e3d6000fd5b505050506040513d601f19601f820116820180604052508101906115149190613233565b9050846003015481101561153a5760405162461bcd60e51b81526004016108a090613305565b8460030154600560008282546115509190613262565b90915550506003850154336000908152600c602090815260408083206001600160a01b03891684529091528120805490919061158d908490613262565b909155505060068501805460ff191660011790556115b56001600160a01b038516338461283c565b6000898152600e6020908152604080832080546001600160a01b0319169055338352600a90915281208054916115ea83613347565b9091555050336000908152600a602052604081205490036116f75760085460009061161790600190613262565b905060006008828154811061162e5761162e6132a1565b6000918252602090912001546001600160a01b031690503381146116ab57336000908152600b60205260409020546008805483919083908110611673576116736132a1565b600091825260208083209190910180546001600160a01b0319166001600160a01b039485161790559184168152600b90915260409020555b60088054806116bc576116bc61335e565b600082815260208120820160001990810180546001600160a01b031916905590910190915560048054916116ef83613347565b919050555050505b604080516001600160a01b03861681526020810184905290810184905233907f91fb9d98b786c57d74c099ccd2beca1739e9f6a81fb49001ca465c4b7591bbe29060600160405180910390a250505050505050506112b160016000805160206133d183398151915255565b6008818154811061177257600080fd5b6000918252602090912001546001600160a01b0316905081565b6117946127e1565b60008390556001829055600281905560408051848152602081018490529081018290527fefeeae12018cad4c8c8285ce10d106bd4084b37ddd067fb0b5ba5567d7f8d4eb9060600160405180910390a1505050565b7ff0c57e16840df040f15088dc2f81fe391c3923bec73e23a9662efc9c229c6a008054600160401b810460ff16159067ffffffffffffffff1660008115801561182f5750825b905060008267ffffffffffffffff16600114801561184c5750303b155b90508115801561185a575080155b156118785760405163f92ee8a960e01b815260040160405180910390fd5b845467ffffffffffffffff1916600117855583156118a257845460ff60401b1916600160401b1785555b6118ab3361286d565b6118b361287e565b6118bb612886565b600088815560018881556002889055600380546001600160a01b038d166001600160a01b03199182168117909255600484905560058490556006839055600780548085019091557fa66cc928b5edb82af9bd49922954155ab7b0942694bea4ce44661d9a8736c6880180549091168217905580835260096020908152604093849020805460ff19168417905583519182528101919091526000805160206133b1833981519152910160405180910390a16003546040516340c10f1960e01b81523060048201526a084595161401484a00000060248201526001600160a01b03909116906340c10f1990604401600060405180830381600087803b1580156119c157600080fd5b505af11580156119d5573d6000803e3d6000fd5b505050508315611a1f57845460ff60401b19168555604051600181527fc7f505b2f371ae2175ee4913f4499e1f2633a7b5936321eed1cdaeb6115181d29060200160405180910390a15b505050505050505050565b611a32612896565b611a3b8261293b565b611a458282612943565b5050565b611a516127e1565b6001600160a01b03841660009081526009602052604090205460ff16611aad5760405162461bcd60e51b8152602060048201526011602482015270151bdad95b881b9bdd08185b1b1bddd959607a1b60448201526064016108a0565b6006805460009182611abe83613288565b909155506040805160e0810182526001600160a01b03808a16808352908916602080840191909152828401859052606083018990526080830188905260a08301879052600060c08401819052918252600d905291822054929350919003611b9057600880546001600160a01b0389166000818152600b602052604081208390556001830184559283527ff3f7a9fe364faab93b216da50a3214154f22a0a2b415b23a84c8169e8b636ee390910180546001600160a01b03191690911790556004805491611b8a83613288565b91905055505b6001600160a01b038088166000818152600d60209081526040808320805460018181018355918552838520885160079092020180549188166001600160a01b03199283161781558885015192810180549390981692821692909217909655868201516002820155606087015160038201556080870151600482015560a0870151600582015560c08701516006909101805491151560ff19909216919091179055868352600e825280832080549095168417909455918152600a909152908120805491611c5b83613288565b91905055508460056000828254611c729190613275565b90915550506001600160a01b038088166000908152600c60209081526040808320938a1683529290529081208054879290611cae908490613275565b909155505050505050505050565b6000611cc6612a00565b5060008051602061339183398151915290565b611ce16127e1565b6001600160a01b038216600081815260096020908152604091829020805460ff19168515159081179091558251938452908301526000805160206133b1833981519152910160405180910390a15050565b6007818154811061177257600080fd5b60606000805b600854811015611e85576000600d600060088481548110611d6b57611d6b6132a1565b60009182526020808320909101546001600160a01b031683528281019390935260409182018120805483518186028101860190945280845292939092919084015b82821015611e315760008481526020908190206040805160e0810182526007860290920180546001600160a01b039081168452600180830154909116848601526002820154928401929092526003810154606084015260048101546080840152600581015460a08401526006015460ff16151560c08301529083529092019101611dac565b50505050905060005b8151811015611e7b57818181518110611e5557611e556132a1565b602002602001015160c00151611e735783611e6f81613288565b9450505b600101611e3a565b5050600101611d48565b508067ffffffffffffffff811115611e9f57611e9f612eed565b604051908082528060200260200182016040528015611ed857816020015b611ec5612d5c565b815260200190600190039081611ebd5790505b5091506000805b600854811015612054576000600d600060088481548110611f0257611f026132a1565b60009182526020808320909101546001600160a01b031683528281019390935260409182018120805483518186028101860190945280845292939092919084015b82821015611fc85760008481526020908190206040805160e0810182526007860290920180546001600160a01b039081168452600180830154909116848601526002820154928401929092526003810154606084015260048101546080840152600581015460a08401526006015460ff16151560c08301529083529092019101611f43565b50505050905060005b815181101561204a57818181518110611fec57611fec6132a1565b602002602001015160c001516120425781818151811061200e5761200e6132a1565b6020026020010151868581518110612028576120286132a1565b6020026020010181905250838061203e90613288565b9450505b600101611fd1565b5050600101611edf565b50505090565b6120626127e1565b61206c6000612a49565b565b6060806000805b6007548110156120e257600060078281548110612094576120946132a1565b6000918252602080832090910154338352600c825260408084206001600160a01b0390921680855291909252912054909150156120d957826120d581613288565b9350505b50600101612075565b508067ffffffffffffffff8111156120fc576120fc612eed565b604051908082528060200260200182016040528015612125578160200160208202803683370190505b5092508067ffffffffffffffff81111561214157612141612eed565b60405190808252806020026020018201604052801561216a578160200160208202803683370190505b5091506000805b60075481101561224457600060078281548110612190576121906132a1565b6000918252602080832090910154338352600c825260408084206001600160a01b03909216808552919092529120549091501561223b57808684815181106121da576121da6132a1565b6001600160a01b03928316602091820292909201810191909152336000908152600c8252604080822093851682529290915220548551869085908110612222576122226132a1565b60209081029190910101528261223781613288565b9350505b50600101612171565b5050509091565b6122536127e1565b600080805b6007548110156122ad57836001600160a01b03166007828154811061227f5761227f6132a1565b6000918252602090912001546001600160a01b0316036122a557809250600191506122ad565b600101612258565b50806123055760405162461bcd60e51b815260206004820152602160248201527f546f6b656e206e6f7420666f756e6420696e20616c6c6f77656420746f6b656e6044820152607360f81b60648201526084016108a0565b600061230f611d42565b905060005b81518110156123bf57846001600160a01b0316828281518110612339576123396132a1565b6020026020010151602001516001600160a01b0316036123b75760405162461bcd60e51b815260206004820152603360248201527f546f6b656e2068617320616e2061637469766520706f736974696f6e2e2043616044820152726e6e6f742062652072656d6f766564206e6f7760681b60648201526084016108a0565b600101612314565b506007546000906123d290600190613262565b905080841461244957600781815481106123ee576123ee6132a1565b600091825260209091200154600780546001600160a01b03909216918690811061241a5761241a6132a1565b9060005260206000200160006101000a8154816001600160a01b0302191690836001600160a01b031602179055505b600780548061245a5761245a61335e565b60008281526020808220600019908401810180546001600160a01b03191690559092019092556001600160a01b038716808352600982526040808420805460ff191690558051918252918101929092526000805160206133b1833981519152910160405180910390a15050505050565b60005463bbf81e00828402909102045b92915050565b600d60205281600052604060002081815481106124fc57600080fd5b600091825260209091206007909102018054600182015460028301546003840154600485015460058601546006909601546001600160a01b0395861698509490931695509093909260ff1687565b612552612d5c565b6000828152600e60205260409020546001600160a01b0316806125b75760405162461bcd60e51b815260206004820152601760248201527f506f736974696f6e20646f6573206e6f7420657869737400000000000000000060448201526064016108a0565b6001600160a01b0381166000908152600d6020908152604080832080548251818502810185019093528083529192909190849084015b828210156126725760008481526020908190206040805160e0810182526007860290920180546001600160a01b039081168452600180830154909116848601526002820154928401929092526003810154606084015260048101546080840152600581015460a08401526006015460ff16151560c083015290835290920191016125ed565b50505050905060005b81518110156126d45784828281518110612697576126976132a1565b602002602001015160400151036126cc578181815181106126ba576126ba6132a1565b60200260200101519350505050919050565b60010161267b565b5060405162461bcd60e51b81526004016108a0906132b7565b6126f56127e1565b6001600160a01b03811661271f57604051631e4fbdf760e01b8152600060048201526024016108a0565b6112b181612a49565b6000805160206133d183398151915280546001190161275a57604051633ee5aeb560e01b815260040160405180910390fd5b60029055565b6040516001600160a01b0384811660248301528381166044830152606482018390526127c79186918216906323b872dd906084015b604051602081830303815290604052915060e01b6020820180516001600160e01b038381831617835250505050612aba565b50505050565b60016000805160206133d183398151915255565b336128137f9016d09d72d40fdae2fd8ceac6b6234c7706214fd39c1cd1e609a0528c199300546001600160a01b031690565b6001600160a01b03161461206c5760405163118cdaa760e01b81523360048201526024016108a0565b6040516001600160a01b03838116602483015260448201839052610d0791859182169063a9059cbb90606401612795565b612875612b2b565b6112b181612b74565b61206c612b2b565b61288e612b2b565b61206c612b7c565b306001600160a01b037f000000000000000000000000000000000000000000000000000000000000000016148061291d57507f00000000000000000000000000000000000000000000000000000000000000006001600160a01b0316612911600080516020613391833981519152546001600160a01b031690565b6001600160a01b031614155b1561206c5760405163703e46dd60e11b815260040160405180910390fd5b6112b16127e1565b816001600160a01b03166352d1902d6040518163ffffffff1660e01b8152600401602060405180830381865afa92505050801561299d575060408051601f3d908101601f1916820190925261299a91810190613233565b60015b6129c557604051634c9c8ce360e01b81526001600160a01b03831660048201526024016108a0565b60008051602061339183398151915281146129f657604051632a87526960e21b8152600481018290526024016108a0565b610d078383612b84565b306001600160a01b037f0000000000000000000000000000000000000000000000000000000000000000161461206c5760405163703e46dd60e11b815260040160405180910390fd5b7f9016d09d72d40fdae2fd8ceac6b6234c7706214fd39c1cd1e609a0528c19930080546001600160a01b031981166001600160a01b03848116918217845560405192169182907f8be0079c531659141344cd1fd0a4f28419497f9722a3daafe3b4186f6b6457e090600090a3505050565b600080602060008451602086016000885af180612add576040513d6000823e3d81fd5b50506000513d91508115612af5578060011415612b02565b6001600160a01b0384163b155b156127c757604051635274afe760e01b81526001600160a01b03851660048201526024016108a0565b7ff0c57e16840df040f15088dc2f81fe391c3923bec73e23a9662efc9c229c6a0054600160401b900460ff1661206c57604051631afcd79f60e31b815260040160405180910390fd5b6126f5612b2b565b6127cd612b2b565b612b8d82612bda565b6040516001600160a01b038316907fbc7cd75a20ee27fd9adebab32041f755214dbc6bffa90cc0225b39da2e5c2d3b90600090a2805115612bd257610d078282612c3f565b611a45612cb5565b806001600160a01b03163b600003612c1057604051634c9c8ce360e01b81526001600160a01b03821660048201526024016108a0565b60008051602061339183398151915280546001600160a01b0319166001600160a01b0392909216919091179055565b6060600080846001600160a01b031684604051612c5c9190613374565b600060405180830381855af49150503d8060008114612c97576040519150601f19603f3d011682016040523d82523d6000602084013e612c9c565b606091505b5091509150612cac858383612cd4565b95945050505050565b341561206c5760405163b398979f60e01b815260040160405180910390fd5b606082612ce957612ce482612d33565b612d2c565b8151158015612d0057506001600160a01b0384163b155b15612d2957604051639996b31560e01b81526001600160a01b03851660048201526024016108a0565b50805b9392505050565b805115612d435780518082602001fd5b60405163d6bda27560e01b815260040160405180910390fd5b6040518060e0016040528060006001600160a01b0316815260200160006001600160a01b03168152602001600081526020016000815260200160008152602001600081526020016000151581525090565b600081518084526020840193506020830160005b82811015612de85781516001600160a01b0316865260209586019590910190600101612dc1565b5093949350505050565b602081526000612d2c6020830184612dad565b80356001600160a01b0381168114612e1c57600080fd5b919050565b600080600060608486031215612e3657600080fd5b612e3f84612e05565b95602085013595506040909401359392505050565b600060208284031215612e6657600080fd5b612d2c82612e05565b600060208284031215612e8157600080fd5b5035919050565b600080600060608486031215612e9d57600080fd5b505081359360208301359350604090920135919050565b60008060008060808587031215612eca57600080fd5b612ed385612e05565b966020860135965060408601359560600135945092505050565b634e487b7160e01b600052604160045260246000fd5b60008060408385031215612f1657600080fd5b612f1f83612e05565b9150602083013567ffffffffffffffff811115612f3b57600080fd5b8301601f81018513612f4c57600080fd5b803567ffffffffffffffff811115612f6657612f66612eed565b604051601f8201601f19908116603f0116810167ffffffffffffffff81118282101715612f9557612f95612eed565b604052818152828201602001871015612fad57600080fd5b816020840160208301376000602083830101528093505050509250929050565b600080600080600060a08688031215612fe557600080fd5b612fee86612e05565b9450612ffc60208701612e05565b94979496505050506040830135926060810135926080909101359150565b6000806040838503121561302d57600080fd5b61303683612e05565b91506020830135801515811461304b57600080fd5b809150509250929050565b80516001600160a01b0390811683526020808301519091169083015260408082015190830152606080820151908301526080808201519083015260a0818101519083015260c0908101511515910152565b602080825282518282018190526000918401906040840190835b818110156130ea576130d4838551613056565b6020939093019260e092909201916001016130c1565b509095945050505050565b6040815260006131086040830185612dad565b828103602084015280845180835260208301915060208601925060005b81811015613143578351835260209384019390920191600101613125565b50909695505050505050565b60005b8381101561316a578181015183820152602001613152565b50506000910152565b602081526000825180602084015261319281604085016020870161314f565b601f01601f19169190910160400192915050565b600080604083850312156131b957600080fd5b6131c283612e05565b91506131d060208401612e05565b90509250929050565b600080604083850312156131ec57600080fd5b50508035926020909101359150565b6000806040838503121561320e57600080fd5b61321783612e05565b946020939093013593505050565b60e081016124da8284613056565b60006020828403121561324557600080fd5b5051919050565b634e487b7160e01b600052601160045260246000fd5b818103818111156124da576124da61324c565b808201808211156124da576124da61324c565b60006001820161329a5761329a61324c565b5060010190565b634e487b7160e01b600052603260045260246000fd5b602080825260129082015271141bdcda5d1a5bdb881b9bdd08199bdd5b9960721b604082015260600190565b60008261330057634e487b7160e01b600052601260045260246000fd5b500490565b60208082526022908201527f496e73756666696369656e7420746f6b656e2062616c616e636520696e20706f6040820152611bdb60f21b606082015260800190565b6000816133565761335661324c565b506000190190565b634e487b7160e01b600052603160045260246000fd5b6000825161338681846020870161314f565b919091019291505056fe360894a13ba1a3210667c828492db98dca3e2076cc3735a920a3ca505d382bbc35ec8a295a68c142349d2e1ff041d419582a35f45de73279a3f0d331004c1e469b779b17422d0df92223018b32b4d1fa46e071723d6817e2486d003becc55f00a26469706673582212204c246b885b1b9bd504d862fc86a0b4d92a1681093f612d24f786ddf84774452864736f6c634300081c0033","opcodes":"PUSH1 0xA0 PUSH1 0x40 MSTORE ADDRESS PUSH1 0x80 MSTORE CALLVALUE DUP1 ISZERO PUSH2 0x14 JUMPI PUSH1 0x0 DUP1 REVERT JUMPDEST POP PUSH2 0x1D PUSH2 0x22 JUMP JUMPDEST PUSH2 0xD4 JUMP JUMPDEST PUSH32 0xF0C57E16840DF040F15088DC2F81FE391C3923BEC73E23A9662EFC9C229C6A00 DUP1 SLOAD PUSH9 0x10000000000000000 SWAP1 DIV PUSH1 0xFF AND ISZERO PUSH2 0x72 JUMPI PUSH1 0x40 MLOAD PUSH4 0xF92EE8A9 PUSH1 0xE0 SHL DUP2 MSTORE PUSH1 0x4 ADD PUSH1 0x40 MLOAD DUP1 SWAP2 SUB SWAP1 REVERT JUMPDEST DUP1 SLOAD PUSH1 0x1 PUSH1 0x1 PUSH1 0x40 SHL SUB SWAP1 DUP2 AND EQ PUSH2 0xD1 JUMPI DUP1 SLOAD PUSH1 0x1 PUSH1 0x1 PUSH1 0x40 SHL SUB NOT AND PUSH1 0x1 PUSH1 0x1 PUSH1 0x40 SHL SUB SWAP1 DUP2 OR DUP3 SSTORE PUSH1 0x40 MLOAD SWAP1 DUP2 MSTORE PUSH32 0xC7F505B2F371AE2175EE4913F4499E1F2633A7B5936321EED1CDAEB6115181D2 SWAP1 PUSH1 0x20 ADD PUSH1 0x40 MLOAD DUP1 SWAP2 SUB SWAP1 LOG1 JUMPDEST POP JUMP JUMPDEST PUSH1 0x80 MLOAD PUSH2 0x3426 PUSH2 0xFD PUSH1 0x0 CODECOPY PUSH1 0x0 DUP2 DUP2 PUSH2 0x28A1 ADD MSTORE DUP2 DUP2 PUSH2 0x28CA ADD MSTORE PUSH2 0x2A0B ADD MSTORE PUSH2 0x3426 PUSH1 0x0 RETURN INVALID PUSH1 0x80 PUSH1 0x40 MSTORE PUSH1 0x4 CALLDATASIZE LT PUSH2 0x23B JUMPI PUSH1 0x0 CALLDATALOAD PUSH1 0xE0 SHR DUP1 PUSH4 0x6B71537A GT PUSH2 0x12E JUMPI DUP1 PUSH4 0xB26025AA GT PUSH2 0xAB JUMPI DUP1 PUSH4 0xEB02C301 GT PUSH2 0x6F JUMPI DUP1 PUSH4 0xEB02C301 EQ PUSH2 0x721 JUMPI DUP1 PUSH4 0xEC18154E EQ PUSH2 0x74E JUMPI DUP1 PUSH4 0xF2FDE38B EQ PUSH2 0x764 JUMPI DUP1 PUSH4 0xF9CBB191 EQ PUSH2 0x784 JUMPI DUP1 PUSH4 0xF9EAEE0D EQ PUSH2 0x7B1 JUMPI PUSH1 0x0 DUP1 REVERT JUMPDEST DUP1 PUSH4 0xB26025AA EQ PUSH2 0x652 JUMPI DUP1 PUSH4 0xB47064C8 EQ PUSH2 0x667 JUMPI DUP1 PUSH4 0xB99732EE EQ PUSH2 0x69F JUMPI DUP1 PUSH4 0xC1BE6677 EQ PUSH2 0x6BF JUMPI DUP1 PUSH4 0xE526DDB9 EQ PUSH2 0x69F JUMPI PUSH1 0x0 DUP1 REVERT JUMPDEST DUP1 PUSH4 0x864A65E5 GT PUSH2 0xF2 JUMPI DUP1 PUSH4 0x864A65E5 EQ PUSH2 0x57E JUMPI DUP1 PUSH4 0x86989038 EQ PUSH2 0x5A1 JUMPI DUP1 PUSH4 0x8DA5CB5B EQ PUSH2 0x5B7 JUMPI DUP1 PUSH4 0x90469A9D EQ PUSH2 0x5F4 JUMPI DUP1 PUSH4 0xAD3CB1CC EQ PUSH2 0x614 JUMPI PUSH1 0x0 DUP1 REVERT JUMPDEST DUP1 PUSH4 0x6B71537A EQ PUSH2 0x4CE JUMPI DUP1 PUSH4 0x6DB5C8FD EQ PUSH2 0x50E JUMPI DUP1 PUSH4 0x715018A6 EQ PUSH2 0x524 JUMPI DUP1 PUSH4 0x78D60A5B EQ PUSH2 0x539 JUMPI DUP1 PUSH4 0x83914540 EQ PUSH2 0x566 JUMPI PUSH1 0x0 DUP1 REVERT JUMPDEST DUP1 PUSH4 0x4EC81AF1 GT PUSH2 0x1BC JUMPI DUP1 PUSH4 0x5DD5999E GT PUSH2 0x180 JUMPI DUP1 PUSH4 0x5DD5999E EQ PUSH2 0x420 JUMPI DUP1 PUSH4 0x5E5F2E26 EQ PUSH2 0x440 JUMPI DUP1 PUSH4 0x5FC75EC2 EQ PUSH2 0x460 JUMPI DUP1 PUSH4 0x62474EA1 EQ PUSH2 0x482 JUMPI DUP1 PUSH4 0x6999AC93 EQ PUSH2 0x4B8 JUMPI PUSH1 0x0 DUP1 REVERT JUMPDEST DUP1 PUSH4 0x4EC81AF1 EQ PUSH2 0x3A2 JUMPI DUP1 PUSH4 0x4F1EF286 EQ PUSH2 0x3C2 JUMPI DUP1 PUSH4 0x4FF1EDE0 EQ PUSH2 0x3D5 JUMPI DUP1 PUSH4 0x52D1902D EQ PUSH2 0x3F5 JUMPI DUP1 PUSH4 0x56715761 EQ PUSH2 0x40A JUMPI PUSH1 0x0 DUP1 REVERT JUMPDEST DUP1 PUSH4 0x2E1A7D4D GT PUSH2 0x203 JUMPI DUP1 PUSH4 0x2E1A7D4D EQ PUSH2 0x305 JUMPI DUP1 PUSH4 0x31B7F25D EQ PUSH2 0x325 JUMPI DUP1 PUSH4 0x31ED0DB4 EQ PUSH2 0x345 JUMPI DUP1 PUSH4 0x36C19428 EQ PUSH2 0x364 JUMPI DUP1 PUSH4 0x3B8DBC11 EQ PUSH2 0x384 JUMPI PUSH1 0x0 DUP1 REVERT JUMPDEST DUP1 PUSH4 0x24ECE89 EQ PUSH2 0x240 JUMPI DUP1 PUSH4 0xEFE6A8B EQ PUSH2 0x26B JUMPI DUP1 PUSH4 0x171E44EA EQ PUSH2 0x28D JUMPI DUP1 PUSH4 0x17336938 EQ PUSH2 0x2AD JUMPI DUP1 PUSH4 0x2E17DE78 EQ PUSH2 0x2E5 JUMPI JUMPDEST PUSH1 0x0 DUP1 REVERT JUMPDEST CALLVALUE DUP1 ISZERO PUSH2 0x24C JUMPI PUSH1 0x0 DUP1 REVERT JUMPDEST POP PUSH2 0x255 PUSH2 0x7EA JUMP JUMPDEST PUSH1 0x40 MLOAD PUSH2 0x262 SWAP2 SWAP1 PUSH2 0x2DF2 JUMP JUMPDEST PUSH1 0x40 MLOAD DUP1 SWAP2 SUB SWAP1 RETURN JUMPDEST CALLVALUE DUP1 ISZERO PUSH2 0x277 JUMPI PUSH1 0x0 DUP1 REVERT JUMPDEST POP PUSH2 0x28B PUSH2 0x286 CALLDATASIZE PUSH1 0x4 PUSH2 0x2E21 JUMP JUMPDEST PUSH2 0x84C JUMP JUMPDEST STOP JUMPDEST CALLVALUE DUP1 ISZERO PUSH2 0x299 JUMPI PUSH1 0x0 DUP1 REVERT JUMPDEST POP PUSH2 0x28B PUSH2 0x2A8 CALLDATASIZE PUSH1 0x4 PUSH2 0x2E54 JUMP JUMPDEST PUSH2 0xD0C JUMP JUMPDEST CALLVALUE DUP1 ISZERO PUSH2 0x2B9 JUMPI PUSH1 0x0 DUP1 REVERT JUMPDEST POP PUSH1 0x3 SLOAD PUSH2 0x2CD SWAP1 PUSH1 0x1 PUSH1 0x1 PUSH1 0xA0 SHL SUB AND DUP2 JUMP JUMPDEST PUSH1 0x40 MLOAD PUSH1 0x1 PUSH1 0x1 PUSH1 0xA0 SHL SUB SWAP1 SWAP2 AND DUP2 MSTORE PUSH1 0x20 ADD PUSH2 0x262 JUMP JUMPDEST CALLVALUE DUP1 ISZERO PUSH2 0x2F1 JUMPI PUSH1 0x0 DUP1 REVERT JUMPDEST POP PUSH2 0x28B PUSH2 0x300 CALLDATASIZE PUSH1 0x4 PUSH2 0x2E6F JUMP JUMPDEST PUSH2 0xE58 JUMP JUMPDEST CALLVALUE DUP1 ISZERO PUSH2 0x311 JUMPI PUSH1 0x0 DUP1 REVERT JUMPDEST POP PUSH2 0x28B PUSH2 0x320 CALLDATASIZE PUSH1 0x4 PUSH2 0x2E6F JUMP JUMPDEST PUSH2 0x12B4 JUMP JUMPDEST CALLVALUE DUP1 ISZERO PUSH2 0x331 JUMPI PUSH1 0x0 DUP1 REVERT JUMPDEST POP PUSH2 0x2CD PUSH2 0x340 CALLDATASIZE PUSH1 0x4 PUSH2 0x2E6F JUMP JUMPDEST PUSH2 0x1762 JUMP JUMPDEST CALLVALUE DUP1 ISZERO PUSH2 0x351 JUMPI PUSH1 0x0 DUP1 REVERT JUMPDEST POP PUSH1 0x4 SLOAD JUMPDEST PUSH1 0x40 MLOAD SWAP1 DUP2 MSTORE PUSH1 0x20 ADD PUSH2 0x262 JUMP JUMPDEST CALLVALUE DUP1 ISZERO PUSH2 0x370 JUMPI PUSH1 0x0 DUP1 REVERT JUMPDEST POP PUSH2 0x28B PUSH2 0x37F CALLDATASIZE PUSH1 0x4 PUSH2 0x2E88 JUMP JUMPDEST PUSH2 0x178C JUMP JUMPDEST CALLVALUE DUP1 ISZERO PUSH2 0x390 JUMPI PUSH1 0x0 DUP1 REVERT JUMPDEST POP PUSH1 0x3 SLOAD PUSH1 0x1 PUSH1 0x1 PUSH1 0xA0 SHL SUB AND PUSH2 0x2CD JUMP JUMPDEST CALLVALUE DUP1 ISZERO PUSH2 0x3AE JUMPI PUSH1 0x0 DUP1 REVERT JUMPDEST POP PUSH2 0x28B PUSH2 0x3BD CALLDATASIZE PUSH1 0x4 PUSH2 0x2EB4 JUMP JUMPDEST PUSH2 0x17E9 JUMP JUMPDEST PUSH2 0x28B PUSH2 0x3D0 CALLDATASIZE PUSH1 0x4 PUSH2 0x2F03 JUMP JUMPDEST PUSH2 0x1A2A JUMP JUMPDEST CALLVALUE DUP1 ISZERO PUSH2 0x3E1 JUMPI PUSH1 0x0 DUP1 REVERT JUMPDEST POP PUSH2 0x28B PUSH2 0x3F0 CALLDATASIZE PUSH1 0x4 PUSH2 0x2FCD JUMP JUMPDEST PUSH2 0x1A49 JUMP JUMPDEST CALLVALUE DUP1 ISZERO PUSH2 0x401 JUMPI PUSH1 0x0 DUP1 REVERT JUMPDEST POP PUSH2 0x356 PUSH2 0x1CBC JUMP JUMPDEST CALLVALUE DUP1 ISZERO PUSH2 0x416 JUMPI PUSH1 0x0 DUP1 REVERT JUMPDEST POP PUSH2 0x356 PUSH1 0x1 SLOAD DUP2 JUMP JUMPDEST CALLVALUE DUP1 ISZERO PUSH2 0x42C JUMPI PUSH1 0x0 DUP1 REVERT JUMPDEST POP PUSH2 0x28B PUSH2 0x43B CALLDATASIZE PUSH1 0x4 PUSH2 0x301A JUMP JUMPDEST PUSH2 0x1CD9 JUMP JUMPDEST CALLVALUE DUP1 ISZERO PUSH2 0x44C JUMPI PUSH1 0x0 DUP1 REVERT JUMPDEST POP PUSH2 0x2CD PUSH2 0x45B CALLDATASIZE PUSH1 0x4 PUSH2 0x2E6F JUMP JUMPDEST PUSH2 0x1D32 JUMP JUMPDEST CALLVALUE DUP1 ISZERO PUSH2 0x46C JUMPI PUSH1 0x0 DUP1 REVERT JUMPDEST POP PUSH2 0x475 PUSH2 0x1D42 JUMP JUMPDEST PUSH1 0x40 MLOAD PUSH2 0x262 SWAP2 SWAP1 PUSH2 0x30A7 JUMP JUMPDEST CALLVALUE DUP1 ISZERO PUSH2 0x48E JUMPI PUSH1 0x0 DUP1 REVERT JUMPDEST POP PUSH2 0x2CD PUSH2 0x49D CALLDATASIZE PUSH1 0x4 PUSH2 0x2E6F JUMP JUMPDEST PUSH1 0xE PUSH1 0x20 MSTORE PUSH1 0x0 SWAP1 DUP2 MSTORE PUSH1 0x40 SWAP1 KECCAK256 SLOAD PUSH1 0x1 PUSH1 0x1 PUSH1 0xA0 SHL SUB AND DUP2 JUMP JUMPDEST CALLVALUE DUP1 ISZERO PUSH2 0x4C4 JUMPI PUSH1 0x0 DUP1 REVERT JUMPDEST POP PUSH2 0x356 PUSH1 0x0 SLOAD DUP2 JUMP JUMPDEST CALLVALUE DUP1 ISZERO PUSH2 0x4DA JUMPI PUSH1 0x0 DUP1 REVERT JUMPDEST POP PUSH2 0x4FE PUSH2 0x4E9 CALLDATASIZE PUSH1 0x4 PUSH2 0x2E54 JUMP JUMPDEST PUSH1 0x9 PUSH1 0x20 MSTORE PUSH1 0x0 SWAP1 DUP2 MSTORE PUSH1 0x40 SWAP1 KECCAK256 SLOAD PUSH1 0xFF AND DUP2 JUMP JUMPDEST PUSH1 0x40 MLOAD SWAP1 ISZERO ISZERO DUP2 MSTORE PUSH1 0x20 ADD PUSH2 0x262 JUMP JUMPDEST CALLVALUE DUP1 ISZERO PUSH2 0x51A JUMPI PUSH1 0x0 DUP1 REVERT JUMPDEST POP PUSH2 0x356 PUSH1 0x2 SLOAD DUP2 JUMP JUMPDEST CALLVALUE DUP1 ISZERO PUSH2 0x530 JUMPI PUSH1 0x0 DUP1 REVERT JUMPDEST POP PUSH2 0x28B PUSH2 0x205A JUMP JUMPDEST CALLVALUE DUP1 ISZERO PUSH2 0x545 JUMPI PUSH1 0x0 DUP1 REVERT JUMPDEST POP PUSH2 0x356 PUSH2 0x554 CALLDATASIZE PUSH1 0x4 PUSH2 0x2E54 JUMP JUMPDEST PUSH1 0xB PUSH1 0x20 MSTORE PUSH1 0x0 SWAP1 DUP2 MSTORE PUSH1 0x40 SWAP1 KECCAK256 SLOAD DUP2 JUMP JUMPDEST CALLVALUE DUP1 ISZERO PUSH2 0x572 JUMPI PUSH1 0x0 DUP1 REVERT JUMPDEST POP PUSH2 0x356 PUSH4 0x1E13380 DUP2 JUMP JUMPDEST CALLVALUE DUP1 ISZERO PUSH2 0x58A JUMPI PUSH1 0x0 DUP1 REVERT JUMPDEST POP PUSH2 0x593 PUSH2 0x206E JUMP JUMPDEST PUSH1 0x40 MLOAD PUSH2 0x262 SWAP3 SWAP2 SWAP1 PUSH2 0x30F5 JUMP JUMPDEST CALLVALUE DUP1 ISZERO PUSH2 0x5AD JUMPI PUSH1 0x0 DUP1 REVERT JUMPDEST POP PUSH2 0x356 PUSH1 0x4 SLOAD DUP2 JUMP JUMPDEST CALLVALUE DUP1 ISZERO PUSH2 0x5C3 JUMPI PUSH1 0x0 DUP1 REVERT JUMPDEST POP PUSH32 0x9016D09D72D40FDAE2FD8CEAC6B6234C7706214FD39C1CD1E609A0528C199300 SLOAD PUSH1 0x1 PUSH1 0x1 PUSH1 0xA0 SHL SUB AND PUSH2 0x2CD JUMP JUMPDEST CALLVALUE DUP1 ISZERO PUSH2 0x600 JUMPI PUSH1 0x0 DUP1 REVERT JUMPDEST POP PUSH2 0x28B PUSH2 0x60F CALLDATASIZE PUSH1 0x4 PUSH2 0x2E54 JUMP JUMPDEST PUSH2 0x224B JUMP JUMPDEST CALLVALUE DUP1 ISZERO PUSH2 0x620 JUMPI PUSH1 0x0 DUP1 REVERT JUMPDEST POP PUSH2 0x645 PUSH1 0x40 MLOAD DUP1 PUSH1 0x40 ADD PUSH1 0x40 MSTORE DUP1 PUSH1 0x5 DUP2 MSTORE PUSH1 0x20 ADD PUSH5 0x352E302E3 PUSH1 0xDC SHL DUP2 MSTORE POP DUP2 JUMP JUMPDEST PUSH1 0x40 MLOAD PUSH2 0x262 SWAP2 SWAP1 PUSH2 0x3173 JUMP JUMPDEST CALLVALUE DUP1 ISZERO PUSH2 0x65E JUMPI PUSH1 0x0 DUP1 REVERT JUMPDEST POP PUSH1 0x5 SLOAD PUSH2 0x356 JUMP JUMPDEST CALLVALUE DUP1 ISZERO PUSH2 0x673 JUMPI PUSH1 0x0 DUP1 REVERT JUMPDEST POP PUSH2 0x356 PUSH2 0x682 CALLDATASIZE PUSH1 0x4 PUSH2 0x31A6 JUMP JUMPDEST PUSH1 0xC PUSH1 0x20 SWAP1 DUP2 MSTORE PUSH1 0x0 SWAP3 DUP4 MSTORE PUSH1 0x40 DUP1 DUP5 KECCAK256 SWAP1 SWAP2 MSTORE SWAP1 DUP3 MSTORE SWAP1 KECCAK256 SLOAD DUP2 JUMP JUMPDEST CALLVALUE DUP1 ISZERO PUSH2 0x6AB JUMPI PUSH1 0x0 DUP1 REVERT JUMPDEST POP PUSH2 0x356 PUSH2 0x6BA CALLDATASIZE PUSH1 0x4 PUSH2 0x31D9 JUMP JUMPDEST PUSH2 0x24CA JUMP JUMPDEST CALLVALUE DUP1 ISZERO PUSH2 0x6CB JUMPI PUSH1 0x0 DUP1 REVERT JUMPDEST POP PUSH2 0x6DF PUSH2 0x6DA CALLDATASIZE PUSH1 0x4 PUSH2 0x31FB JUMP JUMPDEST PUSH2 0x24E0 JUMP JUMPDEST PUSH1 0x40 DUP1 MLOAD PUSH1 0x1 PUSH1 0x1 PUSH1 0xA0 SHL SUB SWAP9 DUP10 AND DUP2 MSTORE SWAP8 SWAP1 SWAP7 AND PUSH1 0x20 DUP9 ADD MSTORE SWAP5 DUP7 ADD SWAP4 SWAP1 SWAP4 MSTORE PUSH1 0x60 DUP6 ADD SWAP2 SWAP1 SWAP2 MSTORE PUSH1 0x80 DUP5 ADD MSTORE PUSH1 0xA0 DUP4 ADD MSTORE ISZERO ISZERO PUSH1 0xC0 DUP3 ADD MSTORE PUSH1 0xE0 ADD PUSH2 0x262 JUMP JUMPDEST CALLVALUE DUP1 ISZERO PUSH2 0x72D JUMPI PUSH1 0x0 DUP1 REVERT JUMPDEST POP PUSH2 0x741 PUSH2 0x73C CALLDATASIZE PUSH1 0x4 PUSH2 0x2E6F JUMP JUMPDEST PUSH2 0x254A JUMP JUMPDEST PUSH1 0x40 MLOAD PUSH2 0x262 SWAP2 SWAP1 PUSH2 0x3225 JUMP JUMPDEST CALLVALUE DUP1 ISZERO PUSH2 0x75A JUMPI PUSH1 0x0 DUP1 REVERT JUMPDEST POP PUSH2 0x356 PUSH1 0x5 SLOAD DUP2 JUMP JUMPDEST CALLVALUE DUP1 ISZERO PUSH2 0x770 JUMPI PUSH1 0x0 DUP1 REVERT JUMPDEST POP PUSH2 0x28B PUSH2 0x77F CALLDATASIZE PUSH1 0x4 PUSH2 0x2E54 JUMP JUMPDEST PUSH2 0x26ED JUMP JUMPDEST CALLVALUE DUP1 ISZERO PUSH2 0x790 JUMPI PUSH1 0x0 DUP1 REVERT JUMPDEST POP PUSH2 0x356 PUSH2 0x79F CALLDATASIZE PUSH1 0x4 PUSH2 0x2E54 JUMP JUMPDEST PUSH1 0xA PUSH1 0x20 MSTORE PUSH1 0x0 SWAP1 DUP2 MSTORE PUSH1 0x40 SWAP1 KECCAK256 SLOAD DUP2 JUMP JUMPDEST CALLVALUE DUP1 ISZERO PUSH2 0x7BD JUMPI PUSH1 0x0 DUP1 REVERT JUMPDEST POP PUSH2 0x4FE PUSH2 0x7CC CALLDATASIZE PUSH1 0x4 PUSH2 0x2E54 JUMP JUMPDEST PUSH1 0x1 PUSH1 0x1 PUSH1 0xA0 SHL SUB AND PUSH1 0x0 SWAP1 DUP2 MSTORE PUSH1 0x9 PUSH1 0x20 MSTORE PUSH1 0x40 SWAP1 KECCAK256 SLOAD PUSH1 0xFF AND SWAP1 JUMP JUMPDEST PUSH1 0x60 PUSH1 0x7 DUP1 SLOAD DUP1 PUSH1 0x20 MUL PUSH1 0x20 ADD PUSH1 0x40 MLOAD SWAP1 DUP2 ADD PUSH1 0x40 MSTORE DUP1 SWAP3 SWAP2 SWAP1 DUP2 DUP2 MSTORE PUSH1 0x20 ADD DUP3 DUP1 SLOAD DUP1 ISZERO PUSH2 0x842 JUMPI PUSH1 0x20 MUL DUP3 ADD SWAP2 SWAP1 PUSH1 0x0 MSTORE PUSH1 0x20 PUSH1 0x0 KECCAK256 SWAP1 JUMPDEST DUP2 SLOAD PUSH1 0x1 PUSH1 0x1 PUSH1 0xA0 SHL SUB AND DUP2 MSTORE PUSH1 0x1 SWAP1 SWAP2 ADD SWAP1 PUSH1 0x20 ADD DUP1 DUP4 GT PUSH2 0x824 JUMPI JUMPDEST POP POP POP POP POP SWAP1 POP SWAP1 JUMP JUMPDEST PUSH2 0x854 PUSH2 0x2728 JUMP JUMPDEST PUSH1 0x0 DUP3 GT PUSH2 0x8A9 JUMPI PUSH1 0x40 MLOAD PUSH3 0x461BCD PUSH1 0xE5 SHL DUP2 MSTORE PUSH1 0x20 PUSH1 0x4 DUP3 ADD MSTORE PUSH1 0x1D PUSH1 0x24 DUP3 ADD MSTORE PUSH32 0x416D6F756E74206D7573742062652067726561746572207468616E2030000000 PUSH1 0x44 DUP3 ADD MSTORE PUSH1 0x64 ADD JUMPDEST PUSH1 0x40 MLOAD DUP1 SWAP2 SUB SWAP1 REVERT JUMPDEST PUSH1 0x1 SLOAD DUP2 LT ISZERO DUP1 ISZERO PUSH2 0x8BD JUMPI POP PUSH1 0x2 SLOAD DUP2 GT ISZERO JUMPDEST PUSH2 0x8FC JUMPI PUSH1 0x40 MLOAD PUSH3 0x461BCD PUSH1 0xE5 SHL DUP2 MSTORE PUSH1 0x20 PUSH1 0x4 DUP3 ADD MSTORE PUSH1 0x10 PUSH1 0x24 DUP3 ADD MSTORE PUSH16 0x24B73B30B634B210323AB930BA34B7B7 PUSH1 0x81 SHL PUSH1 0x44 DUP3 ADD MSTORE PUSH1 0x64 ADD PUSH2 0x8A0 JUMP JUMPDEST PUSH1 0x1 PUSH1 0x1 PUSH1 0xA0 SHL SUB DUP4 AND PUSH1 0x0 SWAP1 DUP2 MSTORE PUSH1 0x9 PUSH1 0x20 MSTORE PUSH1 0x40 SWAP1 KECCAK256 SLOAD PUSH1 0xFF AND PUSH2 0x978 JUMPI PUSH1 0x40 MLOAD PUSH3 0x461BCD PUSH1 0xE5 SHL DUP2 MSTORE PUSH1 0x20 PUSH1 0x4 DUP3 ADD MSTORE PUSH1 0x2B PUSH1 0x24 DUP3 ADD MSTORE PUSH32 0x576520646F206E6F7420737570706F72742074686520746F6B656E7320796F75 PUSH1 0x44 DUP3 ADD MSTORE PUSH11 0x277265207374616B696E67 PUSH1 0xA8 SHL PUSH1 0x64 DUP3 ADD MSTORE PUSH1 0x84 ADD PUSH2 0x8A0 JUMP JUMPDEST PUSH1 0x40 MLOAD PUSH4 0x70A08231 PUSH1 0xE0 SHL DUP2 MSTORE ADDRESS PUSH1 0x4 DUP3 ADD MSTORE PUSH1 0x0 SWAP1 PUSH1 0x1 PUSH1 0x1 PUSH1 0xA0 SHL SUB DUP6 AND SWAP1 PUSH4 0x70A08231 SWAP1 PUSH1 0x24 ADD PUSH1 0x20 PUSH1 0x40 MLOAD DUP1 DUP4 SUB DUP2 DUP7 GAS STATICCALL ISZERO DUP1 ISZERO PUSH2 0x9BF JUMPI RETURNDATASIZE PUSH1 0x0 DUP1 RETURNDATACOPY RETURNDATASIZE PUSH1 0x0 REVERT JUMPDEST POP POP POP POP PUSH1 0x40 MLOAD RETURNDATASIZE PUSH1 0x1F NOT PUSH1 0x1F DUP3 ADD AND DUP3 ADD DUP1 PUSH1 0x40 MSTORE POP DUP2 ADD SWAP1 PUSH2 0x9E3 SWAP2 SWAP1 PUSH2 0x3233 JUMP JUMPDEST SWAP1 POP PUSH2 0x9FA PUSH1 0x1 PUSH1 0x1 PUSH1 0xA0 SHL SUB DUP6 AND CALLER ADDRESS DUP7 PUSH2 0x2760 JUMP JUMPDEST PUSH1 0x40 MLOAD PUSH4 0x70A08231 PUSH1 0xE0 SHL DUP2 MSTORE ADDRESS PUSH1 0x4 DUP3 ADD MSTORE PUSH1 0x0 SWAP1 PUSH1 0x1 PUSH1 0x1 PUSH1 0xA0 SHL SUB DUP7 AND SWAP1 PUSH4 0x70A08231 SWAP1 PUSH1 0x24 ADD PUSH1 0x20 PUSH1 0x40 MLOAD DUP1 DUP4 SUB DUP2 DUP7 GAS STATICCALL ISZERO DUP1 ISZERO PUSH2 0xA41 JUMPI RETURNDATASIZE PUSH1 0x0 DUP1 RETURNDATACOPY RETURNDATASIZE PUSH1 0x0 REVERT JUMPDEST POP POP POP POP PUSH1 0x40 MLOAD RETURNDATASIZE PUSH1 0x1F NOT PUSH1 0x1F DUP3 ADD AND DUP3 ADD DUP1 PUSH1 0x40 MSTORE POP DUP2 ADD SWAP1 PUSH2 0xA65 SWAP2 SWAP1 PUSH2 0x3233 JUMP JUMPDEST SWAP1 POP PUSH1 0x0 PUSH2 0xA73 DUP4 DUP4 PUSH2 0x3262 JUMP JUMPDEST SWAP1 POP PUSH1 0x0 DUP2 GT PUSH2 0xAC5 JUMPI PUSH1 0x40 MLOAD PUSH3 0x461BCD PUSH1 0xE5 SHL DUP2 MSTORE PUSH1 0x20 PUSH1 0x4 DUP3 ADD MSTORE PUSH1 0x1A PUSH1 0x24 DUP3 ADD MSTORE PUSH32 0x4E6F20746F6B656E732077657265207472616E73666572726564000000000000 PUSH1 0x44 DUP3 ADD MSTORE PUSH1 0x64 ADD PUSH2 0x8A0 JUMP JUMPDEST DUP1 PUSH1 0x5 PUSH1 0x0 DUP3 DUP3 SLOAD PUSH2 0xAD7 SWAP2 SWAP1 PUSH2 0x3275 JUMP JUMPDEST SWAP1 SWAP2 SSTORE POP POP CALLER PUSH1 0x0 SWAP1 DUP2 MSTORE PUSH1 0xC PUSH1 0x20 SWAP1 DUP2 MSTORE PUSH1 0x40 DUP1 DUP4 KECCAK256 PUSH1 0x1 PUSH1 0x1 PUSH1 0xA0 SHL SUB DUP11 AND DUP5 MSTORE SWAP1 SWAP2 MSTORE DUP2 KECCAK256 DUP1 SLOAD DUP4 SWAP3 SWAP1 PUSH2 0xB0F SWAP1 DUP5 SWAP1 PUSH2 0x3275 JUMP JUMPDEST SWAP1 SWAP2 SSTORE POP POP CALLER PUSH1 0x0 SWAP1 DUP2 MSTORE PUSH1 0xD PUSH1 0x20 MSTORE PUSH1 0x40 DUP2 KECCAK256 SLOAD SWAP1 SUB PUSH2 0xB92 JUMPI PUSH1 0x8 DUP1 SLOAD CALLER PUSH1 0x0 DUP2 DUP2 MSTORE PUSH1 0xB PUSH1 0x20 MSTORE PUSH1 0x40 DUP2 KECCAK256 DUP4 SWAP1 SSTORE PUSH1 0x1 DUP4 ADD DUP5 SSTORE SWAP3 DUP4 MSTORE PUSH32 0xF3F7A9FE364FAAB93B216DA50A3214154F22A0A2B415B23A84C8169E8B636EE3 SWAP1 SWAP2 ADD DUP1 SLOAD PUSH1 0x1 PUSH1 0x1 PUSH1 0xA0 SHL SUB NOT AND SWAP1 SWAP2 OR SWAP1 SSTORE PUSH1 0x4 DUP1 SLOAD SWAP2 PUSH2 0xB8C DUP4 PUSH2 0x3288 JUMP JUMPDEST SWAP2 SWAP1 POP SSTORE POP JUMPDEST PUSH1 0x6 DUP1 SLOAD PUSH1 0x0 SWAP2 DUP3 PUSH2 0xBA3 DUP4 PUSH2 0x3288 JUMP JUMPDEST SWAP1 SWAP2 SSTORE POP PUSH1 0x40 DUP1 MLOAD PUSH1 0xE0 DUP2 ADD DUP3 MSTORE CALLER DUP1 DUP3 MSTORE PUSH1 0x1 PUSH1 0x1 PUSH1 0xA0 SHL SUB DUP12 DUP2 AND PUSH1 0x20 DUP1 DUP6 ADD SWAP2 DUP3 MSTORE DUP5 DUP7 ADD DUP8 DUP2 MSTORE PUSH1 0x60 DUP7 ADD DUP11 DUP2 MSTORE TIMESTAMP PUSH1 0x80 DUP9 ADD SWAP1 DUP2 MSTORE PUSH1 0xA0 DUP9 ADD DUP16 DUP2 MSTORE PUSH1 0x0 PUSH1 0xC0 DUP11 ADD DUP2 DUP2 MSTORE DUP10 DUP3 MSTORE PUSH1 0xD DUP8 MSTORE DUP12 DUP3 KECCAK256 DUP1 SLOAD PUSH1 0x1 DUP2 DUP2 ADD DUP4 SSTORE SWAP2 DUP5 MSTORE DUP9 DUP5 KECCAK256 DUP14 MLOAD PUSH1 0x7 SWAP1 SWAP3 MUL ADD DUP1 SLOAD SWAP2 DUP13 AND PUSH1 0x1 PUSH1 0x1 PUSH1 0xA0 SHL SUB NOT SWAP3 DUP4 AND OR DUP2 SSTORE SWAP10 MLOAD SWAP2 DUP11 ADD DUP1 SLOAD SWAP3 SWAP1 SWAP12 AND SWAP2 DUP2 AND SWAP2 SWAP1 SWAP2 OR SWAP1 SWAP10 SSTORE SWAP5 MLOAD PUSH1 0x2 DUP9 ADD SSTORE SWAP3 MLOAD PUSH1 0x3 DUP8 ADD SSTORE SWAP1 MLOAD PUSH1 0x4 DUP7 ADD SSTORE MLOAD PUSH1 0x5 DUP6 ADD SSTORE SWAP1 MLOAD PUSH1 0x6 SWAP1 SWAP4 ADD DUP1 SLOAD SWAP4 ISZERO ISZERO PUSH1 0xFF NOT SWAP1 SWAP5 AND SWAP4 SWAP1 SWAP4 OR SWAP1 SWAP3 SSTORE DUP7 DUP3 MSTORE PUSH1 0xE DUP2 MSTORE DUP6 DUP3 KECCAK256 DUP1 SLOAD SWAP1 SWAP4 AND DUP5 OR SWAP1 SWAP3 SSTORE SWAP2 DUP3 MSTORE PUSH1 0xA SWAP1 MSTORE SWAP2 DUP3 KECCAK256 DUP1 SLOAD SWAP4 SWAP5 POP SWAP1 SWAP3 SWAP2 PUSH2 0xC9A DUP4 PUSH2 0x3288 JUMP JUMPDEST SWAP1 SWAP2 SSTORE POP POP PUSH1 0x40 DUP1 MLOAD PUSH1 0x1 PUSH1 0x1 PUSH1 0xA0 SHL SUB DUP11 AND DUP2 MSTORE PUSH1 0x20 DUP2 ADD DUP6 SWAP1 MSTORE SWAP1 DUP2 ADD DUP8 SWAP1 MSTORE CALLER SWAP1 PUSH32 0xF5681F9D0DB1B911AC18EE83D515A1CF1051853A9EAE418316A2FDF7DEA427C5 SWAP1 PUSH1 0x60 ADD PUSH1 0x40 MLOAD DUP1 SWAP2 SUB SWAP1 LOG2 POP POP POP POP POP PUSH2 0xD07 PUSH1 0x1 PUSH1 0x0 DUP1 MLOAD PUSH1 0x20 PUSH2 0x33D1 DUP4 CODECOPY DUP2 MLOAD SWAP2 MSTORE SSTORE JUMP JUMPDEST POP POP POP JUMP JUMPDEST PUSH2 0xD14 PUSH2 0x27E1 JUMP JUMPDEST PUSH1 0x1 PUSH1 0x1 PUSH1 0xA0 SHL SUB DUP2 AND PUSH2 0xD62 JUMPI PUSH1 0x40 MLOAD PUSH3 0x461BCD PUSH1 0xE5 SHL DUP2 MSTORE PUSH1 0x20 PUSH1 0x4 DUP3 ADD MSTORE PUSH1 0x15 PUSH1 0x24 DUP3 ADD MSTORE PUSH21 0x496E76616C696420746F6B656E2061646472657373 PUSH1 0x58 SHL PUSH1 0x44 DUP3 ADD MSTORE PUSH1 0x64 ADD PUSH2 0x8A0 JUMP JUMPDEST PUSH1 0x1 PUSH1 0x1 PUSH1 0xA0 SHL SUB DUP2 AND PUSH1 0x0 SWAP1 DUP2 MSTORE PUSH1 0x9 PUSH1 0x20 MSTORE PUSH1 0x40 SWAP1 KECCAK256 SLOAD PUSH1 0xFF AND ISZERO PUSH2 0xDCB JUMPI PUSH1 0x40 MLOAD PUSH3 0x461BCD PUSH1 0xE5 SHL DUP2 MSTORE PUSH1 0x20 PUSH1 0x4 DUP3 ADD MSTORE PUSH1 0x1F PUSH1 0x24 DUP3 ADD MSTORE PUSH32 0x546F6B656E20616C726561647920616464656420616E6420616C6C6F77656400 PUSH1 0x44 DUP3 ADD MSTORE PUSH1 0x64 ADD PUSH2 0x8A0 JUMP JUMPDEST PUSH1 0x7 DUP1 SLOAD PUSH1 0x1 DUP1 DUP3 ADD SWAP1 SWAP3 SSTORE PUSH32 0xA66CC928B5EDB82AF9BD49922954155AB7B0942694BEA4CE44661D9A8736C688 ADD DUP1 SLOAD PUSH1 0x1 PUSH1 0x1 PUSH1 0xA0 SHL SUB NOT AND PUSH1 0x1 PUSH1 0x1 PUSH1 0xA0 SHL SUB DUP5 AND SWAP1 DUP2 OR SWAP1 SWAP2 SSTORE PUSH1 0x0 DUP2 DUP2 MSTORE PUSH1 0x9 PUSH1 0x20 SWAP1 DUP2 MSTORE PUSH1 0x40 SWAP2 DUP3 SWAP1 KECCAK256 DUP1 SLOAD PUSH1 0xFF NOT AND DUP6 OR SWAP1 SSTORE DUP2 MLOAD SWAP3 DUP4 MSTORE DUP3 ADD SWAP3 SWAP1 SWAP3 MSTORE PUSH1 0x0 DUP1 MLOAD PUSH1 0x20 PUSH2 0x33B1 DUP4 CODECOPY DUP2 MLOAD SWAP2 MSTORE SWAP2 ADD PUSH1 0x40 MLOAD DUP1 SWAP2 SUB SWAP1 LOG1 POP JUMP JUMPDEST PUSH2 0xE60 PUSH2 0x2728 JUMP JUMPDEST PUSH1 0x0 DUP2 DUP2 MSTORE PUSH1 0xE PUSH1 0x20 MSTORE PUSH1 0x40 SWAP1 KECCAK256 SLOAD PUSH1 0x1 PUSH1 0x1 PUSH1 0xA0 SHL SUB AND CALLER EQ PUSH2 0xEBB JUMPI PUSH1 0x40 MLOAD PUSH3 0x461BCD PUSH1 0xE5 SHL DUP2 MSTORE PUSH1 0x20 PUSH1 0x4 DUP3 ADD MSTORE PUSH1 0x12 PUSH1 0x24 DUP3 ADD MSTORE PUSH18 0x2737BA103837B9B4BA34B7B71037BBB732B9 PUSH1 0x71 SHL PUSH1 0x44 DUP3 ADD MSTORE PUSH1 0x64 ADD PUSH2 0x8A0 JUMP JUMPDEST CALLER PUSH1 0x0 SWAP1 DUP2 MSTORE PUSH1 0xD PUSH1 0x20 MSTORE PUSH1 0x40 DUP2 KECCAK256 SWAP1 DUP1 DUP1 JUMPDEST DUP4 SLOAD DUP2 LT ISZERO PUSH2 0xF15 JUMPI DUP5 DUP5 DUP3 DUP2 SLOAD DUP2 LT PUSH2 0xEEA JUMPI PUSH2 0xEEA PUSH2 0x32A1 JUMP JUMPDEST SWAP1 PUSH1 0x0 MSTORE PUSH1 0x20 PUSH1 0x0 KECCAK256 SWAP1 PUSH1 0x7 MUL ADD PUSH1 0x2 ADD SLOAD SUB PUSH2 0xF0D JUMPI DUP1 SWAP3 POP PUSH1 0x1 SWAP2 POP PUSH2 0xF15 JUMP JUMPDEST PUSH1 0x1 ADD PUSH2 0xECE JUMP JUMPDEST POP DUP1 PUSH2 0xF33 JUMPI PUSH1 0x40 MLOAD PUSH3 0x461BCD PUSH1 0xE5 SHL DUP2 MSTORE PUSH1 0x4 ADD PUSH2 0x8A0 SWAP1 PUSH2 0x32B7 JUMP JUMPDEST PUSH1 0x0 DUP4 DUP4 DUP2 SLOAD DUP2 LT PUSH2 0xF47 JUMPI PUSH2 0xF47 PUSH2 0x32A1 JUMP JUMPDEST PUSH1 0x0 SWAP2 DUP3 MSTORE PUSH1 0x20 SWAP1 SWAP2 KECCAK256 PUSH1 0x7 SWAP1 SWAP2 MUL ADD PUSH1 0x6 DUP2 ADD SLOAD SWAP1 SWAP2 POP PUSH1 0xFF AND ISZERO PUSH2 0xFA3 JUMPI PUSH1 0x40 MLOAD PUSH3 0x461BCD PUSH1 0xE5 SHL DUP2 MSTORE PUSH1 0x20 PUSH1 0x4 DUP3 ADD MSTORE PUSH1 0x11 PUSH1 0x24 DUP3 ADD MSTORE PUSH17 0x20B63932B0B23C903BB4BA34323930BBB7 PUSH1 0x79 SHL PUSH1 0x44 DUP3 ADD MSTORE PUSH1 0x64 ADD PUSH2 0x8A0 JUMP JUMPDEST PUSH1 0x1 DUP2 ADD SLOAD PUSH1 0x3 DUP3 ADD SLOAD PUSH1 0x5 DUP4 ADD SLOAD PUSH1 0x4 DUP5 ADD SLOAD PUSH1 0x1 PUSH1 0x1 PUSH1 0xA0 SHL SUB SWAP1 SWAP4 AND SWAP3 PUSH2 0xFCD SWAP2 SWAP1 PUSH2 0x3275 JUMP JUMPDEST TIMESTAMP LT ISZERO PUSH2 0xFFD JUMPI PUSH1 0x0 PUSH1 0xA DUP5 PUSH1 0x3 ADD SLOAD PUSH2 0xFE7 SWAP2 SWAP1 PUSH2 0x32E3 JUMP JUMPDEST SWAP1 POP DUP1 DUP5 PUSH1 0x3 ADD SLOAD PUSH2 0xFF9 SWAP2 SWAP1 PUSH2 0x3262 JUMP JUMPDEST SWAP2 POP POP JUMPDEST PUSH1 0x40 MLOAD PUSH4 0x70A08231 PUSH1 0xE0 SHL DUP2 MSTORE ADDRESS PUSH1 0x4 DUP3 ADD MSTORE PUSH1 0x0 SWAP1 PUSH1 0x1 PUSH1 0x1 PUSH1 0xA0 SHL SUB DUP5 AND SWAP1 PUSH4 0x70A08231 SWAP1 PUSH1 0x24 ADD PUSH1 0x20 PUSH1 0x40 MLOAD DUP1 DUP4 SUB DUP2 DUP7 GAS STATICCALL ISZERO DUP1 ISZERO PUSH2 0x1044 JUMPI RETURNDATASIZE PUSH1 0x0 DUP1 RETURNDATACOPY RETURNDATASIZE PUSH1 0x0 REVERT JUMPDEST POP POP POP POP PUSH1 0x40 MLOAD RETURNDATASIZE PUSH1 0x1F NOT PUSH1 0x1F DUP3 ADD AND DUP3 ADD DUP1 PUSH1 0x40 MSTORE POP DUP2 ADD SWAP1 PUSH2 0x1068 SWAP2 SWAP1 PUSH2 0x3233 JUMP JUMPDEST SWAP1 POP DUP2 DUP2 LT ISZERO PUSH2 0x108A JUMPI PUSH1 0x40 MLOAD PUSH3 0x461BCD PUSH1 0xE5 SHL DUP2 MSTORE PUSH1 0x4 ADD PUSH2 0x8A0 SWAP1 PUSH2 0x3305 JUMP JUMPDEST DUP4 PUSH1 0x3 ADD SLOAD PUSH1 0x5 PUSH1 0x0 DUP3 DUP3 SLOAD PUSH2 0x10A0 SWAP2 SWAP1 PUSH2 0x3262 JUMP JUMPDEST SWAP1 SWAP2 SSTORE POP POP PUSH1 0x3 DUP5 ADD SLOAD CALLER PUSH1 0x0 SWAP1 DUP2 MSTORE PUSH1 0xC PUSH1 0x20 SWAP1 DUP2 MSTORE PUSH1 0x40 DUP1 DUP4 KECCAK256 PUSH1 0x1 PUSH1 0x1 PUSH1 0xA0 SHL SUB DUP9 AND DUP5 MSTORE SWAP1 SWAP2 MSTORE DUP2 KECCAK256 DUP1 SLOAD SWAP1 SWAP2 SWAP1 PUSH2 0x10DD SWAP1 DUP5 SWAP1 PUSH2 0x3262 JUMP JUMPDEST SWAP1 SWAP2 SSTORE POP POP PUSH1 0x6 DUP5 ADD DUP1 SLOAD PUSH1 0xFF NOT AND PUSH1 0x1 OR SWAP1 SSTORE PUSH1 0x0 DUP9 DUP2 MSTORE PUSH1 0xE PUSH1 0x20 SWAP1 DUP2 MSTORE PUSH1 0x40 DUP1 DUP4 KECCAK256 DUP1 SLOAD PUSH1 0x1 PUSH1 0x1 PUSH1 0xA0 SHL SUB NOT AND SWAP1 SSTORE CALLER DUP4 MSTORE PUSH1 0xA SWAP1 SWAP2 MSTORE DUP2 KECCAK256 DUP1 SLOAD SWAP2 PUSH2 0x1126 DUP4 PUSH2 0x3347 JUMP JUMPDEST SWAP1 SWAP2 SSTORE POP POP CALLER PUSH1 0x0 SWAP1 DUP2 MSTORE PUSH1 0xA PUSH1 0x20 MSTORE PUSH1 0x40 DUP2 KECCAK256 SLOAD SWAP1 SUB PUSH2 0x1233 JUMPI PUSH1 0x8 SLOAD PUSH1 0x0 SWAP1 PUSH2 0x1153 SWAP1 PUSH1 0x1 SWAP1 PUSH2 0x3262 JUMP JUMPDEST SWAP1 POP PUSH1 0x0 PUSH1 0x8 DUP3 DUP2 SLOAD DUP2 LT PUSH2 0x116A JUMPI PUSH2 0x116A PUSH2 0x32A1 JUMP JUMPDEST PUSH1 0x0 SWAP2 DUP3 MSTORE PUSH1 0x20 SWAP1 SWAP2 KECCAK256 ADD SLOAD PUSH1 0x1 PUSH1 0x1 PUSH1 0xA0 SHL SUB AND SWAP1 POP CALLER DUP2 EQ PUSH2 0x11E7 JUMPI CALLER PUSH1 0x0 SWAP1 DUP2 MSTORE PUSH1 0xB PUSH1 0x20 MSTORE PUSH1 0x40 SWAP1 KECCAK256 SLOAD PUSH1 0x8 DUP1 SLOAD DUP4 SWAP2 SWAP1 DUP4 SWAP1 DUP2 LT PUSH2 0x11AF JUMPI PUSH2 0x11AF PUSH2 0x32A1 JUMP JUMPDEST PUSH1 0x0 SWAP2 DUP3 MSTORE PUSH1 0x20 DUP1 DUP4 KECCAK256 SWAP2 SWAP1 SWAP2 ADD DUP1 SLOAD PUSH1 0x1 PUSH1 0x1 PUSH1 0xA0 SHL SUB NOT AND PUSH1 0x1 PUSH1 0x1 PUSH1 0xA0 SHL SUB SWAP5 DUP6 AND OR SWAP1 SSTORE SWAP2 DUP5 AND DUP2 MSTORE PUSH1 0xB SWAP1 SWAP2 MSTORE PUSH1 0x40 SWAP1 KECCAK256 SSTORE JUMPDEST PUSH1 0x8 DUP1 SLOAD DUP1 PUSH2 0x11F8 JUMPI PUSH2 0x11F8 PUSH2 0x335E JUMP JUMPDEST PUSH1 0x0 DUP3 DUP2 MSTORE PUSH1 0x20 DUP2 KECCAK256 DUP3 ADD PUSH1 0x0 NOT SWAP1 DUP2 ADD DUP1 SLOAD PUSH1 0x1 PUSH1 0x1 PUSH1 0xA0 SHL SUB NOT AND SWAP1 SSTORE SWAP1 SWAP2 ADD SWAP1 SWAP2 SSTORE PUSH1 0x4 DUP1 SLOAD SWAP2 PUSH2 0x122B DUP4 PUSH2 0x3347 JUMP JUMPDEST SWAP2 SWAP1 POP SSTORE POP POP POP JUMPDEST PUSH2 0x1247 PUSH1 0x1 PUSH1 0x1 PUSH1 0xA0 SHL SUB DUP5 AND CALLER DUP5 PUSH2 0x283C JUMP JUMPDEST PUSH1 0x40 DUP1 MLOAD PUSH1 0x1 PUSH1 0x1 PUSH1 0xA0 SHL SUB DUP6 AND DUP2 MSTORE PUSH1 0x20 DUP2 ADD DUP5 SWAP1 MSTORE PUSH1 0x0 DUP2 DUP4 ADD MSTORE SWAP1 MLOAD CALLER SWAP2 PUSH32 0x91FB9D98B786C57D74C099CCD2BECA1739E9F6A81FB49001CA465C4B7591BBE2 SWAP2 SWAP1 DUP2 SWAP1 SUB PUSH1 0x60 ADD SWAP1 LOG2 POP POP POP POP POP POP POP PUSH2 0x12B1 PUSH1 0x1 PUSH1 0x0 DUP1 MLOAD PUSH1 0x20 PUSH2 0x33D1 DUP4 CODECOPY DUP2 MLOAD SWAP2 MSTORE SSTORE JUMP JUMPDEST POP JUMP JUMPDEST PUSH2 0x12BC PUSH2 0x2728 JUMP JUMPDEST PUSH1 0x0 DUP2 DUP2 MSTORE PUSH1 0xE PUSH1 0x20 MSTORE PUSH1 0x40 SWAP1 KECCAK256 SLOAD PUSH1 0x1 PUSH1 0x1 PUSH1 0xA0 SHL SUB AND CALLER EQ PUSH2 0x1331 JUMPI PUSH1 0x40 MLOAD PUSH3 0x461BCD PUSH1 0xE5 SHL DUP2 MSTORE PUSH1 0x20 PUSH1 0x4 DUP3 ADD MSTORE PUSH1 0x26 PUSH1 0x24 DUP3 ADD MSTORE PUSH32 0x596F7520617265206E6F7420746865206F776E6572206F66207468697320706F PUSH1 0x44 DUP3 ADD MSTORE PUSH6 0x39B4BA34B7B7 PUSH1 0xD1 SHL PUSH1 0x64 DUP3 ADD MSTORE PUSH1 0x84 ADD PUSH2 0x8A0 JUMP JUMPDEST CALLER PUSH1 0x0 SWAP1 DUP2 MSTORE PUSH1 0xD PUSH1 0x20 MSTORE PUSH1 0x40 DUP2 KECCAK256 SWAP1 DUP1 DUP1 JUMPDEST DUP4 SLOAD DUP2 LT ISZERO PUSH2 0x138B JUMPI DUP5 DUP5 DUP3 DUP2 SLOAD DUP2 LT PUSH2 0x1360 JUMPI PUSH2 0x1360 PUSH2 0x32A1 JUMP JUMPDEST SWAP1 PUSH1 0x0 MSTORE PUSH1 0x20 PUSH1 0x0 KECCAK256 SWAP1 PUSH1 0x7 MUL ADD PUSH1 0x2 ADD SLOAD SUB PUSH2 0x1383 JUMPI DUP1 SWAP3 POP PUSH1 0x1 SWAP2 POP PUSH2 0x138B JUMP JUMPDEST PUSH1 0x1 ADD PUSH2 0x1344 JUMP JUMPDEST POP DUP1 PUSH2 0x13A9 JUMPI PUSH1 0x40 MLOAD PUSH3 0x461BCD PUSH1 0xE5 SHL DUP2 MSTORE PUSH1 0x4 ADD PUSH2 0x8A0 SWAP1 PUSH2 0x32B7 JUMP JUMPDEST PUSH1 0x0 DUP4 DUP4 DUP2 SLOAD DUP2 LT PUSH2 0x13BD JUMPI PUSH2 0x13BD PUSH2 0x32A1 JUMP JUMPDEST PUSH1 0x0 SWAP2 DUP3 MSTORE PUSH1 0x20 SWAP1 SWAP2 KECCAK256 PUSH1 0x7 SWAP1 SWAP2 MUL ADD PUSH1 0x6 DUP2 ADD SLOAD SWAP1 SWAP2 POP PUSH1 0xFF AND ISZERO PUSH2 0x1419 JUMPI PUSH1 0x40 MLOAD PUSH3 0x461BCD PUSH1 0xE5 SHL DUP2 MSTORE PUSH1 0x20 PUSH1 0x4 DUP3 ADD MSTORE PUSH1 0x11 PUSH1 0x24 DUP3 ADD MSTORE PUSH17 0x20B63932B0B23C903BB4BA34323930BBB7 PUSH1 0x79 SHL PUSH1 0x44 DUP3 ADD MSTORE PUSH1 0x64 ADD PUSH2 0x8A0 JUMP JUMPDEST DUP1 PUSH1 0x5 ADD SLOAD DUP2 PUSH1 0x4 ADD SLOAD PUSH2 0x142D SWAP2 SWAP1 PUSH2 0x3275 JUMP JUMPDEST TIMESTAMP LT ISZERO PUSH2 0x146B JUMPI PUSH1 0x40 MLOAD PUSH3 0x461BCD PUSH1 0xE5 SHL DUP2 MSTORE PUSH1 0x20 PUSH1 0x4 DUP3 ADD MSTORE PUSH1 0xC PUSH1 0x24 DUP3 ADD MSTORE PUSH12 0x14DD1A5B1B081B1BD8DAD959 PUSH1 0xA2 SHL PUSH1 0x44 DUP3 ADD MSTORE PUSH1 0x64 ADD PUSH2 0x8A0 JUMP JUMPDEST PUSH1 0x1 DUP2 ADD SLOAD PUSH1 0x3 DUP3 ADD SLOAD PUSH1 0x5 DUP4 ADD SLOAD PUSH1 0x1 PUSH1 0x1 PUSH1 0xA0 SHL SUB SWAP1 SWAP3 AND SWAP2 PUSH1 0x0 SWAP2 PUSH2 0x1492 SWAP2 PUSH2 0x24CA JUMP JUMPDEST SWAP1 POP PUSH1 0x0 DUP2 DUP5 PUSH1 0x3 ADD SLOAD PUSH2 0x14A6 SWAP2 SWAP1 PUSH2 0x3275 JUMP JUMPDEST PUSH1 0x40 MLOAD PUSH4 0x70A08231 PUSH1 0xE0 SHL DUP2 MSTORE ADDRESS PUSH1 0x4 DUP3 ADD MSTORE SWAP1 SWAP2 POP PUSH1 0x0 SWAP1 PUSH1 0x1 PUSH1 0x1 PUSH1 0xA0 SHL SUB DUP6 AND SWAP1 PUSH4 0x70A08231 SWAP1 PUSH1 0x24 ADD PUSH1 0x20 PUSH1 0x40 MLOAD DUP1 DUP4 SUB DUP2 DUP7 GAS STATICCALL ISZERO DUP1 ISZERO PUSH2 0x14F0 JUMPI RETURNDATASIZE PUSH1 0x0 DUP1 RETURNDATACOPY RETURNDATASIZE PUSH1 0x0 REVERT JUMPDEST POP POP POP POP PUSH1 0x40 MLOAD RETURNDATASIZE PUSH1 0x1F NOT PUSH1 0x1F DUP3 ADD AND DUP3 ADD DUP1 PUSH1 0x40 MSTORE POP DUP2 ADD SWAP1 PUSH2 0x1514 SWAP2 SWAP1 PUSH2 0x3233 JUMP JUMPDEST SWAP1 POP DUP5 PUSH1 0x3 ADD SLOAD DUP2 LT ISZERO PUSH2 0x153A JUMPI PUSH1 0x40 MLOAD PUSH3 0x461BCD PUSH1 0xE5 SHL DUP2 MSTORE PUSH1 0x4 ADD PUSH2 0x8A0 SWAP1 PUSH2 0x3305 JUMP JUMPDEST DUP5 PUSH1 0x3 ADD SLOAD PUSH1 0x5 PUSH1 0x0 DUP3 DUP3 SLOAD PUSH2 0x1550 SWAP2 SWAP1 PUSH2 0x3262 JUMP JUMPDEST SWAP1 SWAP2 SSTORE POP POP PUSH1 0x3 DUP6 ADD SLOAD CALLER PUSH1 0x0 SWAP1 DUP2 MSTORE PUSH1 0xC PUSH1 0x20 SWAP1 DUP2 MSTORE PUSH1 0x40 DUP1 DUP4 KECCAK256 PUSH1 0x1 PUSH1 0x1 PUSH1 0xA0 SHL SUB DUP10 AND DUP5 MSTORE SWAP1 SWAP2 MSTORE DUP2 KECCAK256 DUP1 SLOAD SWAP1 SWAP2 SWAP1 PUSH2 0x158D SWAP1 DUP5 SWAP1 PUSH2 0x3262 JUMP JUMPDEST SWAP1 SWAP2 SSTORE POP POP PUSH1 0x6 DUP6 ADD DUP1 SLOAD PUSH1 0xFF NOT AND PUSH1 0x1 OR SWAP1 SSTORE PUSH2 0x15B5 PUSH1 0x1 PUSH1 0x1 PUSH1 0xA0 SHL SUB DUP6 AND CALLER DUP5 PUSH2 0x283C JUMP JUMPDEST PUSH1 0x0 DUP10 DUP2 MSTORE PUSH1 0xE PUSH1 0x20 SWAP1 DUP2 MSTORE PUSH1 0x40 DUP1 DUP4 KECCAK256 DUP1 SLOAD PUSH1 0x1 PUSH1 0x1 PUSH1 0xA0 SHL SUB NOT AND SWAP1 SSTORE CALLER DUP4 MSTORE PUSH1 0xA SWAP1 SWAP2 MSTORE DUP2 KECCAK256 DUP1 SLOAD SWAP2 PUSH2 0x15EA DUP4 PUSH2 0x3347 JUMP JUMPDEST SWAP1 SWAP2 SSTORE POP POP CALLER PUSH1 0x0 SWAP1 DUP2 MSTORE PUSH1 0xA PUSH1 0x20 MSTORE PUSH1 0x40 DUP2 KECCAK256 SLOAD SWAP1 SUB PUSH2 0x16F7 JUMPI PUSH1 0x8 SLOAD PUSH1 0x0 SWAP1 PUSH2 0x1617 SWAP1 PUSH1 0x1 SWAP1 PUSH2 0x3262 JUMP JUMPDEST SWAP1 POP PUSH1 0x0 PUSH1 0x8 DUP3 DUP2 SLOAD DUP2 LT PUSH2 0x162E JUMPI PUSH2 0x162E PUSH2 0x32A1 JUMP JUMPDEST PUSH1 0x0 SWAP2 DUP3 MSTORE PUSH1 0x20 SWAP1 SWAP2 KECCAK256 ADD SLOAD PUSH1 0x1 PUSH1 0x1 PUSH1 0xA0 SHL SUB AND SWAP1 POP CALLER DUP2 EQ PUSH2 0x16AB JUMPI CALLER PUSH1 0x0 SWAP1 DUP2 MSTORE PUSH1 0xB PUSH1 0x20 MSTORE PUSH1 0x40 SWAP1 KECCAK256 SLOAD PUSH1 0x8 DUP1 SLOAD DUP4 SWAP2 SWAP1 DUP4 SWAP1 DUP2 LT PUSH2 0x1673 JUMPI PUSH2 0x1673 PUSH2 0x32A1 JUMP JUMPDEST PUSH1 0x0 SWAP2 DUP3 MSTORE PUSH1 0x20 DUP1 DUP4 KECCAK256 SWAP2 SWAP1 SWAP2 ADD DUP1 SLOAD PUSH1 0x1 PUSH1 0x1 PUSH1 0xA0 SHL SUB NOT AND PUSH1 0x1 PUSH1 0x1 PUSH1 0xA0 SHL SUB SWAP5 DUP6 AND OR SWAP1 SSTORE SWAP2 DUP5 AND DUP2 MSTORE PUSH1 0xB SWAP1 SWAP2 MSTORE PUSH1 0x40 SWAP1 KECCAK256 SSTORE JUMPDEST PUSH1 0x8 DUP1 SLOAD DUP1 PUSH2 0x16BC JUMPI PUSH2 0x16BC PUSH2 0x335E JUMP JUMPDEST PUSH1 0x0 DUP3 DUP2 MSTORE PUSH1 0x20 DUP2 KECCAK256 DUP3 ADD PUSH1 0x0 NOT SWAP1 DUP2 ADD DUP1 SLOAD PUSH1 0x1 PUSH1 0x1 PUSH1 0xA0 SHL SUB NOT AND SWAP1 SSTORE SWAP1 SWAP2 ADD SWAP1 SWAP2 SSTORE PUSH1 0x4 DUP1 SLOAD SWAP2 PUSH2 0x16EF DUP4 PUSH2 0x3347 JUMP JUMPDEST SWAP2 SWAP1 POP SSTORE POP POP POP JUMPDEST PUSH1 0x40 DUP1 MLOAD PUSH1 0x1 PUSH1 0x1 PUSH1 0xA0 SHL SUB DUP7 AND DUP2 MSTORE PUSH1 0x20 DUP2 ADD DUP5 SWAP1 MSTORE SWAP1 DUP2 ADD DUP5 SWAP1 MSTORE CALLER SWAP1 PUSH32 0x91FB9D98B786C57D74C099CCD2BECA1739E9F6A81FB49001CA465C4B7591BBE2 SWAP1 PUSH1 0x60 ADD PUSH1 0x40 MLOAD DUP1 SWAP2 SUB SWAP1 LOG2 POP POP POP POP POP POP POP POP PUSH2 0x12B1 PUSH1 0x1 PUSH1 0x0 DUP1 MLOAD PUSH1 0x20 PUSH2 0x33D1 DUP4 CODECOPY DUP2 MLOAD SWAP2 MSTORE SSTORE JUMP JUMPDEST PUSH1 0x8 DUP2 DUP2 SLOAD DUP2 LT PUSH2 0x1772 JUMPI PUSH1 0x0 DUP1 REVERT JUMPDEST PUSH1 0x0 SWAP2 DUP3 MSTORE PUSH1 0x20 SWAP1 SWAP2 KECCAK256 ADD SLOAD PUSH1 0x1 PUSH1 0x1 PUSH1 0xA0 SHL SUB AND SWAP1 POP DUP2 JUMP JUMPDEST PUSH2 0x1794 PUSH2 0x27E1 JUMP JUMPDEST PUSH1 0x0 DUP4 SWAP1 SSTORE PUSH1 0x1 DUP3 SWAP1 SSTORE PUSH1 0x2 DUP2 SWAP1 SSTORE PUSH1 0x40 DUP1 MLOAD DUP5 DUP2 MSTORE PUSH1 0x20 DUP2 ADD DUP5 SWAP1 MSTORE SWAP1 DUP2 ADD DUP3 SWAP1 MSTORE PUSH32 0xEFEEAE12018CAD4C8C8285CE10D106BD4084B37DDD067FB0B5BA5567D7F8D4EB SWAP1 PUSH1 0x60 ADD PUSH1 0x40 MLOAD DUP1 SWAP2 SUB SWAP1 LOG1 POP POP POP JUMP JUMPDEST PUSH32 0xF0C57E16840DF040F15088DC2F81FE391C3923BEC73E23A9662EFC9C229C6A00 DUP1 SLOAD PUSH1 0x1 PUSH1 0x40 SHL DUP2 DIV PUSH1 0xFF AND ISZERO SWAP1 PUSH8 0xFFFFFFFFFFFFFFFF AND PUSH1 0x0 DUP2 ISZERO DUP1 ISZERO PUSH2 0x182F JUMPI POP DUP3 JUMPDEST SWAP1 POP PUSH1 0x0 DUP3 PUSH8 0xFFFFFFFFFFFFFFFF AND PUSH1 0x1 EQ DUP1 ISZERO PUSH2 0x184C JUMPI POP ADDRESS EXTCODESIZE ISZERO JUMPDEST SWAP1 POP DUP2 ISZERO DUP1 ISZERO PUSH2 0x185A JUMPI POP DUP1 ISZERO JUMPDEST ISZERO PUSH2 0x1878 JUMPI PUSH1 0x40 MLOAD PUSH4 0xF92EE8A9 PUSH1 0xE0 SHL DUP2 MSTORE PUSH1 0x4 ADD PUSH1 0x40 MLOAD DUP1 SWAP2 SUB SWAP1 REVERT JUMPDEST DUP5 SLOAD PUSH8 0xFFFFFFFFFFFFFFFF NOT AND PUSH1 0x1 OR DUP6 SSTORE DUP4 ISZERO PUSH2 0x18A2 JUMPI DUP5 SLOAD PUSH1 0xFF PUSH1 0x40 SHL NOT AND PUSH1 0x1 PUSH1 0x40 SHL OR DUP6 SSTORE JUMPDEST PUSH2 0x18AB CALLER PUSH2 0x286D JUMP JUMPDEST PUSH2 0x18B3 PUSH2 0x287E JUMP JUMPDEST PUSH2 0x18BB PUSH2 0x2886 JUMP JUMPDEST PUSH1 0x0 DUP9 DUP2 SSTORE PUSH1 0x1 DUP9 DUP2 SSTORE PUSH1 0x2 DUP9 SWAP1 SSTORE PUSH1 0x3 DUP1 SLOAD PUSH1 0x1 PUSH1 0x1 PUSH1 0xA0 SHL SUB DUP14 AND PUSH1 0x1 PUSH1 0x1 PUSH1 0xA0 SHL SUB NOT SWAP2 DUP3 AND DUP2 OR SWAP1 SWAP3 SSTORE PUSH1 0x4 DUP5 SWAP1 SSTORE PUSH1 0x5 DUP5 SWAP1 SSTORE PUSH1 0x6 DUP4 SWAP1 SSTORE PUSH1 0x7 DUP1 SLOAD DUP1 DUP6 ADD SWAP1 SWAP2 SSTORE PUSH32 0xA66CC928B5EDB82AF9BD49922954155AB7B0942694BEA4CE44661D9A8736C688 ADD DUP1 SLOAD SWAP1 SWAP2 AND DUP3 OR SWAP1 SSTORE DUP1 DUP4 MSTORE PUSH1 0x9 PUSH1 0x20 SWAP1 DUP2 MSTORE PUSH1 0x40 SWAP4 DUP5 SWAP1 KECCAK256 DUP1 SLOAD PUSH1 0xFF NOT AND DUP5 OR SWAP1 SSTORE DUP4 MLOAD SWAP2 DUP3 MSTORE DUP2 ADD SWAP2 SWAP1 SWAP2 MSTORE PUSH1 0x0 DUP1 MLOAD PUSH1 0x20 PUSH2 0x33B1 DUP4 CODECOPY DUP2 MLOAD SWAP2 MSTORE SWAP2 ADD PUSH1 0x40 MLOAD DUP1 SWAP2 SUB SWAP1 LOG1 PUSH1 0x3 SLOAD PUSH1 0x40 MLOAD PUSH4 0x40C10F19 PUSH1 0xE0 SHL DUP2 MSTORE ADDRESS PUSH1 0x4 DUP3 ADD MSTORE PUSH11 0x84595161401484A000000 PUSH1 0x24 DUP3 ADD MSTORE PUSH1 0x1 PUSH1 0x1 PUSH1 0xA0 SHL SUB SWAP1 SWAP2 AND SWAP1 PUSH4 0x40C10F19 SWAP1 PUSH1 0x44 ADD PUSH1 0x0 PUSH1 0x40 MLOAD DUP1 DUP4 SUB DUP2 PUSH1 0x0 DUP8 DUP1 EXTCODESIZE ISZERO DUP1 ISZERO PUSH2 0x19C1 JUMPI PUSH1 0x0 DUP1 REVERT JUMPDEST POP GAS CALL ISZERO DUP1 ISZERO PUSH2 0x19D5 JUMPI RETURNDATASIZE PUSH1 0x0 DUP1 RETURNDATACOPY RETURNDATASIZE PUSH1 0x0 REVERT JUMPDEST POP POP POP POP DUP4 ISZERO PUSH2 0x1A1F JUMPI DUP5 SLOAD PUSH1 0xFF PUSH1 0x40 SHL NOT AND DUP6 SSTORE PUSH1 0x40 MLOAD PUSH1 0x1 DUP2 MSTORE PUSH32 0xC7F505B2F371AE2175EE4913F4499E1F2633A7B5936321EED1CDAEB6115181D2 SWAP1 PUSH1 0x20 ADD PUSH1 0x40 MLOAD DUP1 SWAP2 SUB SWAP1 LOG1 JUMPDEST POP POP POP POP POP POP POP POP POP JUMP JUMPDEST PUSH2 0x1A32 PUSH2 0x2896 JUMP JUMPDEST PUSH2 0x1A3B DUP3 PUSH2 0x293B JUMP JUMPDEST PUSH2 0x1A45 DUP3 DUP3 PUSH2 0x2943 JUMP JUMPDEST POP POP JUMP JUMPDEST PUSH2 0x1A51 PUSH2 0x27E1 JUMP JUMPDEST PUSH1 0x1 PUSH1 0x1 PUSH1 0xA0 SHL SUB DUP5 AND PUSH1 0x0 SWAP1 DUP2 MSTORE PUSH1 0x9 PUSH1 0x20 MSTORE PUSH1 0x40 SWAP1 KECCAK256 SLOAD PUSH1 0xFF AND PUSH2 0x1AAD JUMPI PUSH1 0x40 MLOAD PUSH3 0x461BCD PUSH1 0xE5 SHL DUP2 MSTORE PUSH1 0x20 PUSH1 0x4 DUP3 ADD MSTORE PUSH1 0x11 PUSH1 0x24 DUP3 ADD MSTORE PUSH17 0x151BDAD95B881B9BDD08185B1B1BDDD959 PUSH1 0x7A SHL PUSH1 0x44 DUP3 ADD MSTORE PUSH1 0x64 ADD PUSH2 0x8A0 JUMP JUMPDEST PUSH1 0x6 DUP1 SLOAD PUSH1 0x0 SWAP2 DUP3 PUSH2 0x1ABE DUP4 PUSH2 0x3288 JUMP JUMPDEST SWAP1 SWAP2 SSTORE POP PUSH1 0x40 DUP1 MLOAD PUSH1 0xE0 DUP2 ADD DUP3 MSTORE PUSH1 0x1 PUSH1 0x1 PUSH1 0xA0 SHL SUB DUP1 DUP11 AND DUP1 DUP4 MSTORE SWAP1 DUP10 AND PUSH1 0x20 DUP1 DUP5 ADD SWAP2 SWAP1 SWAP2 MSTORE DUP3 DUP5 ADD DUP6 SWAP1 MSTORE PUSH1 0x60 DUP4 ADD DUP10 SWAP1 MSTORE PUSH1 0x80 DUP4 ADD DUP9 SWAP1 MSTORE PUSH1 0xA0 DUP4 ADD DUP8 SWAP1 MSTORE PUSH1 0x0 PUSH1 0xC0 DUP5 ADD DUP2 SWAP1 MSTORE SWAP2 DUP3 MSTORE PUSH1 0xD SWAP1 MSTORE SWAP2 DUP3 KECCAK256 SLOAD SWAP3 SWAP4 POP SWAP2 SWAP1 SUB PUSH2 0x1B90 JUMPI PUSH1 0x8 DUP1 SLOAD PUSH1 0x1 PUSH1 0x1 PUSH1 0xA0 SHL SUB DUP10 AND PUSH1 0x0 DUP2 DUP2 MSTORE PUSH1 0xB PUSH1 0x20 MSTORE PUSH1 0x40 DUP2 KECCAK256 DUP4 SWAP1 SSTORE PUSH1 0x1 DUP4 ADD DUP5 SSTORE SWAP3 DUP4 MSTORE PUSH32 0xF3F7A9FE364FAAB93B216DA50A3214154F22A0A2B415B23A84C8169E8B636EE3 SWAP1 SWAP2 ADD DUP1 SLOAD PUSH1 0x1 PUSH1 0x1 PUSH1 0xA0 SHL SUB NOT AND SWAP1 SWAP2 OR SWAP1 SSTORE PUSH1 0x4 DUP1 SLOAD SWAP2 PUSH2 0x1B8A DUP4 PUSH2 0x3288 JUMP JUMPDEST SWAP2 SWAP1 POP SSTORE POP JUMPDEST PUSH1 0x1 PUSH1 0x1 PUSH1 0xA0 SHL SUB DUP1 DUP9 AND PUSH1 0x0 DUP2 DUP2 MSTORE PUSH1 0xD PUSH1 0x20 SWAP1 DUP2 MSTORE PUSH1 0x40 DUP1 DUP4 KECCAK256 DUP1 SLOAD PUSH1 0x1 DUP2 DUP2 ADD DUP4 SSTORE SWAP2 DUP6 MSTORE DUP4 DUP6 KECCAK256 DUP9 MLOAD PUSH1 0x7 SWAP1 SWAP3 MUL ADD DUP1 SLOAD SWAP2 DUP9 AND PUSH1 0x1 PUSH1 0x1 PUSH1 0xA0 SHL SUB NOT SWAP3 DUP4 AND OR DUP2 SSTORE DUP9 DUP6 ADD MLOAD SWAP3 DUP2 ADD DUP1 SLOAD SWAP4 SWAP1 SWAP9 AND SWAP3 DUP3 AND SWAP3 SWAP1 SWAP3 OR SWAP1 SWAP7 SSTORE DUP7 DUP3 ADD MLOAD PUSH1 0x2 DUP3 ADD SSTORE PUSH1 0x60 DUP8 ADD MLOAD PUSH1 0x3 DUP3 ADD SSTORE PUSH1 0x80 DUP8 ADD MLOAD PUSH1 0x4 DUP3 ADD SSTORE PUSH1 0xA0 DUP8 ADD MLOAD PUSH1 0x5 DUP3 ADD SSTORE PUSH1 0xC0 DUP8 ADD MLOAD PUSH1 0x6 SWAP1 SWAP2 ADD DUP1 SLOAD SWAP2 ISZERO ISZERO PUSH1 0xFF NOT SWAP1 SWAP3 AND SWAP2 SWAP1 SWAP2 OR SWAP1 SSTORE DUP7 DUP4 MSTORE PUSH1 0xE DUP3 MSTORE DUP1 DUP4 KECCAK256 DUP1 SLOAD SWAP1 SWAP6 AND DUP5 OR SWAP1 SWAP5 SSTORE SWAP2 DUP2 MSTORE PUSH1 0xA SWAP1 SWAP2 MSTORE SWAP1 DUP2 KECCAK256 DUP1 SLOAD SWAP2 PUSH2 0x1C5B DUP4 PUSH2 0x3288 JUMP JUMPDEST SWAP2 SWAP1 POP SSTORE POP DUP5 PUSH1 0x5 PUSH1 0x0 DUP3 DUP3 SLOAD PUSH2 0x1C72 SWAP2 SWAP1 PUSH2 0x3275 JUMP JUMPDEST SWAP1 SWAP2 SSTORE POP POP PUSH1 0x1 PUSH1 0x1 PUSH1 0xA0 SHL SUB DUP1 DUP9 AND PUSH1 0x0 SWAP1 DUP2 MSTORE PUSH1 0xC PUSH1 0x20 SWAP1 DUP2 MSTORE PUSH1 0x40 DUP1 DUP4 KECCAK256 SWAP4 DUP11 AND DUP4 MSTORE SWAP3 SWAP1 MSTORE SWAP1 DUP2 KECCAK256 DUP1 SLOAD DUP8 SWAP3 SWAP1 PUSH2 0x1CAE SWAP1 DUP5 SWAP1 PUSH2 0x3275 JUMP JUMPDEST SWAP1 SWAP2 SSTORE POP POP POP POP POP POP POP POP POP JUMP JUMPDEST PUSH1 0x0 PUSH2 0x1CC6 PUSH2 0x2A00 JUMP JUMPDEST POP PUSH1 0x0 DUP1 MLOAD PUSH1 0x20 PUSH2 0x3391 DUP4 CODECOPY DUP2 MLOAD SWAP2 MSTORE SWAP1 JUMP JUMPDEST PUSH2 0x1CE1 PUSH2 0x27E1 JUMP JUMPDEST PUSH1 0x1 PUSH1 0x1 PUSH1 0xA0 SHL SUB DUP3 AND PUSH1 0x0 DUP2 DUP2 MSTORE PUSH1 0x9 PUSH1 0x20 SWAP1 DUP2 MSTORE PUSH1 0x40 SWAP2 DUP3 SWAP1 KECCAK256 DUP1 SLOAD PUSH1 0xFF NOT AND DUP6 ISZERO ISZERO SWAP1 DUP2 OR SWAP1 SWAP2 SSTORE DUP3 MLOAD SWAP4 DUP5 MSTORE SWAP1 DUP4 ADD MSTORE PUSH1 0x0 DUP1 MLOAD PUSH1 0x20 PUSH2 0x33B1 DUP4 CODECOPY DUP2 MLOAD SWAP2 MSTORE SWAP2 ADD PUSH1 0x40 MLOAD DUP1 SWAP2 SUB SWAP1 LOG1 POP POP JUMP JUMPDEST PUSH1 0x7 DUP2 DUP2 SLOAD DUP2 LT PUSH2 0x1772 JUMPI PUSH1 0x0 DUP1 REVERT JUMPDEST PUSH1 0x60 PUSH1 0x0 DUP1 JUMPDEST PUSH1 0x8 SLOAD DUP2 LT ISZERO PUSH2 0x1E85 JUMPI PUSH1 0x0 PUSH1 0xD PUSH1 0x0 PUSH1 0x8 DUP5 DUP2 SLOAD DUP2 LT PUSH2 0x1D6B JUMPI PUSH2 0x1D6B PUSH2 0x32A1 JUMP JUMPDEST PUSH1 0x0 SWAP2 DUP3 MSTORE PUSH1 0x20 DUP1 DUP4 KECCAK256 SWAP1 SWAP2 ADD SLOAD PUSH1 0x1 PUSH1 0x1 PUSH1 0xA0 SHL SUB AND DUP4 MSTORE DUP3 DUP2 ADD SWAP4 SWAP1 SWAP4 MSTORE PUSH1 0x40 SWAP2 DUP3 ADD DUP2 KECCAK256 DUP1 SLOAD DUP4 MLOAD DUP2 DUP7 MUL DUP2 ADD DUP7 ADD SWAP1 SWAP5 MSTORE DUP1 DUP5 MSTORE SWAP3 SWAP4 SWAP1 SWAP3 SWAP2 SWAP1 DUP5 ADD JUMPDEST DUP3 DUP3 LT ISZERO PUSH2 0x1E31 JUMPI PUSH1 0x0 DUP5 DUP2 MSTORE PUSH1 0x20 SWAP1 DUP2 SWAP1 KECCAK256 PUSH1 0x40 DUP1 MLOAD PUSH1 0xE0 DUP2 ADD DUP3 MSTORE PUSH1 0x7 DUP7 MUL SWAP1 SWAP3 ADD DUP1 SLOAD PUSH1 0x1 PUSH1 0x1 PUSH1 0xA0 SHL SUB SWAP1 DUP2 AND DUP5 MSTORE PUSH1 0x1 DUP1 DUP4 ADD SLOAD SWAP1 SWAP2 AND DUP5 DUP7 ADD MSTORE PUSH1 0x2 DUP3 ADD SLOAD SWAP3 DUP5 ADD SWAP3 SWAP1 SWAP3 MSTORE PUSH1 0x3 DUP2 ADD SLOAD PUSH1 0x60 DUP5 ADD MSTORE PUSH1 0x4 DUP2 ADD SLOAD PUSH1 0x80 DUP5 ADD MSTORE PUSH1 0x5 DUP2 ADD SLOAD PUSH1 0xA0 DUP5 ADD MSTORE PUSH1 0x6 ADD SLOAD PUSH1 0xFF AND ISZERO ISZERO PUSH1 0xC0 DUP4 ADD MSTORE SWAP1 DUP4 MSTORE SWAP1 SWAP3 ADD SWAP2 ADD PUSH2 0x1DAC JUMP JUMPDEST POP POP POP POP SWAP1 POP PUSH1 0x0 JUMPDEST DUP2 MLOAD DUP2 LT ISZERO PUSH2 0x1E7B JUMPI DUP2 DUP2 DUP2 MLOAD DUP2 LT PUSH2 0x1E55 JUMPI PUSH2 0x1E55 PUSH2 0x32A1 JUMP JUMPDEST PUSH1 0x20 MUL PUSH1 0x20 ADD ADD MLOAD PUSH1 0xC0 ADD MLOAD PUSH2 0x1E73 JUMPI DUP4 PUSH2 0x1E6F DUP2 PUSH2 0x3288 JUMP JUMPDEST SWAP5 POP POP JUMPDEST PUSH1 0x1 ADD PUSH2 0x1E3A JUMP JUMPDEST POP POP PUSH1 0x1 ADD PUSH2 0x1D48 JUMP JUMPDEST POP DUP1 PUSH8 0xFFFFFFFFFFFFFFFF DUP2 GT ISZERO PUSH2 0x1E9F JUMPI PUSH2 0x1E9F PUSH2 0x2EED JUMP JUMPDEST PUSH1 0x40 MLOAD SWAP1 DUP1 DUP3 MSTORE DUP1 PUSH1 0x20 MUL PUSH1 0x20 ADD DUP3 ADD PUSH1 0x40 MSTORE DUP1 ISZERO PUSH2 0x1ED8 JUMPI DUP2 PUSH1 0x20 ADD JUMPDEST PUSH2 0x1EC5 PUSH2 0x2D5C JUMP JUMPDEST DUP2 MSTORE PUSH1 0x20 ADD SWAP1 PUSH1 0x1 SWAP1 SUB SWAP1 DUP2 PUSH2 0x1EBD JUMPI SWAP1 POP JUMPDEST POP SWAP2 POP PUSH1 0x0 DUP1 JUMPDEST PUSH1 0x8 SLOAD DUP2 LT ISZERO PUSH2 0x2054 JUMPI PUSH1 0x0 PUSH1 0xD PUSH1 0x0 PUSH1 0x8 DUP5 DUP2 SLOAD DUP2 LT PUSH2 0x1F02 JUMPI PUSH2 0x1F02 PUSH2 0x32A1 JUMP JUMPDEST PUSH1 0x0 SWAP2 DUP3 MSTORE PUSH1 0x20 DUP1 DUP4 KECCAK256 SWAP1 SWAP2 ADD SLOAD PUSH1 0x1 PUSH1 0x1 PUSH1 0xA0 SHL SUB AND DUP4 MSTORE DUP3 DUP2 ADD SWAP4 SWAP1 SWAP4 MSTORE PUSH1 0x40 SWAP2 DUP3 ADD DUP2 KECCAK256 DUP1 SLOAD DUP4 MLOAD DUP2 DUP7 MUL DUP2 ADD DUP7 ADD SWAP1 SWAP5 MSTORE DUP1 DUP5 MSTORE SWAP3 SWAP4 SWAP1 SWAP3 SWAP2 SWAP1 DUP5 ADD JUMPDEST DUP3 DUP3 LT ISZERO PUSH2 0x1FC8 JUMPI PUSH1 0x0 DUP5 DUP2 MSTORE PUSH1 0x20 SWAP1 DUP2 SWAP1 KECCAK256 PUSH1 0x40 DUP1 MLOAD PUSH1 0xE0 DUP2 ADD DUP3 MSTORE PUSH1 0x7 DUP7 MUL SWAP1 SWAP3 ADD DUP1 SLOAD PUSH1 0x1 PUSH1 0x1 PUSH1 0xA0 SHL SUB SWAP1 DUP2 AND DUP5 MSTORE PUSH1 0x1 DUP1 DUP4 ADD SLOAD SWAP1 SWAP2 AND DUP5 DUP7 ADD MSTORE PUSH1 0x2 DUP3 ADD SLOAD SWAP3 DUP5 ADD SWAP3 SWAP1 SWAP3 MSTORE PUSH1 0x3 DUP2 ADD SLOAD PUSH1 0x60 DUP5 ADD MSTORE PUSH1 0x4 DUP2 ADD SLOAD PUSH1 0x80 DUP5 ADD MSTORE PUSH1 0x5 DUP2 ADD SLOAD PUSH1 0xA0 DUP5 ADD MSTORE PUSH1 0x6 ADD SLOAD PUSH1 0xFF AND ISZERO ISZERO PUSH1 0xC0 DUP4 ADD MSTORE SWAP1 DUP4 MSTORE SWAP1 SWAP3 ADD SWAP2 ADD PUSH2 0x1F43 JUMP JUMPDEST POP POP POP POP SWAP1 POP PUSH1 0x0 JUMPDEST DUP2 MLOAD DUP2 LT ISZERO PUSH2 0x204A JUMPI DUP2 DUP2 DUP2 MLOAD DUP2 LT PUSH2 0x1FEC JUMPI PUSH2 0x1FEC PUSH2 0x32A1 JUMP JUMPDEST PUSH1 0x20 MUL PUSH1 0x20 ADD ADD MLOAD PUSH1 0xC0 ADD MLOAD PUSH2 0x2042 JUMPI DUP2 DUP2 DUP2 MLOAD DUP2 LT PUSH2 0x200E JUMPI PUSH2 0x200E PUSH2 0x32A1 JUMP JUMPDEST PUSH1 0x20 MUL PUSH1 0x20 ADD ADD MLOAD DUP7 DUP6 DUP2 MLOAD DUP2 LT PUSH2 0x2028 JUMPI PUSH2 0x2028 PUSH2 0x32A1 JUMP JUMPDEST PUSH1 0x20 MUL PUSH1 0x20 ADD ADD DUP2 SWAP1 MSTORE POP DUP4 DUP1 PUSH2 0x203E SWAP1 PUSH2 0x3288 JUMP JUMPDEST SWAP5 POP POP JUMPDEST PUSH1 0x1 ADD PUSH2 0x1FD1 JUMP JUMPDEST POP POP PUSH1 0x1 ADD PUSH2 0x1EDF JUMP JUMPDEST POP POP POP SWAP1 JUMP JUMPDEST PUSH2 0x2062 PUSH2 0x27E1 JUMP JUMPDEST PUSH2 0x206C PUSH1 0x0 PUSH2 0x2A49 JUMP JUMPDEST JUMP JUMPDEST PUSH1 0x60 DUP1 PUSH1 0x0 DUP1 JUMPDEST PUSH1 0x7 SLOAD DUP2 LT ISZERO PUSH2 0x20E2 JUMPI PUSH1 0x0 PUSH1 0x7 DUP3 DUP2 SLOAD DUP2 LT PUSH2 0x2094 JUMPI PUSH2 0x2094 PUSH2 0x32A1 JUMP JUMPDEST PUSH1 0x0 SWAP2 DUP3 MSTORE PUSH1 0x20 DUP1 DUP4 KECCAK256 SWAP1 SWAP2 ADD SLOAD CALLER DUP4 MSTORE PUSH1 0xC DUP3 MSTORE PUSH1 0x40 DUP1 DUP5 KECCAK256 PUSH1 0x1 PUSH1 0x1 PUSH1 0xA0 SHL SUB SWAP1 SWAP3 AND DUP1 DUP6 MSTORE SWAP2 SWAP1 SWAP3 MSTORE SWAP2 KECCAK256 SLOAD SWAP1 SWAP2 POP ISZERO PUSH2 0x20D9 JUMPI DUP3 PUSH2 0x20D5 DUP2 PUSH2 0x3288 JUMP JUMPDEST SWAP4 POP POP JUMPDEST POP PUSH1 0x1 ADD PUSH2 0x2075 JUMP JUMPDEST POP DUP1 PUSH8 0xFFFFFFFFFFFFFFFF DUP2 GT ISZERO PUSH2 0x20FC JUMPI PUSH2 0x20FC PUSH2 0x2EED JUMP JUMPDEST PUSH1 0x40 MLOAD SWAP1 DUP1 DUP3 MSTORE DUP1 PUSH1 0x20 MUL PUSH1 0x20 ADD DUP3 ADD PUSH1 0x40 MSTORE DUP1 ISZERO PUSH2 0x2125 JUMPI DUP2 PUSH1 0x20 ADD PUSH1 0x20 DUP3 MUL DUP1 CALLDATASIZE DUP4 CALLDATACOPY ADD SWAP1 POP JUMPDEST POP SWAP3 POP DUP1 PUSH8 0xFFFFFFFFFFFFFFFF DUP2 GT ISZERO PUSH2 0x2141 JUMPI PUSH2 0x2141 PUSH2 0x2EED JUMP JUMPDEST PUSH1 0x40 MLOAD SWAP1 DUP1 DUP3 MSTORE DUP1 PUSH1 0x20 MUL PUSH1 0x20 ADD DUP3 ADD PUSH1 0x40 MSTORE DUP1 ISZERO PUSH2 0x216A JUMPI DUP2 PUSH1 0x20 ADD PUSH1 0x20 DUP3 MUL DUP1 CALLDATASIZE DUP4 CALLDATACOPY ADD SWAP1 POP JUMPDEST POP SWAP2 POP PUSH1 0x0 DUP1 JUMPDEST PUSH1 0x7 SLOAD DUP2 LT ISZERO PUSH2 0x2244 JUMPI PUSH1 0x0 PUSH1 0x7 DUP3 DUP2 SLOAD DUP2 LT PUSH2 0x2190 JUMPI PUSH2 0x2190 PUSH2 0x32A1 JUMP JUMPDEST PUSH1 0x0 SWAP2 DUP3 MSTORE PUSH1 0x20 DUP1 DUP4 KECCAK256 SWAP1 SWAP2 ADD SLOAD CALLER DUP4 MSTORE PUSH1 0xC DUP3 MSTORE PUSH1 0x40 DUP1 DUP5 KECCAK256 PUSH1 0x1 PUSH1 0x1 PUSH1 0xA0 SHL SUB SWAP1 SWAP3 AND DUP1 DUP6 MSTORE SWAP2 SWAP1 SWAP3 MSTORE SWAP2 KECCAK256 SLOAD SWAP1 SWAP2 POP ISZERO PUSH2 0x223B JUMPI DUP1 DUP7 DUP5 DUP2 MLOAD DUP2 LT PUSH2 0x21DA JUMPI PUSH2 0x21DA PUSH2 0x32A1 JUMP JUMPDEST PUSH1 0x1 PUSH1 0x1 PUSH1 0xA0 SHL SUB SWAP3 DUP4 AND PUSH1 0x20 SWAP2 DUP3 MUL SWAP3 SWAP1 SWAP3 ADD DUP2 ADD SWAP2 SWAP1 SWAP2 MSTORE CALLER PUSH1 0x0 SWAP1 DUP2 MSTORE PUSH1 0xC DUP3 MSTORE PUSH1 0x40 DUP1 DUP3 KECCAK256 SWAP4 DUP6 AND DUP3 MSTORE SWAP3 SWAP1 SWAP2 MSTORE KECCAK256 SLOAD DUP6 MLOAD DUP7 SWAP1 DUP6 SWAP1 DUP2 LT PUSH2 0x2222 JUMPI PUSH2 0x2222 PUSH2 0x32A1 JUMP JUMPDEST PUSH1 0x20 SWAP1 DUP2 MUL SWAP2 SWAP1 SWAP2 ADD ADD MSTORE DUP3 PUSH2 0x2237 DUP2 PUSH2 0x3288 JUMP JUMPDEST SWAP4 POP POP JUMPDEST POP PUSH1 0x1 ADD PUSH2 0x2171 JUMP JUMPDEST POP POP POP SWAP1 SWAP2 JUMP JUMPDEST PUSH2 0x2253 PUSH2 0x27E1 JUMP JUMPDEST PUSH1 0x0 DUP1 DUP1 JUMPDEST PUSH1 0x7 SLOAD DUP2 LT ISZERO PUSH2 0x22AD JUMPI DUP4 PUSH1 0x1 PUSH1 0x1 PUSH1 0xA0 SHL SUB AND PUSH1 0x7 DUP3 DUP2 SLOAD DUP2 LT PUSH2 0x227F JUMPI PUSH2 0x227F PUSH2 0x32A1 JUMP JUMPDEST PUSH1 0x0 SWAP2 DUP3 MSTORE PUSH1 0x20 SWAP1 SWAP2 KECCAK256 ADD SLOAD PUSH1 0x1 PUSH1 0x1 PUSH1 0xA0 SHL SUB AND SUB PUSH2 0x22A5 JUMPI DUP1 SWAP3 POP PUSH1 0x1 SWAP2 POP PUSH2 0x22AD JUMP JUMPDEST PUSH1 0x1 ADD PUSH2 0x2258 JUMP JUMPDEST POP DUP1 PUSH2 0x2305 JUMPI PUSH1 0x40 MLOAD PUSH3 0x461BCD PUSH1 0xE5 SHL DUP2 MSTORE PUSH1 0x20 PUSH1 0x4 DUP3 ADD MSTORE PUSH1 0x21 PUSH1 0x24 DUP3 ADD MSTORE PUSH32 0x546F6B656E206E6F7420666F756E6420696E20616C6C6F77656420746F6B656E PUSH1 0x44 DUP3 ADD MSTORE PUSH1 0x73 PUSH1 0xF8 SHL PUSH1 0x64 DUP3 ADD MSTORE PUSH1 0x84 ADD PUSH2 0x8A0 JUMP JUMPDEST PUSH1 0x0 PUSH2 0x230F PUSH2 0x1D42 JUMP JUMPDEST SWAP1 POP PUSH1 0x0 JUMPDEST DUP2 MLOAD DUP2 LT ISZERO PUSH2 0x23BF JUMPI DUP5 PUSH1 0x1 PUSH1 0x1 PUSH1 0xA0 SHL SUB AND DUP3 DUP3 DUP2 MLOAD DUP2 LT PUSH2 0x2339 JUMPI PUSH2 0x2339 PUSH2 0x32A1 JUMP JUMPDEST PUSH1 0x20 MUL PUSH1 0x20 ADD ADD MLOAD PUSH1 0x20 ADD MLOAD PUSH1 0x1 PUSH1 0x1 PUSH1 0xA0 SHL SUB AND SUB PUSH2 0x23B7 JUMPI PUSH1 0x40 MLOAD PUSH3 0x461BCD PUSH1 0xE5 SHL DUP2 MSTORE PUSH1 0x20 PUSH1 0x4 DUP3 ADD MSTORE PUSH1 0x33 PUSH1 0x24 DUP3 ADD MSTORE PUSH32 0x546F6B656E2068617320616E2061637469766520706F736974696F6E2E204361 PUSH1 0x44 DUP3 ADD MSTORE PUSH19 0x6E6E6F742062652072656D6F766564206E6F77 PUSH1 0x68 SHL PUSH1 0x64 DUP3 ADD MSTORE PUSH1 0x84 ADD PUSH2 0x8A0 JUMP JUMPDEST PUSH1 0x1 ADD PUSH2 0x2314 JUMP JUMPDEST POP PUSH1 0x7 SLOAD PUSH1 0x0 SWAP1 PUSH2 0x23D2 SWAP1 PUSH1 0x1 SWAP1 PUSH2 0x3262 JUMP JUMPDEST SWAP1 POP DUP1 DUP5 EQ PUSH2 0x2449 JUMPI PUSH1 0x7 DUP2 DUP2 SLOAD DUP2 LT PUSH2 0x23EE JUMPI PUSH2 0x23EE PUSH2 0x32A1 JUMP JUMPDEST PUSH1 0x0 SWAP2 DUP3 MSTORE PUSH1 0x20 SWAP1 SWAP2 KECCAK256 ADD SLOAD PUSH1 0x7 DUP1 SLOAD PUSH1 0x1 PUSH1 0x1 PUSH1 0xA0 SHL SUB SWAP1 SWAP3 AND SWAP2 DUP7 SWAP1 DUP2 LT PUSH2 0x241A JUMPI PUSH2 0x241A PUSH2 0x32A1 JUMP JUMPDEST SWAP1 PUSH1 0x0 MSTORE PUSH1 0x20 PUSH1 0x0 KECCAK256 ADD PUSH1 0x0 PUSH2 0x100 EXP DUP2 SLOAD DUP2 PUSH1 0x1 PUSH1 0x1 PUSH1 0xA0 SHL SUB MUL NOT AND SWAP1 DUP4 PUSH1 0x1 PUSH1 0x1 PUSH1 0xA0 SHL SUB AND MUL OR SWAP1 SSTORE POP JUMPDEST PUSH1 0x7 DUP1 SLOAD DUP1 PUSH2 0x245A JUMPI PUSH2 0x245A PUSH2 0x335E JUMP JUMPDEST PUSH1 0x0 DUP3 DUP2 MSTORE PUSH1 0x20 DUP1 DUP3 KECCAK256 PUSH1 0x0 NOT SWAP1 DUP5 ADD DUP2 ADD DUP1 SLOAD PUSH1 0x1 PUSH1 0x1 PUSH1 0xA0 SHL SUB NOT AND SWAP1 SSTORE SWAP1 SWAP3 ADD SWAP1 SWAP3 SSTORE PUSH1 0x1 PUSH1 0x1 PUSH1 0xA0 SHL SUB DUP8 AND DUP1 DUP4 MSTORE PUSH1 0x9 DUP3 MSTORE PUSH1 0x40 DUP1 DUP5 KECCAK256 DUP1 SLOAD PUSH1 0xFF NOT AND SWAP1 SSTORE DUP1 MLOAD SWAP2 DUP3 MSTORE SWAP2 DUP2 ADD SWAP3 SWAP1 SWAP3 MSTORE PUSH1 0x0 DUP1 MLOAD PUSH1 0x20 PUSH2 0x33B1 DUP4 CODECOPY DUP2 MLOAD SWAP2 MSTORE SWAP2 ADD PUSH1 0x40 MLOAD DUP1 SWAP2 SUB SWAP1 LOG1 POP POP POP POP POP JUMP JUMPDEST PUSH1 0x0 SLOAD PUSH4 0xBBF81E00 DUP3 DUP5 MUL SWAP1 SWAP2 MUL DIV JUMPDEST SWAP3 SWAP2 POP POP JUMP JUMPDEST PUSH1 0xD PUSH1 0x20 MSTORE DUP2 PUSH1 0x0 MSTORE PUSH1 0x40 PUSH1 0x0 KECCAK256 DUP2 DUP2 SLOAD DUP2 LT PUSH2 0x24FC JUMPI PUSH1 0x0 DUP1 REVERT JUMPDEST PUSH1 0x0 SWAP2 DUP3 MSTORE PUSH1 0x20 SWAP1 SWAP2 KECCAK256 PUSH1 0x7 SWAP1 SWAP2 MUL ADD DUP1 SLOAD PUSH1 0x1 DUP3 ADD SLOAD PUSH1 0x2 DUP4 ADD SLOAD PUSH1 0x3 DUP5 ADD SLOAD PUSH1 0x4 DUP6 ADD SLOAD PUSH1 0x5 DUP7 ADD SLOAD PUSH1 0x6 SWAP1 SWAP7 ADD SLOAD PUSH1 0x1 PUSH1 0x1 PUSH1 0xA0 SHL SUB SWAP6 DUP7 AND SWAP9 POP SWAP5 SWAP1 SWAP4 AND SWAP6 POP SWAP1 SWAP4 SWAP1 SWAP3 PUSH1 0xFF AND DUP8 JUMP JUMPDEST PUSH2 0x2552 PUSH2 0x2D5C JUMP JUMPDEST PUSH1 0x0 DUP3 DUP2 MSTORE PUSH1 0xE PUSH1 0x20 MSTORE PUSH1 0x40 SWAP1 KECCAK256 SLOAD PUSH1 0x1 PUSH1 0x1 PUSH1 0xA0 SHL SUB AND DUP1 PUSH2 0x25B7 JUMPI PUSH1 0x40 MLOAD PUSH3 0x461BCD PUSH1 0xE5 SHL DUP2 MSTORE PUSH1 0x20 PUSH1 0x4 DUP3 ADD MSTORE PUSH1 0x17 PUSH1 0x24 DUP3 ADD MSTORE PUSH32 0x506F736974696F6E20646F6573206E6F74206578697374000000000000000000 PUSH1 0x44 DUP3 ADD MSTORE PUSH1 0x64 ADD PUSH2 0x8A0 JUMP JUMPDEST PUSH1 0x1 PUSH1 0x1 PUSH1 0xA0 SHL SUB DUP2 AND PUSH1 0x0 SWAP1 DUP2 MSTORE PUSH1 0xD PUSH1 0x20 SWAP1 DUP2 MSTORE PUSH1 0x40 DUP1 DUP4 KECCAK256 DUP1 SLOAD DUP3 MLOAD DUP2 DUP6 MUL DUP2 ADD DUP6 ADD SWAP1 SWAP4 MSTORE DUP1 DUP4 MSTORE SWAP2 SWAP3 SWAP1 SWAP2 SWAP1 DUP5 SWAP1 DUP5 ADD JUMPDEST DUP3 DUP3 LT ISZERO PUSH2 0x2672 JUMPI PUSH1 0x0 DUP5 DUP2 MSTORE PUSH1 0x20 SWAP1 DUP2 SWAP1 KECCAK256 PUSH1 0x40 DUP1 MLOAD PUSH1 0xE0 DUP2 ADD DUP3 MSTORE PUSH1 0x7 DUP7 MUL SWAP1 SWAP3 ADD DUP1 SLOAD PUSH1 0x1 PUSH1 0x1 PUSH1 0xA0 SHL SUB SWAP1 DUP2 AND DUP5 MSTORE PUSH1 0x1 DUP1 DUP4 ADD SLOAD SWAP1 SWAP2 AND DUP5 DUP7 ADD MSTORE PUSH1 0x2 DUP3 ADD SLOAD SWAP3 DUP5 ADD SWAP3 SWAP1 SWAP3 MSTORE PUSH1 0x3 DUP2 ADD SLOAD PUSH1 0x60 DUP5 ADD MSTORE PUSH1 0x4 DUP2 ADD SLOAD PUSH1 0x80 DUP5 ADD MSTORE PUSH1 0x5 DUP2 ADD SLOAD PUSH1 0xA0 DUP5 ADD MSTORE PUSH1 0x6 ADD SLOAD PUSH1 0xFF AND ISZERO ISZERO PUSH1 0xC0 DUP4 ADD MSTORE SWAP1 DUP4 MSTORE SWAP1 SWAP3 ADD SWAP2 ADD PUSH2 0x25ED JUMP JUMPDEST POP POP POP POP SWAP1 POP PUSH1 0x0 JUMPDEST DUP2 MLOAD DUP2 LT ISZERO PUSH2 0x26D4 JUMPI DUP5 DUP3 DUP3 DUP2 MLOAD DUP2 LT PUSH2 0x2697 JUMPI PUSH2 0x2697 PUSH2 0x32A1 JUMP JUMPDEST PUSH1 0x20 MUL PUSH1 0x20 ADD ADD MLOAD PUSH1 0x40 ADD MLOAD SUB PUSH2 0x26CC JUMPI DUP2 DUP2 DUP2 MLOAD DUP2 LT PUSH2 0x26BA JUMPI PUSH2 0x26BA PUSH2 0x32A1 JUMP JUMPDEST PUSH1 0x20 MUL PUSH1 0x20 ADD ADD MLOAD SWAP4 POP POP POP POP SWAP2 SWAP1 POP JUMP JUMPDEST PUSH1 0x1 ADD PUSH2 0x267B JUMP JUMPDEST POP PUSH1 0x40 MLOAD PUSH3 0x461BCD PUSH1 0xE5 SHL DUP2 MSTORE PUSH1 0x4 ADD PUSH2 0x8A0 SWAP1 PUSH2 0x32B7 JUMP JUMPDEST PUSH2 0x26F5 PUSH2 0x27E1 JUMP JUMPDEST PUSH1 0x1 PUSH1 0x1 PUSH1 0xA0 SHL SUB DUP2 AND PUSH2 0x271F JUMPI PUSH1 0x40 MLOAD PUSH4 0x1E4FBDF7 PUSH1 0xE0 SHL DUP2 MSTORE PUSH1 0x0 PUSH1 0x4 DUP3 ADD MSTORE PUSH1 0x24 ADD PUSH2 0x8A0 JUMP JUMPDEST PUSH2 0x12B1 DUP2 PUSH2 0x2A49 JUMP JUMPDEST PUSH1 0x0 DUP1 MLOAD PUSH1 0x20 PUSH2 0x33D1 DUP4 CODECOPY DUP2 MLOAD SWAP2 MSTORE DUP1 SLOAD PUSH1 0x1 NOT ADD PUSH2 0x275A JUMPI PUSH1 0x40 MLOAD PUSH4 0x3EE5AEB5 PUSH1 0xE0 SHL DUP2 MSTORE PUSH1 0x4 ADD PUSH1 0x40 MLOAD DUP1 SWAP2 SUB SWAP1 REVERT JUMPDEST PUSH1 0x2 SWAP1 SSTORE JUMP JUMPDEST PUSH1 0x40 MLOAD PUSH1 0x1 PUSH1 0x1 PUSH1 0xA0 SHL SUB DUP5 DUP2 AND PUSH1 0x24 DUP4 ADD MSTORE DUP4 DUP2 AND PUSH1 0x44 DUP4 ADD MSTORE PUSH1 0x64 DUP3 ADD DUP4 SWAP1 MSTORE PUSH2 0x27C7 SWAP2 DUP7 SWAP2 DUP3 AND SWAP1 PUSH4 0x23B872DD SWAP1 PUSH1 0x84 ADD JUMPDEST PUSH1 0x40 MLOAD PUSH1 0x20 DUP2 DUP4 SUB SUB DUP2 MSTORE SWAP1 PUSH1 0x40 MSTORE SWAP2 POP PUSH1 0xE0 SHL PUSH1 0x20 DUP3 ADD DUP1 MLOAD PUSH1 0x1 PUSH1 0x1 PUSH1 0xE0 SHL SUB DUP4 DUP2 DUP4 AND OR DUP4 MSTORE POP POP POP POP PUSH2 0x2ABA JUMP JUMPDEST POP POP POP POP JUMP JUMPDEST PUSH1 0x1 PUSH1 0x0 DUP1 MLOAD PUSH1 0x20 PUSH2 0x33D1 DUP4 CODECOPY DUP2 MLOAD SWAP2 MSTORE SSTORE JUMP JUMPDEST CALLER PUSH2 0x2813 PUSH32 0x9016D09D72D40FDAE2FD8CEAC6B6234C7706214FD39C1CD1E609A0528C199300 SLOAD PUSH1 0x1 PUSH1 0x1 PUSH1 0xA0 SHL SUB AND SWAP1 JUMP JUMPDEST PUSH1 0x1 PUSH1 0x1 PUSH1 0xA0 SHL SUB AND EQ PUSH2 0x206C JUMPI PUSH1 0x40 MLOAD PUSH4 0x118CDAA7 PUSH1 0xE0 SHL DUP2 MSTORE CALLER PUSH1 0x4 DUP3 ADD MSTORE PUSH1 0x24 ADD PUSH2 0x8A0 JUMP JUMPDEST PUSH1 0x40 MLOAD PUSH1 0x1 PUSH1 0x1 PUSH1 0xA0 SHL SUB DUP4 DUP2 AND PUSH1 0x24 DUP4 ADD MSTORE PUSH1 0x44 DUP3 ADD DUP4 SWAP1 MSTORE PUSH2 0xD07 SWAP2 DUP6 SWAP2 DUP3 AND SWAP1 PUSH4 0xA9059CBB SWAP1 PUSH1 0x64 ADD PUSH2 0x2795 JUMP JUMPDEST PUSH2 0x2875 PUSH2 0x2B2B JUMP JUMPDEST PUSH2 0x12B1 DUP2 PUSH2 0x2B74 JUMP JUMPDEST PUSH2 0x206C PUSH2 0x2B2B JUMP JUMPDEST PUSH2 0x288E PUSH2 0x2B2B JUMP JUMPDEST PUSH2 0x206C PUSH2 0x2B7C JUMP JUMPDEST ADDRESS PUSH1 0x1 PUSH1 0x1 PUSH1 0xA0 SHL SUB PUSH32 0x0 AND EQ DUP1 PUSH2 0x291D JUMPI POP PUSH32 0x0 PUSH1 0x1 PUSH1 0x1 PUSH1 0xA0 SHL SUB AND PUSH2 0x2911 PUSH1 0x0 DUP1 MLOAD PUSH1 0x20 PUSH2 0x3391 DUP4 CODECOPY DUP2 MLOAD SWAP2 MSTORE SLOAD PUSH1 0x1 PUSH1 0x1 PUSH1 0xA0 SHL SUB AND SWAP1 JUMP JUMPDEST PUSH1 0x1 PUSH1 0x1 PUSH1 0xA0 SHL SUB AND EQ ISZERO JUMPDEST ISZERO PUSH2 0x206C JUMPI PUSH1 0x40 MLOAD PUSH4 0x703E46DD PUSH1 0xE1 SHL DUP2 MSTORE PUSH1 0x4 ADD PUSH1 0x40 MLOAD DUP1 SWAP2 SUB SWAP1 REVERT JUMPDEST PUSH2 0x12B1 PUSH2 0x27E1 JUMP JUMPDEST DUP2 PUSH1 0x1 PUSH1 0x1 PUSH1 0xA0 SHL SUB AND PUSH4 0x52D1902D PUSH1 0x40 MLOAD DUP2 PUSH4 0xFFFFFFFF AND PUSH1 0xE0 SHL DUP2 MSTORE PUSH1 0x4 ADD PUSH1 0x20 PUSH1 0x40 MLOAD DUP1 DUP4 SUB DUP2 DUP7 GAS STATICCALL SWAP3 POP POP POP DUP1 ISZERO PUSH2 0x299D JUMPI POP PUSH1 0x40 DUP1 MLOAD PUSH1 0x1F RETURNDATASIZE SWAP1 DUP2 ADD PUSH1 0x1F NOT AND DUP3 ADD SWAP1 SWAP3 MSTORE PUSH2 0x299A SWAP2 DUP2 ADD SWAP1 PUSH2 0x3233 JUMP JUMPDEST PUSH1 0x1 JUMPDEST PUSH2 0x29C5 JUMPI PUSH1 0x40 MLOAD PUSH4 0x4C9C8CE3 PUSH1 0xE0 SHL DUP2 MSTORE PUSH1 0x1 PUSH1 0x1 PUSH1 0xA0 SHL SUB DUP4 AND PUSH1 0x4 DUP3 ADD MSTORE PUSH1 0x24 ADD PUSH2 0x8A0 JUMP JUMPDEST PUSH1 0x0 DUP1 MLOAD PUSH1 0x20 PUSH2 0x3391 DUP4 CODECOPY DUP2 MLOAD SWAP2 MSTORE DUP2 EQ PUSH2 0x29F6 JUMPI PUSH1 0x40 MLOAD PUSH4 0x2A875269 PUSH1 0xE2 SHL DUP2 MSTORE PUSH1 0x4 DUP2 ADD DUP3 SWAP1 MSTORE PUSH1 0x24 ADD PUSH2 0x8A0 JUMP JUMPDEST PUSH2 0xD07 DUP4 DUP4 PUSH2 0x2B84 JUMP JUMPDEST ADDRESS PUSH1 0x1 PUSH1 0x1 PUSH1 0xA0 SHL SUB PUSH32 0x0 AND EQ PUSH2 0x206C JUMPI PUSH1 0x40 MLOAD PUSH4 0x703E46DD PUSH1 0xE1 SHL DUP2 MSTORE PUSH1 0x4 ADD PUSH1 0x40 MLOAD DUP1 SWAP2 SUB SWAP1 REVERT JUMPDEST PUSH32 0x9016D09D72D40FDAE2FD8CEAC6B6234C7706214FD39C1CD1E609A0528C199300 DUP1 SLOAD PUSH1 0x1 PUSH1 0x1 PUSH1 0xA0 SHL SUB NOT DUP2 AND PUSH1 0x1 PUSH1 0x1 PUSH1 0xA0 SHL SUB DUP5 DUP2 AND SWAP2 DUP3 OR DUP5 SSTORE PUSH1 0x40 MLOAD SWAP3 AND SWAP2 DUP3 SWAP1 PUSH32 0x8BE0079C531659141344CD1FD0A4F28419497F9722A3DAAFE3B4186F6B6457E0 SWAP1 PUSH1 0x0 SWAP1 LOG3 POP POP POP JUMP JUMPDEST PUSH1 0x0 DUP1 PUSH1 0x20 PUSH1 0x0 DUP5 MLOAD PUSH1 0x20 DUP7 ADD PUSH1 0x0 DUP9 GAS CALL DUP1 PUSH2 0x2ADD JUMPI PUSH1 0x40 MLOAD RETURNDATASIZE PUSH1 0x0 DUP3 RETURNDATACOPY RETURNDATASIZE DUP2 REVERT JUMPDEST POP POP PUSH1 0x0 MLOAD RETURNDATASIZE SWAP2 POP DUP2 ISZERO PUSH2 0x2AF5 JUMPI DUP1 PUSH1 0x1 EQ ISZERO PUSH2 0x2B02 JUMP JUMPDEST PUSH1 0x1 PUSH1 0x1 PUSH1 0xA0 SHL SUB DUP5 AND EXTCODESIZE ISZERO JUMPDEST ISZERO PUSH2 0x27C7 JUMPI PUSH1 0x40 MLOAD PUSH4 0x5274AFE7 PUSH1 0xE0 SHL DUP2 MSTORE PUSH1 0x1 PUSH1 0x1 PUSH1 0xA0 SHL SUB DUP6 AND PUSH1 0x4 DUP3 ADD MSTORE PUSH1 0x24 ADD PUSH2 0x8A0 JUMP JUMPDEST PUSH32 0xF0C57E16840DF040F15088DC2F81FE391C3923BEC73E23A9662EFC9C229C6A00 SLOAD PUSH1 0x1 PUSH1 0x40 SHL SWAP1 DIV PUSH1 0xFF AND PUSH2 0x206C JUMPI PUSH1 0x40 MLOAD PUSH4 0x1AFCD79F PUSH1 0xE3 SHL DUP2 MSTORE PUSH1 0x4 ADD PUSH1 0x40 MLOAD DUP1 SWAP2 SUB SWAP1 REVERT JUMPDEST PUSH2 0x26F5 PUSH2 0x2B2B JUMP JUMPDEST PUSH2 0x27CD PUSH2 0x2B2B JUMP JUMPDEST PUSH2 0x2B8D DUP3 PUSH2 0x2BDA JUMP JUMPDEST PUSH1 0x40 MLOAD PUSH1 0x1 PUSH1 0x1 PUSH1 0xA0 SHL SUB DUP4 AND SWAP1 PUSH32 0xBC7CD75A20EE27FD9ADEBAB32041F755214DBC6BFFA90CC0225B39DA2E5C2D3B SWAP1 PUSH1 0x0 SWAP1 LOG2 DUP1 MLOAD ISZERO PUSH2 0x2BD2 JUMPI PUSH2 0xD07 DUP3 DUP3 PUSH2 0x2C3F JUMP JUMPDEST PUSH2 0x1A45 PUSH2 0x2CB5 JUMP JUMPDEST DUP1 PUSH1 0x1 PUSH1 0x1 PUSH1 0xA0 SHL SUB AND EXTCODESIZE PUSH1 0x0 SUB PUSH2 0x2C10 JUMPI PUSH1 0x40 MLOAD PUSH4 0x4C9C8CE3 PUSH1 0xE0 SHL DUP2 MSTORE PUSH1 0x1 PUSH1 0x1 PUSH1 0xA0 SHL SUB DUP3 AND PUSH1 0x4 DUP3 ADD MSTORE PUSH1 0x24 ADD PUSH2 0x8A0 JUMP JUMPDEST PUSH1 0x0 DUP1 MLOAD PUSH1 0x20 PUSH2 0x3391 DUP4 CODECOPY DUP2 MLOAD SWAP2 MSTORE DUP1 SLOAD PUSH1 0x1 PUSH1 0x1 PUSH1 0xA0 SHL SUB NOT AND PUSH1 0x1 PUSH1 0x1 PUSH1 0xA0 SHL SUB SWAP3 SWAP1 SWAP3 AND SWAP2 SWAP1 SWAP2 OR SWAP1 SSTORE JUMP JUMPDEST PUSH1 0x60 PUSH1 0x0 DUP1 DUP5 PUSH1 0x1 PUSH1 0x1 PUSH1 0xA0 SHL SUB AND DUP5 PUSH1 0x40 MLOAD PUSH2 0x2C5C SWAP2 SWAP1 PUSH2 0x3374 JUMP JUMPDEST PUSH1 0x0 PUSH1 0x40 MLOAD DUP1 DUP4 SUB DUP2 DUP6 GAS DELEGATECALL SWAP2 POP POP RETURNDATASIZE DUP1 PUSH1 0x0 DUP2 EQ PUSH2 0x2C97 JUMPI PUSH1 0x40 MLOAD SWAP2 POP PUSH1 0x1F NOT PUSH1 0x3F RETURNDATASIZE ADD AND DUP3 ADD PUSH1 0x40 MSTORE RETURNDATASIZE DUP3 MSTORE RETURNDATASIZE PUSH1 0x0 PUSH1 0x20 DUP5 ADD RETURNDATACOPY PUSH2 0x2C9C JUMP JUMPDEST PUSH1 0x60 SWAP2 POP JUMPDEST POP SWAP2 POP SWAP2 POP PUSH2 0x2CAC DUP6 DUP4 DUP4 PUSH2 0x2CD4 JUMP JUMPDEST SWAP6 SWAP5 POP POP POP POP POP JUMP JUMPDEST CALLVALUE ISZERO PUSH2 0x206C JUMPI PUSH1 0x40 MLOAD PUSH4 0xB398979F PUSH1 0xE0 SHL DUP2 MSTORE PUSH1 0x4 ADD PUSH1 0x40 MLOAD DUP1 SWAP2 SUB SWAP1 REVERT JUMPDEST PUSH1 0x60 DUP3 PUSH2 0x2CE9 JUMPI PUSH2 0x2CE4 DUP3 PUSH2 0x2D33 JUMP JUMPDEST PUSH2 0x2D2C JUMP JUMPDEST DUP2 MLOAD ISZERO DUP1 ISZERO PUSH2 0x2D00 JUMPI POP PUSH1 0x1 PUSH1 0x1 PUSH1 0xA0 SHL SUB DUP5 AND EXTCODESIZE ISZERO JUMPDEST ISZERO PUSH2 0x2D29 JUMPI PUSH1 0x40 MLOAD PUSH4 0x9996B315 PUSH1 0xE0 SHL DUP2 MSTORE PUSH1 0x1 PUSH1 0x1 PUSH1 0xA0 SHL SUB DUP6 AND PUSH1 0x4 DUP3 ADD MSTORE PUSH1 0x24 ADD PUSH2 0x8A0 JUMP JUMPDEST POP DUP1 JUMPDEST SWAP4 SWAP3 POP POP POP JUMP JUMPDEST DUP1 MLOAD ISZERO PUSH2 0x2D43 JUMPI DUP1 MLOAD DUP1 DUP3 PUSH1 0x20 ADD REVERT JUMPDEST PUSH1 0x40 MLOAD PUSH4 0xD6BDA275 PUSH1 0xE0 SHL DUP2 MSTORE PUSH1 0x4 ADD PUSH1 0x40 MLOAD DUP1 SWAP2 SUB SWAP1 REVERT JUMPDEST PUSH1 0x40 MLOAD DUP1 PUSH1 0xE0 ADD PUSH1 0x40 MSTORE DUP1 PUSH1 0x0 PUSH1 0x1 PUSH1 0x1 PUSH1 0xA0 SHL SUB AND DUP2 MSTORE PUSH1 0x20 ADD PUSH1 0x0 PUSH1 0x1 PUSH1 0x1 PUSH1 0xA0 SHL SUB AND DUP2 MSTORE PUSH1 0x20 ADD PUSH1 0x0 DUP2 MSTORE PUSH1 0x20 ADD PUSH1 0x0 DUP2 MSTORE PUSH1 0x20 ADD PUSH1 0x0 DUP2 MSTORE PUSH1 0x20 ADD PUSH1 0x0 DUP2 MSTORE PUSH1 0x20 ADD PUSH1 0x0 ISZERO ISZERO DUP2 MSTORE POP SWAP1 JUMP JUMPDEST PUSH1 0x0 DUP2 MLOAD DUP1 DUP5 MSTORE PUSH1 0x20 DUP5 ADD SWAP4 POP PUSH1 0x20 DUP4 ADD PUSH1 0x0 JUMPDEST DUP3 DUP2 LT ISZERO PUSH2 0x2DE8 JUMPI DUP2 MLOAD PUSH1 0x1 PUSH1 0x1 PUSH1 0xA0 SHL SUB AND DUP7 MSTORE PUSH1 0x20 SWAP6 DUP7 ADD SWAP6 SWAP1 SWAP2 ADD SWAP1 PUSH1 0x1 ADD PUSH2 0x2DC1 JUMP JUMPDEST POP SWAP4 SWAP5 SWAP4 POP POP POP POP JUMP JUMPDEST PUSH1 0x20 DUP2 MSTORE PUSH1 0x0 PUSH2 0x2D2C PUSH1 0x20 DUP4 ADD DUP5 PUSH2 0x2DAD JUMP JUMPDEST DUP1 CALLDATALOAD PUSH1 0x1 PUSH1 0x1 PUSH1 0xA0 SHL SUB DUP2 AND DUP2 EQ PUSH2 0x2E1C JUMPI PUSH1 0x0 DUP1 REVERT JUMPDEST SWAP2 SWAP1 POP JUMP JUMPDEST PUSH1 0x0 DUP1 PUSH1 0x0 PUSH1 0x60 DUP5 DUP7 SUB SLT ISZERO PUSH2 0x2E36 JUMPI PUSH1 0x0 DUP1 REVERT JUMPDEST PUSH2 0x2E3F DUP5 PUSH2 0x2E05 JUMP JUMPDEST SWAP6 PUSH1 0x20 DUP6 ADD CALLDATALOAD SWAP6 POP PUSH1 0x40 SWAP1 SWAP5 ADD CALLDATALOAD SWAP4 SWAP3 POP POP POP JUMP JUMPDEST PUSH1 0x0 PUSH1 0x20 DUP3 DUP5 SUB SLT ISZERO PUSH2 0x2E66 JUMPI PUSH1 0x0 DUP1 REVERT JUMPDEST PUSH2 0x2D2C DUP3 PUSH2 0x2E05 JUMP JUMPDEST PUSH1 0x0 PUSH1 0x20 DUP3 DUP5 SUB SLT ISZERO PUSH2 0x2E81 JUMPI PUSH1 0x0 DUP1 REVERT JUMPDEST POP CALLDATALOAD SWAP2 SWAP1 POP JUMP JUMPDEST PUSH1 0x0 DUP1 PUSH1 0x0 PUSH1 0x60 DUP5 DUP7 SUB SLT ISZERO PUSH2 0x2E9D JUMPI PUSH1 0x0 DUP1 REVERT JUMPDEST POP POP DUP2 CALLDATALOAD SWAP4 PUSH1 0x20 DUP4 ADD CALLDATALOAD SWAP4 POP PUSH1 0x40 SWAP1 SWAP3 ADD CALLDATALOAD SWAP2 SWAP1 POP JUMP JUMPDEST PUSH1 0x0 DUP1 PUSH1 0x0 DUP1 PUSH1 0x80 DUP6 DUP8 SUB SLT ISZERO PUSH2 0x2ECA JUMPI PUSH1 0x0 DUP1 REVERT JUMPDEST PUSH2 0x2ED3 DUP6 PUSH2 0x2E05 JUMP JUMPDEST SWAP7 PUSH1 0x20 DUP7 ADD CALLDATALOAD SWAP7 POP PUSH1 0x40 DUP7 ADD CALLDATALOAD SWAP6 PUSH1 0x60 ADD CALLDATALOAD SWAP5 POP SWAP3 POP POP POP JUMP JUMPDEST PUSH4 0x4E487B71 PUSH1 0xE0 SHL PUSH1 0x0 MSTORE PUSH1 0x41 PUSH1 0x4 MSTORE PUSH1 0x24 PUSH1 0x0 REVERT JUMPDEST PUSH1 0x0 DUP1 PUSH1 0x40 DUP4 DUP6 SUB SLT ISZERO PUSH2 0x2F16 JUMPI PUSH1 0x0 DUP1 REVERT JUMPDEST PUSH2 0x2F1F DUP4 PUSH2 0x2E05 JUMP JUMPDEST SWAP2 POP PUSH1 0x20 DUP4 ADD CALLDATALOAD PUSH8 0xFFFFFFFFFFFFFFFF DUP2 GT ISZERO PUSH2 0x2F3B JUMPI PUSH1 0x0 DUP1 REVERT JUMPDEST DUP4 ADD PUSH1 0x1F DUP2 ADD DUP6 SGT PUSH2 0x2F4C JUMPI PUSH1 0x0 DUP1 REVERT JUMPDEST DUP1 CALLDATALOAD PUSH8 0xFFFFFFFFFFFFFFFF DUP2 GT ISZERO PUSH2 0x2F66 JUMPI PUSH2 0x2F66 PUSH2 0x2EED JUMP JUMPDEST PUSH1 0x40 MLOAD PUSH1 0x1F DUP3 ADD PUSH1 0x1F NOT SWAP1 DUP2 AND PUSH1 0x3F ADD AND DUP2 ADD PUSH8 0xFFFFFFFFFFFFFFFF DUP2 GT DUP3 DUP3 LT OR ISZERO PUSH2 0x2F95 JUMPI PUSH2 0x2F95 PUSH2 0x2EED JUMP JUMPDEST PUSH1 0x40 MSTORE DUP2 DUP2 MSTORE DUP3 DUP3 ADD PUSH1 0x20 ADD DUP8 LT ISZERO PUSH2 0x2FAD JUMPI PUSH1 0x0 DUP1 REVERT JUMPDEST DUP2 PUSH1 0x20 DUP5 ADD PUSH1 0x20 DUP4 ADD CALLDATACOPY PUSH1 0x0 PUSH1 0x20 DUP4 DUP4 ADD ADD MSTORE DUP1 SWAP4 POP POP POP POP SWAP3 POP SWAP3 SWAP1 POP JUMP JUMPDEST PUSH1 0x0 DUP1 PUSH1 0x0 DUP1 PUSH1 0x0 PUSH1 0xA0 DUP7 DUP9 SUB SLT ISZERO PUSH2 0x2FE5 JUMPI PUSH1 0x0 DUP1 REVERT JUMPDEST PUSH2 0x2FEE DUP7 PUSH2 0x2E05 JUMP JUMPDEST SWAP5 POP PUSH2 0x2FFC PUSH1 0x20 DUP8 ADD PUSH2 0x2E05 JUMP JUMPDEST SWAP5 SWAP8 SWAP5 SWAP7 POP POP POP POP PUSH1 0x40 DUP4 ADD CALLDATALOAD SWAP3 PUSH1 0x60 DUP2 ADD CALLDATALOAD SWAP3 PUSH1 0x80 SWAP1 SWAP2 ADD CALLDATALOAD SWAP2 POP JUMP JUMPDEST PUSH1 0x0 DUP1 PUSH1 0x40 DUP4 DUP6 SUB SLT ISZERO PUSH2 0x302D JUMPI PUSH1 0x0 DUP1 REVERT JUMPDEST PUSH2 0x3036 DUP4 PUSH2 0x2E05 JUMP JUMPDEST SWAP2 POP PUSH1 0x20 DUP4 ADD CALLDATALOAD DUP1 ISZERO ISZERO DUP2 EQ PUSH2 0x304B JUMPI PUSH1 0x0 DUP1 REVERT JUMPDEST DUP1 SWAP2 POP POP SWAP3 POP SWAP3 SWAP1 POP JUMP JUMPDEST DUP1 MLOAD PUSH1 0x1 PUSH1 0x1 PUSH1 0xA0 SHL SUB SWAP1 DUP2 AND DUP4 MSTORE PUSH1 0x20 DUP1 DUP4 ADD MLOAD SWAP1 SWAP2 AND SWAP1 DUP4 ADD MSTORE PUSH1 0x40 DUP1 DUP3 ADD MLOAD SWAP1 DUP4 ADD MSTORE PUSH1 0x60 DUP1 DUP3 ADD MLOAD SWAP1 DUP4 ADD MSTORE PUSH1 0x80 DUP1 DUP3 ADD MLOAD SWAP1 DUP4 ADD MSTORE PUSH1 0xA0 DUP2 DUP2 ADD MLOAD SWAP1 DUP4 ADD MSTORE PUSH1 0xC0 SWAP1 DUP2 ADD MLOAD ISZERO ISZERO SWAP2 ADD MSTORE JUMP JUMPDEST PUSH1 0x20 DUP1 DUP3 MSTORE DUP3 MLOAD DUP3 DUP3 ADD DUP2 SWAP1 MSTORE PUSH1 0x0 SWAP2 DUP5 ADD SWAP1 PUSH1 0x40 DUP5 ADD SWAP1 DUP4 JUMPDEST DUP2 DUP2 LT ISZERO PUSH2 0x30EA JUMPI PUSH2 0x30D4 DUP4 DUP6 MLOAD PUSH2 0x3056 JUMP JUMPDEST PUSH1 0x20 SWAP4 SWAP1 SWAP4 ADD SWAP3 PUSH1 0xE0 SWAP3 SWAP1 SWAP3 ADD SWAP2 PUSH1 0x1 ADD PUSH2 0x30C1 JUMP JUMPDEST POP SWAP1 SWAP6 SWAP5 POP POP POP POP POP JUMP JUMPDEST PUSH1 0x40 DUP2 MSTORE PUSH1 0x0 PUSH2 0x3108 PUSH1 0x40 DUP4 ADD DUP6 PUSH2 0x2DAD JUMP JUMPDEST DUP3 DUP2 SUB PUSH1 0x20 DUP5 ADD MSTORE DUP1 DUP5 MLOAD DUP1 DUP4 MSTORE PUSH1 0x20 DUP4 ADD SWAP2 POP PUSH1 0x20 DUP7 ADD SWAP3 POP PUSH1 0x0 JUMPDEST DUP2 DUP2 LT ISZERO PUSH2 0x3143 JUMPI DUP4 MLOAD DUP4 MSTORE PUSH1 0x20 SWAP4 DUP5 ADD SWAP4 SWAP1 SWAP3 ADD SWAP2 PUSH1 0x1 ADD PUSH2 0x3125 JUMP JUMPDEST POP SWAP1 SWAP7 SWAP6 POP POP POP POP POP POP JUMP JUMPDEST PUSH1 0x0 JUMPDEST DUP4 DUP2 LT ISZERO PUSH2 0x316A JUMPI DUP2 DUP2 ADD MLOAD DUP4 DUP3 ADD MSTORE PUSH1 0x20 ADD PUSH2 0x3152 JUMP JUMPDEST POP POP PUSH1 0x0 SWAP2 ADD MSTORE JUMP JUMPDEST PUSH1 0x20 DUP2 MSTORE PUSH1 0x0 DUP3 MLOAD DUP1 PUSH1 0x20 DUP5 ADD MSTORE PUSH2 0x3192 DUP2 PUSH1 0x40 DUP6 ADD PUSH1 0x20 DUP8 ADD PUSH2 0x314F JUMP JUMPDEST PUSH1 0x1F ADD PUSH1 0x1F NOT AND SWAP2 SWAP1 SWAP2 ADD PUSH1 0x40 ADD SWAP3 SWAP2 POP POP JUMP JUMPDEST PUSH1 0x0 DUP1 PUSH1 0x40 DUP4 DUP6 SUB SLT ISZERO PUSH2 0x31B9 JUMPI PUSH1 0x0 DUP1 REVERT JUMPDEST PUSH2 0x31C2 DUP4 PUSH2 0x2E05 JUMP JUMPDEST SWAP2 POP PUSH2 0x31D0 PUSH1 0x20 DUP5 ADD PUSH2 0x2E05 JUMP JUMPDEST SWAP1 POP SWAP3 POP SWAP3 SWAP1 POP JUMP JUMPDEST PUSH1 0x0 DUP1 PUSH1 0x40 DUP4 DUP6 SUB SLT ISZERO PUSH2 0x31EC JUMPI PUSH1 0x0 DUP1 REVERT JUMPDEST POP POP DUP1 CALLDATALOAD SWAP3 PUSH1 0x20 SWAP1 SWAP2 ADD CALLDATALOAD SWAP2 POP JUMP JUMPDEST PUSH1 0x0 DUP1 PUSH1 0x40 DUP4 DUP6 SUB SLT ISZERO PUSH2 0x320E JUMPI PUSH1 0x0 DUP1 REVERT JUMPDEST PUSH2 0x3217 DUP4 PUSH2 0x2E05 JUMP JUMPDEST SWAP5 PUSH1 0x20 SWAP4 SWAP1 SWAP4 ADD CALLDATALOAD SWAP4 POP POP POP JUMP JUMPDEST PUSH1 0xE0 DUP2 ADD PUSH2 0x24DA DUP3 DUP5 PUSH2 0x3056 JUMP JUMPDEST PUSH1 0x0 PUSH1 0x20 DUP3 DUP5 SUB SLT ISZERO PUSH2 0x3245 JUMPI PUSH1 0x0 DUP1 REVERT JUMPDEST POP MLOAD SWAP2 SWAP1 POP JUMP JUMPDEST PUSH4 0x4E487B71 PUSH1 0xE0 SHL PUSH1 0x0 MSTORE PUSH1 0x11 PUSH1 0x4 MSTORE PUSH1 0x24 PUSH1 0x0 REVERT JUMPDEST DUP2 DUP2 SUB DUP2 DUP2 GT ISZERO PUSH2 0x24DA JUMPI PUSH2 0x24DA PUSH2 0x324C JUMP JUMPDEST DUP1 DUP3 ADD DUP1 DUP3 GT ISZERO PUSH2 0x24DA JUMPI PUSH2 0x24DA PUSH2 0x324C JUMP JUMPDEST PUSH1 0x0 PUSH1 0x1 DUP3 ADD PUSH2 0x329A JUMPI PUSH2 0x329A PUSH2 0x324C JUMP JUMPDEST POP PUSH1 0x1 ADD SWAP1 JUMP JUMPDEST PUSH4 0x4E487B71 PUSH1 0xE0 SHL PUSH1 0x0 MSTORE PUSH1 0x32 PUSH1 0x4 MSTORE PUSH1 0x24 PUSH1 0x0 REVERT JUMPDEST PUSH1 0x20 DUP1 DUP3 MSTORE PUSH1 0x12 SWAP1 DUP3 ADD MSTORE PUSH18 0x141BDCDA5D1A5BDB881B9BDD08199BDD5B99 PUSH1 0x72 SHL PUSH1 0x40 DUP3 ADD MSTORE PUSH1 0x60 ADD SWAP1 JUMP JUMPDEST PUSH1 0x0 DUP3 PUSH2 0x3300 JUMPI PUSH4 0x4E487B71 PUSH1 0xE0 SHL PUSH1 0x0 MSTORE PUSH1 0x12 PUSH1 0x4 MSTORE PUSH1 0x24 PUSH1 0x0 REVERT JUMPDEST POP DIV SWAP1 JUMP JUMPDEST PUSH1 0x20 DUP1 DUP3 MSTORE PUSH1 0x22 SWAP1 DUP3 ADD MSTORE PUSH32 0x496E73756666696369656E7420746F6B656E2062616C616E636520696E20706F PUSH1 0x40 DUP3 ADD MSTORE PUSH2 0x1BDB PUSH1 0xF2 SHL PUSH1 0x60 DUP3 ADD MSTORE PUSH1 0x80 ADD SWAP1 JUMP JUMPDEST PUSH1 0x0 DUP2 PUSH2 0x3356 JUMPI PUSH2 0x3356 PUSH2 0x324C JUMP JUMPDEST POP PUSH1 0x0 NOT ADD SWAP1 JUMP JUMPDEST PUSH4 0x4E487B71 PUSH1 0xE0 SHL PUSH1 0x0 MSTORE PUSH1 0x31 PUSH1 0x4 MSTORE PUSH1 0x24 PUSH1 0x0 REVERT JUMPDEST PUSH1 0x0 DUP3 MLOAD PUSH2 0x3386 DUP2 DUP5 PUSH1 0x20 DUP8 ADD PUSH2 0x314F JUMP JUMPDEST SWAP2 SWAP1 SWAP2 ADD SWAP3 SWAP2 POP POP JUMP INVALID CALLDATASIZE ADDMOD SWAP5 LOG1 EXTCODESIZE LOG1 LOG3 0x21 MOD PUSH8 0xC828492DB98DCA3E KECCAK256 PUSH23 0xCC3735A920A3CA505D382BBC35EC8A295A68C142349D2E 0x1F CREATE COINBASE 0xD4 NOT PC 0x2A CALLDATALOAD DELEGATECALL TSTORE 0xE7 ORIGIN PUSH26 0xA3F0D331004C1E469B779B17422D0DF92223018B32B4D1FA46E0 PUSH18 0x723D6817E2486D003BECC55F00A264697066 PUSH20 0x582212204C246B885B1B9BD504D862FC86A0B4D9 0x2A AND DUP2 MULMOD EXTCODEHASH PUSH2 0x2D24 0xF7 DUP7 0xDD 0xF8 SELFBALANCE PUSH21 0x452864736F6C634300081C00330000000000000000 "},"methodIdentifiers":{"UPGRADE_INTERFACE_VERSION()":"ad3cb1cc","YEAR()":"83914540","activePositionsCount(address)":"f9cbb191","activeStakers(uint256)":"31b7f25d","addAllowedTokens(address)":"171e44ea","allowedTokens(uint256)":"5e5f2e26","allowedTokensMap(address)":"6b71537a","calculateExpectedYield(uint256,uint256)":"b99732ee","calculateYieldTokens(uint256,uint256)":"e526ddb9","deposit(address,uint256,uint256)":"0efe6a8b","getActivePositions()":"5fc75ec2","getAllowedTokens()":"024ece89","getPosition(uint256)":"eb02c301","getTotalStakers()":"31ed0db4","getTotalValueLocked()":"b26025aa","getUserTokenBalances()":"864a65e5","getYieldToken()":"3b8dbc11","initialize(address,uint256,uint256,uint256)":"4ec81af1","isTokenAllowed(address)":"f9eaee0d","maxDuration()":"6db5c8fd","migratePosition(address,address,uint256,uint256,uint256)":"4ff1ede0","minDuration()":"56715761","modifyAllowedTokens(address,bool)":"5dd5999e","owner()":"8da5cb5b","positionOwners(uint256)":"62474ea1","positions(address,uint256)":"c1be6677","proxiableUUID()":"52d1902d","removeAllowedToken(address)":"90469a9d","renounceOwnership()":"715018a6","stakerIndex(address)":"78d60a5b","totalStakers()":"86989038","totalValueLocked()":"ec18154e","transferOwnership(address)":"f2fde38b","unstake(uint256)":"2e17de78","updateYieldParameters(uint256,uint256,uint256)":"36c19428","upgradeToAndCall(address,bytes)":"4f1ef286","userTokenBalance(address,address)":"b47064c8","withdraw(uint256)":"2e1a7d4d","yieldRate()":"6999ac93","yieldTokenV2()":"17336938"}},"storageLayout":{"storage":[{"astId":5129,"contract":"contracts/upgrades/YieldPoolV2.sol:YieldPoolV2","label":"yieldRate","offset":0,"slot":"0","type":"t_uint256"},{"astId":5134,"contract":"contracts/upgrades/YieldPoolV2.sol:YieldPoolV2","label":"minDuration","offset":0,"slot":"1","type":"t_uint256"},{"astId":5136,"contract":"contracts/upgrades/YieldPoolV2.sol:YieldPoolV2","label":"maxDuration","offset":0,"slot":"2","type":"t_uint256"},{"astId":5139,"contract":"contracts/upgrades/YieldPoolV2.sol:YieldPoolV2","label":"yieldTokenV2","offset":0,"slot":"3","type":"t_contract(YieldTokenV2)6846"},{"astId":5141,"contract":"contracts/upgrades/YieldPoolV2.sol:YieldPoolV2","label":"totalStakers","offset":0,"slot":"4","type":"t_uint256"},{"astId":5143,"contract":"contracts/upgrades/YieldPoolV2.sol:YieldPoolV2","label":"totalValueLocked","offset":0,"slot":"5","type":"t_uint256"},{"astId":5145,"contract":"contracts/upgrades/YieldPoolV2.sol:YieldPoolV2","label":"nextPositionId","offset":0,"slot":"6","type":"t_uint256"},{"astId":5148,"contract":"contracts/upgrades/YieldPoolV2.sol:YieldPoolV2","label":"allowedTokens","offset":0,"slot":"7","type":"t_array(t_address)dyn_storage"},{"astId":5151,"contract":"contracts/upgrades/YieldPoolV2.sol:YieldPoolV2","label":"activeStakers","offset":0,"slot":"8","type":"t_array(t_address)dyn_storage"},{"astId":5155,"contract":"contracts/upgrades/YieldPoolV2.sol:YieldPoolV2","label":"allowedTokensMap","offset":0,"slot":"9","type":"t_mapping(t_address,t_bool)"},{"astId":5159,"contract":"contracts/upgrades/YieldPoolV2.sol:YieldPoolV2","label":"activePositionsCount","offset":0,"slot":"10","type":"t_mapping(t_address,t_uint256)"},{"astId":5163,"contract":"contracts/upgrades/YieldPoolV2.sol:YieldPoolV2","label":"stakerIndex","offset":0,"slot":"11","type":"t_mapping(t_address,t_uint256)"},{"astId":5169,"contract":"contracts/upgrades/YieldPoolV2.sol:YieldPoolV2","label":"userTokenBalance","offset":0,"slot":"12","type":"t_mapping(t_address,t_mapping(t_address,t_uint256))"},{"astId":5190,"contract":"contracts/upgrades/YieldPoolV2.sol:YieldPoolV2","label":"positions","offset":0,"slot":"13","type":"t_mapping(t_address,t_array(t_struct(Position)5184_storage)dyn_storage)"},{"astId":5194,"contract":"contracts/upgrades/YieldPoolV2.sol:YieldPoolV2","label":"positionOwners","offset":0,"slot":"14","type":"t_mapping(t_uint256,t_address)"}],"types":{"t_address":{"encoding":"inplace","label":"address","numberOfBytes":"20"},"t_array(t_address)dyn_storage":{"base":"t_address","encoding":"dynamic_array","label":"address[]","numberOfBytes":"32"},"t_array(t_struct(Position)5184_storage)dyn_storage":{"base":"t_struct(Position)5184_storage","encoding":"dynamic_array","label":"struct YieldPoolV2.Position[]","numberOfBytes":"32"},"t_bool":{"encoding":"inplace","label":"bool","numberOfBytes":"1"},"t_contract(YieldTokenV2)6846":{"encoding":"inplace","label":"contract YieldTokenV2","numberOfBytes":"20"},"t_mapping(t_address,t_array(t_struct(Position)5184_storage)dyn_storage)":{"encoding":"mapping","key":"t_address","label":"mapping(address => struct YieldPoolV2.Position[])","numberOfBytes":"32","value":"t_array(t_struct(Position)5184_storage)dyn_storage"},"t_mapping(t_address,t_bool)":{"encoding":"mapping","key":"t_address","label":"mapping(address => bool)","numberOfBytes":"32","value":"t_bool"},"t_mapping(t_address,t_mapping(t_address,t_uint256))":{"encoding":"mapping","key":"t_address","label":"mapping(address => mapping(address => uint256))","numberOfBytes":"32","value":"t_mapping(t_address,t_uint256)"},"t_mapping(t_address,t_uint256)":{"encoding":"mapping","key":"t_address","label":"mapping(address => uint256)","numberOfBytes":"32","value":"t_uint256"},"t_mapping(t_uint256,t_address)":{"encoding":"mapping","key":"t_uint256","label":"mapping(uint256 => address)","numberOfBytes":"32","value":"t_address"},"t_struct(Position)5184_storage":{"encoding":"inplace","label":"struct YieldPoolV2.Position","members":[{"astId":5171,"contract":"contracts/upgrades/YieldPoolV2.sol:YieldPoolV2","label":"positionAddress","offset":0,"slot":"0","type":"t_address"},{"astId":5173,"contract":"contracts/upgrades/YieldPoolV2.sol:YieldPoolV2","label":"token","offset":0,"slot":"1","type":"t_address"},{"astId":5175,"contract":"contracts/upgrades/YieldPoolV2.sol:YieldPoolV2","label":"id","offset":0,"slot":"2","type":"t_uint256"},{"astId":5177,"contract":"contracts/upgrades/YieldPoolV2.sol:YieldPoolV2","label":"amount","offset":0,"slot":"3","type":"t_uint256"},{"astId":5179,"contract":"contracts/upgrades/YieldPoolV2.sol:YieldPoolV2","label":"startTime","offset":0,"slot":"4","type":"t_uint256"},{"astId":5181,"contract":"contracts/upgrades/YieldPoolV2.sol:YieldPoolV2","label":"lockDuration","offset":0,"slot":"5","type":"t_uint256"},{"astId":5183,"contract":"contracts/upgrades/YieldPoolV2.sol:YieldPoolV2","label":"withdrawn","offset":0,"slot":"6","type":"t_bool"}],"numberOfBytes":"224"},"t_uint256":{"encoding":"inplace","label":"uint256","numberOfBytes":"32"}}}}}}