{"contracts/upgrades/YieldTokenV2.sol":{"YieldTokenV2":{"abi":[{"inputs":[],"stateMutability":"nonpayable","type":"constructor"},{"inputs":[{"internalType":"address","name":"target","type":"address"}],"name":"AddressEmptyCode","type":"error"},{"inputs":[{"internalType":"address","name":"implementation","type":"address"}],"name":"ERC1967InvalidImplementation","type":"error"},{"inputs":[],"name":"ERC1967NonPayable","type":"error"},{"inputs":[{"internalType":"address","name":"spender","type":"address"},{"internalType":"uint256","name":"allowance","type":"uint256"},{"internalType":"uint256","name":"needed","type":"uint256"}],"name":"ERC20InsufficientAllowance","type":"error"},{"inputs":[{"internalType":"address","name":"sender","type":"address"},{"internalType":"uint256","name":"balance","type":"uint256"},{"internalType":"uint256","name":"needed","type":"uint256"}],"name":"ERC20InsufficientBalance","type":"error"},{"inputs":[{"internalType":"address","name":"approver","type":"address"}],"name":"ERC20InvalidApprover","type":"error"},{"inputs":[{"internalType":"address","name":"receiver","type":"address"}],"name":"ERC20InvalidReceiver","type":"error"},{"inputs":[{"internalType":"address","name":"sender","type":"address"}],"name":"ERC20InvalidSender","type":"error"},{"inputs":[{"internalType":"address","name":"spender","type":"address"}],"name":"ERC20InvalidSpender","type":"error"},{"inputs":[],"name":"FailedCall","type":"error"},{"inputs":[],"name":"InvalidInitialization","type":"error"},{"inputs":[],"name":"NotInitializing","type":"error"},{"inputs":[{"internalType":"address","name":"owner","type":"address"}],"name":"OwnableInvalidOwner","type":"error"},{"inputs":[{"internalType":"address","name":"account","type":"address"}],"name":"OwnableUnauthorizedAccount","type":"error"},{"inputs":[],"name":"ReentrancyGuardReentrantCall","type":"error"},{"inputs":[],"name":"UUPSUnauthorizedCallContext","type":"error"},{"inputs":[{"internalType":"bytes32","name":"slot","type":"bytes32"}],"name":"UUPSUnsupportedProxiableUUID","type":"error"},{"inputs":[{"internalType":"address","name":"caller","type":"address"}],"name":"UnauthorizedMinter","type":"error"},{"inputs":[],"name":"ZeroAddressMint","type":"error"},{"anonymous":false,"inputs":[{"indexed":true,"internalType":"address","name":"owner","type":"address"},{"indexed":true,"internalType":"address","name":"spender","type":"address"},{"indexed":false,"internalType":"uint256","name":"value","type":"uint256"}],"name":"Approval","type":"event"},{"anonymous":false,"inputs":[{"indexed":false,"internalType":"uint64","name":"version","type":"uint64"}],"name":"Initialized","type":"event"},{"anonymous":false,"inputs":[{"indexed":false,"internalType":"address","name":"account","type":"address"},{"indexed":false,"internalType":"bool","name":"status","type":"bool"}],"name":"MinterSet","type":"event"},{"anonymous":false,"inputs":[{"indexed":true,"internalType":"address","name":"previousOwner","type":"address"},{"indexed":true,"internalType":"address","name":"newOwner","type":"address"}],"name":"OwnershipTransferred","type":"event"},{"anonymous":false,"inputs":[{"indexed":true,"internalType":"address","name":"to","type":"address"},{"indexed":false,"internalType":"uint256","name":"amount","type":"uint256"},{"indexed":true,"internalType":"address","name":"minter","type":"address"}],"name":"TokensMinted","type":"event"},{"anonymous":false,"inputs":[{"indexed":true,"internalType":"address","name":"from","type":"address"},{"indexed":true,"internalType":"address","name":"to","type":"address"},{"indexed":false,"internalType":"uint256","name":"value","type":"uint256"}],"name":"Transfer","type":"event"},{"anonymous":false,"inputs":[{"indexed":true,"internalType":"address","name":"implementation","type":"address"}],"name":"Upgraded","type":"event"},{"inputs":[],"name":"MINT_COOLDOWN","outputs":[{"internalType":"uint256","name":"","type":"uint256"}],"stateMutability":"view","type":"function"},{"inputs":[],"name":"UPGRADE_INTERFACE_VERSION","outputs":[{"internalType":"string","name":"","type":"string"}],"stateMutability":"view","type":"function"},{"inputs":[{"internalType":"address","name":"owner","type":"address"},{"internalType":"address","name":"spender","type":"address"}],"name":"allowance","outputs":[{"internalType":"uint256","name":"","type":"uint256"}],"stateMutability":"view","type":"function"},{"inputs":[{"internalType":"address","name":"spender","type":"address"},{"internalType":"uint256","name":"value","type":"uint256"}],"name":"approve","outputs":[{"internalType":"bool","name":"","type":"bool"}],"stateMutability":"nonpayable","type":"function"},{"inputs":[{"internalType":"address","name":"account","type":"address"}],"name":"balanceOf","outputs":[{"internalType":"uint256","name":"","type":"uint256"}],"stateMutability":"view","type":"function"},{"inputs":[{"internalType":"address","name":"from","type":"address"},{"internalType":"uint256","name":"amount","type":"uint256"}],"name":"burn","outputs":[],"stateMutability":"nonpayable","type":"function"},{"inputs":[],"name":"decimals","outputs":[{"internalType":"uint8","name":"","type":"uint8"}],"stateMutability":"view","type":"function"},{"inputs":[{"internalType":"address","name":"student","type":"address"}],"name":"getIsStudent","outputs":[{"internalType":"bool","name":"","type":"bool"}],"stateMutability":"view","type":"function"},{"inputs":[],"name":"getMinters","outputs":[{"internalType":"address[]","name":"","type":"address[]"}],"stateMutability":"view","type":"function"},{"inputs":[{"internalType":"string","name":"_name","type":"string"},{"internalType":"string","name":"_symbol","type":"string"},{"internalType":"address","name":"_adminOwner","type":"address"}],"name":"initialize","outputs":[],"stateMutability":"nonpayable","type":"function"},{"inputs":[{"internalType":"address","name":"","type":"address"}],"name":"isMinter","outputs":[{"internalType":"bool","name":"","type":"bool"}],"stateMutability":"view","type":"function"},{"inputs":[{"internalType":"address","name":"","type":"address"}],"name":"isStudent","outputs":[{"internalType":"bool","name":"","type":"bool"}],"stateMutability":"view","type":"function"},{"inputs":[{"internalType":"address","name":"","type":"address"}],"name":"lastMintTime","outputs":[{"internalType":"uint256","name":"","type":"uint256"}],"stateMutability":"view","type":"function"},{"inputs":[{"internalType":"address","name":"to","type":"address"},{"internalType":"uint256","name":"amount","type":"uint256"}],"name":"mint","outputs":[],"stateMutability":"nonpayable","type":"function"},{"inputs":[{"internalType":"address","name":"_yieldPoolAddress","type":"address"}],"name":"mintToPool","outputs":[],"stateMutability":"nonpayable","type":"function"},{"inputs":[],"name":"name","outputs":[{"internalType":"string","name":"","type":"string"}],"stateMutability":"view","type":"function"},{"inputs":[],"name":"owner","outputs":[{"internalType":"address","name":"","type":"address"}],"stateMutability":"view","type":"function"},{"inputs":[],"name":"proxiableUUID","outputs":[{"internalType":"bytes32","name":"","type":"bytes32"}],"stateMutability":"view","type":"function"},{"inputs":[{"internalType":"address","name":"account","type":"address"}],"name":"removeMinter","outputs":[],"stateMutability":"nonpayable","type":"function"},{"inputs":[],"name":"renounceOwnership","outputs":[],"stateMutability":"nonpayable","type":"function"},{"inputs":[{"internalType":"address","name":"account","type":"address"},{"internalType":"bool","name":"status","type":"bool"}],"name":"setMinter","outputs":[],"stateMutability":"nonpayable","type":"function"},{"inputs":[{"internalType":"address","name":"student","type":"address"},{"internalType":"bool","name":"status","type":"bool"}],"name":"setStudentStatus","outputs":[],"stateMutability":"nonpayable","type":"function"},{"inputs":[],"name":"symbol","outputs":[{"internalType":"string","name":"","type":"string"}],"stateMutability":"view","type":"function"},{"inputs":[],"name":"totalSupply","outputs":[{"internalType":"uint256","name":"","type":"uint256"}],"stateMutability":"view","type":"function"},{"inputs":[{"internalType":"address","name":"to","type":"address"},{"internalType":"uint256","name":"value","type":"uint256"}],"name":"transfer","outputs":[{"internalType":"bool","name":"","type":"bool"}],"stateMutability":"nonpayable","type":"function"},{"inputs":[{"internalType":"address","name":"from","type":"address"},{"internalType":"address","name":"to","type":"address"},{"internalType":"uint256","name":"value","type":"uint256"}],"name":"transferFrom","outputs":[{"internalType":"bool","name":"","type":"bool"}],"stateMutability":"nonpayable","type":"function"},{"inputs":[{"internalType":"address","name":"newOwner","type":"address"}],"name":"transferOwnership","outputs":[],"stateMutability":"nonpayable","type":"function"},{"inputs":[{"internalType":"address","name":"newImplementation","type":"address"},{"internalType":"bytes","name":"data","type":"bytes"}],"name":"upgradeToAndCall","outputs":[],"stateMutability":"payable","type":"function"}],"evm":{"bytecode":{"linkReferences":{},"object":"60a06040523060805234801561001457600080fd5b5061001d610022565b6100d4565b7ff0c57e16840df040f15088dc2f81fe391c3923bec73e23a9662efc9c229c6a00805468010000000000000000900460ff16156100725760405163f92ee8a960e01b815260040160405180910390fd5b80546001600160401b03908116146100d15780546001600160401b0319166001600160401b0390811782556040519081527fc7f505b2f371ae2175ee4913f4499e1f2633a7b5936321eed1cdaeb6115181d29060200160405180910390a15b50565b608051611c296100fd60003960008181610f8101528181610faa01526110eb0152611c296000f3fe6080604052600436106101b75760003560e01c8063715018a6116100ec578063ad3cb1cc1161008a578063cf456ae711610064578063cf456ae71461054e578063dd62ed3e1461056e578063f2fde38b1461058e578063f7ee7a43146105ae57600080fd5b8063ad3cb1cc146104c4578063c95c2fc7146104f5578063cefee7bc1461051557600080fd5b806395d89b41116100c657806395d89b411461043f5780639dc29fac14610454578063a9059cbb14610474578063aa271e1a1461049457600080fd5b8063715018a6146103cd57806382f7d392146103e25780638da5cb5b1461041257600080fd5b806340c10f19116101595780635ea3f9d1116101335780635ea3f9d11461031b5780636aa71d181461033b5780636b32810b1461036857806370a082311461038a57600080fd5b806340c10f19146102d35780634f1ef286146102f357806352d1902d1461030657600080fd5b806318160ddd1161019557806318160ddd1461023957806323b872dd146102775780633092afd514610297578063313ce567146102b757600080fd5b806306fdde03146101bc578063077f224a146101e7578063095ea7b314610209575b600080fd5b3480156101c857600080fd5b506101d16105c5565b6040516101de91906116bf565b60405180910390f35b3480156101f357600080fd5b506102076102023660046117be565b610688565b005b34801561021557600080fd5b50610229610224366004611837565b6107b4565b60405190151581526020016101de565b34801561024557600080fd5b507f52c63247e1f47db19d5ce0460030c497f067ca4cebf71ba98eeadabe20bace02545b6040519081526020016101de565b34801561028357600080fd5b50610229610292366004611861565b6107ce565b3480156102a357600080fd5b506102076102b236600461189e565b6107f4565b3480156102c357600080fd5b50604051601281526020016101de565b3480156102df57600080fd5b506102076102ee366004611837565b610a13565b6102076103013660046118b9565b610ae1565b34801561031257600080fd5b50610269610b00565b34801561032757600080fd5b5061020761033636600461189e565b610b1d565b34801561034757600080fd5b5061026961035636600461189e565b60006020819052908152604090205481565b34801561037457600080fd5b5061037d610b88565b6040516101de919061191b565b34801561039657600080fd5b506102696103a536600461189e565b6001600160a01b03166000908152600080516020611bb4833981519152602052604090205490565b3480156103d957600080fd5b50610207610bf2565b3480156103ee57600080fd5b506102296103fd36600461189e565b60016020526000908152604090205460ff1681565b34801561041e57600080fd5b50610427610c06565b6040516001600160a01b0390911681526020016101de565b34801561044b57600080fd5b506101d1610c34565b34801561046057600080fd5b5061020761046f366004611837565b610c73565b34801561048057600080fd5b5061022961048f366004611837565b610c85565b3480156104a057600080fd5b506102296104af36600461189e565b60026020526000908152604090205460ff1681565b3480156104d057600080fd5b506101d1604051806040016040528060058152602001640352e302e360dc1b81525081565b34801561050157600080fd5b50610207610510366004611967565b610c93565b34801561052157600080fd5b5061022961053036600461189e565b6001600160a01b031660009081526001602052604090205460ff1690565b34801561055a57600080fd5b50610207610569366004611967565b610cc6565b34801561057a57600080fd5b506102696105893660046119a3565b610d73565b34801561059a57600080fd5b506102076105a936600461189e565b610dbd565b3480156105ba57600080fd5b506102696201518081565b7f52c63247e1f47db19d5ce0460030c497f067ca4cebf71ba98eeadabe20bace038054606091600080516020611bb483398151915291610604906119d6565b80601f0160208091040260200160405190810160405280929190818152602001828054610630906119d6565b801561067d5780601f106106525761010080835404028352916020019161067d565b820191906000526020600020905b81548152906001019060200180831161066057829003601f168201915b505050505091505090565b7ff0c57e16840df040f15088dc2f81fe391c3923bec73e23a9662efc9c229c6a008054600160401b810460ff16159067ffffffffffffffff166000811580156106ce5750825b905060008267ffffffffffffffff1660011480156106eb5750303b155b9050811580156106f9575080155b156107175760405163f92ee8a960e01b815260040160405180910390fd5b845467ffffffffffffffff19166001178555831561074157845460ff60401b1916600160401b1785555b61074b8888610dfb565b61075486610e0d565b61075c610e1e565b610764610e2e565b83156107aa57845460ff60401b19168555604051600181527fc7f505b2f371ae2175ee4913f4499e1f2633a7b5936321eed1cdaeb6115181d29060200160405180910390a15b5050505050505050565b6000336107c2818585610e36565b60019150505b92915050565b6000336107dc858285610e48565b6107e7858585610eaf565b60019150505b9392505050565b6107fc610f0e565b6001600160a01b0381166108495760405162461bcd60e51b815260206004820152600f60248201526e496e76616c6964206164647265737360881b60448201526064015b60405180910390fd5b6001600160a01b03811660009081526002602052604090205460ff166108b15760405162461bcd60e51b815260206004820152601760248201527f41646472657373206973206e6f742061206d696e7465720000000000000000006044820152606401610840565b6001600160a01b0381166000908152600260205260408120805460ff191690555b6003548110156109cd57816001600160a01b0316600382815481106108f9576108f9611a10565b6000918252602090912001546001600160a01b0316036109c5576003805461092390600190611a3c565b8154811061093357610933611a10565b600091825260209091200154600380546001600160a01b03909216918390811061095f5761095f611a10565b9060005260206000200160006101000a8154816001600160a01b0302191690836001600160a01b03160217905550600380548061099e5761099e611a4f565b600082815260209020810160001990810180546001600160a01b03191690550190556109cd565b6001016108d2565b50604080516001600160a01b0383168152600060208201527f583b0aa0e528532caf4b907c11d7a8158a122fe2a6fb80cd9b09776ebea8d92d910160405180910390a150565b6001600160a01b038216610a3a576040516322ce111360e11b815260040160405180910390fd5b610a42610c06565b6001600160a01b0316336001600160a01b031614158015610a7357503360009081526002602052604090205460ff16155b15610a935760405163a4f3966560e01b8152336004820152602401610840565b610a9d8282610f40565b60405181815233906001600160a01b038416907f969cd201f68f120baff2bf3c59bc3b534434e08b69a71a14ab85cb79cd3b63e49060200160405180910390a35050565b610ae9610f76565b610af28261101b565b610afc8282611023565b5050565b6000610b0a6110e0565b50600080516020611bd483398151915290565b610b25610f0e565b610b3a816a084595161401484a000000610f40565b6040516a084595161401484a000000815233906001600160a01b038316907f969cd201f68f120baff2bf3c59bc3b534434e08b69a71a14ab85cb79cd3b63e49060200160405180910390a350565b6060610b92610f0e565b6003805480602002602001604051908101604052809291908181526020018280548015610be857602002820191906000526020600020905b81546001600160a01b03168152600190910190602001808311610bca575b5050505050905090565b610bfa610f0e565b610c046000611129565b565b7f9016d09d72d40fdae2fd8ceac6b6234c7706214fd39c1cd1e609a0528c199300546001600160a01b031690565b7f52c63247e1f47db19d5ce0460030c497f067ca4cebf71ba98eeadabe20bace048054606091600080516020611bb483398151915291610604906119d6565b610c7b610f0e565b610afc828261119a565b6000336107c2818585610eaf565b610c9b610f0e565b6001600160a01b03919091166000908152600160205260409020805460ff1916911515919091179055565b610cce610f0e565b6001600160a01b0382166000818152600260209081526040808320805460ff19168615159081179091556003805460018101825594527fc2575a0e9e593c00f959f8c92f12db2869c3395a3b0502d05e2516446f71f85b90930180546001600160a01b031916851790558051938452908301919091527f583b0aa0e528532caf4b907c11d7a8158a122fe2a6fb80cd9b09776ebea8d92d910160405180910390a15050565b6001600160a01b0391821660009081527f52c63247e1f47db19d5ce0460030c497f067ca4cebf71ba98eeadabe20bace016020908152604080832093909416825291909152205490565b610dc5610f0e565b6001600160a01b038116610def57604051631e4fbdf760e01b815260006004820152602401610840565b610df881611129565b50565b610e036111d0565b610afc8282611219565b610e156111d0565b610df88161126a565b610e266111d0565b610c04611272565b610c046111d0565b610e4383838360016112a0565b505050565b6000610e548484610d73565b9050600019811015610ea95781811015610e9a57604051637dc7a0d960e11b81526001600160a01b03841660048201526024810182905260448101839052606401610840565b610ea9848484840360006112a0565b50505050565b6001600160a01b038316610ed957604051634b637e8f60e11b815260006004820152602401610840565b6001600160a01b038216610f035760405163ec442f0560e01b815260006004820152602401610840565b610e43838383611388565b33610f17610c06565b6001600160a01b031614610c045760405163118cdaa760e01b8152336004820152602401610840565b6001600160a01b038216610f6a5760405163ec442f0560e01b815260006004820152602401610840565b610afc60008383611388565b306001600160a01b037f0000000000000000000000000000000000000000000000000000000000000000161480610ffd57507f00000000000000000000000000000000000000000000000000000000000000006001600160a01b0316610ff1600080516020611bd4833981519152546001600160a01b031690565b6001600160a01b031614155b15610c045760405163703e46dd60e11b815260040160405180910390fd5b610df8610f0e565b816001600160a01b03166352d1902d6040518163ffffffff1660e01b8152600401602060405180830381865afa92505050801561107d575060408051601f3d908101601f1916820190925261107a91810190611a65565b60015b6110a557604051634c9c8ce360e01b81526001600160a01b0383166004820152602401610840565b600080516020611bd483398151915281146110d657604051632a87526960e21b815260048101829052602401610840565b610e4383836114c6565b306001600160a01b037f00000000000000000000000000000000000000000000000000000000000000001614610c045760405163703e46dd60e11b815260040160405180910390fd5b7f9016d09d72d40fdae2fd8ceac6b6234c7706214fd39c1cd1e609a0528c19930080546001600160a01b031981166001600160a01b03848116918217845560405192169182907f8be0079c531659141344cd1fd0a4f28419497f9722a3daafe3b4186f6b6457e090600090a3505050565b6001600160a01b0382166111c457604051634b637e8f60e11b815260006004820152602401610840565b610afc82600083611388565b7ff0c57e16840df040f15088dc2f81fe391c3923bec73e23a9662efc9c229c6a0054600160401b900460ff16610c0457604051631afcd79f60e31b815260040160405180910390fd5b6112216111d0565b600080516020611bb48339815191527f52c63247e1f47db19d5ce0460030c497f067ca4cebf71ba98eeadabe20bace0361125b8482611ac5565b5060048101610ea98382611ac5565b610dc56111d0565b61127a6111d0565b60017f9b779b17422d0df92223018b32b4d1fa46e071723d6817e2486d003becc55f0055565b600080516020611bb48339815191526001600160a01b0385166112d95760405163e602df0560e01b815260006004820152602401610840565b6001600160a01b03841661130357604051634a1406b160e11b815260006004820152602401610840565b6001600160a01b0380861660009081526001830160209081526040808320938816835292905220839055811561138157836001600160a01b0316856001600160a01b03167f8c5be1e5ebec7d5bd14f71427d1e84f3dd0314c0f7b2291e5b200ac8c7c3b9258560405161137891815260200190565b60405180910390a35b5050505050565b600080516020611bb48339815191526001600160a01b0384166113c457818160020160008282546113b99190611b84565b909155506114369050565b6001600160a01b038416600090815260208290526040902054828110156114175760405163391434e360e21b81526001600160a01b03861660048201526024810182905260448101849052606401610840565b6001600160a01b03851660009081526020839052604090209083900390555b6001600160a01b038316611454576002810180548390039055611473565b6001600160a01b03831660009081526020829052604090208054830190555b826001600160a01b0316846001600160a01b03167fddf252ad1be2c89b69c2b068fc378daa952ba7f163c4a11628f55a4df523b3ef846040516114b891815260200190565b60405180910390a350505050565b6114cf8261151c565b6040516001600160a01b038316907fbc7cd75a20ee27fd9adebab32041f755214dbc6bffa90cc0225b39da2e5c2d3b90600090a280511561151457610e438282611581565b610afc6115f7565b806001600160a01b03163b60000361155257604051634c9c8ce360e01b81526001600160a01b0382166004820152602401610840565b600080516020611bd483398151915280546001600160a01b0319166001600160a01b0392909216919091179055565b6060600080846001600160a01b03168460405161159e9190611b97565b600060405180830381855af49150503d80600081146115d9576040519150601f19603f3d011682016040523d82523d6000602084013e6115de565b606091505b50915091506115ee858383611616565b95945050505050565b3415610c045760405163b398979f60e01b815260040160405180910390fd5b60608261162b5761162682611672565b6107ed565b815115801561164257506001600160a01b0384163b155b1561166b57604051639996b31560e01b81526001600160a01b0385166004820152602401610840565b50806107ed565b8051156116825780518082602001fd5b60405163d6bda27560e01b815260040160405180910390fd5b60005b838110156116b657818101518382015260200161169e565b50506000910152565b60208152600082518060208401526116de81604085016020870161169b565b601f01601f19169190910160400192915050565b634e487b7160e01b600052604160045260246000fd5b60008067ffffffffffffffff841115611723576117236116f2565b50604051601f19601f85018116603f0116810181811067ffffffffffffffff82111715611752576117526116f2565b60405283815290508082840185101561176a57600080fd5b83836020830137600060208583010152509392505050565b600082601f83011261179357600080fd5b6107ed83833560208501611708565b80356001600160a01b03811681146117b957600080fd5b919050565b6000806000606084860312156117d357600080fd5b833567ffffffffffffffff8111156117ea57600080fd5b6117f686828701611782565b935050602084013567ffffffffffffffff81111561181357600080fd5b61181f86828701611782565b92505061182e604085016117a2565b90509250925092565b6000806040838503121561184a57600080fd5b611853836117a2565b946020939093013593505050565b60008060006060848603121561187657600080fd5b61187f846117a2565b925061188d602085016117a2565b929592945050506040919091013590565b6000602082840312156118b057600080fd5b6107ed826117a2565b600080604083850312156118cc57600080fd5b6118d5836117a2565b9150602083013567ffffffffffffffff8111156118f157600080fd5b8301601f8101851361190257600080fd5b61191185823560208401611708565b9150509250929050565b602080825282518282018190526000918401906040840190835b8181101561195c5783516001600160a01b0316835260209384019390920191600101611935565b509095945050505050565b6000806040838503121561197a57600080fd5b611983836117a2565b91506020830135801515811461199857600080fd5b809150509250929050565b600080604083850312156119b657600080fd5b6119bf836117a2565b91506119cd602084016117a2565b90509250929050565b600181811c908216806119ea57607f821691505b602082108103611a0a57634e487b7160e01b600052602260045260246000fd5b50919050565b634e487b7160e01b600052603260045260246000fd5b634e487b7160e01b600052601160045260246000fd5b818103818111156107c8576107c8611a26565b634e487b7160e01b600052603160045260246000fd5b600060208284031215611a7757600080fd5b5051919050565b601f821115610e4357806000526020600020601f840160051c81016020851015611aa55750805b601f840160051c820191505b818110156113815760008155600101611ab1565b815167ffffffffffffffff811115611adf57611adf6116f2565b611af381611aed84546119d6565b84611a7e565b6020601f821160018114611b275760008315611b0f5750848201515b600019600385901b1c1916600184901b178455611381565b600084815260208120601f198516915b82811015611b575787850151825560209485019460019092019101611b37565b5084821015611b755786840151600019600387901b60f8161c191681555b50505050600190811b01905550565b808201808211156107c8576107c8611a26565b60008251611ba981846020870161169b565b919091019291505056fe52c63247e1f47db19d5ce0460030c497f067ca4cebf71ba98eeadabe20bace00360894a13ba1a3210667c828492db98dca3e2076cc3735a920a3ca505d382bbca26469706673582212207fad8b3c541c71db964a0f18e4d429df605dcb7cae2e8f40f212f698ade967bb64736f6c634300081c0033","opcodes":"PUSH1 0xA0 PUSH1 0x40 MSTORE ADDRESS PUSH1 0x80 MSTORE CALLVALUE DUP1 ISZERO PUSH2 0x14 JUMPI PUSH1 0x0 DUP1 REVERT JUMPDEST POP PUSH2 0x1D PUSH2 0x22 JUMP JUMPDEST PUSH2 0xD4 JUMP JUMPDEST PUSH32 0xF0C57E16840DF040F15088DC2F81FE391C3923BEC73E23A9662EFC9C229C6A00 DUP1 SLOAD PUSH9 0x10000000000000000 SWAP1 DIV PUSH1 0xFF AND ISZERO PUSH2 0x72 JUMPI PUSH1 0x40 MLOAD PUSH4 0xF92EE8A9 PUSH1 0xE0 SHL DUP2 MSTORE PUSH1 0x4 ADD PUSH1 0x40 MLOAD DUP1 SWAP2 SUB SWAP1 REVERT JUMPDEST DUP1 SLOAD PUSH1 0x1 PUSH1 0x1 PUSH1 0x40 SHL SUB SWAP1 DUP2 AND EQ PUSH2 0xD1 JUMPI DUP1 SLOAD PUSH1 0x1 PUSH1 0x1 PUSH1 0x40 SHL SUB NOT AND PUSH1 0x1 PUSH1 0x1 PUSH1 0x40 SHL SUB SWAP1 DUP2 OR DUP3 SSTORE PUSH1 0x40 MLOAD SWAP1 DUP2 MSTORE PUSH32 0xC7F505B2F371AE2175EE4913F4499E1F2633A7B5936321EED1CDAEB6115181D2 SWAP1 PUSH1 0x20 ADD PUSH1 0x40 MLOAD DUP1 SWAP2 SUB SWAP1 LOG1 JUMPDEST POP JUMP JUMPDEST PUSH1 0x80 MLOAD PUSH2 0x1C29 PUSH2 0xFD PUSH1 0x0 CODECOPY PUSH1 0x0 DUP2 DUP2 PUSH2 0xF81 ADD MSTORE DUP2 DUP2 PUSH2 0xFAA ADD MSTORE PUSH2 0x10EB ADD MSTORE PUSH2 0x1C29 PUSH1 0x0 RETURN INVALID PUSH1 0x80 PUSH1 0x40 MSTORE PUSH1 0x4 CALLDATASIZE LT PUSH2 0x1B7 JUMPI PUSH1 0x0 CALLDATALOAD PUSH1 0xE0 SHR DUP1 PUSH4 0x715018A6 GT PUSH2 0xEC JUMPI DUP1 PUSH4 0xAD3CB1CC GT PUSH2 0x8A JUMPI DUP1 PUSH4 0xCF456AE7 GT PUSH2 0x64 JUMPI DUP1 PUSH4 0xCF456AE7 EQ PUSH2 0x54E JUMPI DUP1 PUSH4 0xDD62ED3E EQ PUSH2 0x56E JUMPI DUP1 PUSH4 0xF2FDE38B EQ PUSH2 0x58E JUMPI DUP1 PUSH4 0xF7EE7A43 EQ PUSH2 0x5AE JUMPI PUSH1 0x0 DUP1 REVERT JUMPDEST DUP1 PUSH4 0xAD3CB1CC EQ PUSH2 0x4C4 JUMPI DUP1 PUSH4 0xC95C2FC7 EQ PUSH2 0x4F5 JUMPI DUP1 PUSH4 0xCEFEE7BC EQ PUSH2 0x515 JUMPI PUSH1 0x0 DUP1 REVERT JUMPDEST DUP1 PUSH4 0x95D89B41 GT PUSH2 0xC6 JUMPI DUP1 PUSH4 0x95D89B41 EQ PUSH2 0x43F JUMPI DUP1 PUSH4 0x9DC29FAC EQ PUSH2 0x454 JUMPI DUP1 PUSH4 0xA9059CBB EQ PUSH2 0x474 JUMPI DUP1 PUSH4 0xAA271E1A EQ PUSH2 0x494 JUMPI PUSH1 0x0 DUP1 REVERT JUMPDEST DUP1 PUSH4 0x715018A6 EQ PUSH2 0x3CD JUMPI DUP1 PUSH4 0x82F7D392 EQ PUSH2 0x3E2 JUMPI DUP1 PUSH4 0x8DA5CB5B EQ PUSH2 0x412 JUMPI PUSH1 0x0 DUP1 REVERT JUMPDEST DUP1 PUSH4 0x40C10F19 GT PUSH2 0x159 JUMPI DUP1 PUSH4 0x5EA3F9D1 GT PUSH2 0x133 JUMPI DUP1 PUSH4 0x5EA3F9D1 EQ PUSH2 0x31B JUMPI DUP1 PUSH4 0x6AA71D18 EQ PUSH2 0x33B JUMPI DUP1 PUSH4 0x6B32810B EQ PUSH2 0x368 JUMPI DUP1 PUSH4 0x70A08231 EQ PUSH2 0x38A JUMPI PUSH1 0x0 DUP1 REVERT JUMPDEST DUP1 PUSH4 0x40C10F19 EQ PUSH2 0x2D3 JUMPI DUP1 PUSH4 0x4F1EF286 EQ PUSH2 0x2F3 JUMPI DUP1 PUSH4 0x52D1902D EQ PUSH2 0x306 JUMPI PUSH1 0x0 DUP1 REVERT JUMPDEST DUP1 PUSH4 0x18160DDD GT PUSH2 0x195 JUMPI DUP1 PUSH4 0x18160DDD EQ PUSH2 0x239 JUMPI DUP1 PUSH4 0x23B872DD EQ PUSH2 0x277 JUMPI DUP1 PUSH4 0x3092AFD5 EQ PUSH2 0x297 JUMPI DUP1 PUSH4 0x313CE567 EQ PUSH2 0x2B7 JUMPI PUSH1 0x0 DUP1 REVERT JUMPDEST DUP1 PUSH4 0x6FDDE03 EQ PUSH2 0x1BC JUMPI DUP1 PUSH4 0x77F224A EQ PUSH2 0x1E7 JUMPI DUP1 PUSH4 0x95EA7B3 EQ PUSH2 0x209 JUMPI JUMPDEST PUSH1 0x0 DUP1 REVERT JUMPDEST CALLVALUE DUP1 ISZERO PUSH2 0x1C8 JUMPI PUSH1 0x0 DUP1 REVERT JUMPDEST POP PUSH2 0x1D1 PUSH2 0x5C5 JUMP JUMPDEST PUSH1 0x40 MLOAD PUSH2 0x1DE SWAP2 SWAP1 PUSH2 0x16BF JUMP JUMPDEST PUSH1 0x40 MLOAD DUP1 SWAP2 SUB SWAP1 RETURN JUMPDEST CALLVALUE DUP1 ISZERO PUSH2 0x1F3 JUMPI PUSH1 0x0 DUP1 REVERT JUMPDEST POP PUSH2 0x207 PUSH2 0x202 CALLDATASIZE PUSH1 0x4 PUSH2 0x17BE JUMP JUMPDEST PUSH2 0x688 JUMP JUMPDEST STOP JUMPDEST CALLVALUE DUP1 ISZERO PUSH2 0x215 JUMPI PUSH1 0x0 DUP1 REVERT JUMPDEST POP PUSH2 0x229 PUSH2 0x224 CALLDATASIZE PUSH1 0x4 PUSH2 0x1837 JUMP JUMPDEST PUSH2 0x7B4 JUMP JUMPDEST PUSH1 0x40 MLOAD SWAP1 ISZERO ISZERO DUP2 MSTORE PUSH1 0x20 ADD PUSH2 0x1DE JUMP JUMPDEST CALLVALUE DUP1 ISZERO PUSH2 0x245 JUMPI PUSH1 0x0 DUP1 REVERT JUMPDEST POP PUSH32 0x52C63247E1F47DB19D5CE0460030C497F067CA4CEBF71BA98EEADABE20BACE02 SLOAD JUMPDEST PUSH1 0x40 MLOAD SWAP1 DUP2 MSTORE PUSH1 0x20 ADD PUSH2 0x1DE JUMP JUMPDEST CALLVALUE DUP1 ISZERO PUSH2 0x283 JUMPI PUSH1 0x0 DUP1 REVERT JUMPDEST POP PUSH2 0x229 PUSH2 0x292 CALLDATASIZE PUSH1 0x4 PUSH2 0x1861 JUMP JUMPDEST PUSH2 0x7CE JUMP JUMPDEST CALLVALUE DUP1 ISZERO PUSH2 0x2A3 JUMPI PUSH1 0x0 DUP1 REVERT JUMPDEST POP PUSH2 0x207 PUSH2 0x2B2 CALLDATASIZE PUSH1 0x4 PUSH2 0x189E JUMP JUMPDEST PUSH2 0x7F4 JUMP JUMPDEST CALLVALUE DUP1 ISZERO PUSH2 0x2C3 JUMPI PUSH1 0x0 DUP1 REVERT JUMPDEST POP PUSH1 0x40 MLOAD PUSH1 0x12 DUP2 MSTORE PUSH1 0x20 ADD PUSH2 0x1DE JUMP JUMPDEST CALLVALUE DUP1 ISZERO PUSH2 0x2DF JUMPI PUSH1 0x0 DUP1 REVERT JUMPDEST POP PUSH2 0x207 PUSH2 0x2EE CALLDATASIZE PUSH1 0x4 PUSH2 0x1837 JUMP JUMPDEST PUSH2 0xA13 JUMP JUMPDEST PUSH2 0x207 PUSH2 0x301 CALLDATASIZE PUSH1 0x4 PUSH2 0x18B9 JUMP JUMPDEST PUSH2 0xAE1 JUMP JUMPDEST CALLVALUE DUP1 ISZERO PUSH2 0x312 JUMPI PUSH1 0x0 DUP1 REVERT JUMPDEST POP PUSH2 0x269 PUSH2 0xB00 JUMP JUMPDEST CALLVALUE DUP1 ISZERO PUSH2 0x327 JUMPI PUSH1 0x0 DUP1 REVERT JUMPDEST POP PUSH2 0x207 PUSH2 0x336 CALLDATASIZE PUSH1 0x4 PUSH2 0x189E JUMP JUMPDEST PUSH2 0xB1D JUMP JUMPDEST CALLVALUE DUP1 ISZERO PUSH2 0x347 JUMPI PUSH1 0x0 DUP1 REVERT JUMPDEST POP PUSH2 0x269 PUSH2 0x356 CALLDATASIZE PUSH1 0x4 PUSH2 0x189E JUMP JUMPDEST PUSH1 0x0 PUSH1 0x20 DUP2 SWAP1 MSTORE SWAP1 DUP2 MSTORE PUSH1 0x40 SWAP1 KECCAK256 SLOAD DUP2 JUMP JUMPDEST CALLVALUE DUP1 ISZERO PUSH2 0x374 JUMPI PUSH1 0x0 DUP1 REVERT JUMPDEST POP PUSH2 0x37D PUSH2 0xB88 JUMP JUMPDEST PUSH1 0x40 MLOAD PUSH2 0x1DE SWAP2 SWAP1 PUSH2 0x191B JUMP JUMPDEST CALLVALUE DUP1 ISZERO PUSH2 0x396 JUMPI PUSH1 0x0 DUP1 REVERT JUMPDEST POP PUSH2 0x269 PUSH2 0x3A5 CALLDATASIZE PUSH1 0x4 PUSH2 0x189E JUMP JUMPDEST PUSH1 0x1 PUSH1 0x1 PUSH1 0xA0 SHL SUB AND PUSH1 0x0 SWAP1 DUP2 MSTORE PUSH1 0x0 DUP1 MLOAD PUSH1 0x20 PUSH2 0x1BB4 DUP4 CODECOPY DUP2 MLOAD SWAP2 MSTORE PUSH1 0x20 MSTORE PUSH1 0x40 SWAP1 KECCAK256 SLOAD SWAP1 JUMP JUMPDEST CALLVALUE DUP1 ISZERO PUSH2 0x3D9 JUMPI PUSH1 0x0 DUP1 REVERT JUMPDEST POP PUSH2 0x207 PUSH2 0xBF2 JUMP JUMPDEST CALLVALUE DUP1 ISZERO PUSH2 0x3EE JUMPI PUSH1 0x0 DUP1 REVERT JUMPDEST POP PUSH2 0x229 PUSH2 0x3FD CALLDATASIZE PUSH1 0x4 PUSH2 0x189E JUMP JUMPDEST PUSH1 0x1 PUSH1 0x20 MSTORE PUSH1 0x0 SWAP1 DUP2 MSTORE PUSH1 0x40 SWAP1 KECCAK256 SLOAD PUSH1 0xFF AND DUP2 JUMP JUMPDEST CALLVALUE DUP1 ISZERO PUSH2 0x41E JUMPI PUSH1 0x0 DUP1 REVERT JUMPDEST POP PUSH2 0x427 PUSH2 0xC06 JUMP JUMPDEST PUSH1 0x40 MLOAD PUSH1 0x1 PUSH1 0x1 PUSH1 0xA0 SHL SUB SWAP1 SWAP2 AND DUP2 MSTORE PUSH1 0x20 ADD PUSH2 0x1DE JUMP JUMPDEST CALLVALUE DUP1 ISZERO PUSH2 0x44B JUMPI PUSH1 0x0 DUP1 REVERT JUMPDEST POP PUSH2 0x1D1 PUSH2 0xC34 JUMP JUMPDEST CALLVALUE DUP1 ISZERO PUSH2 0x460 JUMPI PUSH1 0x0 DUP1 REVERT JUMPDEST POP PUSH2 0x207 PUSH2 0x46F CALLDATASIZE PUSH1 0x4 PUSH2 0x1837 JUMP JUMPDEST PUSH2 0xC73 JUMP JUMPDEST CALLVALUE DUP1 ISZERO PUSH2 0x480 JUMPI PUSH1 0x0 DUP1 REVERT JUMPDEST POP PUSH2 0x229 PUSH2 0x48F CALLDATASIZE PUSH1 0x4 PUSH2 0x1837 JUMP JUMPDEST PUSH2 0xC85 JUMP JUMPDEST CALLVALUE DUP1 ISZERO PUSH2 0x4A0 JUMPI PUSH1 0x0 DUP1 REVERT JUMPDEST POP PUSH2 0x229 PUSH2 0x4AF CALLDATASIZE PUSH1 0x4 PUSH2 0x189E JUMP JUMPDEST PUSH1 0x2 PUSH1 0x20 MSTORE PUSH1 0x0 SWAP1 DUP2 MSTORE PUSH1 0x40 SWAP1 KECCAK256 SLOAD PUSH1 0xFF AND DUP2 JUMP JUMPDEST CALLVALUE DUP1 ISZERO PUSH2 0x4D0 JUMPI PUSH1 0x0 DUP1 REVERT JUMPDEST POP PUSH2 0x1D1 PUSH1 0x40 MLOAD DUP1 PUSH1 0x40 ADD PUSH1 0x40 MSTORE DUP1 PUSH1 0x5 DUP2 MSTORE PUSH1 0x20 ADD PUSH5 0x352E302E3 PUSH1 0xDC SHL DUP2 MSTORE POP DUP2 JUMP JUMPDEST CALLVALUE DUP1 ISZERO PUSH2 0x501 JUMPI PUSH1 0x0 DUP1 REVERT JUMPDEST POP PUSH2 0x207 PUSH2 0x510 CALLDATASIZE PUSH1 0x4 PUSH2 0x1967 JUMP JUMPDEST PUSH2 0xC93 JUMP JUMPDEST CALLVALUE DUP1 ISZERO PUSH2 0x521 JUMPI PUSH1 0x0 DUP1 REVERT JUMPDEST POP PUSH2 0x229 PUSH2 0x530 CALLDATASIZE PUSH1 0x4 PUSH2 0x189E JUMP JUMPDEST PUSH1 0x1 PUSH1 0x1 PUSH1 0xA0 SHL SUB AND PUSH1 0x0 SWAP1 DUP2 MSTORE PUSH1 0x1 PUSH1 0x20 MSTORE PUSH1 0x40 SWAP1 KECCAK256 SLOAD PUSH1 0xFF AND SWAP1 JUMP JUMPDEST CALLVALUE DUP1 ISZERO PUSH2 0x55A JUMPI PUSH1 0x0 DUP1 REVERT JUMPDEST POP PUSH2 0x207 PUSH2 0x569 CALLDATASIZE PUSH1 0x4 PUSH2 0x1967 JUMP JUMPDEST PUSH2 0xCC6 JUMP JUMPDEST CALLVALUE DUP1 ISZERO PUSH2 0x57A JUMPI PUSH1 0x0 DUP1 REVERT JUMPDEST POP PUSH2 0x269 PUSH2 0x589 CALLDATASIZE PUSH1 0x4 PUSH2 0x19A3 JUMP JUMPDEST PUSH2 0xD73 JUMP JUMPDEST CALLVALUE DUP1 ISZERO PUSH2 0x59A JUMPI PUSH1 0x0 DUP1 REVERT JUMPDEST POP PUSH2 0x207 PUSH2 0x5A9 CALLDATASIZE PUSH1 0x4 PUSH2 0x189E JUMP JUMPDEST PUSH2 0xDBD JUMP JUMPDEST CALLVALUE DUP1 ISZERO PUSH2 0x5BA JUMPI PUSH1 0x0 DUP1 REVERT JUMPDEST POP PUSH2 0x269 PUSH3 0x15180 DUP2 JUMP JUMPDEST PUSH32 0x52C63247E1F47DB19D5CE0460030C497F067CA4CEBF71BA98EEADABE20BACE03 DUP1 SLOAD PUSH1 0x60 SWAP2 PUSH1 0x0 DUP1 MLOAD PUSH1 0x20 PUSH2 0x1BB4 DUP4 CODECOPY DUP2 MLOAD SWAP2 MSTORE SWAP2 PUSH2 0x604 SWAP1 PUSH2 0x19D6 JUMP JUMPDEST DUP1 PUSH1 0x1F ADD PUSH1 0x20 DUP1 SWAP2 DIV MUL PUSH1 0x20 ADD PUSH1 0x40 MLOAD SWAP1 DUP2 ADD PUSH1 0x40 MSTORE DUP1 SWAP3 SWAP2 SWAP1 DUP2 DUP2 MSTORE PUSH1 0x20 ADD DUP3 DUP1 SLOAD PUSH2 0x630 SWAP1 PUSH2 0x19D6 JUMP JUMPDEST DUP1 ISZERO PUSH2 0x67D JUMPI DUP1 PUSH1 0x1F LT PUSH2 0x652 JUMPI PUSH2 0x100 DUP1 DUP4 SLOAD DIV MUL DUP4 MSTORE SWAP2 PUSH1 0x20 ADD SWAP2 PUSH2 0x67D JUMP JUMPDEST DUP3 ADD SWAP2 SWAP1 PUSH1 0x0 MSTORE PUSH1 0x20 PUSH1 0x0 KECCAK256 SWAP1 JUMPDEST DUP2 SLOAD DUP2 MSTORE SWAP1 PUSH1 0x1 ADD SWAP1 PUSH1 0x20 ADD DUP1 DUP4 GT PUSH2 0x660 JUMPI DUP3 SWAP1 SUB PUSH1 0x1F AND DUP3 ADD SWAP2 JUMPDEST POP POP POP POP POP SWAP2 POP POP SWAP1 JUMP JUMPDEST PUSH32 0xF0C57E16840DF040F15088DC2F81FE391C3923BEC73E23A9662EFC9C229C6A00 DUP1 SLOAD PUSH1 0x1 PUSH1 0x40 SHL DUP2 DIV PUSH1 0xFF AND ISZERO SWAP1 PUSH8 0xFFFFFFFFFFFFFFFF AND PUSH1 0x0 DUP2 ISZERO DUP1 ISZERO PUSH2 0x6CE JUMPI POP DUP3 JUMPDEST SWAP1 POP PUSH1 0x0 DUP3 PUSH8 0xFFFFFFFFFFFFFFFF AND PUSH1 0x1 EQ DUP1 ISZERO PUSH2 0x6EB JUMPI POP ADDRESS EXTCODESIZE ISZERO JUMPDEST SWAP1 POP DUP2 ISZERO DUP1 ISZERO PUSH2 0x6F9 JUMPI POP DUP1 ISZERO JUMPDEST ISZERO PUSH2 0x717 JUMPI PUSH1 0x40 MLOAD PUSH4 0xF92EE8A9 PUSH1 0xE0 SHL DUP2 MSTORE PUSH1 0x4 ADD PUSH1 0x40 MLOAD DUP1 SWAP2 SUB SWAP1 REVERT JUMPDEST DUP5 SLOAD PUSH8 0xFFFFFFFFFFFFFFFF NOT AND PUSH1 0x1 OR DUP6 SSTORE DUP4 ISZERO PUSH2 0x741 JUMPI DUP5 SLOAD PUSH1 0xFF PUSH1 0x40 SHL NOT AND PUSH1 0x1 PUSH1 0x40 SHL OR DUP6 SSTORE JUMPDEST PUSH2 0x74B DUP9 DUP9 PUSH2 0xDFB JUMP JUMPDEST PUSH2 0x754 DUP7 PUSH2 0xE0D JUMP JUMPDEST PUSH2 0x75C PUSH2 0xE1E JUMP JUMPDEST PUSH2 0x764 PUSH2 0xE2E JUMP JUMPDEST DUP4 ISZERO PUSH2 0x7AA JUMPI DUP5 SLOAD PUSH1 0xFF PUSH1 0x40 SHL NOT AND DUP6 SSTORE PUSH1 0x40 MLOAD PUSH1 0x1 DUP2 MSTORE PUSH32 0xC7F505B2F371AE2175EE4913F4499E1F2633A7B5936321EED1CDAEB6115181D2 SWAP1 PUSH1 0x20 ADD PUSH1 0x40 MLOAD DUP1 SWAP2 SUB SWAP1 LOG1 JUMPDEST POP POP POP POP POP POP POP POP JUMP JUMPDEST PUSH1 0x0 CALLER PUSH2 0x7C2 DUP2 DUP6 DUP6 PUSH2 0xE36 JUMP JUMPDEST PUSH1 0x1 SWAP2 POP POP JUMPDEST SWAP3 SWAP2 POP POP JUMP JUMPDEST PUSH1 0x0 CALLER PUSH2 0x7DC DUP6 DUP3 DUP6 PUSH2 0xE48 JUMP JUMPDEST PUSH2 0x7E7 DUP6 DUP6 DUP6 PUSH2 0xEAF JUMP JUMPDEST PUSH1 0x1 SWAP2 POP POP JUMPDEST SWAP4 SWAP3 POP POP POP JUMP JUMPDEST PUSH2 0x7FC PUSH2 0xF0E JUMP JUMPDEST PUSH1 0x1 PUSH1 0x1 PUSH1 0xA0 SHL SUB DUP2 AND PUSH2 0x849 JUMPI PUSH1 0x40 MLOAD PUSH3 0x461BCD PUSH1 0xE5 SHL DUP2 MSTORE PUSH1 0x20 PUSH1 0x4 DUP3 ADD MSTORE PUSH1 0xF PUSH1 0x24 DUP3 ADD MSTORE PUSH15 0x496E76616C69642061646472657373 PUSH1 0x88 SHL PUSH1 0x44 DUP3 ADD MSTORE PUSH1 0x64 ADD JUMPDEST PUSH1 0x40 MLOAD DUP1 SWAP2 SUB SWAP1 REVERT JUMPDEST PUSH1 0x1 PUSH1 0x1 PUSH1 0xA0 SHL SUB DUP2 AND PUSH1 0x0 SWAP1 DUP2 MSTORE PUSH1 0x2 PUSH1 0x20 MSTORE PUSH1 0x40 SWAP1 KECCAK256 SLOAD PUSH1 0xFF AND PUSH2 0x8B1 JUMPI PUSH1 0x40 MLOAD PUSH3 0x461BCD PUSH1 0xE5 SHL DUP2 MSTORE PUSH1 0x20 PUSH1 0x4 DUP3 ADD MSTORE PUSH1 0x17 PUSH1 0x24 DUP3 ADD MSTORE PUSH32 0x41646472657373206973206E6F742061206D696E746572000000000000000000 PUSH1 0x44 DUP3 ADD MSTORE PUSH1 0x64 ADD PUSH2 0x840 JUMP JUMPDEST PUSH1 0x1 PUSH1 0x1 PUSH1 0xA0 SHL SUB DUP2 AND PUSH1 0x0 SWAP1 DUP2 MSTORE PUSH1 0x2 PUSH1 0x20 MSTORE PUSH1 0x40 DUP2 KECCAK256 DUP1 SLOAD PUSH1 0xFF NOT AND SWAP1 SSTORE JUMPDEST PUSH1 0x3 SLOAD DUP2 LT ISZERO PUSH2 0x9CD JUMPI DUP2 PUSH1 0x1 PUSH1 0x1 PUSH1 0xA0 SHL SUB AND PUSH1 0x3 DUP3 DUP2 SLOAD DUP2 LT PUSH2 0x8F9 JUMPI PUSH2 0x8F9 PUSH2 0x1A10 JUMP JUMPDEST PUSH1 0x0 SWAP2 DUP3 MSTORE PUSH1 0x20 SWAP1 SWAP2 KECCAK256 ADD SLOAD PUSH1 0x1 PUSH1 0x1 PUSH1 0xA0 SHL SUB AND SUB PUSH2 0x9C5 JUMPI PUSH1 0x3 DUP1 SLOAD PUSH2 0x923 SWAP1 PUSH1 0x1 SWAP1 PUSH2 0x1A3C JUMP JUMPDEST DUP2 SLOAD DUP2 LT PUSH2 0x933 JUMPI PUSH2 0x933 PUSH2 0x1A10 JUMP JUMPDEST PUSH1 0x0 SWAP2 DUP3 MSTORE PUSH1 0x20 SWAP1 SWAP2 KECCAK256 ADD SLOAD PUSH1 0x3 DUP1 SLOAD PUSH1 0x1 PUSH1 0x1 PUSH1 0xA0 SHL SUB SWAP1 SWAP3 AND SWAP2 DUP4 SWAP1 DUP2 LT PUSH2 0x95F JUMPI PUSH2 0x95F PUSH2 0x1A10 JUMP JUMPDEST SWAP1 PUSH1 0x0 MSTORE PUSH1 0x20 PUSH1 0x0 KECCAK256 ADD PUSH1 0x0 PUSH2 0x100 EXP DUP2 SLOAD DUP2 PUSH1 0x1 PUSH1 0x1 PUSH1 0xA0 SHL SUB MUL NOT AND SWAP1 DUP4 PUSH1 0x1 PUSH1 0x1 PUSH1 0xA0 SHL SUB AND MUL OR SWAP1 SSTORE POP PUSH1 0x3 DUP1 SLOAD DUP1 PUSH2 0x99E JUMPI PUSH2 0x99E PUSH2 0x1A4F JUMP JUMPDEST PUSH1 0x0 DUP3 DUP2 MSTORE PUSH1 0x20 SWAP1 KECCAK256 DUP2 ADD PUSH1 0x0 NOT SWAP1 DUP2 ADD DUP1 SLOAD PUSH1 0x1 PUSH1 0x1 PUSH1 0xA0 SHL SUB NOT AND SWAP1 SSTORE ADD SWAP1 SSTORE PUSH2 0x9CD JUMP JUMPDEST PUSH1 0x1 ADD PUSH2 0x8D2 JUMP JUMPDEST POP PUSH1 0x40 DUP1 MLOAD PUSH1 0x1 PUSH1 0x1 PUSH1 0xA0 SHL SUB DUP4 AND DUP2 MSTORE PUSH1 0x0 PUSH1 0x20 DUP3 ADD MSTORE PUSH32 0x583B0AA0E528532CAF4B907C11D7A8158A122FE2A6FB80CD9B09776EBEA8D92D SWAP2 ADD PUSH1 0x40 MLOAD DUP1 SWAP2 SUB SWAP1 LOG1 POP JUMP JUMPDEST PUSH1 0x1 PUSH1 0x1 PUSH1 0xA0 SHL SUB DUP3 AND PUSH2 0xA3A JUMPI PUSH1 0x40 MLOAD PUSH4 0x22CE1113 PUSH1 0xE1 SHL DUP2 MSTORE PUSH1 0x4 ADD PUSH1 0x40 MLOAD DUP1 SWAP2 SUB SWAP1 REVERT JUMPDEST PUSH2 0xA42 PUSH2 0xC06 JUMP JUMPDEST PUSH1 0x1 PUSH1 0x1 PUSH1 0xA0 SHL SUB AND CALLER PUSH1 0x1 PUSH1 0x1 PUSH1 0xA0 SHL SUB AND EQ ISZERO DUP1 ISZERO PUSH2 0xA73 JUMPI POP CALLER PUSH1 0x0 SWAP1 DUP2 MSTORE PUSH1 0x2 PUSH1 0x20 MSTORE PUSH1 0x40 SWAP1 KECCAK256 SLOAD PUSH1 0xFF AND ISZERO JUMPDEST ISZERO PUSH2 0xA93 JUMPI PUSH1 0x40 MLOAD PUSH4 0xA4F39665 PUSH1 0xE0 SHL DUP2 MSTORE CALLER PUSH1 0x4 DUP3 ADD MSTORE PUSH1 0x24 ADD PUSH2 0x840 JUMP JUMPDEST PUSH2 0xA9D DUP3 DUP3 PUSH2 0xF40 JUMP JUMPDEST PUSH1 0x40 MLOAD DUP2 DUP2 MSTORE CALLER SWAP1 PUSH1 0x1 PUSH1 0x1 PUSH1 0xA0 SHL SUB DUP5 AND SWAP1 PUSH32 0x969CD201F68F120BAFF2BF3C59BC3B534434E08B69A71A14AB85CB79CD3B63E4 SWAP1 PUSH1 0x20 ADD PUSH1 0x40 MLOAD DUP1 SWAP2 SUB SWAP1 LOG3 POP POP JUMP JUMPDEST PUSH2 0xAE9 PUSH2 0xF76 JUMP JUMPDEST PUSH2 0xAF2 DUP3 PUSH2 0x101B JUMP JUMPDEST PUSH2 0xAFC DUP3 DUP3 PUSH2 0x1023 JUMP JUMPDEST POP POP JUMP JUMPDEST PUSH1 0x0 PUSH2 0xB0A PUSH2 0x10E0 JUMP JUMPDEST POP PUSH1 0x0 DUP1 MLOAD PUSH1 0x20 PUSH2 0x1BD4 DUP4 CODECOPY DUP2 MLOAD SWAP2 MSTORE SWAP1 JUMP JUMPDEST PUSH2 0xB25 PUSH2 0xF0E JUMP JUMPDEST PUSH2 0xB3A DUP2 PUSH11 0x84595161401484A000000 PUSH2 0xF40 JUMP JUMPDEST PUSH1 0x40 MLOAD PUSH11 0x84595161401484A000000 DUP2 MSTORE CALLER SWAP1 PUSH1 0x1 PUSH1 0x1 PUSH1 0xA0 SHL SUB DUP4 AND SWAP1 PUSH32 0x969CD201F68F120BAFF2BF3C59BC3B534434E08B69A71A14AB85CB79CD3B63E4 SWAP1 PUSH1 0x20 ADD PUSH1 0x40 MLOAD DUP1 SWAP2 SUB SWAP1 LOG3 POP JUMP JUMPDEST PUSH1 0x60 PUSH2 0xB92 PUSH2 0xF0E JUMP JUMPDEST PUSH1 0x3 DUP1 SLOAD DUP1 PUSH1 0x20 MUL PUSH1 0x20 ADD PUSH1 0x40 MLOAD SWAP1 DUP2 ADD PUSH1 0x40 MSTORE DUP1 SWAP3 SWAP2 SWAP1 DUP2 DUP2 MSTORE PUSH1 0x20 ADD DUP3 DUP1 SLOAD DUP1 ISZERO PUSH2 0xBE8 JUMPI PUSH1 0x20 MUL DUP3 ADD SWAP2 SWAP1 PUSH1 0x0 MSTORE PUSH1 0x20 PUSH1 0x0 KECCAK256 SWAP1 JUMPDEST DUP2 SLOAD PUSH1 0x1 PUSH1 0x1 PUSH1 0xA0 SHL SUB AND DUP2 MSTORE PUSH1 0x1 SWAP1 SWAP2 ADD SWAP1 PUSH1 0x20 ADD DUP1 DUP4 GT PUSH2 0xBCA JUMPI JUMPDEST POP POP POP POP POP SWAP1 POP SWAP1 JUMP JUMPDEST PUSH2 0xBFA PUSH2 0xF0E JUMP JUMPDEST PUSH2 0xC04 PUSH1 0x0 PUSH2 0x1129 JUMP JUMPDEST JUMP JUMPDEST PUSH32 0x9016D09D72D40FDAE2FD8CEAC6B6234C7706214FD39C1CD1E609A0528C199300 SLOAD PUSH1 0x1 PUSH1 0x1 PUSH1 0xA0 SHL SUB AND SWAP1 JUMP JUMPDEST PUSH32 0x52C63247E1F47DB19D5CE0460030C497F067CA4CEBF71BA98EEADABE20BACE04 DUP1 SLOAD PUSH1 0x60 SWAP2 PUSH1 0x0 DUP1 MLOAD PUSH1 0x20 PUSH2 0x1BB4 DUP4 CODECOPY DUP2 MLOAD SWAP2 MSTORE SWAP2 PUSH2 0x604 SWAP1 PUSH2 0x19D6 JUMP JUMPDEST PUSH2 0xC7B PUSH2 0xF0E JUMP JUMPDEST PUSH2 0xAFC DUP3 DUP3 PUSH2 0x119A JUMP JUMPDEST PUSH1 0x0 CALLER PUSH2 0x7C2 DUP2 DUP6 DUP6 PUSH2 0xEAF JUMP JUMPDEST PUSH2 0xC9B PUSH2 0xF0E JUMP JUMPDEST PUSH1 0x1 PUSH1 0x1 PUSH1 0xA0 SHL SUB SWAP2 SWAP1 SWAP2 AND PUSH1 0x0 SWAP1 DUP2 MSTORE PUSH1 0x1 PUSH1 0x20 MSTORE PUSH1 0x40 SWAP1 KECCAK256 DUP1 SLOAD PUSH1 0xFF NOT AND SWAP2 ISZERO ISZERO SWAP2 SWAP1 SWAP2 OR SWAP1 SSTORE JUMP JUMPDEST PUSH2 0xCCE PUSH2 0xF0E JUMP JUMPDEST PUSH1 0x1 PUSH1 0x1 PUSH1 0xA0 SHL SUB DUP3 AND PUSH1 0x0 DUP2 DUP2 MSTORE PUSH1 0x2 PUSH1 0x20 SWAP1 DUP2 MSTORE PUSH1 0x40 DUP1 DUP4 KECCAK256 DUP1 SLOAD PUSH1 0xFF NOT AND DUP7 ISZERO ISZERO SWAP1 DUP2 OR SWAP1 SWAP2 SSTORE PUSH1 0x3 DUP1 SLOAD PUSH1 0x1 DUP2 ADD DUP3 SSTORE SWAP5 MSTORE PUSH32 0xC2575A0E9E593C00F959F8C92F12DB2869C3395A3B0502D05E2516446F71F85B SWAP1 SWAP4 ADD DUP1 SLOAD PUSH1 0x1 PUSH1 0x1 PUSH1 0xA0 SHL SUB NOT AND DUP6 OR SWAP1 SSTORE DUP1 MLOAD SWAP4 DUP5 MSTORE SWAP1 DUP4 ADD SWAP2 SWAP1 SWAP2 MSTORE PUSH32 0x583B0AA0E528532CAF4B907C11D7A8158A122FE2A6FB80CD9B09776EBEA8D92D SWAP2 ADD PUSH1 0x40 MLOAD DUP1 SWAP2 SUB SWAP1 LOG1 POP POP JUMP JUMPDEST PUSH1 0x1 PUSH1 0x1 PUSH1 0xA0 SHL SUB SWAP2 DUP3 AND PUSH1 0x0 SWAP1 DUP2 MSTORE PUSH32 0x52C63247E1F47DB19D5CE0460030C497F067CA4CEBF71BA98EEADABE20BACE01 PUSH1 0x20 SWAP1 DUP2 MSTORE PUSH1 0x40 DUP1 DUP4 KECCAK256 SWAP4 SWAP1 SWAP5 AND DUP3 MSTORE SWAP2 SWAP1 SWAP2 MSTORE KECCAK256 SLOAD SWAP1 JUMP JUMPDEST PUSH2 0xDC5 PUSH2 0xF0E JUMP JUMPDEST PUSH1 0x1 PUSH1 0x1 PUSH1 0xA0 SHL SUB DUP2 AND PUSH2 0xDEF JUMPI PUSH1 0x40 MLOAD PUSH4 0x1E4FBDF7 PUSH1 0xE0 SHL DUP2 MSTORE PUSH1 0x0 PUSH1 0x4 DUP3 ADD MSTORE PUSH1 0x24 ADD PUSH2 0x840 JUMP JUMPDEST PUSH2 0xDF8 DUP2 PUSH2 0x1129 JUMP JUMPDEST POP JUMP JUMPDEST PUSH2 0xE03 PUSH2 0x11D0 JUMP JUMPDEST PUSH2 0xAFC DUP3 DUP3 PUSH2 0x1219 JUMP JUMPDEST PUSH2 0xE15 PUSH2 0x11D0 JUMP JUMPDEST PUSH2 0xDF8 DUP2 PUSH2 0x126A JUMP JUMPDEST PUSH2 0xE26 PUSH2 0x11D0 JUMP JUMPDEST PUSH2 0xC04 PUSH2 0x1272 JUMP JUMPDEST PUSH2 0xC04 PUSH2 0x11D0 JUMP JUMPDEST PUSH2 0xE43 DUP4 DUP4 DUP4 PUSH1 0x1 PUSH2 0x12A0 JUMP JUMPDEST POP POP POP JUMP JUMPDEST PUSH1 0x0 PUSH2 0xE54 DUP5 DUP5 PUSH2 0xD73 JUMP JUMPDEST SWAP1 POP PUSH1 0x0 NOT DUP2 LT ISZERO PUSH2 0xEA9 JUMPI DUP2 DUP2 LT ISZERO PUSH2 0xE9A JUMPI PUSH1 0x40 MLOAD PUSH4 0x7DC7A0D9 PUSH1 0xE1 SHL DUP2 MSTORE PUSH1 0x1 PUSH1 0x1 PUSH1 0xA0 SHL SUB DUP5 AND PUSH1 0x4 DUP3 ADD MSTORE PUSH1 0x24 DUP2 ADD DUP3 SWAP1 MSTORE PUSH1 0x44 DUP2 ADD DUP4 SWAP1 MSTORE PUSH1 0x64 ADD PUSH2 0x840 JUMP JUMPDEST PUSH2 0xEA9 DUP5 DUP5 DUP5 DUP5 SUB PUSH1 0x0 PUSH2 0x12A0 JUMP JUMPDEST POP POP POP POP JUMP JUMPDEST PUSH1 0x1 PUSH1 0x1 PUSH1 0xA0 SHL SUB DUP4 AND PUSH2 0xED9 JUMPI PUSH1 0x40 MLOAD PUSH4 0x4B637E8F PUSH1 0xE1 SHL DUP2 MSTORE PUSH1 0x0 PUSH1 0x4 DUP3 ADD MSTORE PUSH1 0x24 ADD PUSH2 0x840 JUMP JUMPDEST PUSH1 0x1 PUSH1 0x1 PUSH1 0xA0 SHL SUB DUP3 AND PUSH2 0xF03 JUMPI PUSH1 0x40 MLOAD PUSH4 0xEC442F05 PUSH1 0xE0 SHL DUP2 MSTORE PUSH1 0x0 PUSH1 0x4 DUP3 ADD MSTORE PUSH1 0x24 ADD PUSH2 0x840 JUMP JUMPDEST PUSH2 0xE43 DUP4 DUP4 DUP4 PUSH2 0x1388 JUMP JUMPDEST CALLER PUSH2 0xF17 PUSH2 0xC06 JUMP JUMPDEST PUSH1 0x1 PUSH1 0x1 PUSH1 0xA0 SHL SUB AND EQ PUSH2 0xC04 JUMPI PUSH1 0x40 MLOAD PUSH4 0x118CDAA7 PUSH1 0xE0 SHL DUP2 MSTORE CALLER PUSH1 0x4 DUP3 ADD MSTORE PUSH1 0x24 ADD PUSH2 0x840 JUMP JUMPDEST PUSH1 0x1 PUSH1 0x1 PUSH1 0xA0 SHL SUB DUP3 AND PUSH2 0xF6A JUMPI PUSH1 0x40 MLOAD PUSH4 0xEC442F05 PUSH1 0xE0 SHL DUP2 MSTORE PUSH1 0x0 PUSH1 0x4 DUP3 ADD MSTORE PUSH1 0x24 ADD PUSH2 0x840 JUMP JUMPDEST PUSH2 0xAFC PUSH1 0x0 DUP4 DUP4 PUSH2 0x1388 JUMP JUMPDEST ADDRESS PUSH1 0x1 PUSH1 0x1 PUSH1 0xA0 SHL SUB PUSH32 0x0 AND EQ DUP1 PUSH2 0xFFD JUMPI POP PUSH32 0x0 PUSH1 0x1 PUSH1 0x1 PUSH1 0xA0 SHL SUB AND PUSH2 0xFF1 PUSH1 0x0 DUP1 MLOAD PUSH1 0x20 PUSH2 0x1BD4 DUP4 CODECOPY DUP2 MLOAD SWAP2 MSTORE SLOAD PUSH1 0x1 PUSH1 0x1 PUSH1 0xA0 SHL SUB AND SWAP1 JUMP JUMPDEST PUSH1 0x1 PUSH1 0x1 PUSH1 0xA0 SHL SUB AND EQ ISZERO JUMPDEST ISZERO PUSH2 0xC04 JUMPI PUSH1 0x40 MLOAD PUSH4 0x703E46DD PUSH1 0xE1 SHL DUP2 MSTORE PUSH1 0x4 ADD PUSH1 0x40 MLOAD DUP1 SWAP2 SUB SWAP1 REVERT JUMPDEST PUSH2 0xDF8 PUSH2 0xF0E JUMP JUMPDEST DUP2 PUSH1 0x1 PUSH1 0x1 PUSH1 0xA0 SHL SUB AND PUSH4 0x52D1902D PUSH1 0x40 MLOAD DUP2 PUSH4 0xFFFFFFFF AND PUSH1 0xE0 SHL DUP2 MSTORE PUSH1 0x4 ADD PUSH1 0x20 PUSH1 0x40 MLOAD DUP1 DUP4 SUB DUP2 DUP7 GAS STATICCALL SWAP3 POP POP POP DUP1 ISZERO PUSH2 0x107D JUMPI POP PUSH1 0x40 DUP1 MLOAD PUSH1 0x1F RETURNDATASIZE SWAP1 DUP2 ADD PUSH1 0x1F NOT AND DUP3 ADD SWAP1 SWAP3 MSTORE PUSH2 0x107A SWAP2 DUP2 ADD SWAP1 PUSH2 0x1A65 JUMP JUMPDEST PUSH1 0x1 JUMPDEST PUSH2 0x10A5 JUMPI PUSH1 0x40 MLOAD PUSH4 0x4C9C8CE3 PUSH1 0xE0 SHL DUP2 MSTORE PUSH1 0x1 PUSH1 0x1 PUSH1 0xA0 SHL SUB DUP4 AND PUSH1 0x4 DUP3 ADD MSTORE PUSH1 0x24 ADD PUSH2 0x840 JUMP JUMPDEST PUSH1 0x0 DUP1 MLOAD PUSH1 0x20 PUSH2 0x1BD4 DUP4 CODECOPY DUP2 MLOAD SWAP2 MSTORE DUP2 EQ PUSH2 0x10D6 JUMPI PUSH1 0x40 MLOAD PUSH4 0x2A875269 PUSH1 0xE2 SHL DUP2 MSTORE PUSH1 0x4 DUP2 ADD DUP3 SWAP1 MSTORE PUSH1 0x24 ADD PUSH2 0x840 JUMP JUMPDEST PUSH2 0xE43 DUP4 DUP4 PUSH2 0x14C6 JUMP JUMPDEST ADDRESS PUSH1 0x1 PUSH1 0x1 PUSH1 0xA0 SHL SUB PUSH32 0x0 AND EQ PUSH2 0xC04 JUMPI PUSH1 0x40 MLOAD PUSH4 0x703E46DD PUSH1 0xE1 SHL DUP2 MSTORE PUSH1 0x4 ADD PUSH1 0x40 MLOAD DUP1 SWAP2 SUB SWAP1 REVERT JUMPDEST PUSH32 0x9016D09D72D40FDAE2FD8CEAC6B6234C7706214FD39C1CD1E609A0528C199300 DUP1 SLOAD PUSH1 0x1 PUSH1 0x1 PUSH1 0xA0 SHL SUB NOT DUP2 AND PUSH1 0x1 PUSH1 0x1 PUSH1 0xA0 SHL SUB DUP5 DUP2 AND SWAP2 DUP3 OR DUP5 SSTORE PUSH1 0x40 MLOAD SWAP3 AND SWAP2 DUP3 SWAP1 PUSH32 0x8BE0079C531659141344CD1FD0A4F28419497F9722A3DAAFE3B4186F6B6457E0 SWAP1 PUSH1 0x0 SWAP1 LOG3 POP POP POP JUMP JUMPDEST PUSH1 0x1 PUSH1 0x1 PUSH1 0xA0 SHL SUB DUP3 AND PUSH2 0x11C4 JUMPI PUSH1 0x40 MLOAD PUSH4 0x4B637E8F PUSH1 0xE1 SHL DUP2 MSTORE PUSH1 0x0 PUSH1 0x4 DUP3 ADD MSTORE PUSH1 0x24 ADD PUSH2 0x840 JUMP JUMPDEST PUSH2 0xAFC DUP3 PUSH1 0x0 DUP4 PUSH2 0x1388 JUMP JUMPDEST PUSH32 0xF0C57E16840DF040F15088DC2F81FE391C3923BEC73E23A9662EFC9C229C6A00 SLOAD PUSH1 0x1 PUSH1 0x40 SHL SWAP1 DIV PUSH1 0xFF AND PUSH2 0xC04 JUMPI PUSH1 0x40 MLOAD PUSH4 0x1AFCD79F PUSH1 0xE3 SHL DUP2 MSTORE PUSH1 0x4 ADD PUSH1 0x40 MLOAD DUP1 SWAP2 SUB SWAP1 REVERT JUMPDEST PUSH2 0x1221 PUSH2 0x11D0 JUMP JUMPDEST PUSH1 0x0 DUP1 MLOAD PUSH1 0x20 PUSH2 0x1BB4 DUP4 CODECOPY DUP2 MLOAD SWAP2 MSTORE PUSH32 0x52C63247E1F47DB19D5CE0460030C497F067CA4CEBF71BA98EEADABE20BACE03 PUSH2 0x125B DUP5 DUP3 PUSH2 0x1AC5 JUMP JUMPDEST POP PUSH1 0x4 DUP2 ADD PUSH2 0xEA9 DUP4 DUP3 PUSH2 0x1AC5 JUMP JUMPDEST PUSH2 0xDC5 PUSH2 0x11D0 JUMP JUMPDEST PUSH2 0x127A PUSH2 0x11D0 JUMP JUMPDEST PUSH1 0x1 PUSH32 0x9B779B17422D0DF92223018B32B4D1FA46E071723D6817E2486D003BECC55F00 SSTORE JUMP JUMPDEST PUSH1 0x0 DUP1 MLOAD PUSH1 0x20 PUSH2 0x1BB4 DUP4 CODECOPY DUP2 MLOAD SWAP2 MSTORE PUSH1 0x1 PUSH1 0x1 PUSH1 0xA0 SHL SUB DUP6 AND PUSH2 0x12D9 JUMPI PUSH1 0x40 MLOAD PUSH4 0xE602DF05 PUSH1 0xE0 SHL DUP2 MSTORE PUSH1 0x0 PUSH1 0x4 DUP3 ADD MSTORE PUSH1 0x24 ADD PUSH2 0x840 JUMP JUMPDEST PUSH1 0x1 PUSH1 0x1 PUSH1 0xA0 SHL SUB DUP5 AND PUSH2 0x1303 JUMPI PUSH1 0x40 MLOAD PUSH4 0x4A1406B1 PUSH1 0xE1 SHL DUP2 MSTORE PUSH1 0x0 PUSH1 0x4 DUP3 ADD MSTORE PUSH1 0x24 ADD PUSH2 0x840 JUMP JUMPDEST PUSH1 0x1 PUSH1 0x1 PUSH1 0xA0 SHL SUB DUP1 DUP7 AND PUSH1 0x0 SWAP1 DUP2 MSTORE PUSH1 0x1 DUP4 ADD PUSH1 0x20 SWAP1 DUP2 MSTORE PUSH1 0x40 DUP1 DUP4 KECCAK256 SWAP4 DUP9 AND DUP4 MSTORE SWAP3 SWAP1 MSTORE KECCAK256 DUP4 SWAP1 SSTORE DUP2 ISZERO PUSH2 0x1381 JUMPI DUP4 PUSH1 0x1 PUSH1 0x1 PUSH1 0xA0 SHL SUB AND DUP6 PUSH1 0x1 PUSH1 0x1 PUSH1 0xA0 SHL SUB AND PUSH32 0x8C5BE1E5EBEC7D5BD14F71427D1E84F3DD0314C0F7B2291E5B200AC8C7C3B925 DUP6 PUSH1 0x40 MLOAD PUSH2 0x1378 SWAP2 DUP2 MSTORE PUSH1 0x20 ADD SWAP1 JUMP JUMPDEST PUSH1 0x40 MLOAD DUP1 SWAP2 SUB SWAP1 LOG3 JUMPDEST POP POP POP POP POP JUMP JUMPDEST PUSH1 0x0 DUP1 MLOAD PUSH1 0x20 PUSH2 0x1BB4 DUP4 CODECOPY DUP2 MLOAD SWAP2 MSTORE PUSH1 0x1 PUSH1 0x1 PUSH1 0xA0 SHL SUB DUP5 AND PUSH2 0x13C4 JUMPI DUP2 DUP2 PUSH1 0x2 ADD PUSH1 0x0 DUP3 DUP3 SLOAD PUSH2 0x13B9 SWAP2 SWAP1 PUSH2 0x1B84 JUMP JUMPDEST SWAP1 SWAP2 SSTORE POP PUSH2 0x1436 SWAP1 POP JUMP JUMPDEST PUSH1 0x1 PUSH1 0x1 PUSH1 0xA0 SHL SUB DUP5 AND PUSH1 0x0 SWAP1 DUP2 MSTORE PUSH1 0x20 DUP3 SWAP1 MSTORE PUSH1 0x40 SWAP1 KECCAK256 SLOAD DUP3 DUP2 LT ISZERO PUSH2 0x1417 JUMPI PUSH1 0x40 MLOAD PUSH4 0x391434E3 PUSH1 0xE2 SHL DUP2 MSTORE PUSH1 0x1 PUSH1 0x1 PUSH1 0xA0 SHL SUB DUP7 AND PUSH1 0x4 DUP3 ADD MSTORE PUSH1 0x24 DUP2 ADD DUP3 SWAP1 MSTORE PUSH1 0x44 DUP2 ADD DUP5 SWAP1 MSTORE PUSH1 0x64 ADD PUSH2 0x840 JUMP JUMPDEST PUSH1 0x1 PUSH1 0x1 PUSH1 0xA0 SHL SUB DUP6 AND PUSH1 0x0 SWAP1 DUP2 MSTORE PUSH1 0x20 DUP4 SWAP1 MSTORE PUSH1 0x40 SWAP1 KECCAK256 SWAP1 DUP4 SWAP1 SUB SWAP1 SSTORE JUMPDEST PUSH1 0x1 PUSH1 0x1 PUSH1 0xA0 SHL SUB DUP4 AND PUSH2 0x1454 JUMPI PUSH1 0x2 DUP2 ADD DUP1 SLOAD DUP4 SWAP1 SUB SWAP1 SSTORE PUSH2 0x1473 JUMP JUMPDEST PUSH1 0x1 PUSH1 0x1 PUSH1 0xA0 SHL SUB DUP4 AND PUSH1 0x0 SWAP1 DUP2 MSTORE PUSH1 0x20 DUP3 SWAP1 MSTORE PUSH1 0x40 SWAP1 KECCAK256 DUP1 SLOAD DUP4 ADD SWAP1 SSTORE JUMPDEST DUP3 PUSH1 0x1 PUSH1 0x1 PUSH1 0xA0 SHL SUB AND DUP5 PUSH1 0x1 PUSH1 0x1 PUSH1 0xA0 SHL SUB AND PUSH32 0xDDF252AD1BE2C89B69C2B068FC378DAA952BA7F163C4A11628F55A4DF523B3EF DUP5 PUSH1 0x40 MLOAD PUSH2 0x14B8 SWAP2 DUP2 MSTORE PUSH1 0x20 ADD SWAP1 JUMP JUMPDEST PUSH1 0x40 MLOAD DUP1 SWAP2 SUB SWAP1 LOG3 POP POP POP POP JUMP JUMPDEST PUSH2 0x14CF DUP3 PUSH2 0x151C JUMP JUMPDEST PUSH1 0x40 MLOAD PUSH1 0x1 PUSH1 0x1 PUSH1 0xA0 SHL SUB DUP4 AND SWAP1 PUSH32 0xBC7CD75A20EE27FD9ADEBAB32041F755214DBC6BFFA90CC0225B39DA2E5C2D3B SWAP1 PUSH1 0x0 SWAP1 LOG2 DUP1 MLOAD ISZERO PUSH2 0x1514 JUMPI PUSH2 0xE43 DUP3 DUP3 PUSH2 0x1581 JUMP JUMPDEST PUSH2 0xAFC PUSH2 0x15F7 JUMP JUMPDEST DUP1 PUSH1 0x1 PUSH1 0x1 PUSH1 0xA0 SHL SUB AND EXTCODESIZE PUSH1 0x0 SUB PUSH2 0x1552 JUMPI PUSH1 0x40 MLOAD PUSH4 0x4C9C8CE3 PUSH1 0xE0 SHL DUP2 MSTORE PUSH1 0x1 PUSH1 0x1 PUSH1 0xA0 SHL SUB DUP3 AND PUSH1 0x4 DUP3 ADD MSTORE PUSH1 0x24 ADD PUSH2 0x840 JUMP JUMPDEST PUSH1 0x0 DUP1 MLOAD PUSH1 0x20 PUSH2 0x1BD4 DUP4 CODECOPY DUP2 MLOAD SWAP2 MSTORE DUP1 SLOAD PUSH1 0x1 PUSH1 0x1 PUSH1 0xA0 SHL SUB NOT AND PUSH1 0x1 PUSH1 0x1 PUSH1 0xA0 SHL SUB SWAP3 SWAP1 SWAP3 AND SWAP2 SWAP1 SWAP2 OR SWAP1 SSTORE JUMP JUMPDEST PUSH1 0x60 PUSH1 0x0 DUP1 DUP5 PUSH1 0x1 PUSH1 0x1 PUSH1 0xA0 SHL SUB AND DUP5 PUSH1 0x40 MLOAD PUSH2 0x159E SWAP2 SWAP1 PUSH2 0x1B97 JUMP JUMPDEST PUSH1 0x0 PUSH1 0x40 MLOAD DUP1 DUP4 SUB DUP2 DUP6 GAS DELEGATECALL SWAP2 POP POP RETURNDATASIZE DUP1 PUSH1 0x0 DUP2 EQ PUSH2 0x15D9 JUMPI PUSH1 0x40 MLOAD SWAP2 POP PUSH1 0x1F NOT PUSH1 0x3F RETURNDATASIZE ADD AND DUP3 ADD PUSH1 0x40 MSTORE RETURNDATASIZE DUP3 MSTORE RETURNDATASIZE PUSH1 0x0 PUSH1 0x20 DUP5 ADD RETURNDATACOPY PUSH2 0x15DE JUMP JUMPDEST PUSH1 0x60 SWAP2 POP JUMPDEST POP SWAP2 POP SWAP2 POP PUSH2 0x15EE DUP6 DUP4 DUP4 PUSH2 0x1616 JUMP JUMPDEST SWAP6 SWAP5 POP POP POP POP POP JUMP JUMPDEST CALLVALUE ISZERO PUSH2 0xC04 JUMPI PUSH1 0x40 MLOAD PUSH4 0xB398979F PUSH1 0xE0 SHL DUP2 MSTORE PUSH1 0x4 ADD PUSH1 0x40 MLOAD DUP1 SWAP2 SUB SWAP1 REVERT JUMPDEST PUSH1 0x60 DUP3 PUSH2 0x162B JUMPI PUSH2 0x1626 DUP3 PUSH2 0x1672 JUMP JUMPDEST PUSH2 0x7ED JUMP JUMPDEST DUP2 MLOAD ISZERO DUP1 ISZERO PUSH2 0x1642 JUMPI POP PUSH1 0x1 PUSH1 0x1 PUSH1 0xA0 SHL SUB DUP5 AND EXTCODESIZE ISZERO JUMPDEST ISZERO PUSH2 0x166B JUMPI PUSH1 0x40 MLOAD PUSH4 0x9996B315 PUSH1 0xE0 SHL DUP2 MSTORE PUSH1 0x1 PUSH1 0x1 PUSH1 0xA0 SHL SUB DUP6 AND PUSH1 0x4 DUP3 ADD MSTORE PUSH1 0x24 ADD PUSH2 0x840 JUMP JUMPDEST POP DUP1 PUSH2 0x7ED JUMP JUMPDEST DUP1 MLOAD ISZERO PUSH2 0x1682 JUMPI DUP1 MLOAD DUP1 DUP3 PUSH1 0x20 ADD REVERT JUMPDEST PUSH1 0x40 MLOAD PUSH4 0xD6BDA275 PUSH1 0xE0 SHL DUP2 MSTORE PUSH1 0x4 ADD PUSH1 0x40 MLOAD DUP1 SWAP2 SUB SWAP1 REVERT JUMPDEST PUSH1 0x0 JUMPDEST DUP4 DUP2 LT ISZERO PUSH2 0x16B6 JUMPI DUP2 DUP2 ADD MLOAD DUP4 DUP3 ADD MSTORE PUSH1 0x20 ADD PUSH2 0x169E JUMP JUMPDEST POP POP PUSH1 0x0 SWAP2 ADD MSTORE JUMP JUMPDEST PUSH1 0x20 DUP2 MSTORE PUSH1 0x0 DUP3 MLOAD DUP1 PUSH1 0x20 DUP5 ADD MSTORE PUSH2 0x16DE DUP2 PUSH1 0x40 DUP6 ADD PUSH1 0x20 DUP8 ADD PUSH2 0x169B JUMP JUMPDEST PUSH1 0x1F ADD PUSH1 0x1F NOT AND SWAP2 SWAP1 SWAP2 ADD PUSH1 0x40 ADD SWAP3 SWAP2 POP POP JUMP JUMPDEST PUSH4 0x4E487B71 PUSH1 0xE0 SHL PUSH1 0x0 MSTORE PUSH1 0x41 PUSH1 0x4 MSTORE PUSH1 0x24 PUSH1 0x0 REVERT JUMPDEST PUSH1 0x0 DUP1 PUSH8 0xFFFFFFFFFFFFFFFF DUP5 GT ISZERO PUSH2 0x1723 JUMPI PUSH2 0x1723 PUSH2 0x16F2 JUMP JUMPDEST POP PUSH1 0x40 MLOAD PUSH1 0x1F NOT PUSH1 0x1F DUP6 ADD DUP2 AND PUSH1 0x3F ADD AND DUP2 ADD DUP2 DUP2 LT PUSH8 0xFFFFFFFFFFFFFFFF DUP3 GT OR ISZERO PUSH2 0x1752 JUMPI PUSH2 0x1752 PUSH2 0x16F2 JUMP JUMPDEST PUSH1 0x40 MSTORE DUP4 DUP2 MSTORE SWAP1 POP DUP1 DUP3 DUP5 ADD DUP6 LT ISZERO PUSH2 0x176A JUMPI PUSH1 0x0 DUP1 REVERT JUMPDEST DUP4 DUP4 PUSH1 0x20 DUP4 ADD CALLDATACOPY PUSH1 0x0 PUSH1 0x20 DUP6 DUP4 ADD ADD MSTORE POP SWAP4 SWAP3 POP POP POP JUMP JUMPDEST PUSH1 0x0 DUP3 PUSH1 0x1F DUP4 ADD SLT PUSH2 0x1793 JUMPI PUSH1 0x0 DUP1 REVERT JUMPDEST PUSH2 0x7ED DUP4 DUP4 CALLDATALOAD PUSH1 0x20 DUP6 ADD PUSH2 0x1708 JUMP JUMPDEST DUP1 CALLDATALOAD PUSH1 0x1 PUSH1 0x1 PUSH1 0xA0 SHL SUB DUP2 AND DUP2 EQ PUSH2 0x17B9 JUMPI PUSH1 0x0 DUP1 REVERT JUMPDEST SWAP2 SWAP1 POP JUMP JUMPDEST PUSH1 0x0 DUP1 PUSH1 0x0 PUSH1 0x60 DUP5 DUP7 SUB SLT ISZERO PUSH2 0x17D3 JUMPI PUSH1 0x0 DUP1 REVERT JUMPDEST DUP4 CALLDATALOAD PUSH8 0xFFFFFFFFFFFFFFFF DUP2 GT ISZERO PUSH2 0x17EA JUMPI PUSH1 0x0 DUP1 REVERT JUMPDEST PUSH2 0x17F6 DUP7 DUP3 DUP8 ADD PUSH2 0x1782 JUMP JUMPDEST SWAP4 POP POP PUSH1 0x20 DUP5 ADD CALLDATALOAD PUSH8 0xFFFFFFFFFFFFFFFF DUP2 GT ISZERO PUSH2 0x1813 JUMPI PUSH1 0x0 DUP1 REVERT JUMPDEST PUSH2 0x181F DUP7 DUP3 DUP8 ADD PUSH2 0x1782 JUMP JUMPDEST SWAP3 POP POP PUSH2 0x182E PUSH1 0x40 DUP6 ADD PUSH2 0x17A2 JUMP JUMPDEST SWAP1 POP SWAP3 POP SWAP3 POP SWAP3 JUMP JUMPDEST PUSH1 0x0 DUP1 PUSH1 0x40 DUP4 DUP6 SUB SLT ISZERO PUSH2 0x184A JUMPI PUSH1 0x0 DUP1 REVERT JUMPDEST PUSH2 0x1853 DUP4 PUSH2 0x17A2 JUMP JUMPDEST SWAP5 PUSH1 0x20 SWAP4 SWAP1 SWAP4 ADD CALLDATALOAD SWAP4 POP POP POP JUMP JUMPDEST PUSH1 0x0 DUP1 PUSH1 0x0 PUSH1 0x60 DUP5 DUP7 SUB SLT ISZERO PUSH2 0x1876 JUMPI PUSH1 0x0 DUP1 REVERT JUMPDEST PUSH2 0x187F DUP5 PUSH2 0x17A2 JUMP JUMPDEST SWAP3 POP PUSH2 0x188D PUSH1 0x20 DUP6 ADD PUSH2 0x17A2 JUMP JUMPDEST SWAP3 SWAP6 SWAP3 SWAP5 POP POP POP PUSH1 0x40 SWAP2 SWAP1 SWAP2 ADD CALLDATALOAD SWAP1 JUMP JUMPDEST PUSH1 0x0 PUSH1 0x20 DUP3 DUP5 SUB SLT ISZERO PUSH2 0x18B0 JUMPI PUSH1 0x0 DUP1 REVERT JUMPDEST PUSH2 0x7ED DUP3 PUSH2 0x17A2 JUMP JUMPDEST PUSH1 0x0 DUP1 PUSH1 0x40 DUP4 DUP6 SUB SLT ISZERO PUSH2 0x18CC JUMPI PUSH1 0x0 DUP1 REVERT JUMPDEST PUSH2 0x18D5 DUP4 PUSH2 0x17A2 JUMP JUMPDEST SWAP2 POP PUSH1 0x20 DUP4 ADD CALLDATALOAD PUSH8 0xFFFFFFFFFFFFFFFF DUP2 GT ISZERO PUSH2 0x18F1 JUMPI PUSH1 0x0 DUP1 REVERT JUMPDEST DUP4 ADD PUSH1 0x1F DUP2 ADD DUP6 SGT PUSH2 0x1902 JUMPI PUSH1 0x0 DUP1 REVERT JUMPDEST PUSH2 0x1911 DUP6 DUP3 CALLDATALOAD PUSH1 0x20 DUP5 ADD PUSH2 0x1708 JUMP JUMPDEST SWAP2 POP POP SWAP3 POP SWAP3 SWAP1 POP JUMP JUMPDEST PUSH1 0x20 DUP1 DUP3 MSTORE DUP3 MLOAD DUP3 DUP3 ADD DUP2 SWAP1 MSTORE PUSH1 0x0 SWAP2 DUP5 ADD SWAP1 PUSH1 0x40 DUP5 ADD SWAP1 DUP4 JUMPDEST DUP2 DUP2 LT ISZERO PUSH2 0x195C JUMPI DUP4 MLOAD PUSH1 0x1 PUSH1 0x1 PUSH1 0xA0 SHL SUB AND DUP4 MSTORE PUSH1 0x20 SWAP4 DUP5 ADD SWAP4 SWAP1 SWAP3 ADD SWAP2 PUSH1 0x1 ADD PUSH2 0x1935 JUMP JUMPDEST POP SWAP1 SWAP6 SWAP5 POP POP POP POP POP JUMP JUMPDEST PUSH1 0x0 DUP1 PUSH1 0x40 DUP4 DUP6 SUB SLT ISZERO PUSH2 0x197A JUMPI PUSH1 0x0 DUP1 REVERT JUMPDEST PUSH2 0x1983 DUP4 PUSH2 0x17A2 JUMP JUMPDEST SWAP2 POP PUSH1 0x20 DUP4 ADD CALLDATALOAD DUP1 ISZERO ISZERO DUP2 EQ PUSH2 0x1998 JUMPI PUSH1 0x0 DUP1 REVERT JUMPDEST DUP1 SWAP2 POP POP SWAP3 POP SWAP3 SWAP1 POP JUMP JUMPDEST PUSH1 0x0 DUP1 PUSH1 0x40 DUP4 DUP6 SUB SLT ISZERO PUSH2 0x19B6 JUMPI PUSH1 0x0 DUP1 REVERT JUMPDEST PUSH2 0x19BF DUP4 PUSH2 0x17A2 JUMP JUMPDEST SWAP2 POP PUSH2 0x19CD PUSH1 0x20 DUP5 ADD PUSH2 0x17A2 JUMP JUMPDEST SWAP1 POP SWAP3 POP SWAP3 SWAP1 POP JUMP JUMPDEST PUSH1 0x1 DUP2 DUP2 SHR SWAP1 DUP3 AND DUP1 PUSH2 0x19EA JUMPI PUSH1 0x7F DUP3 AND SWAP2 POP JUMPDEST PUSH1 0x20 DUP3 LT DUP2 SUB PUSH2 0x1A0A JUMPI PUSH4 0x4E487B71 PUSH1 0xE0 SHL PUSH1 0x0 MSTORE PUSH1 0x22 PUSH1 0x4 MSTORE PUSH1 0x24 PUSH1 0x0 REVERT JUMPDEST POP SWAP2 SWAP1 POP JUMP JUMPDEST PUSH4 0x4E487B71 PUSH1 0xE0 SHL PUSH1 0x0 MSTORE PUSH1 0x32 PUSH1 0x4 MSTORE PUSH1 0x24 PUSH1 0x0 REVERT JUMPDEST PUSH4 0x4E487B71 PUSH1 0xE0 SHL PUSH1 0x0 MSTORE PUSH1 0x11 PUSH1 0x4 MSTORE PUSH1 0x24 PUSH1 0x0 REVERT JUMPDEST DUP2 DUP2 SUB DUP2 DUP2 GT ISZERO PUSH2 0x7C8 JUMPI PUSH2 0x7C8 PUSH2 0x1A26 JUMP JUMPDEST PUSH4 0x4E487B71 PUSH1 0xE0 SHL PUSH1 0x0 MSTORE PUSH1 0x31 PUSH1 0x4 MSTORE PUSH1 0x24 PUSH1 0x0 REVERT JUMPDEST PUSH1 0x0 PUSH1 0x20 DUP3 DUP5 SUB SLT ISZERO PUSH2 0x1A77 JUMPI PUSH1 0x0 DUP1 REVERT JUMPDEST POP MLOAD SWAP2 SWAP1 POP JUMP JUMPDEST PUSH1 0x1F DUP3 GT ISZERO PUSH2 0xE43 JUMPI DUP1 PUSH1 0x0 MSTORE PUSH1 0x20 PUSH1 0x0 KECCAK256 PUSH1 0x1F DUP5 ADD PUSH1 0x5 SHR DUP2 ADD PUSH1 0x20 DUP6 LT ISZERO PUSH2 0x1AA5 JUMPI POP DUP1 JUMPDEST PUSH1 0x1F DUP5 ADD PUSH1 0x5 SHR DUP3 ADD SWAP2 POP JUMPDEST DUP2 DUP2 LT ISZERO PUSH2 0x1381 JUMPI PUSH1 0x0 DUP2 SSTORE PUSH1 0x1 ADD PUSH2 0x1AB1 JUMP JUMPDEST DUP2 MLOAD PUSH8 0xFFFFFFFFFFFFFFFF DUP2 GT ISZERO PUSH2 0x1ADF JUMPI PUSH2 0x1ADF PUSH2 0x16F2 JUMP JUMPDEST PUSH2 0x1AF3 DUP2 PUSH2 0x1AED DUP5 SLOAD PUSH2 0x19D6 JUMP JUMPDEST DUP5 PUSH2 0x1A7E JUMP JUMPDEST PUSH1 0x20 PUSH1 0x1F DUP3 GT PUSH1 0x1 DUP2 EQ PUSH2 0x1B27 JUMPI PUSH1 0x0 DUP4 ISZERO PUSH2 0x1B0F JUMPI POP DUP5 DUP3 ADD MLOAD JUMPDEST PUSH1 0x0 NOT PUSH1 0x3 DUP6 SWAP1 SHL SHR NOT AND PUSH1 0x1 DUP5 SWAP1 SHL OR DUP5 SSTORE PUSH2 0x1381 JUMP JUMPDEST PUSH1 0x0 DUP5 DUP2 MSTORE PUSH1 0x20 DUP2 KECCAK256 PUSH1 0x1F NOT DUP6 AND SWAP2 JUMPDEST DUP3 DUP2 LT ISZERO PUSH2 0x1B57 JUMPI DUP8 DUP6 ADD MLOAD DUP3 SSTORE PUSH1 0x20 SWAP5 DUP6 ADD SWAP5 PUSH1 0x1 SWAP1 SWAP3 ADD SWAP2 ADD PUSH2 0x1B37 JUMP JUMPDEST POP DUP5 DUP3 LT ISZERO PUSH2 0x1B75 JUMPI DUP7 DUP5 ADD MLOAD PUSH1 0x0 NOT PUSH1 0x3 DUP8 SWAP1 SHL PUSH1 0xF8 AND SHR NOT AND DUP2 SSTORE JUMPDEST POP POP POP POP PUSH1 0x1 SWAP1 DUP2 SHL ADD SWAP1 SSTORE POP JUMP JUMPDEST DUP1 DUP3 ADD DUP1 DUP3 GT ISZERO PUSH2 0x7C8 JUMPI PUSH2 0x7C8 PUSH2 0x1A26 JUMP JUMPDEST PUSH1 0x0 DUP3 MLOAD PUSH2 0x1BA9 DUP2 DUP5 PUSH1 0x20 DUP8 ADD PUSH2 0x169B JUMP JUMPDEST SWAP2 SWAP1 SWAP2 ADD SWAP3 SWAP2 POP POP JUMP INVALID MSTORE 0xC6 ORIGIN SELFBALANCE 0xE1 DELEGATECALL PUSH30 0xB19D5CE0460030C497F067CA4CEBF71BA98EEADABE20BACE00360894A13B LOG1 LOG3 0x21 MOD PUSH8 0xC828492DB98DCA3E KECCAK256 PUSH23 0xCC3735A920A3CA505D382BBCA26469706673582212207F 0xAD DUP12 EXTCODECOPY SLOAD SHR PUSH18 0xDB964A0F18E4D429DF605DCB7CAE2E8F40F2 SLT 0xF6 SWAP9 0xAD 0xE9 PUSH8 0xBB64736F6C634300 ADDMOD SHR STOP CALLER "},"methodIdentifiers":{"MINT_COOLDOWN()":"f7ee7a43","UPGRADE_INTERFACE_VERSION()":"ad3cb1cc","allowance(address,address)":"dd62ed3e","approve(address,uint256)":"095ea7b3","balanceOf(address)":"70a08231","burn(address,uint256)":"9dc29fac","decimals()":"313ce567","getIsStudent(address)":"cefee7bc","getMinters()":"6b32810b","initialize(string,string,address)":"077f224a","isMinter(address)":"aa271e1a","isStudent(address)":"82f7d392","lastMintTime(address)":"6aa71d18","mint(address,uint256)":"40c10f19","mintToPool(address)":"5ea3f9d1","name()":"06fdde03","owner()":"8da5cb5b","proxiableUUID()":"52d1902d","removeMinter(address)":"3092afd5","renounceOwnership()":"715018a6","setMinter(address,bool)":"cf456ae7","setStudentStatus(address,bool)":"c95c2fc7","symbol()":"95d89b41","totalSupply()":"18160ddd","transfer(address,uint256)":"a9059cbb","transferFrom(address,address,uint256)":"23b872dd","transferOwnership(address)":"f2fde38b","upgradeToAndCall(address,bytes)":"4f1ef286"}},"storageLayout":{"storage":[{"astId":4528,"contract":"contracts/upgrades/YieldTokenV2.sol:YieldTokenV2","label":"lastMintTime","offset":0,"slot":"0","type":"t_mapping(t_address,t_uint256)"},{"astId":4532,"contract":"contracts/upgrades/YieldTokenV2.sol:YieldTokenV2","label":"isStudent","offset":0,"slot":"1","type":"t_mapping(t_address,t_bool)"},{"astId":4536,"contract":"contracts/upgrades/YieldTokenV2.sol:YieldTokenV2","label":"isMinter","offset":0,"slot":"2","type":"t_mapping(t_address,t_bool)"},{"astId":4539,"contract":"contracts/upgrades/YieldTokenV2.sol:YieldTokenV2","label":"minters","offset":0,"slot":"3","type":"t_array(t_address)dyn_storage"}],"types":{"t_address":{"encoding":"inplace","label":"address","numberOfBytes":"20"},"t_array(t_address)dyn_storage":{"base":"t_address","encoding":"dynamic_array","label":"address[]","numberOfBytes":"32"},"t_bool":{"encoding":"inplace","label":"bool","numberOfBytes":"1"},"t_mapping(t_address,t_bool)":{"encoding":"mapping","key":"t_address","label":"mapping(address => bool)","numberOfBytes":"32","value":"t_bool"},"t_mapping(t_address,t_uint256)":{"encoding":"mapping","key":"t_address","label":"mapping(address => uint256)","numberOfBytes":"32","value":"t_uint256"},"t_uint256":{"encoding":"inplace","label":"uint256","numberOfBytes":"32"}}}}}}